:100000000C946A060C947D190C9452190C942719BF
:100010000C94FC180C94D1180C94A6180C947B1812
:100020000C9450180C949B060C949B060C949B0605
:100030000C949B060C949B060C949B060C949B06BC
:100040000C949B060C949B060C949B060C949B06AC
:100050000C949B060C949B060C949B060C9406181F
:100060000C949B060C94D2190C94A8190C949B0622
:100070000C949B060C949B060C949B060C949B067C
:100080000C949B060C949B060C949B060C949B066C
:100090000C949B060C949B060C949B060C94081ADB
:1000A0000C949B060C949B060C949B060C949B064C
:1000B0000C949B060C949B060C949B060C949B063C
:1000C0000C949B060C949B060C949B060C949B062C
:1000D0000C949B060C949B060C949B060C949B061C
:1000E0000C949B060C948F090C94C4170C949B07DA
:1000F0000C949F080C94E8080C9419080C9466164C
:100100000C944E0F0C94D3060C941A070C94400BCD
:100110000C9404070C94870B0C9493070C94CE0753
:100120000C94F1060C94E5060C94ED060C94FB0778
:100130000C949C120C949D060C94AD0F0C942C1BEB
:100140000C940A090C947C0E0C9408070C942D084E
:100150000C9424070C94FA060C9495080C94421005
:100160000C94F9100C94C6070C94F2120C94A0078E
:100170000C94EC070C9425100C94AC080C94BC1651
:100180000C9423080C9442090C94E2070C94AA07DF
:100190000C94FE060C94D8070C94CE060C9412070F
:1001A0000C94AA080C94F4060C94420C0C940911BB
:1001B0000C940C070C94BE120C94A9080C94BE0766
:1001C0000C940F080C9420070C94FC080C948911D3
:1001D0000C94D9080C9405080C9415110C9416076E
:1001E0000C94AB120C94B4070C94F70A0C94E90627
:1001F0000C94AB080C94B0210C9421110C94C512F2
:100200000C94351200000000003E5B4F5B3E3E6BDD
:100210004F6B3E1C3E7C3E1C183C7E3C181C577DA0
:10022000571C1C5E7F5E1C00183C1800FFE7C3E7EC
:10023000FF0018241800FFE7DBE7FF30483A060EFE
:100240002629792926407F050507407F05253F5A45
:100250003CE73C5A7F3E1C1C08081C1C3E7F1422B5
:100260007F22145F5F005F5F06097F017F00668960
:10027000956A606060606094A2FFA29408047E04A6
:100280000810207E201008082A1C08081C2A0808CC
:100290001E101010100C1E0C1E0C30383E3830068C
:1002A0000E3E0E06000000000000005F0000000788
:1002B000000700147F147F14242A7F2A12231308B6
:1002C000646236495620500008070300001C224192
:1002D000000041221C002A1C7F1C2A08083E080836
:1002E00000807030000808080808000060600020E6
:1002F000100804023E5149453E00427F40007249C9
:100300004949462141494D331814127F102745456C
:1003100045393C4A49493141211109073649494982
:1003200036464949291E00001400000040340000F0
:100330000008142241141414141400412214080259
:10034000015909063E415D594E7C1211127C7F49CC
:100350004949363E414141227F4141413E7F494921
:1003600049417F090909013E414151737F0808084D
:100370007F00417F41002040413F017F081422411E
:100380007F404040407F021C027F7F0408107F3E78
:100390004141413E7F090909063E4151215E7F09E5
:1003A000192946264949493203017F01033F40404C
:1003B000403F1F2040201F3F4038403F6314081437
:1003C0006303047804036159494D43007F4141416F
:1003D0000204081020004141417F04020102044050
:1003E00040404040000307080020545478407F28D4
:1003F0004444383844444428384444287F385454CA
:10040000541800087E090218A4A49C787F080404EC
:100410007800447D40002040403D007F102844008B
:1004200000417F40007C047804787C08040478381C
:1004300044444438FC1824241818242418FC7C084C
:10044000040408485454542404043F44243C4040C9
:10045000207C1C2040201C3C4030403C442810287C
:10046000444C9090907C4464544C440008364100C5
:100470000000770000004136080002010204023C3F
:100480002623263C1EA1A161123A4040207A38540E
:100490005455592155557941225454784221555487
:1004A000784020545579400C1E52721239555555DA
:1004B00059395454545939555454580000457C41C5
:1004C0000002457D420001457C407D1211127DF005
:1004D000282528F07C545545002054547C547C0A2F
:1004E000097F4932494949323A4444443A324A48F8
:1004F00048303A4141217A3A42402078009DA0A0FC
:100500007D3D4242423D3D4040403D3C24FF24244D
:10051000487E4943662B2FFC2F2BFF0929F620C06C
:10052000887E090320545479410000447D413048BD
:10053000484A32384040227A007A0A0A727D0D1900
:10054000317D2629292F28262929292630484D4062
:1005500020380808080808080808382F10C8ACBA5E
:100560002F102834FA00007B000008142A142222DD
:10057000142A14085500550055AA55AA55AAFF5526
:10058000FF55FF000000FF00101010FF00141414AE
:10059000FF001010FF00FF1010F010F0141414FCF6
:1005A000001414F700FF0000FF00FF1414F404FC13
:1005B000141417101F10101F101F1414141F0010F4
:1005C0001010F0000000001F101010101F1010106D
:1005D00010F010000000FF1010101010101010107C
:1005E000FF10000000FF140000FF00FF00001F10BC
:1005F000170000FC04F414141710171414F404F476
:100600000000FF00F714141414141414F700F71466
:100610001414171410101F101F141414F4141010B5
:10062000F010F000001F101F0000001F1400000059
:10063000FC140000F010F01010FF10FF141414FF51
:10064000141010101F00000000F010FFFFFFFFFF4C
:10065000F0F0F0F0F0FFFFFF0000000000FFFF0FE0
:100660000F0F0F0F3844443844FC4A4A4A347E0284
:10067000020606027E027E02635549416338444405
:100680003C04407E201E2006027E020299A5E7A5BA
:10069000991C2A492A1C4C7201724C304A4D4D302B
:1006A0003048784830BC625A463D3E494949007E50
:1006B0000101017E2A2A2A2A2A44445F44444051E7
:1006C0004A444040444A51400000FF0103E080FF9B
:1006D000000008086B6B083612362436060F090F27
:1006E00006000018180000001010003040FF010143
:1006F000001F01011E00191D1712003C3C3C3C006C
:1007000000000000000103070F1F3F7F0080C0E0D2
:10071000F0F8FCFEDB40A4A62EAF2000A1C8D30059
:10072000408DAED580A800006000000000000000F1
:1007300000000000000000E00000000000000000D9
:10074000000000000001E0000000000000000000C8
:100750000000000001F000000000000000000000A8
:1007600000000003F0000000000000000000000096
:10077000000007F000000000000000000000000082
:100780000007F8000000000000000000000000006A
:100790000FF800000003C0007E000001E0007F0FA2
:1007A000F800000003C000FE000001E000FFEFF8C9
:1007B00000000003C000FE000001E000FFFFF800A1
:1007C000000003C000F00000000F007FFE7FC000AB
:1007D0000003C000F00000000F003FFE7FF83FF173
:1007E000FBCFFCFEF3BC3DEFE01FFE7FFF7FFBFF76
:1007F000DFFEFEFFBC3DEFE01FC6FFFF7FFBFFDF1C
:10080000FEFEFFBC3DEFE00FE3C7FE787BC3DE1EBC
:10081000F0FFBC3DEF0007FF87FC787BC3DE1EF0D6
:10082000F83C3DEF0001FFFFF0007BC3C01EF0F07D
:100830003C3DEF0001F37FE03FFBC3CFFEF0F03C17
:100840003DEF0003E33F807FFBC3DFFEF0F03C3D64
:10085000EF0007E73C00787BC3DE1EF0F03C3DEF85
:100860000007FFBE00787BC3DE1EF0F03C3DEF00CA
:1008700007FFFE00787BC3DE1EF0F03C3DEF000F6B
:10088000FFFE007FFBFFDFFEF0F03FFDEFE00FFF1C
:10089000FF007FFBFFDFFEF0F03FFDEFE00FF9FF11
:1008A000003E79F9CF9EF0F01F3DE7E01FF1FF0019
:1008B00000000000000000000000001F80FF007F1B
:1008C000FFFFFFFFFFFFFFFFFFE01C007F007FFF38
:1008D000FFFFFEB46D888D18E000001F007FFFFF52
:1008E000FFFE95AD7DB577E000000F007FFFFFFFB5
:1008F000FEA5AD9D8D19E0000006007FFFFFFFFE05
:10090000B5ADEDB57EE00000000000018000000004
:100910000000000000000380000000000000000054
:100920000007C000000000000000000007C0000039
:10093000000000000000000FC000000000000000E8
:1009400000001FE00000000000000000001FE000A9
:1009500000000000000000003FE000000000000078
:100960000000003FF00000000000000000007FF0E9
:10097000000000000000001FF87FF00000000000F1
:1009800000003FFE7FF0000000000000003FFF7FFE
:10099000F0000000000000001FFFFBE0000000006E
:1009A0000000000FFFF9FFC00000000000000FFF73
:1009B000F9FFF800000000000007FFF1FFFF000052
:1009C0000000000003FC73FFFF8000000000000136
:1009D000FE3FFFFF80000000000000FF1E0FFF0031
:1009E0000000000000007FFE1FFC0000000000006F
:1009F000003FFFFFF8000000000000000FDFFFE0F5
:100A0000000000000000001F19FFC00000000000EF
:100A100000003F3CFF00000000000000007E7CF86A
:100A200000000000000000007FFE7C0000000000CD
:100A3000000000FFFFFC0000000000000000FFFFBE
:100A4000FE0000000000000000FFFFFE00000000AC
:100A500000000001FFEFFE0000000000000001FFA9
:100A6000CFFE0000000000000003FF07FE000000B2
:100A70000000000003FC07FE00000000000000036F
:100A8000F003FE00000000000000018000FE0000F6
:100A900000000000000000007E00000000000000D8
:100AA0000000003E000000000000000000000C00FC
:100AB0000000000000078000FC000003C0000000F0
:100AC000078001FC000003C0000000078001FC005B
:100AD0000003C0000000078001E00000001E0000CD
:100AE00000078001E00000001E007FE3F79FF9FD92
:100AF000E7787BDFC0FFF7FFBFFDFDFF787BDFC03E
:100B0000FFF7FFBFFDFDFF787BDFC0F0F787BC3D3F
:100B1000E1FF787BDE00F0F787BC3DE1F0787BDE1B
:100B20000000F787803DE1E0787BDE007FF7879F5C
:100B3000FDE1E0787BDE00FFF787BFFDE1E0787B39
:100B4000DE00F0F787BC3DE1E0787BDE00F0F78760
:100B5000BC3DE1E0787BDE00F0F787BC3DE1E0786A
:100B60007BDE00FFF7FFBFFDE1E07FFBDFC0FFF7AB
:100B7000FFBFFDE1E07FFBDFC07CF3F39F3DE1E0E1
:100B80003E7BCFC00000000000000000000000FF1E
:100B9000FFFFFFFFFFFFFFFFFFC0FFFFFFFFFD683D
:100BA000DB111A31C0FFFFFFFFFD2B5AFB6AEFC0BC
:100BB000FFFFFFFFFD4B5B3B1A33C0FFFFFFFFFD55
:100BC0006B5BDB6AFDC000002100240027002A00C7
:100BD0002D003000330001010000040107010A016B
:100BE00000002200250028002B002E0031003400D8
:100BF00002010000050108010B01050505050705B7
:100C000008080808020202020A0A08080404040488
:100C100001010101010101010303030303030303B4
:100C2000040707070C0C0C0C0C0C0C0C0202020243
:100C300006060606060606060B0B0B0B0B0B0B0B2C
:100C400001021020200808102040102040800201DE
:100C500002010804020101020408102040808040C3
:100C600020100804020180040201804020100804C2
:100C70000201080402010102040810204080010260
:100C800004081020408000000A0B02090C0D0E0819
:100C90000703040100000000000000000000000045
:100CA0000000000000000000000000000000000044
:100CB0000000121110000000000000000000000001
:100CC0000000000000000000000000002200FF21E2
:100CD0002C1BB02111241FBECFEFD1E2DEBFCDBF50
:100CE00000E00CBF12E0A0E0B2E0E0E2FBE400E0D4
:100CF0000BBF02C007900D92AE38B107D9F724E0C0
:100D0000AEE8B2E001C01D92A03DB207E1F716E0E7
:100D1000C9E6D6E000E006C021970109802FFE0158
:100D20000E943124C836D10780E00807A9F70E9445
:100D30005B1C0C947E250C9400000895282F30E055
:100D4000F901EA57F34F9491F901E05CF34F4491B4
:100D50002650344FF9012491222309F435C09923F8
:100D600011F191509231F8F4E92FF0E08827E45422
:100D7000F94F8F4F0C943124ED06F106CE06E506AF
:100D8000E906D306F406FA06FE06040708070C0770
:100D900012071607D3061A07200724078091800040
:100DA0008F7780938000E22FF0E0EE0FFF1FE0527C
:100DB000F44FA591B4918FB7F894EC91611148C0AC
:100DC00040954E234C938FBF0895809180008F7D76
:100DD000E8CF80918000877FE4CF84B58F7784BD92
:100DE000E2CF84B58F7DFBCF8091B0008F77809369
:100DF000B000D9CF8091B0008F7DF9CF8091900065
:100E00008F7780939000CFCF809190008F7DF9CF26
:100E100080919000877FF5CF8091A0008F7780939D
:100E2000A000C1CF8091A0008F7DF9CF8091A0005C
:100E3000877FF5CF809120018F7780932001B3CFFA
:100E4000809120018F7DF9CF80912001877FF5CFA0
:100E50004E2BB8CFCF93DF9390E0FC01E05CF34FD3
:100E600024918650944FFC0184918823D1F090E026
:100E7000880F991FFC01EA53F44FA591B491FC012E
:100E8000E052F44FC591D491623071F49FB7F89459
:100E90003C91822F809583238C93E8812E2B28838D
:100EA0009FBFDF91CF9108958FB7F894EC912E2BCF
:100EB0002C938FBFF6CF1F93CF93DF93182FEB01A7
:100EC00061E00E942A07209739F460E0812FDF91CA
:100ED000CF911F910C949E06CF3FD10511F461E094
:100EE000F5CFE12FF0E0EA57F34FE491E150E23122
:100EF00008F0B3C0F0E08827EF57F84F8F4F0C94FD
:100F0000312493079B07A007AA07B4072D08BE0743
:100F1000C607CE07D807E207EC07FB0705082D0830
:100F20000F081908230884B5806884BDC7BDDF9108
:100F3000CF911F91089584B5806284BDC8BDF7CF5D
:100F400080918000806880938000D0938900C09356
:100F50008800EDCF80918000806280938000D093E4
:100F60008B00C0938A00E3CF8091800088608093DB
:100F70008000D0938D00C0938C00D9CF8091B000B9
:100F800080688093B000C093B300D1CF8091B0004F
:100F900080628093B000C093B400C9CF809190006C
:100FA000806880939000D0939900C0939800BFCF41
:100FB00080919000806280939000D0939B00C093BA
:100FC0009A00B5CF80919000886080939000D09374
:100FD0009D00C0939C00ABCF8091A000806880935F
:100FE000A0008091A0008F7B8093A000D093A900E7
:100FF000C093A8009CCF8091A00080628093A00045
:10100000D093AB00C093AA0092CF8091A0008860DB
:101010008093A000D093AD00C093AC0088CF8091A6
:101020002001806880932001D0932901C09328017A
:101030007ECF80912001806280932001D0932B018C
:10104000C0932A0174CF8091200188608093200191
:10105000D0932D01C0932C016ACFC038D1050CF07C
:101060003ECF33CF3FB7F89480915503909156030C
:10107000A0915703B091580326B5A89B05C02F3FF8
:1010800019F00196A11DB11D3FBFBA2FA92F982FAE
:101090008827BC01CD01620F711D811D911D42E0A9
:1010A000660F771F881F991F4A95D1F708958F9271
:1010B0009F92AF92BF92CF92DF92EF92FF924B013D
:1010C0005C010E9432086B017C010E9432086C199D
:1010D0007D098E099F09683E734081059105A8F33B
:1010E00021E0821A9108A108B10888EEC80E83E0B9
:1010F000D81EE11CF11C81149104A104B10429F74C
:10110000FF90EF90DF90CF90BF90AF909F908F9027
:1011100008952FB7F8946091510370915203809114
:101120005303909154032FBF089580914E039091E3
:101130004F03019690934F0380934E03089580913F
:101140004C0390914D03019690934D0380934C0373
:101150000895089508950895AF92BF92CF92DF92B7
:10116000EF92FF920F931F93CF93DF936C017B015C
:101170008B01040F151FEB015E01AE18BF08C017ED
:10118000D10759F06991D601ED91FC910190F08160
:10119000E02DC6011995892B79F7C501DF91CF9113
:1011A0001F910F91FF90EF90DF90CF90BF90AF9085
:1011B0000895FC01538D448D252F30E0842F90E05D
:1011C000821B930B541710F0CF9608950197089542
:1011D000FC01918D828D981761F0A28DAE0FBF2F0B
:1011E000B11D5D968C91928D9F5F9F73928F90E061
:1011F00008958FEF9FEF0895FC01918D828D9817D0
:1012000031F0828DE80FF11D858D90E008958FEF0C
:101210009FEF0895FC01918D228D892F90E0805CD5
:101220009F4F821B91098F73992708958FE593E053
:101230000E940A0921E0892B09F420E0822F0895F9
:10124000FC01A48DA80FB92FB11DA35ABF4F2C913B
:10125000848D90E001968F739927848FA689B78932
:101260002C93A089B1898C91837080648C93938D29
:10127000848D981306C00288F389E02D80818F7DCC
:1012800080830895EF92FF920F931F93CF93DF9384
:10129000EC0181E0888F9B8D8C8D98131AC0E889B2
:1012A000F989808185FF15C09FB7F894EE89FF8981
:1012B0006083E889F98980818370806480839FBF1F
:1012C00081E090E0DF91CF911F910F91FF90EF901F
:1012D0000895F62E0B8D10E00F5F1F4F0F7311272F
:1012E000E02E8C8D8E110CC00FB607FCFACFE8896A
:1012F000F989808185FFF5CFCE010E942009F1CFC9
:10130000EB8DEC0FFD2FF11DE35AFF4FF0829FB7DD
:10131000F8940B8FEA89FB8980818062CFCFCF93CD
:10132000DF93EC01888D8823B9F0AA89BB89E8890D
:10133000F9898C9185FD03C0808186FD0DC00FB6B3
:1013400007FCF7CF8C9185FFF2CF808185FFEDCF31
:10135000CE010E942009E9CFDF91CF91089580E06E
:1013600090E0892B29F00E94160981110E9400004B
:1013700080E090E0892B49F080E090E0892B29F013
:101380000E94000081110E94000080E090E0892B03
:1013900049F080E090E0892B29F00E940000811143
:1013A0000E94000080E090E0892B49F080E090E00E
:1013B000892B29F00E94000081110C9400000895EF
:1013C000EF92FF920F931F93CF93DF93EC01EC808A
:1013D000FD806E157F050CF070C057FF04C0240F10
:1013E000351F50E040E08E819F81FA01E20FF31F2C
:1013F0008E179F071CF49C01241B350B1216130635
:101400000CF05BC0922F842F8695869586958E9DD5
:10141000D0018F9DB00D11246A0F7B1FAF8DB8A135
:10142000A60FB71F477049F188E0841B482F682F2B
:1014300070E0FB01E45FF84FE491281708F063C007
:10144000621B71092FEF30E002C0359527956A9530
:10145000E2F7E2230130110539F0B0F10230110555
:1014600061F58C91E82702C08C91E82BEC939417DE
:1014700020F12C813D81A20FB31FE92FE41BE8303E
:1014800078F00230110521F58E2F9C9190959C9358
:101490002C813D81A20FB31F88508830B0F7E770D0
:1014A000EE2359F0F0E0EC5FF84FE49101301105C4
:1014B000F9F010F10230110519F1DF91CF911F9170
:1014C0000F91FF90EF900895E0958C91E823CECF97
:1014D00081E00115110509F480E081959E2F8C9320
:1014E0002C813D81A20FB31F98509830C0F7D7CF01
:1014F0008C91E82BEC93E1CFE0958C91E823FACF27
:101500008C91E827F7CF0130110509F4ADCFE0F257
:101510000230110509F4A5CFAE0DBF1DAECF0F935C
:101520001F93CF93DF9377FF04C0260F371F70E020
:1015300060E0DC011496CD91DC91FB01E20FF31F1A
:10154000CE17DF071CF49E01261B370B121613065D
:101550004CF5FA0157FD3796A3E0F595E795AA9566
:10156000E1F7EC9FD001ED9FB00DFC9FB00D112471
:101570006A0F7B1FDC015F96ED91FC91E60FF71F70
:101580004770552781E090E001C0880F4A95EAF73F
:10159000482F0130110559F0A8F02E0F3F1F0230DF
:1015A0001105E1F0DF91CF911F910F9108952E0F5A
:1015B0003F1FE217F307B1F38191DF011197842BED
:1015C0008C93F7CF80952E0F3F1FE217F30751F34F
:1015D0009191DF01119798239C93F7CFE217F307BE
:1015E00009F38191DF01119784278C93F7CF0F9333
:1015F0001F93FA01DC0156964C9156974230E9F060
:101600004330A1F1413061F514964D915C91DA01BE
:10161000AE1BBF0BFD01E21BF30B77FD0BC0DC0122
:1016200016964D915C916417750724F4AB01BF01C8
:101630000E948F0A1F910F91089514964D915C910D
:10164000DA01A61BB70BBD0161507109DC011696CA
:101650004D915C91DA01AE1BBF0BFD01E21BF30B58
:1016600077FDE8CFAF010E94E009E4CF16964D91D7
:101670005C91DA01A61BB70BBD0161507109CDCF9A
:101680000F931F93FA01DC0156964C915697423006
:10169000A9F0433091F1413019F514964D915C91C8
:1016A000DA01AE1BBF0BFD013197F7FD04C0AB01A2
:1016B000BF010E94E0091F910F91089514964D916A
:1016C0005C91DA01A61BB70BBD01DC0116964D91AA
:1016D0005C91DA01AE1BBF0BFD013197621B730BEE
:1016E000F7FDE9CFDC0116964D915C91E417F50703
:1016F00014F7AF010E948F0ADECF16964D915C91D0
:10170000DA01A61BB70BBD01621B730BCECFFC0128
:1017100077FD64C080859185681779070CF05EC0FD
:1017200057FD5CC082859385481759070CF056C059
:1017300086898230B1F0833029F1813041F484818F
:101740009581841B950BAB01BC016150710921305F
:10175000310509F108F443C02230310509F463C0B2
:10176000089584819581DC01A61BB70BBD016150F2
:10177000710986819781DC01A41BB50BAD01415035
:101780005109E5CF86819781861B970BBA01AC0181
:1017900041505109DCCFCA0157FD0796A3E095954A
:1017A0008795AA95E1F7A481B5818A9F90018B9FC7
:1017B000300D9A9F300D1124620F731F078CF0A11A
:1017C000E02DE60FF71F4770552721E030E001C0FC
:1017D000220F4A95EAF78081822B80830895CA01FF
:1017E00057FD079633E0959587953A95E1F7A481E3
:1017F000B5818A9F90018B9F300D9A9F300D1124E7
:10180000620F731F078CF0A1E02DE60FF71F4770E2
:10181000552781E090E001C0880F4A95EAF780954E
:1018200090818923DACFCA0157FD079623E0959569
:1018300087952A95E1F7A481B5818A9F90018B9FB6
:10184000300D9A9F300D1124620F731F078CF0A189
:10185000E02DE60FF71F4770552721E030E001C06B
:10186000220F4A95EAF780818227B7CF08958EBD6F
:1018700000000DB407FEFDCF8EB508958CBD9DBD53
:1018800008950895FC016370668B8481958126819B
:101890003781613039F0633029F091878087338751
:1018A00022870895318720879387828708952F9212
:1018B0003F924F925F926F927F928F929F92AF92E0
:1018C000BF92CF92DF92EF92FF920F931F93CF932D
:1018D000DF93CDB7DEB76A970FB6F894DEBF0FBEC1
:1018E000CDBF9A8F898F7A8369834A01D22E188758
:1018F0000F833701BC2CDC0159962D913C915A97EE
:101900002115310509F015C118968D919C911997F3
:10191000681779070CF0D7C11A968D919C914817DA
:1019200059070CF0D0C14C2C512CB6E0CB9E600D69
:10193000711D11247C876B87161617060CF0C3C126
:10194000EA2DF0E0FA87E98793E0EE0FFF1F9A9502
:10195000E1F7F88BEF87CF01840F951F1816190652
:101960000CF0B1C1A98DBA8D58968C91811104C02B
:10197000BFEABD1508F4D394A98DBA8DED91FC9101
:1019800011970284F385E02DCD011995B5E0DB9E1A
:10199000C0011124E981FA81FC83EB83312C212CD5
:1019A0009C012C5F3D4F388F2F8B4A2D50E05E8B72
:1019B0004D8BEF89F88DE20DF31D44919E828D824F
:1019C000D12CC12C69817A81620D731D7A8B698B50
:1019D000842F90E09C8B8B8BE98DFA8DA081B18157
:1019E00040FF82C0F1E0BF126FC0AF126DC01C9605
:1019F000ED91FC912F813885A4014C0D5D1D698905
:101A00007A89898D9A8D1995EB89FC89F595E795E9
:101A10004E2F5FEFC51AD50A6D817E818D899E8913
:101A2000680F791F7E836D8398E0C916D10481F613
:101A3000AFEF2A1A3A0AEB81FC81E40DF51DFC8315
:101A4000EB83F5E02F16310409F0B3CF2F813885F1
:101A500026153705B9F0A98DBA8DED91FC91B1E04D
:101A6000BB1257C0AB1255C069817A816B5F7F4F43
:101A70000088F189E02D830128E030E0A401898D00
:101A80009A8D1995A98DBA8DED91FC9111970688C3
:101A9000F789E02DCD016A960FB6F894DEBF0FBE30
:101AA000CDBFDF91CF911F910F91FF90EF90DF900D
:101AB000CF90BF90AF909F908F907F906F905F90EE
:101AC0004F903F902F9019941E96ED91FC91EF80CE
:101AD000F88409851A8592014D815E816B817C8134
:101AE000898D9A8D199590CF2F81388526153705C8
:101AF00009F48ACF31E0B31207C0A31205C01C96C7
:101B0000ED91FC91930178CF1E96ED91FC917301BC
:101B1000E0CF6B857C85641975090684F785E02D17
:101B200073010F8518899201A401898D9A8D1995E9
:101B3000A9CFF90134969491329745915491D91ACD
:101B4000B7E0DB9E400D511D1124F9012591349120
:101B50003C8B2B8BFA0125903490FA0132967490CD
:101B600031963491398B329664903196449041E0AD
:101B70004C1518F04A1508F07FC0662D062C000C95
:101B8000770B7C836B83842D042C000C990B9E8334
:101B90008D83A98DBA8DED91FC9111970284F38507
:101BA000E02DCD011995512CD12CC12CEA2DF0E05E
:101BB000FA87E9872B2D30E03C872B87A401440D61
:101BC000511D47FC5A95588F4F8B69817A81660D5C
:101BD000711D67FC7A957E876D877989C71608F035
:101BE00051CF2C2D30E04D815E81420F531FA985CE
:101BF000BA854A9FC0014B9F900D5A9F900D1124AA
:101C0000FC01E80DF91DF88BEF87852D612C4F89BC
:101C1000588D420F531F5E8B4D8B671408F050C0D8
:101C200044244394480E877041F4C1010196EB8926
:101C3000FC89E20DF31DD4901C01D7FE19C0A98DBB
:101C4000BA8DED91FC91662D70E0B1E0BB1219C028
:101C5000AB1217C02D853E85620F731F0484F58576
:101C6000E02D2F8138854D895E89898D9A8D199552
:101C7000DD0C6394842DD1CF1E821D821C821B82B9
:101C800088CF4B815C81640F751FAB85BC856A9FD3
:101C9000C0016B9F900D7A9F900D112469817A810C
:101CA000680F791F0684F785E02DEF80F884098599
:101CB0001A859D014F855889898D9A8D1995D8CFA0
:101CC000570CC3948ACF6A960FB6F894DEBF0FBE46
:101CD000CDBFDF91CF911F910F91FF90EF90DF90DB
:101CE000CF90BF90AF909F908F907F906F905F90BC
:101CF0004F903F902F9008958F929F92AF92CF92E6
:101D0000EF92FF920F931F93CF93DF93EC01262F57
:101D1000898D9A8D009709F051C06A30D1F41D86E3
:101D20001C868D8948E0849F900111248E859F85B3
:101D3000820F931F9F878E8781E090E0DF91CF9184
:101D40001F910F91FF90EF90CF90AF909F908F9049
:101D500008956D3089F3CC88AD888F898823C1F0D0
:101D60008C859D8536E0C39E800D911D112448858C
:101D700059854817590764F44E855F851D861C8672
:101D800038E0A39EC0011124840F951F9F878E8782
:101D9000EA88FB88088919894E855F856C857D8571
:101DA000CE010E94570C2C898C859D8546E0249F8E
:101DB000800D911D11249D878C87BECF6A3069F4F8
:101DC0001D861C86FC013896E4912D898E859F85A1
:101DD000E29F800D911D1124ADCF6D3009F4ACCF81
:101DE000FC0134963491631708F4A6CF3296E4913F
:101DF000E61708F4A1CFFC01329685909490462F07
:101E0000431B342F47E0349F800C911C1124F401B4
:101E1000329634913196E4913323A9F1EE2399F16E
:101E2000CC88F4013596E491AD884F89442301F1C3
:101E30000E2E000CFF0BE30FF11DCE9EA001CF9ED6
:101E4000500D11246C857D85460F571F6885798557
:101E5000641775076CF44E855F851D861C86FC0132
:101E60003896E491AE9E400D511D11245F874E8738
:101E7000EA88FB88088919894E855F856C857D8590
:101E8000CE010E94570CF4013496E4912C898C8584
:101E90009D85E29F800D911D11248DCF6F927F92C1
:101EA0008F929F92AF92BF92CF92DF92EF92FF926A
:101EB0000F931F93CF93DF93EC016B015A0139010C
:101EC0004801E881F9810284F385E02D1995E881C4
:101ED000F9810288F389E02D87019301A501B601FC
:101EE000CE011995A501480D591D41505109E881B0
:101EF000F9810288F389E02D9301B601CE0119958D
:101F0000E881F9810088F189E02D9401A501B601ED
:101F1000CE011995C60CD71CB60161507109E88134
:101F2000F9810088F189E02D9401A501CE01199570
:101F3000E881F9810688F789E02DCE01DF91CF9104
:101F40001F910F91FF90EF90DF90CF90BF90AF90D7
:101F50009F908F907F906F9019946F927F928F9245
:101F60009F92AF92BF92CF92DF92EF92FF920F9328
:101F70001F93CF93DF935C01EB016A0149013801A4
:101F80008701DC01ED91FC916217730719F5641666
:101F900075062CF0962D872D3A01C92ED82E960164
:101FA000261937092F5F3F4F048CF58DE02DA301D3
:101FB000BE01C5011995DF91CF911F910F91FF903F
:101FC000EF90DF90CF90BF90AF909F908F907F90D9
:101FD0006F9008954615570591F42617370724F09A
:101FE000892D4B01C22FD82F9E01281939092F5F47
:101FF0003F4F068CF78DE02DA601B401DACF0284A5
:10200000F385E02D1995D501ED91FC910488F589B2
:10201000E02D83019401A601BE01C5011995D501EA
:10202000ED91FC910688F789E02DC501DF91CF91F4
:102030001F910F91FF90EF90DF90CF90BF90AF90E6
:102040009F908F907F906F901994EF92FF920F93D3
:102050001F93DC011A960D911C911B9718962D91D8
:102060003C911997ED91FC9100A0F1A1E02D7B012D
:1020700050E040E070E060E019951F910F91FF90F3
:10208000EF9008954F925F926F927F928F929F92FE
:10209000AF92BF92CF92DF92EF92FF920F931F9376
:1020A000CF93DF936C012B015A0139014801DC0108
:1020B000ED91FC910284F385E02D1995E201640C09
:1020C000751CD601ED91FC91C615D7055CF400880E
:1020D000F189E02D87019401A501BE01C601199582
:1020E0002196EFCF0688F789E02DC601DF91CF91C9
:1020F0001F910F91FF90EF90DF90CF90BF90AF9026
:102100009F908F907F906F905F904F9019948F92D7
:102110009F92AF92BF92CF92DF92EF92FF920F9376
:102120001F93CF93DF93EC015B014A016901E881C2
:10213000F9810284F385E02D199595012C0D3D1D43
:1021400021503109E881F9810488F589E02D780171
:102150008401A401B501CE011995E881F9810688B1
:10216000F789E02DCE01DF91CF911F910F91FF9064
:10217000EF90DF90CF90BF90AF909F908F90199489
:102180008F929F92AF92BF92CF92DF92EF92FF9287
:102190000F931F93CF93DF93EC015B014A01690119
:1021A0007801E881F9810284F385E02D1995C80C46
:1021B000D91C860101501109E881F9810488F5894B
:1021C000E02D9501A401B501CE011995E881F981B1
:1021D0000688F789E02DCE01DF91CF911F910F91F5
:1021E000FF90EF90DF90CF90BF90AF909F908F9037
:1021F0001994EF92FF920F931F93DC01ED91FC91E4
:1022000000A0F1A1E02D19951F910F91FF90EF9083
:1022100008950F931F93DC01ED91FC91068CF78DCF
:10222000E02D19951F910F9108950F931F93DC01D5
:10223000ED91FC91048CF58DE02D19951F910F9176
:102240000895DC01ED91FC910084F185E02D199455
:102250003F924F925F926F927F928F929F92AF9236
:10226000BF92CF92DF92EF92FF920F931F93CF9383
:10227000DF935C017B014A016901390187E0680E47
:10228000711C93E0759467949A95E1F72B01400EC9
:10229000511E10E000E0312CD0E0C0E0CE0187708C
:1022A0009927330C892B59F4FE0183E0F595E795C6
:1022B0008A95E1F7E00FF11FE80DF91D349037FE24
:1022C0000AC021E030E0A701B5016C0F7D1F8CE84A
:1022D00094E00E9421112196CC16DD06F9F68FEFCD
:1022E000E81AF80A060D171DE414F504A9F6DF91A3
:1022F000CF911F910F91FF90EF90DF90CF90BF9003
:10230000AF909F908F907F906F905F904F903F9095
:1023100008952F923F924F925F926F927F928F9289
:102320009F92AF92BF92CF92DF92EF92FF920F9364
:102330001F93CF93DF9300D000D0CDB7DEB73C0121
:102340006A013E832D83FC82EB825801A41AB50AF0
:10235000B7FE03C0B194A194B1088D809E80861A07
:10236000970A97FE03C09194819491088A149B0464
:102370005CF0902F812F0D811E819D838E839C2D7B
:102380008D2D6B01692F782F0C151D055CF09D813B
:102390008E817E836D83692F782F902F812F860108
:1023A000C92ED82E1601201A310A2B012D813E810B
:1023B000421A530A57FE03C05194419451087101C7
:1023C00037FE03C03FEFE31AF30AF594E7948D81DB
:1023D0009E81861797075CF5A1E0B0E0BA83A983D8
:1023E000C016D1064CF1D301ED91FC910484F58522
:1023F000E02D2B813C81A8016D817E818A149B0494
:102400001CF04D815E81B801C3011995E418F508EF
:10241000F7FE0AC02D813E8189819A81280F391FDC
:102420003E832D83E20CF31C0F5F1F4FD9CF2FEF9C
:102430003FEF3A832983D4CF26960FB6F894DEBFB8
:102440000FBECDBFDF91CF911F910F91FF90EF9005
:10245000DF90CF90BF90AF909F908F907F906F90C4
:102460005F904F903F902F90089508952091F4022F
:10247000260F3327331F21323105ECF42091180346
:10248000FC0190E080E0243069F082E00895A091A2
:10249000F4022191AC014C525D4FA40FB52FB11D38
:1024A0002C930196861798F38091F402680F60933D
:1024B000F40280E0089581E008951092180381E00D
:1024C00080931A031092190361E084E10E949E0632
:1024D00061E085E10E949E06E9EBF0E080818E7F5D
:1024E000808380818D7F808388E48093B80085E439
:1024F0008093BC000895CF93DF9391E09093D30233
:102500008823B9F0C091B800D091BA008091BC0086
:102510008A7B8093BC0060E084E10E949E0660E0BC
:1025200085E10E949E060E945D12D093BA00C0937E
:10253000B800DF91CF910895E09144038091430367
:10254000E81730F4F0E0E255FD4F808190E0089507
:102550008FEF9FEF089590914403809143032FEFF5
:102560003FEF981748F4E92FF0E0E255FD4F208146
:1025700030E09F5F90934403C90108958091430325
:1025800090914403891B990B0895CF92DF92EF92AB
:10259000FF920F931F93CF93DF937C01CB018A01AE
:1025A00020915C03222389F0EB016B01C40ED51E40
:1025B000CC15DD0569F06991D701ED91FC91019091
:1025C000F081E02DC7011995F3CF642F0E943612D8
:1025D000C801DF91CF911F910F91FF90EF90DF9095
:1025E000CF900895CF93DF931F92CDB7DEB7698365
:1025F00020915C032223F9F020915903203258F0F6
:1026000021E030E0FC013383228390E080E00F90F2
:10261000DF91CF91089580915A03E82FF0E0E257BF
:10262000FD4F998190838F5F80935A038093590364
:1026300081E090E0ECCF61E0CE0101960E9436127D
:10264000F7CFCF92DF92EF92FF920F931F93CF932A
:10265000DF93D091590381E0D13208F09CC0C09142
:102660005B030E9432086B017C0180911803811189
:102670006CC082E08093180381E080931A038FEF8F
:102680008093170310923C03D0933B03AEE8B2E073
:10269000EBE1F3E080E0D8138DC010923D03809110
:1026A0003D03CC0FC82BC0933D03809119038130AB
:1026B00009F084C0109219030E9432086B017C015A
:1026C00080913D038093BB008091CF029091D00216
:1026D000A091D102B091D202892B8A2B8B2BA1F031
:1026E0000E9432080091CF021091D0022091D102B5
:1026F0003091D2026C197D098E099F0906171707C0
:102700002807390708F442C08091BC0083FDD8CF68
:1027100085EC8093BC000E9432086B017C018091A3
:102720001803823009F44CC0809117038F3F09F4DD
:1027300069C080911703803209F466C08091170345
:10274000803309F463C084E026C08091CF02909169
:10275000D002A091D102B091D202892B8A2B8B2B6F
:1027600009F483CF0E9432080091CF021091D00269
:102770002091D1023091D2026C197D098E099F09F6
:10278000061717072807390708F06FCF8091CE0288
:102790000E947B1285E010925A0310925903109206
:1027A0005C03DF91CF911F910F91FF90EF90DF902D
:1027B000CF9008959D9191938F5F6DCF85EEA9CFB6
:1027C0008091CF029091D002A091D102B091D2021B
:1027D000892B8A2B8B2B09F4A2CF0E9432080091FF
:1027E000CF021091D0022091D1023091D2026C1907
:1027F0007D098E099F09061717072807390708F072
:102800008ECFC4CF80E0C7CF82E0C5CF83E0C3CFF7
:10281000EF92FF920F931F93CF93DF937C01C62F0C
:102820008091A9049091AA04009709F459C02091BD
:10283000AD0431E030935C0320935B0310925A03A4
:1028400010925903DC01ED91FC910190F081E02D93
:1028500060E019958701EE24E394F12CD1E0C1509A
:102860008091A9049091AA04CF3F91F1B0E2EB16B8
:10287000F104D8F00E9421138091A9049091AA0438
:102880002091AD04D0935C0320935B0310925A0314
:1028900010925903DC01ED91FC910190F081E02D43
:1028A00060E01995EE24E394F12C8091A9049091B5
:1028B000AA04F8016491DC01ED91FC910190F08192
:1028C000E02D1995BFEFEB1AFB0A0F5F1F4FC7CF23
:1028D000DF91CF911F910F91FF90EF900C942113F6
:1028E000E091B904F091BA0490818091BF04809581
:1028F000892380838701C15008F438C0F80184918E
:102900002091A7043091A804232B29F00E94370CB2
:102910000F5F1F4FF0CF28E030E040E8E091B504B2
:10292000F091B6049091BD04582F5423D9F05081F2
:10293000952B9083E091B704F091B8049081509169
:10294000BE04952B9083E091B704F091B8045081B8
:102950009091BE049095952390834695215031091E
:10296000E9F6D6CF508190959523E3CFDF91CF91B3
:102970001F910F91FF90EF9008951F93CF93DF93D6
:10298000EC018D8D9E8D009721F1162F29A131E04C
:1029900030935C0320935B0310925A031092590307
:1029A000DC01ED91FC910190F081E02D60E0199542
:1029B0008D8D9E8DDC01ED91FC910190F081E02DDB
:1029C000612F19958D8D9E8DDF91CF911F910C9464
:1029D0002113ADA5BEA59C918BA9809589238C93CD
:1029E0008B8D9C8D892B31F0862FDF91CF911F919C
:1029F0000C94370C28E030E080E8A9A5BAA599A985
:102A0000462F4823C1F04C91942B9C93ABA5BCA5B9
:102A10009C914AA9942B9C93ABA5BCA54C919AA9D7
:102A2000909594239C9386952150310931F7DF913D
:102A3000CF911F9108954C9190959423E6CFDF920A
:102A4000EF92FF920F931F93CF93DF938091A9048E
:102A50009091AA04892B09F4A5C02091C10430915A
:102A6000C2044091C3045091C40460E074E284EF56
:102A700090E00E940F2420513109410951095695D7
:102A80004795379527952093B80064E08CEC9CE03F
:102A90000E940814809190049091910480349105D3
:102AA00009F097C060E28CE894E00E94BD14609148
:102AB0009004615E8CE894E00E94BD142091920421
:102AC00030919304C901079697FD079633E09595D9
:102AD00087953A95E1F72091900430919104829F77
:102AE0008001839F100D929F100D1124C091AB04A3
:102AF000D091AC048091A9049091AA040C0F1D1FE1
:102B0000009709F498C02091AD0431E030935C0344
:102B100020935B0310925A0310925903DC01ED914C
:102B2000FC910190F081E02D60E41995EE24E3948E
:102B3000F12CDD24D3948091A9049091AA040C1760
:102B40001D0709F44FC0B0E2EB16F104D8F00E9463
:102B500021138091A9049091AA042091AD04D092F0
:102B60005C0320935B0310925A0310925903DC011B
:102B7000ED91FC910190F081E02D60E41995EE2437
:102B8000E394F12C8091A9049091AA046991DC014D
:102B9000ED91FC910190F081E02D1995BFEFEB1ABA
:102BA000FB0AC9CF8091A7049091A804892B31F02A
:102BB0008091CA049091CB040E943E0CE091BB042A
:102BC000F091BC0490818091C0048095892380831A
:102BD0005CCF60E08CE894E00E94BD1460919004AA
:102BE000615068CF0E9421138091A9049091AA049A
:102BF000892B09F461C02091C5043091C60440912D
:102C0000C7045091C80460E074E284EF90E00E9431
:102C10000F2420513109410951095695479537959F
:102C200027952093B800DF91CF911F910F91FF90CE
:102C3000EF90DF900895E091B904F091BA0480819B
:102C40009091BF04892B80830C171D0769F289912D
:102C50002091A7043091A804232B19F00E94370C6F
:102C6000F3CF28E030E040E8E091B504F091B604FD
:102C70009091BD04582F5423D9F05081952B908307
:102C8000E091B704F091B80490815091BE04952B67
:102C90009083E091B704F091B80450819091BE0404
:102CA000909595239083469521503109E9F6CCCF34
:102CB000508190959523E3CFE091BB04F091BC0443
:102CC00080819091C004892B8083ADCF1F93CF93D7
:102CD000DF93EC01162F8D8D9E8D892BB1F12DA9DF
:102CE0003EA94FA958AD60E074E284EF90E00E94E5
:102CF0000F242051310941095109569547953795BF
:102D000027952093B80066EA111167EACE010E9468
:102D1000BD148D8D9E8D892B41F129AD3AAD4BAD02
:102D20005CAD60E074E284EF90E00E940F242051DB
:102D300031094109510956954795379527952093B3
:102D4000B800DF91CF911F9108958B8D9C8D892BB9
:102D500021F08EAD9FAD0E943E0CEFA5F8A99081A9
:102D60008CA9809589238083CECFEFA5F8A9808197
:102D70009CA9892B8083E5CF90E080E00895CF92D5
:102D8000DF92EF92FF92CF93DF93EC018A85882345
:102D9000A1F189819A81AB81BC81892B8A2B8B2BF4
:102DA00051F461E08881DF91CF91FF90EF90DF9047
:102DB000CF900C949E060E9489086B017C018D8146
:102DC0009E81AF81B885B701A601481B590B6A0BDC
:102DD0007B0B89819A81AB81BC81481759076A07AF
:102DE0007B0758F0698581E06827698788810E94A0
:102DF0009E06CD82DE82EF82F886DF91CF91FF9032
:102E0000EF90DF90CF90089561E0FC0180810C94F9
:102E10002A072091920430919304C901079697FDE7
:102E2000079623E0959587952A95E1F720919004E0
:102E300030919104829FA001839F500D929F500D6D
:102E4000112470E060E08091AB049091AC040C948C
:102E500077250E947225FB0101900020E9F7319748
:102E6000AF01461B570BDC01ED91FC910280F38111
:102E7000E02D19948F929F92AF92BF920F931F9360
:102E8000CF93DF93CDB7DEB7A1970FB6F894DEBF2F
:102E90000FBECDBF19A2423008F44AE08E010F5D8B
:102EA0001F4F842E912CB12CA12CA50194010E94BE
:102EB0000F24E62FB901CA01EA3004F5E05DD8011C
:102EC000EE938D01232B242B252B79F790E080E0C6
:102ED000109729F0BD018CE894E00E942B17A19671
:102EE0000FB6F894DEBF0FBECDBFDF91CF911F911B
:102EF0000F91BF90AF909F908F900895E95CDFCFC6
:102F000081E020915D0330915E03232BE9F566E6B5
:102F100072E08FE593E00E942B1766E772E08FE581
:102F200093E00E942B1784E594E00E94BF1685E78A
:102F300094E00E94BF1683E394E00E94BF1682E1F2
:102F400094E00E94BF168AE694E00E94BF168FE5C7
:102F500094E00E94BF1689E494E00E94BF168AE6BE
:102F600094E00E94BF168DE194E00E94BF168CEFA2
:102F700093E00E94BF1688E294E00E94BF1687E0AB
:102F800094E00E94BF1680E024EC37E130935E03AA
:102F900020935D038111BBCF81E0089585ED80937F
:102FA000BC008091CF029091D002A091D102B0914B
:102FB000D2020796A11DB11D23E0B695A79597955E
:102FC00087952A95D1F72091BC0024FD03C010926B
:102FD000180308954091CF025091D0026091D10220
:102FE0007091D202452B462B472B69F30097A10520
:102FF000B10541F02AE22A95F1F700C00197A10935
:10300000B109E1CF8091CE020C947B121F920F92F6
:103010000FB60F9211242F933F938F939F93AF93EB
:10302000BF938091510390915203A0915303B091AB
:1030300054033091500323E0230F2D3758F50196A8
:10304000A11DB11D2093500380935103909352030F
:10305000A0935303B093540380915503909156036A
:10306000A0915703B09158030196A11DB11D809303
:10307000550390935603A0935703B0935803BF9101
:10308000AF919F918F913F912F910F900FBE0F9015
:103090001F90189526E8230F0296A11DB11DD2CFCF
:1030A0001F920F920FB60F9211240BB60F922F930F
:1030B0003F934F935F936F937F938F939F93AF93C0
:1030C000BF93EF93FF93E0910E02F0910F021995D9
:1030D000FF91EF91BF91AF919F918F917F916F91F0
:1030E0005F914F913F912F910F900BBE0F900FBEAC
:1030F0000F901F9018951F920F920FB60F921124E8
:103100000BB60F922F933F934F935F936F937F93E1
:103110008F939F93AF93BF93EF93FF93E0910C0234
:10312000F0910D021995FF91EF91BF91AF919F9191
:103130008F917F916F915F914F913F912F910F9060
:103140000BBE0F900FBE0F901F9018951F920F92FD
:103150000FB60F9211240BB60F922F933F934F93FC
:103160005F936F937F938F939F93AF93BF93EF93EF
:10317000FF93E0910202F09103021995FF91EF9104
:10318000BF91AF919F918F917F916F915F914F917F
:103190003F912F910F900BBE0F900FBE0F901F907D
:1031A00018951F920F920FB60F9211240BB60F9223
:1031B0002F933F934F935F936F937F938F939F933F
:1031C000AF93BF93EF93FF93E0910002F091010260
:1031D0001995FF91EF91BF91AF919F918F917F9141
:1031E0006F915F914F913F912F910F900BBE0F9078
:1031F0000FBE0F901F9018951F920F920FB60F924F
:1032000011240BB60F922F933F934F935F936F93BD
:103210007F938F939F93AF93BF93EF93FF93E0912F
:103220000A02F0910B021995FF91EF91BF91AF91B6
:103230009F918F917F916F915F914F913F912F91CE
:103240000F900BBE0F900FBE0F901F9018951F92FE
:103250000F920FB60F9211240BB60F922F933F933C
:103260004F935F936F937F938F939F93AF93BF938E
:10327000EF93FF93E0910802F09109021995FF91F5
:10328000EF91BF91AF919F918F917F916F915F91DE
:103290004F913F912F910F900BBE0F900FBE0F904B
:1032A0001F9018951F920F920FB60F9211240BB614
:1032B0000F922F933F934F935F936F937F938F93CF
:1032C0009F93AF93BF93EF93FF93E0910602F0912A
:1032D00007021995FF91EF91BF91AF919F918F9147
:1032E0007F916F915F914F913F912F910F900BBE06
:1032F0000F900FBE0F901F9018951F920F920FB650
:103300000F9211240BB60F922F933F934F935F931D
:103310006F937F938F939F93AF93BF93EF93FF939D
:10332000E0910402F09105021995FF91EF91BF9190
:10333000AF919F918F917F916F915F914F913F914D
:103340002F910F900BBE0F900FBE0F901F901895EE
:103350001F920F920FB60F9211240BB60F922F935C
:103360003F934F935F936F937F938F939F93AF930D
:10337000BF93EF93FF938FE593E00E942009FF91A5
:10338000EF91BF91AF919F918F917F916F915F91DD
:103390004F913F912F910F900BBE0F900FBE0F904A
:1033A0001F9018951F920F920FB60F9211240BB613
:1033B0000F922F938F939F93EF93FF93E0916F035F
:1033C000F09170038081E0917503F091760382FDA6
:1033D0001DC09081809178038F5F8F732091790356
:1033E000821741F0E0917803F0E0E15AFC4F958FAD
:1033F00080937803FF91EF919F918F912F910F9080
:103400000BBE0F900FBE0F901F9018958081F2CFCA
:103410001F920F920FB60F9211240BB60F922F939B
:103420003F934F935F936F937F938F939F93AF934C
:10343000BF93EF93FF938091B900887F803609F4A2
:103440004DC008F040C0883209F4A9C028F5803189
:1034500009F49DC0C8F4882309F4FBC0883009F43E
:1034600096C0FF91EF91BF91AF919F918F917F9106
:103470006F915F914F913F912F910F900BBE0F90E5
:103480000FBE0F901F901895883109F488C08032C4
:1034900041F78093170314C0803409F49DC040F4B1
:1034A0008033B9F38833E9F68093170385ECB0C015
:1034B000803509F485C0883509F496C0883489F6CA
:1034C0000E94CE17CECF883909F48CC038F58837E2
:1034D00029F050F4883611F0803719F683E0809394
:1034E00018031092160357C0883809F47BC080393E
:1034F00019F0803809F0B5CF80911603803208F0BA
:1035000071C0E091160381E08E0F809316038091C5
:10351000BB00F0E0EA50FD4F80833DC0803B39F0B6
:10352000E0F4803A09F479C0883A09F09ACF84E04F
:10353000809318031092F5021092F402E091410377
:10354000F091420319958091F40281110FC081E03E
:103550008093F4021092D40209C0803C09F4A6CFF3
:10356000883C09F4A3CF883B09F07BCFE091F502BA
:1035700081E08E0F8093F502F0E0EC52FD4F8081E8
:103580008093BB009091F5028091F40229C0809154
:103590003D038093BB0085EC8093BC0062CF90918B
:1035A0003C0380913B03981758F5E0913C0381E080
:1035B0008E0F80933C03F0E0E55EFC4F8081E9CF05
:1035C000E0913C0381E08E0F80933C038091BB002F
:1035D000F0E0E55EFC4F808390913C0380913B03DB
:1035E0009817C8F285E8D8CFE0913C0381E08E0FB0
:1035F00080933C038091BB00F0E0E55EFC4F80834C
:1036000080911A0381115CCF81E08093190384EAD1
:103610008093BC001092180324CF85EC8093BC00EB
:103620001092180380911603803230F4E091160353
:10363000F0E0EA50FD4F10826091160370E0E091D7
:103640003F03F091400386EF92E019951092160324
:1036500008CF1092170334CFEFE5F3E01382128204
:1036600048EE53E060E070E04483558366837783DF
:103670008AE192E09183808385EC90E0958784874E
:1036800084EC90E09787868780EC90E0918B808B2C
:1036900081EC90E0938B828B82EC90E0958B848B15
:1036A00086EC90E0978B868B118E128E138E148E83
:1036B000A0E8B4E013961C921E92129714964D93B4
:1036C0005D936D937C9317978CE292E011969C9397
:1036D0008E93ECE8F4E01382128220E830E0358328
:1036E000248380E290E097838683318720879387C5
:1036F0008287168A158614861786168681E0858B42
:10370000848B2FEF3FEF338B228B318B208B878B7A
:10371000108E128E118E8EE392E091838083148E30
:10372000138EB68FA58F10A2178E8FEF84A385A35B
:1037300086A387A380A780E89AE1A6E0B0E085ABE6
:1037400096ABA7ABB0AF80EA96E8A1E0B0E081AF5E
:1037500092AFA3AFB4AF80E586AF17AEE5E7F4E074
:1037600081E3808384E690E0A0E0B0E081839283EF
:10377000A383B4831582168217821086118612865F
:10378000EAE6F4E02FE2208311821282138214828F
:10379000158216821782108611861286EFE5F4E0F4
:1037A0002DE22083118212821382148215821682E6
:1037B0001782108611861286E4E5F4E02BE220835E
:1037C00081839283A383B483158216821782108625
:1037D00011861286E9E4F4E029E220831182128244
:1037E0001382148215821682178210861186128621
:1037F000EEE3F4E027E22083118212821382148226
:10380000158216821782108611861286E3E3F4E091
:1038100025E2208381839283A383B4831582168259
:103820001782108611861286E8E2F4E023E22083F4
:1038300011821282138214821582168217821086D8
:1038400011861286EDE1F4E021E2208311821282DA
:1038500013821482158216821782108611861286B0
:10386000E2E1F4E02FE1208381839283A383B48398
:10387000158216821782108611861286E7E0F4E020
:103880008DE1808311821282138214821582168246
:103890001782108611861286ECEFF3E08BE18083AD
:1038A0001182128213821482158216821782108668
:1038B000118612860895789484B5826084BD84B59B
:1038C000816084BD85B5826085BD85B5816085BD1B
:1038D00080916E00816080936E00109281008091D3
:1038E000810082608093810080918100816080935B
:1038F0008100809180008160809380008091B10080
:1039000084608093B1008091B00081608093B000AA
:1039100080919100826080939100809191008160FC
:1039200080939100809190008160809390008091BD
:10393000A10082608093A1008091A10081608093AA
:10394000A1008091A00081608093A000809121015E
:103950008260809321018091210181608093210107
:103960008091200181608093200180917A008460A1
:1039700080937A0080917A00826080937A008091AF
:103980007A00816080937A0080917A0080688093C9
:103990007A001092C1008091AB049091AC04892B05
:1039A00011F10E94091720919204309193048091A3
:1039B000900490919104213231050CF069C1B90154
:1039C0006052710977FF02C06F5F7F4F75956795F1
:1039D0008357910997FD019600E210E023E730E05C
:1039E00046E257E068C12091920430919304C901E6
:1039F000079697FD0796B3E095958795BA95E1F7F9
:103A00002091900430919104AC01429FC001439FEA
:103A1000900D529F900D11240E944D249093AC0460
:103A20008093AB04892B09F0BCCF0E9409170E9438
:103A30001F1510925E0310925D0361E084E00E9406
:103A40002A0761E085E00E942A0761E080E20E9487
:103A50002A0761E082E20E942A0761E08EE10E946B
:103A60002A0761E084E20E942A0784E594E00E942C
:103A7000041785E794E00E94041783E394E00E9412
:103A8000041782E194E00E9404178AE694E00E9401
:103A900004178FE594E00E94041789E494E00E94E3
:103AA00004178AE694E00E9404178DE194E00E94D6
:103AB00004178CEF93E00E94041788E294E00E94C0
:103AC000041787E094E00E94041762E082E00E94FD
:103AD0002A0762E082E10E942A0785E998E0909334
:103AE00001028093000280916A008C7F8260809343
:103AF0006A00EC9A8FE998E090930B0280930A0297
:103B0000809169008F73806880936900EB9AE091DF
:103B10006F03F091700382E08083E0916B03F0917A
:103B20006C031082E0916D03F0916E038FEC808343
:103B300010927703E0917303F091740386E0808321
:103B4000E0917103F0917203808180618083E09144
:103B50007103F0917203808188608083E09171032A
:103B6000F0917203808180688083E0917103F0910D
:103B7000720380818F7D80830E9489080E94D222F7
:103B800060934503709346038093470390934803E3
:103B900004EB10E033243394C1E0D0E080914E0375
:103BA00090914F03B8010E94FB2390934F038093A1
:103BB0004E0380914C0390914D03B8010E94FB236A
:103BC00090934D0380934C0380914E0390914F034B
:103BD000843B91057CF080914E0390914F03845B70
:103BE000910990934F0380934E0380914B038F5F15
:103BF00080934B038091490390914A03843091054F
:103C00000CF0CEC210924F0310924E036FEA70E098
:103C100084E00E945B0764EB70E085E00E945B0734
:103C200061E080E20E949E0660E082E20E949E06C1
:103C300061E08EE10E949E0660E084E20E949E06A2
:103C400060914E0370914F03072E000C880B990B67
:103C50000E94D42220E030E044E353E40E94312269
:103C600023E832E34CE250E40E942C2287FF15C285
:103C70000E9489086B017C010E9489086C197D09EA
:103C80008E099F096A30710581059105A8F3D8CF87
:103C9000B9016054710977FF02C06F5F7F4F75955E
:103CA00067958255910997FD019600E410E022E5A1
:103CB00030E046E059E0959587950E94281182E012
:103CC0008093AE048091A9049091AA04892B09F4F1
:103CD00094C08CE38093AD0410924403109243038C
:103CE00010925A03109259030E945D1289EA98E0DB
:103CF00090934203809341038AEA98E090934003B3
:103D000080933F038091B40487FD1EC061E00E9450
:103D10002A0761E08091B4040E949E0661E070E091
:103D200080E090E00E94570860E08091B4040E9417
:103D30009E066AE070E080E090E00E94570861E033
:103D40008091B4040E949E068091A9049091AA04D7
:103D5000892B09F411C12091C1043091C204409112
:103D6000C3045091C40460E074E284EF90E00E94C8
:103D70000F2420513109410951095695479537952E
:103D800027952093B80064E082E297E00E9408142F
:103D90006091920461508CE894E00E94BD1464E04C
:103DA0008EE197E00E9408148091AE0464E18130B6
:103DB00009F460E18CE894E00E94BD1464E08AE1BB
:103DC00097E00E9408148FE88093C90480919004C2
:103DD000909191048038910509F031C1809192044D
:103DE000909193048034910509F039C18091AE041B
:103DF000813009F4D8C08FECD7C061E08091B20463
:103E00000E942A0761E08091B3040E942A078091F2
:103E1000B204082E000C990BFC01E650F44FE4911B
:103E2000F0E0EE0FFF1FE052F44F259134913093F4
:103E3000BA042093B904FC01E05CF34FE491E093F1
:103E4000BF048091B304082E000C990BFC01E650CE
:103E5000F44FE491F0E0EE0FFF1FE052F44FA59114
:103E6000B491B093BC04A093BB04FC01E05CF34F9D
:103E7000E491E093C0048C91E82BEC938091A7042B
:103E80009091A804892B09F434C0CFB7F89480919D
:103E90003E03811127C0EFE2FCE08491E5E7FCE0FE
:103EA0009491E82FF0E0EE0FFF1FEA53F44FA59135
:103EB000B491EC91E92321F461E085E30E949E0630
:103EC00061E085E30E942A078CB580618CBD8CB5CA
:103ED00080648CBD61E084E30E942A0761E083E393
:103EE0000E942A0780913E038F5F80933E03CFBFDD
:103EF00009CF61E08091B0040E942A0761E08091BF
:103F0000B1040E942A078091B004082E000C990B7E
:103F1000FC01E650F44FE491F0E0EE0FFF1FE05299
:103F2000F44F259134913093B6042093B504FC01ED
:103F3000E05CF34FE491E093BD048091B104082E5E
:103F4000000C990BFC01E650F44FE491F0E0EE0F09
:103F5000FF1FE052F44FA591B491B093B804A09321
:103F6000B704FC01E05CF34FE491E093BE048C9154
:103F7000E095E823EC93C6CE8091A7049091A80425
:103F8000892B31F08091CA049091CB040E943E0CA1
:103F9000E091BB04F091BC0490818091C0048095B5
:103FA00089238083F0CE8FE98093C904C2E16AED52
:103FB0008CE894E00E94BD146C2F8CE894E00E9481
:103FC000BD1461E88CE894E00E94BD146091C904BE
:103FD0008CE894E00E94BD1469ED8CE894E00E94A6
:103FE000BD148091AE0461EF813009F462E28CE887
:103FF00094E00E94BD1466E084E197E00E940814FA
:104000008091A9049091AA04892BE9F12091C5041B
:104010003091C6044091C7045091C80460E074E236
:1040200084EF90E00E940F24205131094109510989
:1040300056954795379527952093B800F6CC80364E
:10404000910589F48091920490919304409739F4FA
:104050008091AE04813029F08FEA8093C904C2E0D8
:10406000A6CF80E1FACF80349105C9F78091920400
:1040700090919304809799F78091AE04813009F074
:10408000BACE80E191CFE091BB04F091BC04808175
:104090009091C004892B8083C8CC70E060E084E0FC
:1040A0000E945B0770E060E085E00E945B0761E0D2
:1040B00080E20E949E0660E082E20E949E0661E02D
:1040C0008EE10E949E0660E084E20E949E061092AD
:1040D0004D0310924C0330927F0430921C0470E028
:1040E00060E084E00E945B0767ED70E085E00E947D
:1040F0005B0761E080E20E949E0660E082E20E942F
:104100009E0661E08EE10E949E0660E084E20E94CD
:104110009E0680914C0390914D038C32914094F413
:104120000E9480170E9489086B017C010E94890807
:104130006C197D098E099F096A3071058105910509
:10414000A8F3E7CF70E060E084E00E945B0770E0D6
:1041500060E085E00E945B0761E080E20E949E06CD
:1041600060E082E20E949E0661E08EE10E949E066F
:1041700060E084E20E949E0610927E0410927F040A
:1041800010921B0410921C048091490390914A03E1
:10419000019690934A03809349030E94AF09FECC95
:1041A00030922704309206040497B9F70E948908D8
:1041B0006B017C010E9409173092A0043092A10487
:1041C000D0939F04C0939E04D0939D04C0939C04FD
:1041D000109299041092980410929B0410929A04E1
:1041E000C701B6010E94D2222091450330914603B7
:1041F00040914703509148030E94BF2120E030E0E6
:104200004AE754E40E9431226B017C014B015C01BE
:10421000AC019B010E94F62369E772E081111AC08C
:1042200026013701E89477F82FEF3FEF4FE75FE77C
:10423000C301B2010E94F623811119C02FEF3FEF95
:104240004FE75FE7C301B2010E942C2218167CF4ED
:104250006DE772E08CE894E00E942B1765E872E04D
:104260008CE894E00E942B170E941F158DCF2FEF32
:104270003FEF4FE75FE4C701B6010E9484231816A1
:104280001CF461E872E0E6CF2FEF3FEF4FE75FEC01
:10429000C701B6010E942C2287FDF3CF20E030E059
:1042A000A901C701B6010E942C2287FF0BC06DE255
:1042B0008CE894E00E947C0E46015701B7FAB09456
:1042C000B7F8B0942AE037ED43EA5BE3C501B401E7
:1042D0000E94C0214B015C010E94A3226B017C0162
:1042E0000E94D2229B01AC01C501B4010E94BF21F2
:1042F0004B015C014AE0C701B6010E943A176EE229
:104300008CE894E00E947C0E20E030E040E251E432
:10431000C501B4010E9489234B015C010E94A322C4
:104320006B01F12CE12C4AE0C701B6010E943A175B
:10433000C701B6010E94D2229B01AC01C501B401A4
:104340000E94BF2120E030E040E251E40E94892336
:104350000E94A32290E080E04AE00E943A177ECFBC
:104360008EE392E090938D0480938C048091AB0453
:104370009091AC04009711F00C94E92408955058E2
:10438000BB27AA270E94D7210C944A230E943C23D2
:1043900038F00E94432320F039F49F3F19F426F4AB
:1043A0000C9439230EF4E095E7FB0C943323E92FAA
:1043B0000E945B2358F3BA176207730784079507B7
:1043C00020F079F4A6F50C947D230EF4E0950B2EE5
:1043D000BA2FA02D0B01B90190010C01CA01A00157
:1043E0001124FF27591B99F0593F50F4503E68F1B2
:1043F0001A16F040A22F232F342F4427585FF3CFF3
:10440000469537952795A795F0405395C9F77EF4C3
:104410001F16BA0B620B730B840BBAF09150A1F00C
:10442000FF0FBB1F661F771F881FC2F70EC0BA0F92
:10443000621F731F841F48F4879577956795B7951A
:10444000F7959E3F08F0B0CF9395880F08F0992715
:10445000EE0F9795879508950E940F2308F481E049
:1044600008950E9445220C944A230E94432358F049
:104470000E943C2340F029F45F3F29F00C94332341
:1044800051110C947E230C9439230E945B2368F312
:104490009923B1F3552391F3951B550BBB27AA27FD
:1044A00062177307840738F09F5F5F4F220F331F37
:1044B000441FAA1FA9F335D00E2E3AF0E0E832D0FF
:1044C00091505040E695001CCAF72BD0FE2F29D002
:1044D000660F771F881FBB1F261737074807AB07D4
:1044E000B0E809F0BB0B802DBF01FF2793585F4F49
:1044F0003AF09E3F510578F00C9433230C947E23C0
:104500005F3FE4F3983ED4F3869577956795B7952A
:10451000F7959F5FC9F7880F911D9695879597F935
:104520000895E1E0660F771F881FBB1F62177307AE
:104530008407BA0720F0621B730B840BBA0BEE1FC3
:1045400088F7E09508950E94632388F09F5798F0BC
:10455000B92F9927B751B0F0E1F0660F771F881F88
:10456000991F1AF0BA95C9F714C0B13091F00E94A2
:104570007D23B1E008950C947D23672F782F882741
:10458000B85F39F0B93FCCF3869577956795B395C9
:10459000D9F73EF490958095709561957F4F8F4F38
:1045A0009F4F0895E89409C097FB3EF4909580953D
:1045B000709561957F4F8F4F9F4F9923A9F0F92FE9
:1045C00096E9BB279395F695879577956795B79567
:1045D000F111F8CFFAF4BB0F11F460FF1BC06F5F4D
:1045E0007F4F8F4F9F4F16C0882311F096E911C05F
:1045F000772321F09EE8872F762F05C0662371F080
:1046000096E8862F70E060E02AF09A95660F771F93
:10461000881FDAF7880F9695879597F90895990F6F
:104620000008550FAA0BE0E8FEEF16161706E8077C
:10463000F907C0F012161306E407F50798F0621B9D
:10464000730B840B950B39F40A2661F0232B242B72
:10465000252B21F408950A2609F4A140A6958FEF91
:10466000811D811D089597F99F6780E870E060E0E3
:1046700008959FEF80EC089500240A9416161706FB
:1046800018060906089500240A9412161306140643
:1046900005060895092E0394000C11F4882352F0A6
:1046A000BB0F40F4BF2B11F460FF04C06F5F7F4F5E
:1046B0008F4F9F4F089557FD9058440F551F59F045
:1046C0005F3F71F04795880F97FB991F61F09F3FFF
:1046D00079F087950895121613061406551FF2CF28
:1046E0004695F1DF08C0161617061806991FF1CF78
:1046F00086957105610508940895E894BB2766279F
:104700007727CB0197F908950E940F2308F48FEFC4
:1047100008950E949C230C944A230E943C2338F065
:104720000E94432320F0952311F00C9433230C9422
:10473000392311240C947E230E945B2370F3959FF0
:10474000C1F3950F50E0551F629FF001729FBB2788
:10475000F00DB11D639FAA27F00DB11DAA1F649F24
:104760006627B00DA11D661F829F2227B00DA11DD7
:10477000621F739FB00DA11D621F839FA00D611D5D
:10478000221F749F3327A00D611D231F849F600D7E
:10479000211D822F762F6A2F11249F5750409AF0A7
:1047A000F1F088234AF0EE0FFF1FBB1F661F771F33
:1047B000881F91505040A9F79E3F510580F00C94FE
:1047C00033230C947E235F3FE4F3983ED4F3869525
:1047D00077956795B795F795E7959F5FC1F7FE2B9E
:1047E000880F911D9695879597F908950E940F233C
:1047F000880B990B089597FB072E16F4009407D0A9
:1048000077FD09D00E94392407FC05D03EF490952D
:1048100081959F4F0895709561957F4F0895A1E20E
:104820001A2EAA1BBB1BFD010DC0AA1FBB1FEE1F2A
:10483000FF1FA217B307E407F50720F0A21BB30B75
:10484000E40BF50B661F771F881F991F1A9469F7F1
:1048500060957095809590959B01AC01BD01CF014D
:104860000895EE0FFF1F881F8BBF0790F691E02D74
:104870001994AA1BBB1B51E107C0AA1FBB1FA61797
:10488000B70710F0A61BB70B881F991F5A95A9F7F9
:1048900080959095BC01CD0108950F931F93CF9300
:1048A000DF938230910510F482E090E0E091CE0435
:1048B000F091CF0430E020E0B0E0A0E0309799F430
:1048C0002115310509F44AC0281B390B2430310564
:1048D000D8F58A819B816115710589F1FB0193836C
:1048E0008283FE0111C040815181028113814817EA
:1048F0005907E0F04817590799F4109761F012969C
:104900000C93129713961C933296CF01DF91CF919F
:104910001F910F9108950093CE041093CF04F4CF0C
:104920002115310551F04217530738F0A901DB0179
:104930009A01BD01DF01F801C1CFEF01F9CF9093DA
:10494000CF048093CE04CDCFFE01E20FF31F8193FD
:1049500091932250310939832883D7CF2091CC04F9
:104960003091CD04232B41F4209112023091130297
:104970003093CD042093CC04209110023091110289
:104980002115310541F42DB73EB7409114025091E5
:104990001502241B350BE091CC04F091CD04E217F5
:1049A000F307A0F42E1B3F0B2817390778F0AC0152
:1049B0004E5F5F4F2417350748F04E0F5F1F50932F
:1049C000CD044093CC04819391939FCFF0E0E0E03D
:1049D0009CCFCF93DF930097E9F0FC0132971382CD
:1049E0001282A091CE04B091CF04ED0130E020E01E
:1049F0001097A1F420813181820F931F2091CC0464
:104A00003091CD042817390709F061C0F093CD0427
:104A1000E093CC04DF91CF910895EA01CE17DF0730
:104A2000E8F54A815B819E0141155105B1F7E90125
:104A3000FB83EA8349915991C40FD51FEC17FD07F9
:104A400061F4808191810296840F951FE901998319
:104A50008883828193819B838A83F0E0E0E01296D1
:104A60008D919C9113970097B9F52D913C911197D9
:104A7000CD010296820F931F2091CC043091CD047A
:104A80002817390739F6309751F51092CF04109254
:104A9000CE04B093CD04A093CC04BCCFD383C28307
:104AA00040815181840F951FC817D90761F44E5F6B
:104AB0005F4F88819981480F591F518340838A81B4
:104AC0009B81938382832115310509F0B0CFF09348
:104AD000CF04E093CE049ECFFD01DC01C0CF138252
:104AE0001282D7CF81E090E0F8940C947E25DC010F
:104AF00001C06D9341505040E0F7089516E0C9E6BB
:104B0000D6E000E006C0802FFE010E9431242196ED
:104B1000011DCA36D10780E00807A9F7F894FFCF36
:104B2000AB08AB08AB08AB08AB08AB08AB08AB08ED
:104B30000000D0048000000000004209AC08D90841
:104B40008F090A09E808FC0800000000F212C512EB
:104B5000BC169D06BE12AB129C12000000007C0E1B
:104B6000AC08BC163512870B9D062111F9101511E2
:104B7000091189119D06420C6616F70A400B421076
:104B80002510AD0F4E0F5570646174696E67206C0F
:104B90006967687473000D0A006E616E00696E6665
:0E4BA000006F766600207365636F6E647300AD
:00000001FF
