:020000040000FA
:100000000C946A060C9426190C94FB180C94D018C6
:100010000C94A5180C947A180C944F180C9424186E
:100020000C94F9170C949B060C949B060C949B065D
:100030000C949B060C949B060C949B060C949B06BC
:100040000C949B060C949B060C949B060C949B06AC
:100050000C949B060C949B060C949B060C94AF1777
:100060000C949B060C947B190C9451190C949B06D0
:100070000C949B060C949B060C949B060C949B067C
:100080000C949B060C949B060C949B060C949B066C
:100090000C949B060C949B060C949B060C94B11933
:1000A0000C949B060C949B060C949B060C949B064C
:1000B0000C949B060C949B060C949B060C949B063C
:1000C0000C949B060C949B060C949B060C949B062C
:1000D0000C949B060C949B060C949B060C949B061C
:1000E0000C949B060C9419080C94C6070C940407F6
:1000F0000C94D51A0C9493070C9487090C943C0B20
:100100000C94F0080C949D060C94D3060C94E50610
:100110000C941A070C942D090C9424070C94F012DB
:100120000C94F1080C94C10E0C94CE070C94CE06DE
:100130000C9403130C940F080C9401170C943713B0
:100140000C940A130C94D4090C94E1120C94E20759
:100150000C94ED060C941E090C94EF080C94F10617
:100160000C9416070C94B4070C9458200C94871028
:100170000C945A110C9405080C943E110C94CE1159
:100180000C94CC0B0C9420070C942D080C94EE08C6
:100190000C946A100C94BE070C9441090C94F20F55
:1001A0000C94F4060C940C070C94AB160C947A1275
:1001B0000C94A0070C94DA080C94E4080C94850BBA
:1001C0000C94AF080C94FE060C94870C0C946611EA
:1001D0000C94D8070C94EC070C944E110C94120755
:1001E0000C949B070C94FA060C9423080C940807B3
:1001F0000C94FB070C944F090C94AA070C94930FD2
:100200000C94E90600000000003E5B4F5B3E3E6B35
:100210004F6B3E1C3E7C3E1C183C7E3C181C577DA0
:10022000571C1C5E7F5E1C00183C1800FFE7C3E7EC
:10023000FF0018241800FFE7DBE7FF30483A060EFE
:100240002629792926407F050507407F05253F5A45
:100250003CE73C5A7F3E1C1C08081C1C3E7F1422B5
:100260007F22145F5F005F5F06097F017F00668960
:10027000956A606060606094A2FFA29408047E04A6
:100280000810207E201008082A1C08081C2A0808CC
:100290001E101010100C1E0C1E0C30383E3830068C
:1002A0000E3E0E06000000000000005F0000000788
:1002B000000700147F147F14242A7F2A12231308B6
:1002C000646236495620500008070300001C224192
:1002D000000041221C002A1C7F1C2A08083E080836
:1002E00000807030000808080808000060600020E6
:1002F000100804023E5149453E00427F40007249C9
:100300004949462141494D331814127F102745456C
:1003100045393C4A49493141211109073649494982
:1003200036464949291E00001400000040340000F0
:100330000008142241141414141400412214080259
:10034000015909063E415D594E7C1211127C7F49CC
:100350004949363E414141227F4141413E7F494921
:1003600049417F090909013E414151737F0808084D
:100370007F00417F41002040413F017F081422411E
:100380007F404040407F021C027F7F0408107F3E78
:100390004141413E7F090909063E4151215E7F09E5
:1003A000192946264949493203017F01033F40404C
:1003B000403F1F2040201F3F4038403F6314081437
:1003C0006303047804036159494D43007F4141416F
:1003D0000204081020004141417F04020102044050
:1003E00040404040000307080020545478407F28D4
:1003F0004444383844444428384444287F385454CA
:10040000541800087E090218A4A49C787F080404EC
:100410007800447D40002040403D007F102844008B
:1004200000417F40007C047804787C08040478381C
:1004300044444438FC1824241818242418FC7C084C
:10044000040408485454542404043F44243C4040C9
:10045000207C1C2040201C3C4030403C442810287C
:10046000444C9090907C4464544C440008364100C5
:100470000000770000004136080002010204023C3F
:100480002623263C1EA1A161123A4040207A38540E
:100490005455592155557941225454784221555487
:1004A000784020545579400C1E52721239555555DA
:1004B00059395454545939555454580000457C41C5
:1004C0000002457D420001457C407D1211127DF005
:1004D000282528F07C545545002054547C547C0A2F
:1004E000097F4932494949323A4444443A324A48F8
:1004F00048303A4141217A3A42402078009DA0A0FC
:100500007D3D4242423D3D4040403D3C24FF24244D
:10051000487E4943662B2FFC2F2BFF0929F620C06C
:10052000887E090320545479410000447D413048BD
:10053000484A32384040227A007A0A0A727D0D1900
:10054000317D2629292F28262929292630484D4062
:1005500020380808080808080808382F10C8ACBA5E
:100560002F102834FA00007B000008142A142222DD
:10057000142A14085500550055AA55AA55AAFF5526
:10058000FF55FF000000FF00101010FF00141414AE
:10059000FF001010FF00FF1010F010F0141414FCF6
:1005A000001414F700FF0000FF00FF1414F404FC13
:1005B000141417101F10101F101F1414141F0010F4
:1005C0001010F0000000001F101010101F1010106D
:1005D00010F010000000FF1010101010101010107C
:1005E000FF10000000FF140000FF00FF00001F10BC
:1005F000170000FC04F414141710171414F404F476
:100600000000FF00F714141414141414F700F71466
:100610001414171410101F101F141414F4141010B5
:10062000F010F000001F101F0000001F1400000059
:10063000FC140000F010F01010FF10FF141414FF51
:10064000141010101F00000000F010FFFFFFFFFF4C
:10065000F0F0F0F0F0FFFFFF0000000000FFFF0FE0
:100660000F0F0F0F3844443844FC4A4A4A347E0284
:10067000020606027E027E02635549416338444405
:100680003C04407E201E2006027E020299A5E7A5BA
:10069000991C2A492A1C4C7201724C304A4D4D302B
:1006A0003048784830BC625A463D3E494949007E50
:1006B0000101017E2A2A2A2A2A44445F44444051E7
:1006C0004A444040444A51400000FF0103E080FF9B
:1006D000000008086B6B083612362436060F090F27
:1006E00006000018180000001010003040FF010143
:1006F000001F01011E00191D1712003C3C3C3C006C
:1007000000000000000103070F1F3F7F0080C0E0D2
:10071000F0F8FCFEDB40A4A62EAF2000A1C8D30059
:10072000408DAED580A800006000000000000000F1
:1007300000000000000000E00000000000000000D9
:10074000000000000001E0000000000000000000C8
:100750000000000001F000000000000000000000A8
:1007600000000003F0000000000000000000000096
:10077000000007F000000000000000000000000082
:100780000007F8000000000000000000000000006A
:100790000FF800000003C0007E000001E0007F0FA2
:1007A000F800000003C000FE000001E000FFEFF8C9
:1007B00000000003C000FE000001E000FFFFF800A1
:1007C000000003C000F00000000F007FFE7FC000AB
:1007D0000003C000F00000000F003FFE7FF83FF173
:1007E000FBCFFCFEF3BC3DEFE01FFE7FFF7FFBFF76
:1007F000DFFEFEFFBC3DEFE01FC6FFFF7FFBFFDF1C
:10080000FEFEFFBC3DEFE00FE3C7FE787BC3DE1EBC
:10081000F0FFBC3DEF0007FF87FC787BC3DE1EF0D6
:10082000F83C3DEF0001FFFFF0007BC3C01EF0F07D
:100830003C3DEF0001F37FE03FFBC3CFFEF0F03C17
:100840003DEF0003E33F807FFBC3DFFEF0F03C3D64
:10085000EF0007E73C00787BC3DE1EF0F03C3DEF85
:100860000007FFBE00787BC3DE1EF0F03C3DEF00CA
:1008700007FFFE00787BC3DE1EF0F03C3DEF000F6B
:10088000FFFE007FFBFFDFFEF0F03FFDEFE00FFF1C
:10089000FF007FFBFFDFFEF0F03FFDEFE00FF9FF11
:1008A000003E79F9CF9EF0F01F3DE7E01FF1FF0019
:1008B00000000000000000000000001F80FF007F1B
:1008C000FFFFFFFFFFFFFFFFFFE01C007F007FFF38
:1008D000FFFFFEB46D888D18E000001F007FFFFF52
:1008E000FFFE95AD7DB577E000000F007FFFFFFFB5
:1008F000FEA5AD9D8D19E0000006007FFFFFFFFE05
:10090000B5ADEDB57EE00000000000018000000004
:100910000000000000000380000000000000000054
:100920000007C000000000000000000007C0000039
:10093000000000000000000FC000000000000000E8
:1009400000001FE00000000000000000001FE000A9
:1009500000000000000000003FE000000000000078
:100960000000003FF00000000000000000007FF0E9
:10097000000000000000001FF87FF00000000000F1
:1009800000003FFE7FF0000000000000003FFF7FFE
:10099000F0000000000000001FFFFBE0000000006E
:1009A0000000000FFFF9FFC00000000000000FFF73
:1009B000F9FFF800000000000007FFF1FFFF000052
:1009C0000000000003FC73FFFF8000000000000136
:1009D000FE3FFFFF80000000000000FF1E0FFF0031
:1009E0000000000000007FFE1FFC0000000000006F
:1009F000003FFFFFF8000000000000000FDFFFE0F5
:100A0000000000000000001F19FFC00000000000EF
:100A100000003F3CFF00000000000000007E7CF86A
:100A200000000000000000007FFE7C0000000000CD
:100A3000000000FFFFFC0000000000000000FFFFBE
:100A4000FE0000000000000000FFFFFE00000000AC
:100A500000000001FFEFFE0000000000000001FFA9
:100A6000CFFE0000000000000003FF07FE000000B2
:100A70000000000003FC07FE00000000000000036F
:100A8000F003FE00000000000000018000FE0000F6
:100A900000000000000000007E00000000000000D8
:100AA0000000003E000000000000000000000C00FC
:100AB0000000000000078000FC000003C0000000F0
:100AC000078001FC000003C0000000078001FC005B
:100AD0000003C0000000078001E00000001E0000CD
:100AE00000078001E00000001E007FE3F79FF9FD92
:100AF000E7787BDFC0FFF7FFBFFDFDFF787BDFC03E
:100B0000FFF7FFBFFDFDFF787BDFC0F0F787BC3D3F
:100B1000E1FF787BDE00F0F787BC3DE1F0787BDE1B
:100B20000000F787803DE1E0787BDE007FF7879F5C
:100B3000FDE1E0787BDE00FFF787BFFDE1E0787B39
:100B4000DE00F0F787BC3DE1E0787BDE00F0F78760
:100B5000BC3DE1E0787BDE00F0F787BC3DE1E0786A
:100B60007BDE00FFF7FFBFFDE1E07FFBDFC0FFF7AB
:100B7000FFBFFDE1E07FFBDFC07CF3F39F3DE1E0E1
:100B80003E7BCFC00000000000000000000000FF1E
:100B9000FFFFFFFFFFFFFFFFFFC0FFFFFFFFFD683D
:100BA000DB111A31C0FFFFFFFFFD2B5AFB6AEFC0BC
:100BB000FFFFFFFFFD4B5B3B1A33C0FFFFFFFFFD55
:100BC0006B5BDB6AFDC000002100240027002A00C7
:100BD0002D003000330001010000040107010A016B
:100BE00000002200250028002B002E0031003400D8
:100BF00002010000050108010B01050505050705B7
:100C000008080808020202020A0A08080404040488
:100C100001010101010101010303030303030303B4
:100C2000040707070C0C0C0C0C0C0C0C0202020243
:100C300006060606060606060B0B0B0B0B0B0B0B2C
:100C400001021020200808102040102040800201DE
:100C500002010804020101020408102040808040C3
:100C600020100804020180040201804020100804C2
:100C70000201080402010102040810204080010260
:100C800004081020408000000A0B02090C0D0E0819
:100C90000703040100000000000000000000000045
:100CA0000000000000000000000000000000000044
:100CB0000000121110000000000000000000000001
:100CC0000000000000000000000000002200FF21E2
:100CD000D51A582011241FBECFEFD1E2DEBFCDBF01
:100CE00000E00CBF12E0A0E0B2E0E0E2F8E400E0D7
:100CF0000BBF02C007900D92AC37B107D9F724E0C3
:100D0000ACE7B2E001C01D92A733B207E1F716E0ED
:100D1000C9E6D6E000E006C021970109802FFE0158
:100D20000E94C522C836D10780E00807A9F70E94B3
:100D3000581B0C94FE230C9400000895282F30E0DB
:100D4000F901EA57F34F9491F901E05CF34F4491B4
:100D50002650344FF9012491222309F435C09923F8
:100D600011F191509231F8F4E92FF0E08827E45422
:100D7000F94F8F4F0C94C522ED06F106CE06E5061D
:100D8000E906D306F406FA06FE06040708070C0770
:100D900012071607D3061A07200724078091800040
:100DA0008F7780938000E22FF0E0EE0FFF1FE0527C
:100DB000F44FA591B4918FB7F894EC91611148C0AC
:100DC00040954E234C938FBF0895809180008F7D76
:100DD000E8CF80918000877FE4CF84B58F7784BD92
:100DE000E2CF84B58F7DFBCF8091B0008F77809369
:100DF000B000D9CF8091B0008F7DF9CF8091900065
:100E00008F7780939000CFCF809190008F7DF9CF26
:100E100080919000877FF5CF8091A0008F7780939D
:100E2000A000C1CF8091A0008F7DF9CF8091A0005C
:100E3000877FF5CF809120018F7780932001B3CFFA
:100E4000809120018F7DF9CF80912001877FF5CFA0
:100E50004E2BB8CFCF93DF9390E0FC01E05CF34FD3
:100E600024918650944FFC0184918823D1F090E026
:100E7000880F991FFC01EA53F44FA591B491FC012E
:100E8000E052F44FC591D491623071F49FB7F89459
:100E90003C91822F809583238C93E8812E2B28838D
:100EA0009FBFDF91CF9108958FB7F894EC912E2BCF
:100EB0002C938FBFF6CF1F93CF93DF93182FEB01A7
:100EC00061E00E942A07209739F460E0812FDF91CA
:100ED000CF911F910C949E06CF3FD10511F461E094
:100EE000F5CFE12FF0E0EA57F34FE491E150E23122
:100EF00008F0B3C0F0E08827EF57F84F8F4F0C94FD
:100F0000C52293079B07A007AA07B4072D08BE07B1
:100F1000C607CE07D807E207EC07FB0705082D0830
:100F20000F081908230884B5806884BDC7BDDF9108
:100F3000CF911F91089584B5806284BDC8BDF7CF5D
:100F400080918000806880938000D0938900C09356
:100F50008800EDCF80918000806280938000D093E4
:100F60008B00C0938A00E3CF8091800088608093DB
:100F70008000D0938D00C0938C00D9CF8091B000B9
:100F800080688093B000C093B300D1CF8091B0004F
:100F900080628093B000C093B400C9CF809190006C
:100FA000806880939000D0939900C0939800BFCF41
:100FB00080919000806280939000D0939B00C093BA
:100FC0009A00B5CF80919000886080939000D09374
:100FD0009D00C0939C00ABCF8091A000806880935F
:100FE000A0008091A0008F7B8093A000D093A900E7
:100FF000C093A8009CCF8091A00080628093A00045
:10100000D093AB00C093AA0092CF8091A0008860DB
:101010008093A000D093AD00C093AC0088CF8091A6
:101020002001806880932001D0932901C09328017A
:101030007ECF80912001806280932001D0932B018C
:10104000C0932A0174CF8091200188608093200191
:10105000D0932D01C0932C016ACFC038D1050CF07C
:101060003ECF33CF3FB7F89480913C0390913D033E
:10107000A0913E03B0913F0326B5A89B05C02F3F2A
:1010800019F00196A11DB11D3FBFBA2FA92F982FAE
:101090008827BC01CD01620F711D811D911D42E0A9
:1010A000660F771F881F991F4A95D1F708958F9271
:1010B0009F92AF92BF92CF92DF92EF92FF924B013D
:1010C0005C010E9432086B017C010E9432086C199D
:1010D0007D098E099F09683E734081059105A8F33B
:1010E00021E0821A9108A108B10888EEC80E83E0B9
:1010F000D81EE11CF11C81149104A104B10429F74C
:10110000FF90EF90DF90CF90BF90AF909F908F9027
:1011100008952FB7F8946091380370913903809146
:101120003A0390913B032FBF08950F931F93809133
:10113000440390914503892B91F461E081E30E947F
:101140009E0661E08FE10E949E060E9489086093DE
:1011500046037093470380934803909349038FEAB3
:1011600098E090934503809344030E94890800917E
:101170004603109147032091480330914903601BB7
:10118000710B820B930B613571058105910580F020
:1011900060E081E30E949E0660E08FE10E949E066F
:1011A000109245031092440383E01F910F9108951C
:1011B00080E0FBCF809133039091340301969093AC
:1011C000340380933303089580913503909136035F
:1011D00001969093360380933503089508950895FA
:1011E0000895AF92BF92CF92DF92EF92FF920F934A
:1011F0001F93CF93DF936C017B018B01040F151FAD
:10120000EB015E01AE18BF08C017D10759F0699114
:10121000D601ED91FC910190F081E02DC601199568
:10122000892B79F7C501DF91CF911F910F91FF9025
:10123000EF90DF90CF90BF90AF900895FC01538D59
:10124000448D252F30E0842F90E0821B930B5417A0
:1012500010F0CF96089501970895FC01918D828D2D
:10126000981761F0A28DAE0FBF2FB11D5D968C91C6
:10127000928D9F5F9F73928F90E008958FEF9FEF05
:101280000895FC01918D828D981731F0828DE80FC1
:10129000F11D858D90E008958FEF9FEF0895FC017B
:1012A000918D228D892F90E0805C9F4F821B910948
:1012B0008F73992708958AE493E00E944F0921E0F3
:1012C000892B09F420E0822F0895FC01A48DA80F3A
:1012D000B92FB11DA35ABF4F2C91848D90E0019678
:1012E0008F739927848FA689B7892C93A089B18998
:1012F0008C91837080648C93938D848D981306C039
:101300000288F389E02D80818F7D80830895EF929C
:10131000FF920F931F93CF93DF93EC0181E0888FAF
:101320009B8D8C8D98131AC0E889F989808185FF7F
:1013300015C09FB7F894EE89FF896083E889F98921
:1013400080818370806480839FBF81E090E0DF9123
:10135000CF911F910F91FF90EF900895F62E0B8D76
:1013600010E00F5F1F4F0F731127E02E8C8D8E1131
:101370000CC00FB607FCFACFE889F989808185FF98
:10138000F5CFCE010E946509F1CFEB8DEC0FFD2F5B
:10139000F11DE35AFF4FF0829FB7F8940B8FEA8953
:1013A000FB8980818062CFCFCF93DF93EC01888D62
:1013B0008823B9F0AA89BB89E889F9898C9185FDD0
:1013C00003C0808186FD0DC00FB607FCF7CF8C915E
:1013D00085FFF2CF808185FFEDCFCE010E946509A8
:1013E000E9CFDF91CF91089580E090E0892B29F03B
:1013F0000E945B0981110E94000080E090E0892B2F
:1014000049F080E090E0892B29F00E9400008111D2
:101410000E94000080E090E0892B49F080E090E09D
:10142000892B29F00E94000081110E94000080E0B9
:1014300090E0892B49F080E090E0892B29F00E9410
:10144000000081110C9400000895EF92FF920F9319
:101450001F93CF93DF93EC01EC80FD806E157F0529
:101460000CF070C057FF04C0240F351F50E040E05F
:101470008E819F81FA01E20FF31F8E179F071CF4E4
:101480009C01241B350B121613060CF05BC0922F27
:10149000842F8695869586958E9DD0018F9DB00D63
:1014A00011246A0F7B1FAF8DB8A1A60FB71F47701D
:1014B00049F188E0841B482F682F70E0FB01E45F4E
:1014C000F84FE491281708F063C0621B71092FEFF1
:1014D00030E002C0359527956A95E2F7E2230130A6
:1014E000110539F0B0F10230110561F58C91E82752
:1014F00002C08C91E82BEC93941720F12C813D8154
:10150000A20FB31FE92FE41BE83078F00230110579
:1015100021F58E2F9C9190959C932C813D81A20F5B
:10152000B31F88508830B0F7E770EE2359F0F0E031
:10153000EC5FF84FE49101301105F9F010F1023041
:10154000110519F1DF91CF911F910F91FF90EF904D
:101550000895E0958C91E823CECF81E00115110527
:1015600009F480E081959E2F8C932C813D81A20F00
:10157000B31F98509830C0F7D7CF8C91E82BEC93DD
:10158000E1CFE0958C91E823FACF8C91E827F7CF53
:101590000130110509F4ADCFE0F20230110509F474
:1015A000A5CFAE0DBF1DAECF0F931F93CF93DF938B
:1015B00077FF04C0260F371F70E060E0DC0114964F
:1015C000CD91DC91FB01E20FF31FCE17DF071CF476
:1015D0009E01261B370B121613064CF5FA0157FD18
:1015E0003796A3E0F595E795AA95E1F7EC9FD00132
:1015F000ED9FB00DFC9FB00D11246A0F7B1FDC0125
:101600005F96ED91FC91E60FF71F4770552781E03B
:1016100090E001C0880F4A95EAF7482F0130110584
:1016200059F0A8F02E0F3F1F02301105E1F0DF91B5
:10163000CF911F910F9108952E0F3F1FE217F307CF
:10164000B1F38191DF011197842B8C93F7CF8095B3
:101650002E0F3F1FE217F30751F39191DF0111970E
:1016600098239C93F7CFE217F30709F38191DF01E9
:10167000119784278C93F7CF0F931F93FA01DC0106
:1016800056964C9156974230E9F04330A1F14130E3
:1016900061F514964D915C91DA01AE1BBF0BFD0113
:1016A000E21BF30B77FD0BC0DC0116964D915C91AC
:1016B0006417750724F4AB01BF010E94D40A1F917F
:1016C0000F91089514964D915C91DA01A61BB70B0A
:1016D000BD0161507109DC0116964D915C91DA01F2
:1016E000AE1BBF0BFD01E21BF30B77FDE8CFAF0193
:1016F0000E94250AE4CF16964D915C91DA01A61B53
:10170000B70BBD0161507109CDCF0F931F93FA0143
:10171000DC0156964C9156974230A9F0433091F136
:10172000413019F514964D915C91DA01AE1BBF0B57
:10173000FD013197F7FD04C0AB01BF010E94250AEE
:101740001F910F91089514964D915C91DA01A61B9B
:10175000B70BBD01DC0116964D915C91DA01AE1B11
:10176000BF0BFD013197621B730BF7FDE9CFDC0165
:1017700016964D915C91E417F50714F7AF010E949E
:10178000D40ADECF16964D915C91DA01A61BB70BF9
:10179000BD01621B730BCECFFC0177FD64C0808559
:1017A0009185681779070CF05EC057FD5CC0828593
:1017B0009385481759070CF056C086898230B1F0DE
:1017C000833029F1813041F484819581841B950B0C
:1017D000AB01BC01615071092130310509F108F4F8
:1017E00043C02230310509F463C008958481958196
:1017F000DC01A61BB70BBD01615071098681978181
:10180000DC01A41BB50BAD0141505109E5CF868128
:101810009781861B970BBA01AC0141505109DCCF6F
:10182000CA0157FD0796A3E095958795AA95E1F71C
:10183000A481B5818A9F90018B9F300D9A9F300DB6
:101840001124620F731F078CF0A1E02DE60FF71F24
:101850004770552721E030E001C0220F4A95EAF792
:101860008081822B80830895CA0157FD079633E05B
:10187000959587953A95E1F7A481B5818A9F900166
:101880008B9F300D9A9F300D1124620F731F078CB0
:10189000F0A1E02DE60FF71F4770552781E090E09B
:1018A00001C0880F4A95EAF7809590818923DACFA5
:1018B000CA0157FD079623E0959587952A95E1F78C
:1018C000A481B5818A9F90018B9F300D9A9F300D26
:1018D0001124620F731F078CF0A1E02DE60FF71F94
:1018E0004770552721E030E001C0220F4A95EAF702
:1018F00080818227B7CF08958EBD00000DB407FE0A
:10190000FDCF8EB508958CBD9DBD08950895FC0151
:101910006370668B8481958126813781613039F0CF
:10192000633029F091878087338722870895318734
:1019300020879387828708952F923F924F925F92DC
:101940006F927F928F929F92AF92BF92CF92DF92CF
:10195000EF92FF920F931F93CF93DF93CDB7DEB734
:101960006A970FB6F894DEBF0FBECDBF9A8F898FEE
:101970007A8369834A01D22E18870F833701BC2CE2
:10198000DC0159962D913C915A972115310509F0AA
:1019900015C118968D919C911997681779070CF0CD
:1019A000D7C11A968D919C91481759070CF0D0C158
:1019B0004C2C512CB6E0CB9E600D711D11247C8700
:1019C0006B87161617060CF0C3C1EA2DF0E0FA87F4
:1019D000E98793E0EE0FFF1F9A95E1F7F88BEF8709
:1019E000CF01840F951F181619060CF0B1C1A98DEF
:1019F000BA8D58968C91811104C0BFEABD1508F4C8
:101A0000D394A98DBA8DED91FC9111970284F38541
:101A1000E02DCD011995B5E0DB9EC0011124E981CF
:101A2000FA81FC83EB83312C212C9C012C5F3D4FF0
:101A3000388F2F8B4A2D50E05E8B4D8BEF89F88DC0
:101A4000E20DF31D44919E828D82D12CC12C6981BF
:101A50007A81620D731D7A8B698B842F90E09C8B49
:101A60008B8BE98DFA8DA081B18140FF82C0F1E0BE
:101A7000BF126FC0AF126DC01C96ED91FC912F810B
:101A80003885A4014C0D5D1D69897A89898D9A8DEF
:101A90001995EB89FC89F595E7954E2F5FEFC51AEF
:101AA000D50A6D817E818D899E89680F791F7E831D
:101AB0006D8398E0C916D10481F6AFEF2A1A3A0A6D
:101AC000EB81FC81E40DF51DFC83EB83F5E02F1623
:101AD000310409F0B3CF2F81388526153705B9F0C9
:101AE000A98DBA8DED91FC91B1E0BB1257C0AB123C
:101AF00055C069817A816B5F7F4F0088F189E02D45
:101B0000830128E030E0A401898D9A8D1995A98D73
:101B1000BA8DED91FC9111970688F789E02DCD01E2
:101B20006A960FB6F894DEBF0FBECDBFDF91CF919E
:101B30001F910F91FF90EF90DF90CF90BF90AF90EB
:101B40009F908F907F906F905F904F903F902F90DD
:101B500019941E96ED91FC91EF80F88409851A8501
:101B600092014D815E816B817C81898D9A8D199561
:101B700090CF2F8138852615370509F48ACF31E0BB
:101B8000B31207C0A31205C01C96ED91FC919301FE
:101B900078CF1E96ED91FC917301E0CF6B857C852B
:101BA000641975090684F785E02D73010F8518897E
:101BB0009201A401898D9A8D1995A9CFF9013496C6
:101BC0009491329745915491D91AB7E0DB9E400D1C
:101BD000511D1124F901259134913C8B2B8BFA0175
:101BE00025903490FA013296749031963491398B65
:101BF000329664903196449041E04C1518F04A15A5
:101C000008F07FC0662D062C000C770B7C836B835D
:101C1000842D042C000C990B9E838D83A98DBA8D85
:101C2000ED91FC9111970284F385E02DCD0119957A
:101C3000512CD12CC12CEA2DF0E0FA87E9872B2D0D
:101C400030E03C872B87A401440D511D47FC5A9579
:101C5000588F4F8B69817A81660D711D67FC7A956B
:101C60007E876D877989C71608F051CF2C2D30E01B
:101C70004D815E81420F531FA985BA854A9FC001DD
:101C80004B9F900D5A9F900D1124FC01E80DF91DFA
:101C9000F88BEF87852D612C4F89588D420F531F8C
:101CA0005E8B4D8B671408F050C044244394480E5B
:101CB000877041F4C1010196EB89FC89E20DF31DA7
:101CC000D4901C01D7FE19C0A98DBA8DED91FC915D
:101CD000662D70E0B1E0BB1219C0AB1217C02D85A4
:101CE0003E85620F731F0484F585E02D2F813885B2
:101CF0004D895E89898D9A8D1995DD0C6394842DAB
:101D0000D1CF1E821D821C821B8288CF4B815C81B9
:101D1000640F751FAB85BC856A9FC0016B9F900DDA
:101D20007A9F900D112469817A81680F791F06844A
:101D3000F785E02DEF80F88409851A859D014F8590
:101D40005889898D9A8D1995D8CF570CC3948ACF0D
:101D50006A960FB6F894DEBF0FBECDBFDF91CF916C
:101D60001F910F91FF90EF90DF90CF90BF90AF90B9
:101D70009F908F907F906F905F904F903F902F90AB
:101D800008958F929F92AF92CF92EF92FF920F930E
:101D90001F93CF93DF93EC01262F898D9A8D0097A7
:101DA00009F051C06A30D1F41D861C868D8948E047
:101DB000849F900111248E859F85820F931F9F879A
:101DC0008E8781E090E0DF91CF911F910F91FF907E
:101DD000EF90CF90AF909F908F9008956D3089F3E2
:101DE000CC88AD888F898823C1F08C859D8536E0AD
:101DF000C39E800D911D11244885598548175907A8
:101E000064F44E855F851D861C8638E0A39EC00164
:101E10001124840F951F9F878E87EA88FB88088985
:101E200019894E855F856C857D85CE010E949C0C4D
:101E30002C898C859D8546E0249F800D911D112461
:101E40009D878C87BECF6A3069F41D861C86FC0195
:101E50003896E4912D898E859F85E29F800D911D96
:101E60001124ADCF6D3009F4ACCFFC013496349120
:101E7000631708F4A6CF3296E491E61708F4A1CFD1
:101E8000FC01329685909490462F431B342F47E0F7
:101E9000349F800C911C1124F401329634913196B8
:101EA000E4913323A9F1EE2399F1CC88F40135961E
:101EB000E491AD884F89442301F10E2E000CFF0BF5
:101EC000E30FF11DCE9EA001CF9E500D11246C8515
:101ED0007D85460F571F68857985641775076CF4F3
:101EE0004E855F851D861C86FC013896E491AE9E6A
:101EF000400D511D11245F874E87EA88FB880889B1
:101F000019894E855F856C857D85CE010E949C0C6C
:101F1000F4013496E4912C898C859D85E29F800D97
:101F2000911D11248DCF6F927F928F929F92AF92CD
:101F3000BF92CF92DF92EF92FF920F931F93CF93B6
:101F4000DF93EC016B015A0139014801E881F98105
:101F50000284F385E02D1995E881F9810288F389DF
:101F6000E02D87019301A501B601CE011995A501C8
:101F7000480D591D41505109E881F9810288F389C2
:101F8000E02D9301B601CE011995E881F981008811
:101F9000F189E02D9401A501B601CE011995C60C79
:101FA000D71CB60161507109E881F9810088F18977
:101FB000E02D9401A501CE011995E881F9810688EB
:101FC000F789E02DCE01DF91CF911F910F91FF9006
:101FD000EF90DF90CF90BF90AF909F908F907F90C9
:101FE0006F9019946F927F928F929F92AF92BF924F
:101FF000CF92DF92EF92FF920F931F93CF93DF93D5
:102000005C01EB016A01490138018701DC01ED91B6
:10201000FC916217730719F5641675062CF0962D5E
:10202000872D3A01C92ED82E9601261937092F5F20
:102030003F4F048CF58DE02DA301BE01C50119951C
:10204000DF91CF911F910F91FF90EF90DF90CF9094
:10205000BF90AF909F908F907F906F90089546159E
:10206000570591F42617370724F0892D4B01C22F0D
:10207000D82F9E01281939092F5F3F4F068CF78D05
:10208000E02DA601B401DACF0284F385E02D199585
:10209000D501ED91FC910488F589E02D830194012F
:1020A000A601BE01C5011995D501ED91FC910688E7
:1020B000F789E02DC501DF91CF911F910F91FF901E
:1020C000EF90DF90CF90BF90AF909F908F907F90D8
:1020D0006F901994EF92FF920F931F93DC011A9661
:1020E0000D911C911B9718962D913C911997ED918C
:1020F000FC9100A0F1A1E02D7B0150E040E070E0F8
:1021000060E019951F910F91FF90EF9008954F9205
:102110005F926F927F928F929F92AF92BF92CF9277
:10212000DF92EF92FF920F931F93CF93DF936C0197
:102130002B015A0139014801DC01ED91FC91028427
:10214000F385E02D1995E201640C751CD601ED9123
:10215000FC91C615D7055CF40088F189E02D870154
:102160009401A501BE01C60119952196EFCF0688FD
:10217000F789E02DC601DF91CF911F910F91FF905C
:10218000EF90DF90CF90BF90AF909F908F907F9017
:102190006F905F904F9019948F929F92AF92BF92E1
:1021A000CF92DF92EF92FF920F931F93CF93DF9323
:1021B000EC015B014A016901E881F9810284F38540
:1021C000E02D199595012C0D3D1D21503109E88117
:1021D000F9810488F589E02D78018401A401B50115
:1021E000CE011995E881F9810688F789E02DCE01A5
:1021F000DF91CF911F910F91FF90EF90DF90CF90E3
:10220000BF90AF909F908F9019948F929F92AF92B2
:10221000BF92CF92DF92EF92FF920F931F93CF93D3
:10222000DF93EC015B014A0169017801E881F981E2
:102230000284F385E02D1995C80CD91C8601015044
:102240001109E881F9810488F589E02D9501A4013F
:10225000B501CE011995E881F9810688F789E02D4D
:10226000CE01DF91CF911F910F91FF90EF90DF9002
:10227000CF90BF90AF909F908F901994EF92FF9264
:102280000F931F93DC01ED91FC9100A0F1A1E02DD3
:1022900019951F910F91FF90EF9008950F931F9341
:1022A000DC01ED91FC91068CF78DE02D19951F91C5
:1022B0000F9108950F931F93DC01ED91FC91048C15
:1022C000F58DE02D19951F910F910895DC01ED9189
:1022D000FC910084F185E02D19943F924F925F921A
:1022E0006F927F928F929F92AF92BF92CF92DF9226
:1022F000EF92FF920F931F93CF93DF935C017B01CB
:102300004A016901390187E0680E711C93E07594F8
:1023100067949A95E1F72B01400E511E10E000E002
:10232000312CD0E0C0E0CE0187709927330C892B87
:1023300059F4FE0183E0F595E7958A95E1F7E00F02
:10234000F11FE80DF91D349037FE0AC021E030E09E
:10235000A701B5016C0F7D1F83EF93E00E9466110A
:102360002196CC16DD06F9F68FEFE81AF80A060D6D
:10237000171DE414F504A9F6DF91CF911F910F9179
:10238000FF90EF90DF90CF90BF90AF909F908F9095
:102390007F906F905F904F903F9008952F923F9263
:1023A0004F925F926F927F928F929F92AF92BF9265
:1023B000CF92DF92EF92FF920F931F93CF93DF9311
:1023C00000D000D0CDB7DEB73C016A013E832D833B
:1023D000FC82EB825801A41AB50AB7FE03C0B1947F
:1023E000A194B1088D809E80861A970A97FE03C03B
:1023F0009194819491088A149B045CF0902F812F12
:102400000D811E819D838E839C2D8D2D6B01692FE7
:10241000782F0C151D055CF09D818E817E836D8368
:10242000692F782F902F812F8601C92ED82E160163
:10243000201A310A2B012D813E81421A530A57FE80
:1024400003C0519441945108710137FE03C03FEF1E
:10245000E31AF30AF594E7948D819E818617970716
:102460005CF5A1E0B0E0BA83A983C016D1064CF1B7
:10247000D301ED91FC910484F585E02D2B813C8105
:10248000A8016D817E818A149B041CF04D815E81C0
:10249000B801C3011995E418F508F7FE0AC02D81AB
:1024A0003E8189819A81280F391F3E832D83E20C5A
:1024B000F31C0F5F1F4FD9CF2FEF3FEF3A832983D4
:1024C000D4CF26960FB6F894DEBF0FBECDBFDF91F6
:1024D000CF911F910F91FF90EF90DF90CF90BF9021
:1024E000AF909F908F907F906F905F904F903F90B4
:1024F0002F90089508952091E202260F3327331F6D
:1025000021323105ECF420910603FC0190E080E0DB
:10251000243069F082E00895A091E2022191AC019B
:102520004E535D4FA40FB52FB11D2C930196861706
:1025300098F38091E202680F6093E20280E00895D0
:1025400081E008951092060381E0809308031092C1
:10255000070361E084E10E949E0661E085E10E943C
:102560009E06E9EBF0E080818E7F808380818D7F05
:10257000808388E48093B80085E48093BC0008954C
:10258000CF93DF9391E09093C1028823B9F0C0917B
:10259000B800D091BA008091BC008A7B8093BC00C7
:1025A00060E084E10E949E0660E085E10E949E0654
:1025B0000E94A212D093BA00C093B800DF91CF91CD
:1025C0000895E091320380913103E81730F4F0E090
:1025D000E456FD4F808190E008958FEF9FEF0895BE
:1025E00090913203809131032FEF3FEF981748F419
:1025F000E92FF0E0E456FD4F208130E09F5F90939B
:102600003203C90108958091310390913203891BEF
:10261000990B0895CF92DF92EF92FF920F931F9341
:10262000CF93DF937C01CB018A01209143032223C6
:1026300089F0EB016B01C40ED51ECC15DD0569F0E8
:102640006991D701ED91FC910190F081E02DC701D6
:102650001995F3CF642F0E947B12C801DF91CF91AF
:102660001F910F91FF90EF90DF90CF900895CF933F
:10267000DF931F92CDB7DEB76983209143032223F6
:10268000F9F020914003203258F021E030E0FC01C5
:102690003383228390E080E00F90DF91CF91089503
:1026A00080914103E82FF0E0E458FD4F9981908339
:1026B0008F5F809341038093400381E090E0ECCFF3
:1026C00061E0CE0101960E947B12F7CFCF92DF929C
:1026D000EF92FF920F931F93CF93DF93D09140031C
:1026E00081E0D13208F09CC0C09142030E943208C0
:1026F0006B017C018091060381116CC082E08093A4
:10270000060381E0809308038FEF80930503109206
:102710002A03D0932903ACE7B2E0E9E0F3E080E0DC
:10272000D8138DC010922B0380912B03CC0FC82B94
:10273000C0932B0380910703813009F084C010926D
:1027400007030E9432086B017C0180912B03809368
:10275000BB008091BD029091BE02A091BF02B091DA
:10276000C002892B8A2B8B2BA1F00E94320800918A
:10277000BD021091BE022091BF023091C0026C19BF
:102780007D098E099F09061717072807390708F4DE
:1027900042C08091BC0083FDD8CF85EC8093BC0003
:1027A0000E9432086B017C0180910603823009F49B
:1027B0004CC0809105038F3F09F469C080910503E7
:1027C000803209F466C080910503803309F463C048
:1027D00084E026C08091BD029091BE02A091BF020C
:1027E000B091C002892B8A2B8B2B09F483CF0E94D6
:1027F00032080091BD021091BE022091BF023091BB
:10280000C0026C197D098E099F0906171707280752
:10281000390708F06FCF8091BC020E94C01285E09A
:10282000109241031092400310924303DF91CF9125
:102830001F910F91FF90EF90DF90CF9008959D91A1
:1028400091938F5F6DCF85EEA9CF8091BD0290915E
:10285000BE02A091BF02B091C002892B8A2B8B2BA4
:1028600009F4A2CF0E9432080091BD021091BE026D
:102870002091BF023091C0026C197D098E099F0919
:10288000061717072807390708F08ECFC4CF80E056
:10289000C7CF82E0C5CF83E0C3CFEF92FF920F9303
:1028A0001F93CF93DF937C01C62F809110049091EA
:1028B0001104009709F459C02091140431E03093B9
:1028C0004303209342031092410310924003DC0122
:1028D000ED91FC910190F081E02D60E01995870168
:1028E000EE24E394F12CD1E0C1508091100490913A
:1028F0001104CF3F91F1B0E2EB16F104D8F00E9441
:102900006613809110049091110420911404D093C7
:102910004303209342031092410310924003DC01D1
:10292000ED91FC910190F081E02D60E01995EE248D
:10293000E394F12C8091100490911104F8016491BA
:10294000DC01ED91FC910190F081E02D1995BFEF34
:10295000EB1AFB0A0F5F1F4FC7CFDF91CF911F917B
:102960000F91FF90EF900C946613E0912004F0918A
:10297000210490818091260480958923808387019A
:10298000C15008F438C0F801849120910E043091B0
:102990000F04232B29F00E947C0C0F5F1F4FF0CFF8
:1029A00028E030E040E8E0911C04F0911D04909193
:1029B0002404582F5423D9F05081952B9083E09113
:1029C0001E04F0911F04908150912504952B908353
:1029D000E0911E04F0911F04508190912504909580
:1029E00095239083469521503109E9F6D6CF508141
:1029F00090959523E3CFDF91CF911F910F91FF9099
:102A0000EF9008951F93CF93DF93EC018D8D9E8DF2
:102A1000009721F1162F29A131E030934303209331
:102A200042031092410310924003DC01ED91FC91AE
:102A30000190F081E02D60E019958D8D9E8DDC0177
:102A4000ED91FC910190F081E02D612F19958D8D14
:102A50009E8DDF91CF911F910C946613ADA5BEA5FD
:102A60009C918BA9809589238C938B8D9C8D892B30
:102A700031F0862FDF91CF911F910C947C0C28E0D0
:102A800030E080E8A9A5BAA599A9462F4823C1F04E
:102A90004C91942B9C93ABA5BCA59C914AA9942BDB
:102AA0009C93ABA5BCA54C919AA9909594239C931B
:102AB00086952150310931F7DF91CF911F9108950B
:102AC0004C9190959423E6CFDF92EF92FF920F9373
:102AD0001F93CF93DF938091100490911104892B61
:102AE00009F4A5C0209128043091290440912A04BA
:102AF00050912B0460E074E284EF90E00E94A322E6
:102B00002051310941095109569547953795279527
:102B10002093B80064E08CEC9CE00E944D148091FE
:102B2000F7039091F8038034910509F097C060E2B3
:102B300083EF93E00E9402156091F703615E83EFDB
:102B400093E00E9402152091F9033091FA03C90124
:102B5000079697FD079633E0959587953A95E1F7A7
:102B60002091F7033091F803829F8001839F100D1D
:102B7000929F100D1124C0911204D09113048091E2
:102B80001004909111040C0F1D1F009709F498C0B8
:102B90002091140431E030934303209342031092B8
:102BA000410310924003DC01ED91FC910190F08112
:102BB000E02D60E41995EE24E394F12CDD24D39408
:102BC00080911004909111040C171D0709F44FC057
:102BD000B0E2EB16F104D8F00E9466138091100465
:102BE0009091110420911404D09243032093420346
:102BF0001092410310924003DC01ED91FC91019091
:102C0000F081E02D60E41995EE24E394F12C80919D
:102C10001004909111046991DC01ED91FC910190F7
:102C2000F081E02D1995BFEFEB1AFB0AC9CF809117
:102C30000E0490910F04892B31F080913104909112
:102C400032040E94830CE0912204F09123049081CD
:102C5000809127048095892380835CCF60E083EF97
:102C600093E00E9402156091F703615068CF0E94C3
:102C700066138091100490911104892B09F461C0AE
:102C800020912C0430912D0440912E0450912F045A
:102C900060E074E284EF90E00E94A32220513109A9
:102CA0004109510956954795379527952093B800C6
:102CB000DF91CF911F910F91FF90EF90DF900895DA
:102CC000E0912004F0912104808190912604892BC9
:102CD00080830C171D0769F2899120910E043091B1
:102CE0000F04232B19F00E947C0CF3CF28E030E076
:102CF00040E8E0911C04F0911D0490912404582FA9
:102D00005423D9F05081952B9083E0911E04F091CB
:102D10001F04908150912504952B9083E0911E040F
:102D2000F0911F04508190912504909595239083F4
:102D3000469521503109E9F6CCCF508190959523E5
:102D4000E3CFE0912204F091230480819091270445
:102D5000892B8083ADCF1F93CF93DF93EC01162F88
:102D60008D8D9E8D892BB1F12DA93EA94FA958AD0E
:102D700060E074E284EF90E00E94A32220513109C8
:102D80004109510956954795379527952093B800E5
:102D900066EA111167EACE010E9402158D8D9E8DA3
:102DA000892B41F129AD3AAD4BAD5CAD60E074E2E9
:102DB00084EF90E00E94A32220513109410951097A
:102DC00056954795379527952093B800DF91CF9179
:102DD0001F9108958B8D9C8D892B21F08EAD9FAD19
:102DE0000E94830CEFA5F8A990818CA98095892376
:102DF0008083CECFEFA5F8A980819CA9892B808301
:102E0000E5CF90E080E00895FC0101900020E9F713
:102E10003197AF01481B590BBC0183EF93E00C9431
:102E2000F1088F929F92AF92BF920F931F93CF930F
:102E3000DF93CDB7DEB7A1970FB6F894DEBF0FBE14
:102E4000CDBF19A2423008F44AE08E010F5D1F4F3A
:102E5000842E912CB12CA12CA50194010E94A322B7
:102E6000E62FB901CA01EA30F4F4E05DD801EE932F
:102E70008D01232B242B252B79F790E080E01097F0
:102E800019F0CD010E940417A1960FB6F894DEBF89
:102E90000FBECDBFDF91CF911F910F91BF90AF902B
:102EA0009F908F900895E95CE1CF2091F9033091D4
:102EB000FA03C901079697FD079623E09595879534
:102EC0002A95E1F72091F7033091F803829FA00142
:102ED000839F500D929F500D112470E060E080910F
:102EE0001204909113040C94F7230E94F22385EDB1
:102EF0008093BC008091BD029091BE02A091BF0260
:102F0000B091C0020796A11DB11D23E0B695A7950B
:102F1000979587952A95D1F72091BC0024FD03C091
:102F20001092060308954091BD025091BE02609137
:102F3000BF027091C002452B462B472B69F30097C7
:102F4000A105B10541F02AE22A95F1F700C00197E9
:102F5000A109B109E1CF8091BC020C94C0121F926B
:102F60000F920FB60F9211242F933F938F939F933D
:102F7000AF93BF938091380390913903A0913A03A6
:102F8000B0913B033091370323E0230F2D3758F5E1
:102F90000196A11DB11D20933703809338039093B0
:102FA0003903A0933A03B0933B0380913C03909183
:102FB0003D03A0913E03B0913F030196A11DB11DB9
:102FC00080933C0390933D03A0933E03B0933F0353
:102FD000BF91AF919F918F913F912F910F900FBE15
:102FE0000F901F90189526E8230F0296A11DB11D82
:102FF000D2CF1F920F920FB60F9211240BB60F92E1
:103000002F933F934F935F936F937F938F939F93F0
:10301000AF93BF93EF93FF93E0910E02F0910F02F5
:103020001995FF91EF91BF91AF919F918F917F91F2
:103030006F915F914F913F912F910F900BBE0F9029
:103040000FBE0F901F9018951F920F920FB60F9200
:1030500011240BB60F922F933F934F935F936F936F
:103060007F938F939F93AF93BF93EF93FF93E091E1
:103070000C02F0910D021995FF91EF91BF91AF9164
:103080009F918F917F916F915F914F913F912F9180
:103090000F900BBE0F900FBE0F901F9018951F92B0
:1030A0000F920FB60F9211240BB60F922F933F93EE
:1030B0004F935F936F937F938F939F93AF93BF9340
:1030C000EF93FF93E0910202F09103021995FF91B3
:1030D000EF91BF91AF919F918F917F916F915F9190
:1030E0004F913F912F910F900BBE0F900FBE0F90FD
:1030F0001F9018951F920F920FB60F9211240BB6C6
:103100000F922F933F934F935F936F937F938F9380
:103110009F93AF93BF93EF93FF93E0910002F091E1
:1031200001021995FF91EF91BF91AF919F918F91FE
:103130007F916F915F914F913F912F910F900BBEB7
:103140000F900FBE0F901F9018951F920F920FB601
:103150000F9211240BB60F922F933F934F935F93CF
:103160006F937F938F939F93AF93BF93EF93FF934F
:10317000E0910A02F0910B021995FF91EF91BF9136
:10318000AF919F918F917F916F915F914F913F91FF
:103190002F910F900BBE0F900FBE0F901F901895A0
:1031A0001F920F920FB60F9211240BB60F922F930E
:1031B0003F934F935F936F937F938F939F93AF93BF
:1031C000BF93EF93FF93E0910802F09109021995E4
:1031D000FF91EF91BF91AF919F918F917F916F91EF
:1031E0005F914F913F912F910F900BBE0F900FBEAB
:1031F0000F901F9018951F920F920FB60F921124E7
:103200000BB60F922F933F934F935F936F937F93E0
:103210008F939F93AF93BF93EF93FF93E091060239
:10322000F09107021995FF91EF91BF91AF919F9196
:103230008F917F916F915F914F913F912F910F905F
:103240000BBE0F900FBE0F901F9018951F920F92FC
:103250000FB60F9211240BB60F922F933F934F93FB
:103260005F936F937F938F939F93AF93BF93EF93EE
:10327000FF93E0910402F09105021995FF91EF91FF
:10328000BF91AF919F918F917F916F915F914F917E
:103290003F912F910F900BBE0F900FBE0F901F907C
:1032A00018951F920F920FB60F9211240BB60F9222
:1032B0002F933F934F935F936F937F938F939F933E
:1032C000AF93BF93EF93FF938AE493E00E94650965
:1032D000FF91EF91BF91AF919F918F917F916F91EE
:1032E0005F914F913F912F910F900BBE0F900FBEAA
:1032F0000F901F9018951F920F920FB60F921124E6
:103300000BB60F922F938F939F93EF93FF93E091C0
:103310005A03F0915B038081E0916003F0916103B7
:1033200082FD1DC09081809163038F5F8F73209118
:103330006403821741F0E0916303F0E0E65BFC4F29
:10334000958F80936303FF91EF919F918F912F91C0
:103350000F900BBE0F900FBE0F901F90189580819D
:10336000F2CF1F920F920FB60F9211240BB60F924D
:103370002F933F934F935F936F937F938F939F937D
:10338000AF93BF93EF93FF938091B900887F80360E
:1033900009F44DC008F040C0883209F4A9C028F5EE
:1033A000803109F49DC0C8F4882309F4FBC088303B
:1033B00009F496C0FF91EF91BF91AF919F918F91CA
:1033C0007F916F915F914F913F912F910F900BBE25
:1033D0000F900FBE0F901F901895883109F488C088
:1033E000803241F78093050314C0803409F49DC0F6
:1033F00040F48033B9F38833E9F68093050385EC14
:10340000B0C0803509F485C0883509F496C0883489
:1034100089F60E947717CECF883909F48CC038F529
:10342000883729F050F4883611F0803719F683E098
:10343000809306031092040357C0883809F47BC0B8
:10344000803919F0803809F0B5CF809104038032BB
:1034500008F071C0E091040381E08E0F80930403B3
:103460008091BB00F0E0EC51FD4F80833DC0803B7C
:1034700039F0E0F4803A09F479C0883A09F09ACF3B
:1034800084E0809306031092E3021092E202E0913E
:103490002F03F091300319958091E20281110FC042
:1034A00081E08093E2021092C20209C0803C09F4DC
:1034B000A6CF883C09F4A3CF883B09F07BCFE091ED
:1034C000E30281E08E0F8093E302F0E0EE53FD4FC4
:1034D00080818093BB009091E3028091E20229C039
:1034E00080912B038093BB0085EC8093BC0062CF5E
:1034F00090912A0380912903981758F5E0912A03A7
:1035000081E08E0F80932A03F0E0E75FFC4F80811B
:10351000E9CFE0912A0381E08E0F80932A03809106
:10352000BB00F0E0E75FFC4F808390912A0380911D
:1035300029039817C8F285E8D8CFE0912A0381E0E3
:103540008E0F80932A038091BB00F0E0E75FFC4F71
:1035500080838091080381115CCF81E08093070311
:1035600084EA8093BC001092060324CF85EC8093FC
:10357000BC001092060380910403803230F4E09185
:103580000403F0E0EC51FD4F10826091040370E001
:10359000E0912D03F0912E0384EE92E019951092A4
:1035A000040308CF1092050334CFEAE4F3E013825A
:1035B000128248EE53E060E070E0448355836683F6
:1035C00077838AE192E09183808385EC90E0958710
:1035D000848784EC90E09787868780EC90E0918BDD
:1035E000808B81EC90E0938B828B82EC90E0958BCA
:1035F000848B86EC90E0978B868B118E128E138EC7
:10360000148EA7EEB3E013961C921E921297149696
:103610004D935D936D937C9317978CE292E0119696
:103620009C938E93E3EFF3E01382128220E830E064
:103630003583248380E290E09783868331872087D7
:1036400093878287168A158614861786168681E0E8
:10365000858B848B2FEF3FEF338B228B318B208B2D
:10366000878B108E128E118E8EE392E09183808371
:10367000148E138EB68FA58F10A2178E8FEF84A392
:1036800085A386A387A380A780E89AE1A6E0B0E09F
:1036900085AB96ABA7ABB0AF80EA96E8A1E0B0E00F
:1036A00081AF92AFA3AFB4AF80E586AF17AE0895F8
:1036B000789484B5826084BD84B5816084BD85B50D
:1036C000826085BD85B5816085BD80916E00816019
:1036D00080936E00109281008091810082608093BF
:1036E00081008091810081608093810080918000C1
:1036F0008160809380008091B10084608093B100EC
:103700008091B00081608093B000809191008260D0
:1037100080939100809191008160809391008091CD
:1037200090008160809390008091A10082608093DE
:10373000A1008091A10081608093A1008091A000F0
:1037400081608093A000809121018260809321019B
:10375000809121018160809321018091200181600D
:103760008093200180917A00846080937A00809118
:103770007A00826080937A0080917A0081608093E1
:103780007A0080917A00806880937A001092C1005C
:103790008091120490911304892B11F10E94551706
:1037A0002091F9033091FA038091F7039091F80387
:1037B000213231050CF02BC1B9016052710977FF3C
:1037C00002C06F5F7F4F759567958357910997FD8D
:1037D000019600E210E023E730E046E257E02AC11C
:1037E0002091F9033091FA03C901079697FD0796D6
:1037F000B3E095958795BA95E1F72091F70330915D
:10380000F803AC01429FC001439F900D529F900D61
:1038100011240E94CD229093130480931204892BCB
:1038200009F0BCCF0E9455170E9464151092450301
:103830001092440361E084E00E942A0761E085E081
:103840000E942A0761E080E20E942A0761E082E28A
:103850000E942A0761E08EE10E942A0761E084E26B
:103860000E942A0761E081E30E942A0761E08FE25B
:103870000E942A0761E08DE20E942A0761E08BE244
:103880000E942A0761E089E20E942A0761E087E23C
:103890000E942A0761E085E20E942A0761E083E234
:1038A0000E942A0761E081E20E942A0761E08FE11D
:1038B0000E942A0761E08DE10E942A0761E08BE106
:1038C0000E942A0762E082E00E942A0762E082E109
:1038D0000E942A078AED98E09093010280930002EB
:1038E00080916A008C7F826080936A00EC9A84EEFB
:1038F00098E090930B0280930A02809169008F7385
:10390000806880936900EB9AE0915A03F0915B0321
:1039100082E08083E0915603F09157031082E0919A
:103920005803F09159038FEC808310926203E09169
:103930005E03F0915F0386E08083E0915C03F09189
:103940005D03808180618083E0915C03F0915D0381
:10395000808188608083E0915C03F0915D038081C9
:1039600080688083E0915C03F0915D0380818F7DAE
:1039700080830E9489080E947A214B015C01C4E087
:10398000D0E010923403109233036FEA70E084E0C9
:103990000E945B0764EB70E085E00E945B0761E0DA
:1039A00080E20E949E0660E082E20E949E0661E044
:1039B0008EE10E949E0660E084E20E949E06609175
:1039C000330370913403072E000C880B990B0E946F
:1039D0007C2120E030E044E353E40E94D92023E836
:1039E00032E34CE250E40E94D42087FF15C20E94CB
:1039F00089086B017C010E9489086C197D098E0978
:103A00009F096A30710581059105A8F3D8CFB901E6
:103A10006054710977FF02C06F5F7F4F759567959E
:103A20008255910997FD019600E410E022E530E00F
:103A300046E059E0959587950E946D1182E080934C
:103A400015048091100490911104892B09F494C0FD
:103A50008CE380931404109232031092310310927D
:103A60004103109240030E94A2128EEE98E09093C0
:103A7000300380932F038FEE98E090932E03809372
:103A80002D0380911B0487FD1EC061E00E942A0760
:103A900061E080911B040E949E0661E070E080E07E
:103AA00090E00E94570860E080911B040E949E06EF
:103AB0006AE070E080E090E00E94570861E0809149
:103AC0001B040E949E068091100490911104892B82
:103AD00009F411C1209128043091290440912A044D
:103AE00050912B0460E074E284EF90E00E94A322E6
:103AF0002051310941095109569547953795279528
:103B00002093B80064E082E297E00E944D14609137
:103B1000F903615083EF93E00E94021564E08EE1A7
:103B200097E00E944D148091150464E1813009F4FE
:103B300060E183EF93E00E94021564E08AE197E080
:103B40000E944D148FE8809330048091F703909188
:103B5000F8038038910509F031C18091F903909103
:103B6000FA038034910509F039C180911504813040
:103B700009F4D8C08FECD7C061E0809119040E948D
:103B80002A0761E080911A040E942A078091190493
:103B9000082E000C990BFC01E650F44FE491F0E084
:103BA000EE0FFF1FE052F44F259134913093210422
:103BB00020932004FC01E05CF34FE491E0932604A1
:103BC00080911A04082E000C990BFC01E650F44F6A
:103BD000E491F0E0EE0FFF1FE052F44FA591B49195
:103BE000B0932304A0932204FC01E05CF34FE49122
:103BF000E09327048C91E82BEC9380910E04909134
:103C00000F04892B09F434C0CFB7F89480912C03AA
:103C1000811127C0EFE2FCE08491E5E7FCE094919C
:103C2000E82FF0E0EE0FFF1FEA53F44FA591B49197
:103C3000EC91E92321F461E085E30E949E0661E0B6
:103C400085E30E942A078CB580618CBD8CB58064A9
:103C50008CBD61E084E30E942A0761E083E30E9457
:103C60002A0780912C038F5F80932C03CFBF09CF4D
:103C700061E0809117040E942A0761E08091180496
:103C80000E942A0780911704082E000C990BFC0152
:103C9000E650F44FE491F0E0EE0FFF1FE052F44FD6
:103CA0002591349130931D0420931C04FC01E05CA9
:103CB000F34FE491E093240480911804082E000C43
:103CC000990BFC01E650F44FE491F0E0EE0FFF1F7A
:103CD000E052F44FA591B491B0931F04A0931E0439
:103CE000FC01E05CF34FE491E09325048C91E095B6
:103CF000E823EC93C6CE80910E0490910F04892B9B
:103D000031F080913104909132040E94830CE09153
:103D10002204F091230490818091270480958923C7
:103D20008083F0CE8FE980933004C2E16AED83EFA7
:103D300093E00E9402156C2F83EF93E00E9402151E
:103D400061E883EF93E00E9402156091300483EFF5
:103D500093E00E94021569ED83EF93E00E94021543
:103D60008091150461EF813009F462E283EF93E002
:103D70000E94021566E084E197E00E944D14809154
:103D8000100490911104892BE9F120912C043091B9
:103D90002D0440912E0450912F0460E074E284EFD2
:103DA00090E00E94A3222051310941095109569502
:103DB0004795379527952093B80034CD80369105E7
:103DC00089F48091F9039091FA03409739F4809136
:103DD0001504813029F08FEA80933004C2E0A6CF29
:103DE00080E1FACF80349105C9F78091F903909171
:103DF000FA03809799F780911504813009F0BACEC3
:103E000080E191CFE0912204F09123048081909190
:103E10002704892B808306CD70E060E084E00E9457
:103E20005B0770E060E085E00E945B0761E080E294
:103E30000E949E0660E082E20E949E0661E08EE1A2
:103E40000E949E0660E084E20E949E061092360365
:103E5000109235030E94950870E060E084E00E94B3
:103E60005B0767ED70E085E00E945B0761E080E240
:103E70000E949E0660E082E20E949E0661E08EE162
:103E80000E949E0660E084E20E949E0680913503B7
:103E9000909136038C32914084F40E9489086B0122
:103EA0007C010E9489086C197D098E099F096A307E
:103EB000710581059105A8F3E9CF70E060E084E029
:103EC0000E945B0770E060E085E00E945B0761E0B4
:103ED00080E20E949E0660E082E20E949E0661E00F
:103EE0008EE10E949E0660E084E20E949E06219779
:103EF00009F047CD61E081E20E949E0661E08BE11E
:103F00000E949E060E9489086B017C010E94551741
:103F100081E0809307048093080481E090E090930F
:103F20000604809305049093040480930304109284
:103F300000041092FF031092020410920104C701C2
:103F4000B6010E947A21A50194010E94672020E019
:103F500030E04AE754E40E94D9206B017C014B0118
:103F60005C01AC019B010E949E22882369F086E6D9
:103F700092E00E94041782E792E00E9404170E94D8
:103F800064150E94F409FDCF26013701E89477F803
:103F90002FEF3FEF4FE75FE7C301B2010E949E2280
:103FA00081110DC02FEF3FEF4FE75FE7C301B20173
:103FB0000E94D42018161CF48AE692E0DACF2FEF84
:103FC0003FEF4FE75FE4C701B6010E942C221816AD
:103FD0001CF48EE692E0CDCF2FEF3FEF4FE75FEC82
:103FE000C701B6010E94D42087FDF3CF20E030E066
:103FF000A901C701B6010E94D42087FF0BC06DE262
:1040000083EF93E00E94C10E46015701B7FAB094C6
:10401000B7F8B0942AE037ED43EA5BE3C501B40199
:104020000E9468204B015C010E944B216B017C01C6
:104030000E947A219B01AC01C501B4010E94672056
:104040004B015C014AE0C701B6010E9411176EE204
:1040500083EF93E00E94C10E20E030E040E251E4A3
:10406000C501B4010E9431224B015C010E944B2129
:104070006B01F12CE12C4AE0C701B6010E94111737
:10408000C701B6010E947A219B01AC01C501B401B0
:104090000E94672020E030E040E251E40E9431229B
:1040A0000E944B2190E080E04AE00E94111763CF0C
:1040B0008EE392E09093F4038093F30380911204D3
:1040C00090911304009711F00C94692308955058AF
:1040D000BB27AA270E947F200C94F2210E94E42192
:1040E00038F00E94EB2120F039F49F3F19F426F4B8
:1040F0000C94E1210EF4E095E7FB0C94DB21E92F11
:104100000E94032258F3BA176207730784079507C2
:1041100020F079F4A6F50C9425220EF4E0950B2EF0
:10412000BA2FA02D0B01B90190010C01CA01A00109
:104130001124FF27591B99F0593F50F4503E68F164
:104140001A16F040A22F232F342F4427585FF3CFA5
:10415000469537952795A795F0405395C9F77EF476
:104160001F16BA0B620B730B840BBAF09150A1F0BF
:10417000FF0FBB1F661F771F881FC2F70EC0BA0F45
:10418000621F731F841F48F4879577956795B795CD
:10419000F7959E3F08F0B0CF9395880F08F09927C8
:1041A000EE0F9795879508950E94B72108F481E056
:1041B00008950E94ED200C94F2210E94EB2158F00A
:1041C0000E94E42140F029F45F3F29F00C94DB21A8
:1041D00051110C9426220C94E1210E94032268F3D1
:1041E0009923B1F3552391F3951B550BBB27AA27B0
:1041F00062177307840738F09F5F5F4F220F331FEA
:10420000441FAA1FA9F335D00E2E3AF0E0E832D0B1
:1042100091505040E695001CCAF72BD0FE2F29D0B4
:10422000660F771F881FBB1F261737074807AB0786
:10423000B0E809F0BB0B802DBF01FF2793585F4FFB
:104240003AF09E3F510578F00C94DB210C94262225
:104250005F3FE4F3983ED4F3869577956795B795DD
:10426000F7959F5FC9F7880F911D9695879597F9E8
:104270000895E1E0660F771F881FBB1F6217730761
:104280008407BA0720F0621B730B840BBA0BEE1F76
:1042900088F7E09508950E940B2288F09F5798F0C8
:1042A000B92F9927B751B0F0E1F0660F771F881F3B
:1042B000991F1AF0BA95C9F714C0B13091F00E9455
:1042C0002522B1E008950C942522672F782F8827A6
:1042D000B85F39F0B93FCCF3869577956795B3957C
:1042E000D9F73EF490958095709561957F4F8F4FEB
:1042F0009F4F0895E89409C097FB3EF490958095F0
:10430000709561957F4F8F4F9F4F9923A9F0F92F9B
:1043100096E9BB279395F695879577956795B79519
:10432000F111F8CFFAF4BB0F11F460FF1BC06F5FFF
:104330007F4F8F4F9F4F16C0882311F096E911C011
:10434000772321F09EE8872F762F05C0662371F032
:1043500096E8862F70E060E02AF09A95660F771F46
:10436000881FDAF7880F9695879597F90895990F22
:104370000008550FAA0BE0E8FEEF16161706E8072F
:10438000F907C0F012161306E407F50798F0621B50
:10439000730B840B950B39F40A2661F0232B242B25
:1043A000252B21F408950A2609F4A140A6958FEF44
:1043B000811D811D089597F99F6780E870E060E096
:1043C00008959FEF80EC089500240A9416161706AE
:1043D00018060906089500240A94121613061406F6
:1043E00005060895092E0394000C11F4882352F059
:1043F000BB0F40F4BF2B11F460FF04C06F5F7F4F11
:104400008F4F9F4F089557FD9058440F551F59F0F7
:104410005F3F71F04795880F97FB991F61F09F3FB1
:1044200079F087950895121613061406551FF2CFDA
:104430004695F1DF08C0161617061806991FF1CF2A
:1044400086957105610508940895E894BB27662751
:104450007727CB0197F908950E94B72108F48FEFD1
:1044600008950E9444220C94F2210E94E42138F025
:104470000E94EB2120F0952311F00C94DB210C9489
:10448000E12111240C9426220E94032270F3959FAF
:10449000C1F3950F50E0551F629FF001729FBB273B
:1044A000F00DB11D639FAA27F00DB11DAA1F649FD7
:1044B0006627B00DA11D661F829F2227B00DA11D8A
:1044C000621F739FB00DA11D621F839FA00D611D10
:1044D000221F749F3327A00D611D231F849F600D31
:1044E000211D822F762F6A2F11249F5750409AF05A
:1044F000F1F088234AF0EE0FFF1FBB1F661F771FE6
:10450000881F91505040A9F79E3F510580F00C94B0
:10451000DB210C9426225F3FE4F3983ED4F386958A
:1045200077956795B795F795E7959F5FC1F7FE2B50
:10453000880F911D9695879597F908950E94B72148
:10454000880B990B0895A1E21A2EAA1BBB1BFD0133
:104550000DC0AA1FBB1FEE1FFF1FA217B307E40762
:10456000F50720F0A21BB30BE40BF50B661F771FBA
:10457000881F991F1A9469F760957095809590959A
:104580009B01AC01BD01CF010895EE0FFF1F881FF5
:104590008BBF0790F691E02D19940F931F93CF9343
:1045A000DF938230910510F482E090E0E0913504D1
:1045B000F091360430E020E0B0E0A0E0309799F4CC
:1045C0002115310509F44AC0281B390B2430310567
:1045D000D8F58A819B816115710589F1FB0193836F
:1045E0008283FE0111C040815181028113814817ED
:1045F0005907E0F04817590799F4109761F012969F
:104600000C93129713961C933296CF01DF91CF91A2
:104610001F910F9108950093350410933604F4CF41
:104620002115310551F04217530738F0A901DB017C
:104630009A01BD01DF01F801C1CFEF01F9CF9093DD
:10464000360480933504CDCFFE01E20FF31F819332
:1046500091932250310939832883D7CF2091330495
:1046600030913404232B41F4209112023091130233
:1046700030933404209333042091100230911102BE
:104680002115310541F42DB73EB7409114025091E8
:104690001502241B350BE0913304F0913404E2172A
:1046A000F307A0F42E1B3F0B2817390778F0AC0155
:1046B0004E5F5F4F2417350748F04E0F5F1F509332
:1046C000340440933304819391939FCFF0E0E0E072
:1046D0009CCFCF93DF930097E9F0FC0132971382D0
:1046E0001282A0913504B0913604ED0130E020E053
:1046F0001097A1F420813181820F931F2091330400
:10470000309134042817390709F061C0F09334045C
:10471000E0933304DF91CF910895EA01CE17DF07CC
:10472000E8F54A815B819E0141155105B1F7E90128
:10473000FB83EA8349915991C40FD51FEC17FD07FC
:1047400061F4808191810296840F951FE90199831C
:104750008883828193819B838A83F0E0E0E01296D4
:104760008D919C9113970097B9F52D913C911197DC
:10477000CD010296820F931F2091330430913404AF
:104780002817390739F6309751F5109236041092F0
:104790003504B0933404A0933304BCCFD383C283D5
:1047A00040815181840F951FC817D90761F44E5F6E
:1047B0005F4F88819981480F591F518340838A81B7
:1047C0009B81938382832115310509F0B0CFF0934B
:1047D0003604E09335049ECFFD01DC01C0CF138287
:1047E0001282D7CF81E090E0F8940C94FE23DC0194
:1047F00001C06D9341505040E0F7089516E0C9E6BE
:10480000D6E000E006C0802FFE010E94C52221965E
:10481000011DCA36D10780E00807A9F7F894FFCF39
:10482000F008F008F008F008F008F008F008F008C8
:10483000000037048000000000008709F1081E090D
:10484000D4094F092D0941090000000037130A134C
:1048500001179D060313F012E11200000000C10EC3
:10486000F10801177A12CC0B9D0666113E115A1100
:104870004E11CE119D06870CAB163C0B850B871095
:104880006A10F20F930F6E616E00696E66006F76AC
:0C4890006600207365636F6E64730000A7
:020000040003F7
:10E000000D9489F10D94B2F10D94B2F10D94B2F129
:10E010000D94B2F10D94B2F10D94B2F10D94B2F1F0
:10E020000D94B2F10D94B2F10D94B2F10D94B2F1E0
:10E030000D94B2F10D94B2F10D94B2F10D94B2F1D0
:10E040000D94B2F10D94B2F10D94B2F10D94B2F1C0
:10E050000D94B2F10D94B2F10D94B2F10D94B2F1B0
:10E060000D94B2F10D94B2F10D94B2F10D94B2F1A0
:10E070000D94B2F10D94B2F10D94B2F10D94B2F190
:10E080000D94B2F10D94B2F10D94B2F10D94B2F180
:10E090000D94B2F10D94B2F10D94B2F10D94B2F170
:10E0A0000D94B2F10D94B2F10D94B2F10D94B2F160
:10E0B0000D94B2F10D94B2F10D94B2F10D94B2F150
:10E0C0000D94B2F10D94B2F10D94B2F10D94B2F140
:10E0D0000D94B2F10D94B2F10D94B2F10D94B2F130
:10E0E0000D94B2F141546D656761323536300041AF
:10E0F000726475696E6F206578706C6F72657220DE
:10E1000073746B3530305632206279204D4C530099
:10E11000426F6F746C6F616465723E004875683F52
:10E1200000436F6D70696C6564206F6E203D200048
:10E130004350552054797065202020203D20005FF9
:10E140005F4156525F415243485F5F3D2000415658
:10E1500052204C696243205665723D20004743437C
:10E160002056657273696F6E203D20004350552024
:10E1700049442020202020203D20004C6F7720663D
:10E18000757365202020203D20004869676820665F
:10E190007573652020203D200045787420667573D6
:10E1A00065202020203D20004C6F636B2066757336
:10E1B000652020203D20004D617220203720323024
:10E1C000313300312E362E3800342E332E350056A2
:10E1D00023202020414444522020206F7020636F70
:10E1E00064652020202020696E73747275637469E1
:10E1F0006F6E2061646472202020496E74657272B3
:10E20000757074006E6F20766563746F7200726A49
:10E210006D702020006A6D70200057686174207056
:10E220006F72743A00506F7274206E6F7420737541
:10E2300070706F72746564004D7573742062652030
:10E2400061206C6574746572002000577269747483
:10E25000696E672045450052656164696E672045B7
:10E26000450045452065727220636E743D00504F35
:10E27000525400303D5A65726F2061646472003FF1
:10E280003D43505520737461747300403D454550C3
:10E29000524F4D207465737400423D426C696E6B41
:10E2A000204C454400453D44756D70204545505215
:10E2B0004F4D00463D44756D7020464C415348001B
:10E2C000483D48656C70004C3D4C69737420492F83
:10E2D0004F20506F72747300513D51756974005234
:10E2E0003D44756D702052414D00563D73686F7707
:10E2F00020696E7465727275707420566563746FF0
:10E30000727300593D506F727420626C696E6B00BD
:10E310002A0011241FBECFEFD1E2DEBFCDBF01E046
:10E320000CBF12E0A0E0B2E0EEE1FDEF03E00BBFB6
:10E3300002C007900D92A030B107D9F712E0A0E01B
:10E34000B2E001C01D92AE30B107E1F70F9460F367
:10E350000D948DFE01E20EBF0FEF0DBF11241FBE05
:10E360000D9460F30D9400F020E030E040ED57E0B4
:10E3700005C0FA013197F1F72F5F3F4F2817390792
:10E38000C0F308959C01260F311DC901A0E0B0E043
:10E390002F5F3F4FABBFFC018791882361F08093D3
:10E3A000C6008091C00086FFFCCF8091C0008064D1
:10E3B0008093C000EACF08958DE08093C6008091DD
:10E3C000C00086FFFCCF8091C00080648093C000B5
:10E3D0008AE08093C6008091C00086FFFCCF8091C8
:10E3E000C00080648093C00008950F94C2F10F9420
:10E3F000DCF10895FC019081992359F09093C600B7
:10E400008091C00086FFFCCF8091C0008064809323
:10E41000C0003196992379F70895282F982F929567
:10E420009F70892F805D8A3308F0895F8093C600D2
:10E430008091C00086FFFCCF8091C00080648093F3
:10E44000C000822F8F70982F905D9A3308F0995FEB
:10E450009093C6008091C00086FFFCCF8091C000E1
:10E4600080648093C00008959C01FB01853691056E
:10E470001CF46330710594F0C90164E670E00F94F8
:10E480002EFE605D7F4F6093C6008091C00086FFC6
:10E49000FCCF8091C00080648093C0002B30310598
:10E4A00014F43297B4F0C90164E670E00F942EFEC4
:10E4B0006AE070E00F942EFE605D7F4F6093C600AF
:10E4C0008091C00086FFFCCF8091C0008064809363
:10E4D000C000C9016AE070E00F942EFEC0968093E0
:10E4E000C6008091C00086FFFCCF8091C000806490
:10E4F0008093C00008951F93182F8EE692EE60E07F
:10E500000F94C2F11093C6008091C00086FFFCCF2B
:10E510008091C00080648093C0000F94DCF11F9153
:10E5200008952F923F924F925F926F927F928F92B7
:10E530009F92AF92BF92CF92DF92EF92FF920F9392
:10E540001F93DF93CF93CDB7DEB762970FB6F894E2
:10E55000DEBF0FBECDBF382E622ECA01DB015C01CB
:10E560006D01772420E2222E2E010894411C511CBB
:10E570008BC081E0A81680E0B80681E0C80680E084
:10E58000D80628F0C601AA27BB270F940DF2BB2797
:10E59000AD2D9C2D8B2D0F940DF28A2D0F940DF225
:10E5A0002092C6008091C00086FFFCCF8091C00001
:10E5B00080648093C0009DE29093C6008091C0006B
:10E5C00086FFFCCF8091C00080648093C0002092C1
:10E5D000C6008091C00086FFFCCF8091C00080649F
:10E5E0008093C00019828601750188249924A1E0D6
:10E5F0003A1651F03A1620F0B2E03B1661F409C029
:10E600000BBFF701779007C0C7010F9477FE782EF4
:10E6100002C0F7017080872D0F940DF22092C60082
:10E620008091C00086FFFCCF8091C0008064809301
:10E63000C000872D8052F401EF70F0708F3520F408
:10E64000E40DF51D708204C0E40DF51D8EE280839B
:10E650000894E11CF11C011D111D0894811C911CE2
:10E6600090E18916910409F0C2CF80E190E0A0E02A
:10E67000B0E0A80EB91ECA1EDB1E198AC2010F9493
:10E68000FAF10F94DCF16A94662009F072CF629679
:10E690000FB6F894DEBF0FBECDBFCF91DF911F91B3
:10E6A0000F91FF90EF90DF90CF90BF90AF909F9031
:10E6B0008F907F906F905F904F903F902F90089534
:10E6C0002F923F924F925F926F927F928F929F9282
:10E6D000AF92BF92CF92DF92EF92FF920F931F9370
:10E6E000DF93CF93CDB7DEB7CD53D1400FB6F894BB
:10E6F000DEBF0FBECDBF01E20EBF0FEF0DBF94B75F
:10E70000F894A89514BE80916000886180936000A1
:10E7100010926000789493FF05C0E0910002F091A0
:10E7200001021995279A2F9A8091C00082608093E8
:10E73000C00080E18093C40088E18093C1000000A4
:10E74000EE24FF24870144E0A42EB12CCC24DD2448
:10E7500024C0C5010197F1F70894E11CF11C011DCB
:10E76000111D21E2E2162EE4F20620E0020720E06D
:10E77000120718F031E0C32ED12CC801B70127ECE5
:10E780003BE140E050E00F9441FE611571058105C9
:10E79000910519F485B1805885B98091C00087FD35
:10E7A00003C0C114D104A9F2A6014F5F5F4FC25E3E
:10E7B000DE4F59834883CE51D140C25EDE4F8881FF
:10E7C0009981CE51D140019711F00D9410FEC05D9A
:10E7D000DE4F19821882C053D14060E0C15DDE4F28
:10E7E0001882CF52D14088249924C35DDE4F19820C
:10E7F0001882CD52D140C05EDE4F188219821A8233
:10E800001B82C052D140CE5CDE4F188219821A8220
:10E810001B82C253D140EE24FF2487010BBFF701B6
:10E8200007911691C45CDE4F19830883CC53D14005
:10E830000D940BFEC25EDE4F28813981CE51D1404E
:10E840002130310509F52091C600C25EDE4F1982E4
:10E850001882CE51D14022C02F5F3F4F4F4F5F4FA4
:10E86000213082E138078AE7480780E0580780F0C6
:10E87000C45CDE4FE881F981CC53D140EF5FFF4F9C
:10E8800019F0EE27FF27099420E030E040E050E047
:10E890008091C00087FFE0CF2091C600C35DDE4FAE
:10E8A00048815981CD52D1404F5F5F4FC35DDE4FEC
:10E8B00059834883CD52D140213209F063C64A3092
:10E8C000510508F05FC60894811C911C53E0851621
:10E8D000910409F059C600E010E018C081E280936D
:10E8E000C6008091C00086FFFCCF8091C00080648C
:10E8F0008093C0002F5F3F4F2931310579F70F9486
:10E90000DCF10F5F1F4F0530110519F020E030E0FA
:10E91000E5CF10920A0210920B0210920C02109294
:10E920000D02109206021092070210920802109235
:10E930000902109202021092030210920402109235
:10E9400005028FEE90EE60E00F94F5F180E191EE1C
:10E9500060E00F94C2F18091C00087FFFCCF9091DE
:10E96000C600903608F09F759032B8F09093C600BC
:10E970008091C00086FFFCCF8091C00080648093AE
:10E98000C000A0E2A093C6008091C00086FFFCCF2B
:10E990008091C00080648093C000983409F4D7C18E
:10E9A0009934B8F4923409F459C1933458F490333B
:10E9B00019F1903308F4E3C59F33A1F1903409F0C5
:10E9C000DEC5BDC0953409F470C1963409F0D7C5D1
:10E9D00098C1923509F42BC2933538F49C3409F46C
:10E9E000F5C1913509F0CBC518C2963509F445C279
:10E9F000993509F0C4C567C483E792EE62E00F94CD
:10EA0000F5F110920602109207021092080210927D
:10EA1000090210920A0210920B0210920C0210923C
:10EA20000D0213C18FE792EE62E00F94F5F18FEEC5
:10EA300090EE60E00F94F5F181E291EE60E00F94CA
:10EA4000C2F187EB91EE60E00F94F5F180E391EE77
:10EA500060E00F94C2F184EE90EE60E00F94F5F167
:10EA60008FE391EE60E00F94C2F186E090E061E008
:10EA700070E00F9434F20F94DCF18DE591EE60E0DC
:10EA80000F94C2F189EC91EE60E00F94F5F18EE401
:10EA900091EE60E00F94C2F183EC91EE60E00F9490
:10EAA000F5F18CE691EE60E00F94C2F18EE10F94E7
:10EAB0000DF288E90F940DF281E00F940DF20F949E
:10EAC000DCF18BE791EE60E00F94C2F119E0E0E039
:10EAD000F0E010935700E4918E2F0F940DF20F94F5
:10EAE000DCF18AE891EE60E00F94C2F1E3E0F0E03F
:10EAF00010935700E4918E2F0F940DF20F94DCF1D8
:10EB000089E991EE60E00F94C2F1E2E0F0E0109349
:10EB10005700E4918E2F0F940DF20F94DCF188EAE8
:10EB200091EE60E00F94C2F1E1E0F0E01093570045
:10EB30001491812F0F940DF20F94DCF107CF8BE825
:10EB400092EE62E00F94F5F18BE492EE60E00F94A8
:10EB5000F5F10F94DCF100E010E019C0C8016F2D51
:10EB60000F947FFEFF2031F489E492EE60E00F9471
:10EB7000C2F10BC0F092C6008091C00086FFFCCFAE
:10EB80008091C00080648093C0000F5F1F4FC80158
:10EB900081519F41A0E0B0E0ABBFFC01F790BAE229
:10EBA000FB1621F0E2E000301E07C1F60F94DCF105
:10EBB0000F94DCF187E592EE60E00F94F5F10F948D
:10EBC000DCF1CC24DD2400E010E01EC0C8010F946D
:10EBD00077FEF82E882331F489E492EE60E00F94FA
:10EBE000C2F10BC08093C6008091C00086FFFCCFAD
:10EBF0008091C00080648093C000FE1419F00894D6
:10EC0000C11CD11C0F5F1F4FC80181519F41A0E063
:10EC1000B0E0ABBFFC01E790FAE2EF1621F022E092
:10EC20000030120799F60F94DCF10F94DCF182E6C4
:10EC300092EE60E00F94C2F1C60161E070E00F94C3
:10EC400034F20F94DCF10F94DCF110920202109276
:10EC50000302109204021092050278CE89E992EE26
:10EC600062E00F94F5F1279A2F9A16C02F9880E052
:10EC700090E0E0EDF7E03197F1F7019684369105E9
:10EC8000C1F72F9A80E090E0E0EDF7E03197F1F7DF
:10EC9000019684369105C1F78091C00087FFE6CFC9
:10ECA0008091C00087FFFCCF64C485EA92EE62E0E9
:10ECB0000F94F5F140910202509103026091040219
:10ECC0007091050281E020E10F9491F2809102029F
:10ECD00090910302A0910402B091050280509F4FD1
:10ECE000AF4FBF4F8093020290930302A0930402A0
:10ECF000B093050280509041A040B04008F426CE69
:10ED0000A4CF83EB92EE62E00F94F5F140910602FE
:10ED100050910702609108027091090280E020E1A1
:10ED20000F9491F28091060290910702A09108023F
:10ED3000B091090280509F4FAF4FBF4F80930602A2
:10ED400090930702A0930802B0930902FFCD80ECD4
:10ED500092EE62E00F94F5F183E792EE60E00F949B
:10ED6000F5F18FE792EE60E00F94F5F18BE892EE0B
:10ED700060E00F94F5F189E992EE60E00F94F5F10F
:10ED800085EA92EE60E00F94F5F183EB92EE60E09D
:10ED90000F94F5F180EC92EE60E00F94F5F187ECC2
:10EDA00092EE60E00F94F5F188ED92EE60E00F9442
:10EDB000F5F18FED92EE60E00F94F5F18AEE92EEB0
:10EDC00060E00F94F5F183E093EEBDCD87EC92EE19
:10EDD00062E00F94F5F181E40F947BF282E40F94EA
:10EDE0007BF283E40F947BF284E40F947BF285E45E
:10EDF0000F947BF286E40F947BF287E40F947BF20E
:10EE000088E40F947BF28AE40F947BF28BE40F94F6
:10EE10007BF28CE40F947BF299CD88ED92EE62E068
:10EE20000F94F5F1772473948824992409C48FED05
:10EE300092EE62E00F94F5F140910A0250910B02BC
:10EE400060910C0270910D0282E020E10F9491F22A
:10EE500080910A0290910B02A0910C02B0910D02D8
:10EE600080509F4FAF4FBF4F80930A0290930B0289
:10EE7000A0930C02B0930D0269CD8AEE92EE62E08F
:10EE80000F94F5F184EE90EE60E00F94F5F18FECC5
:10EE900091EE60E00F94F5F1662477244301CC5D98
:10EEA000DE4F19821882C452D140D401C301B695F5
:10EEB000A79597958795CA5DDE4F88839983AA8326
:10EEC000BB83C652D140CC5DDE4FA881B981C4520C
:10EED000D1401196CC5DDE4FB983A883C452D14096
:10EEE000CD0162E070E00F9434F2B0E2B093C6005E
:10EEF0008091C00086FFFCCF8091C0008064809329
:10EF0000C000EDE2E093C6008091C00086FFFCCF18
:10EF10008091C00080648093C000F0E2F093C6004E
:10EF20008091C00086FFFCCF8091C00080648093F8
:10EF3000C000CA5DDE4FE880F9800A811B81C6529D
:10EF4000D140BB27A12F902F8F2D0F940DF2CA5DBA
:10EF5000DE4F8881C652D1400F940DF2B0E2FB2EF5
:10EF6000F092C6008091C00086FFFCCF8091C00067
:10EF700080648093C0000DE30093C6008091C000C0
:10EF800086FFFCCF8091C00080648093C00010E2B7
:10EF90001093C6008091C00086FFFCCF8091C00016
:10EFA00080648093C0008BBEF3012791C65DDE4F65
:10EFB0002883CA52D140A22EBB24CC24DD2408943D
:10EFC000611C711C811C911C8BBEF3018791282E42
:10EFD0003324442455240894611C711C811C911C09
:10EFE0008BBEF3013791C55DDE4F3883CB52D140E4
:10EFF0000894611C711C811C911C8BBEF30147910C
:10F00000C45DDE4F4883CC52D140ADEFEA2EAFEF66
:10F01000FA2EAFEF0A2FAFEF1A2F6E0C7F1C801E57
:10F02000911E142D032DF22CEE24EA0CFB1C0C1D5A
:10F030001D1D0F940DF220E22093C6008091C000A8
:10F0400086FFFCCF8091C00080648093C000C65DC5
:10F05000DE4F8881CA52D1400F940DF230E23093D6
:10F06000C6008091C00086FFFCCF8091C000806404
:10F070008093C000C45DDE4F8881CC52D1400F9494
:10F080000DF240E24093C6008091C00086FFFCCFA5
:10F090008091C00080648093C000C55DDE4F888190
:10F0A000CB52D1400F940DF250E25093C6008091A4
:10F0B000C00086FFFCCF8091C00080648093C000B8
:10F0C0008FEFE8168FEFF80680E0080780E018075A
:10F0D00031F484E092EE60E00F94C2F1DFC0D80119
:10F0E000C7018070907CA070B0708050904CA040A0
:10F0F000B040D1F52FEF3FE340E050E0E222F322B1
:10F1000004231523CA5DDE4FA880B980CA80DB8046
:10F11000C652D140AE0CBF1CC01ED11EAA0CBB1CD7
:10F12000CC1CDD1C8EE092EE60E00F94C2F1BB2798
:10F13000A12F902F8F2D0F940DF28E2D0F940DF285
:10F1400030E23093C6008091C00086FFFCCF8091F2
:10F15000C00080648093C0004EE34093C60080915D
:10F16000C00086FFFCCF87C08EE09EEFA0E0B0E03D
:10F17000E822F9220A231B239CE0E91694E9F90608
:10F1800090E0090790E0190709F088C0C45DDE4FE0
:10F19000A881CC52D140EA2EFF2400E010E0102FCD
:10F1A0000F2DFE2CEE24C55DDE4FB881CB52D14031
:10F1B000EB0EF11C011D111DD601C501817090706F
:10F1C000A070B070DC0199278827E80EF91E0A1F8D
:10F1D0001B1F20EF30E040E050E0A222B322C42207
:10F1E000D52241E1AA0CBB1CCC1CDD1C4A95D1F7F1
:10F1F000EA0CFB1C0C1D1D1D81E090E0A0E0B0E0BE
:10F20000282239224A225B2235E1220C331C441C7D
:10F21000551C3A95D1F7E20CF31C041D151D57013E
:10F220006801AA0CBB1CCC1CDD1C85E192EE60E0E1
:10F230000F94C2F1C801AA27BB270F940DF2BB2778
