:020000040000FA
:100000000C94F9060C942A070C942A070C942A07DE
:100010000C942A070C942A070C942A070C942A079C
:100020000C942A070C942A070C942A070C942A078C
:100030000C942A070C94061F0C942A070C94DE20BB
:100040000C942A070C94B0200C942A070C942A07CD
:100050000C942A070C942A070C942A070C94BC1EB3
:100060000C942A070C94F01F0C94C61F0C942A07BA
:100070000C942A070C942A070C942A070C942A073C
:100080000C9482200C942A070C942A070C942A07BB
:100090000C942A070C942A070C942A070C94C62265
:1000A0000C942A070C942A070C9454200C942A07C9
:1000B0000C942A070C942A070C942A070C942620E7
:1000C0000C942A070C942A070C942A070C942A07EC
:1000D0000C942A070C942A070C94901F0C94661F0A
:1000E0000C942A070C949D130C9432080C94A309C9
:1000F0000C94670E0C94741A0C94540F0C94010811
:100100000C9424080C9458140C94B70E0C943C08CE
:100110000C94BB1D0C9410190C94521A0C94C51C11
:100120000C942A080C9420190C9492160C943819EB
:100130000C94F7070C9441090C94A81A0C940D1315
:100140000C9458180C9412080C943F190C94050840
:100150000C9416080C9420080C94611A0C94A21D9F
:100160000C94A30E0C940F190C942E080C942E0AC8
:100170000C940A1E0C94110B0C947D1D0C94070F0B
:100180000C941C080C94661D0C94C3170C9409085D
:100190000C942D0A0C94FD070C941B1D0C947B1AD7
:1001A0000C9437080C94940E0C94EA230C94641766
:1001B0000C942C190C94911D0C940C080C94380878
:1001C0000C9456130C9413090C94D51D0C94EF1D2C
:1001D0000C94C50E0C943B180C9469090C94EB1903
:1001E00000000000003E5B4F5B3E3E6B4F6B3E1CD1
:1001F0003E7C3E1C183C7E3C181C577D571C1C5EE8
:100200007F5E1C00183C1800FFE7C3E7FF001824BE
:100210001800FFE7DBE7FF30483A060E2629792968
:1002200026407F050507407F05253F5A3CE73C5A9D
:100230007F3E1C1C08081C1C3E7F14227F22145F7A
:100240005F005F5F06097F017F006689956A6060D5
:1002500060606094A2FFA29408047E040810207ECF
:10026000201008082A1C08081C2A08081E10101054
:10027000100C1E0C1E0C30383E3830060E3E0E069A
:10028000000000000000005F0000000700070014ED
:100290007F147F14242A7F2A1223130864623649AC
:1002A0005620500008070300001C22410000412294
:1002B0001C002A1C7F1C2A08083E08080080703099
:1002C0000008080808080000606000201008040208
:1002D0003E5149453E00427F40007249494946210E
:1002E00041494D331814127F1027454545393C4A82
:1002F0004949314121110907364949493646494999
:10030000291E0000140000004034000000081422E0
:10031000411414141414004122140802015909064E
:100320003E415D594E7C1211127C7F494949363E4F
:10033000414141227F4141413E7F494949417F0935
:100340000909013E414151737F0808087F00417F40
:1003500041002040413F017F081422417F4040403E
:10036000407F021C027F7F0408107F3E4141413ED6
:100370007F090909063E4151215E7F091929462658
:100380004949493203017F01033F4040403F1F205C
:1003900040201F3F4038403F631408146303047833
:1003A00004036159494D43007F4141410204081053
:1003B00020004141417F040201020440404040408E
:1003C000000307080020545478407F2844443838FC
:1003D00044444428384444287F385454541800086E
:1003E0007E090218A4A49C787F0804047800447D48
:1003F00040002040403D007F1028440000417F40E5
:10040000007C047804787C08040478384444443838
:10041000FC1824241818242418FC7C080404084818
:100420005454542404043F44243C4040207C1C2069
:1004300040201C3C4030403C44281028444C9090C4
:10044000907C4464544C440008364100000077001E
:1004500000004136080002010204023C2623263C2B
:100460001EA1A161123A4040207A385454555921B6
:10047000555579412254547842215554784020549E
:100480005579400C1E5272123955555559395454EC
:10049000545939555454580000457C410002457D5B
:1004A000420001457C407D1211127DF0282528F084
:1004B0007C545545002054547C547C0A097F4932B1
:1004C000494949323A4444443A324A4848303A4128
:1004D00041217A3A42402078009DA0A07D3D4242D1
:1004E000423D3D4040403D3C24FF2424487E49435A
:1004F000662B2FFC2F2BFF0929F620C0887E0903CD
:1005000020545479410000447D413048484A3238F3
:100510004040227A007A0A0A727D0D19317D26291F
:10052000292F28262929292630484D402038080817
:10053000080808080808382F10C8ACBA2F1028344B
:10054000FA00007B000008142A142222142A14083E
:100550005500550055AA55AA55AAFF55FF55FF004D
:100560000000FF00101010FF00141414FF00101002
:10057000FF00FF1010F010F0141414FC001414F716
:1005800000FF0000FF00FF1414F404FC1414171003
:100590001F10101F101F1414141F00101010F00053
:1005A0000000001F101010101F10101010F010008D
:1005B0000000FF101010101010101010FF1000009D
:1005C00000FF140000FF00FF00001F10170000FCD8
:1005D00004F414141710171414F404F40000FF00AA
:1005E000F714141414141414F700F7141414171433
:1005F00010101F101F141414F4141010F010F00039
:10060000001F101F0000001F14000000FC14000059
:10061000F010F01010FF10FF141414FF141010103D
:100620001F00000000F010FFFFFFFFFFF0F0F0F0F0
:10063000F0FFFFFF0000000000FFFF0F0F0F0F0F84
:100640003844443844FC4A4A4A347E0202060602D0
:100650007E027E0263554941633844443C04407E37
:10066000201E2006027E020299A5E7A5991C2A49B0
:100670002A1C4C7201724C304A4D4D30304878483B
:1006800030BC625A463D3E494949007E0101017E27
:100690002A2A2A2A2A44445F444440514A4440407A
:1006A000444A51400000FF0103E080FF00000808B9
:1006B0006B6B083612362436060F090F0600001839
:1006C000180000001010003040FF0101001F010160
:1006D0001E00191D1712003C3C3C3C0000000000AD
:1006E000000103070F1F3F7F0080C0E0F0F8FCFE11
:1006F0002200FF21DB40A4A62EAF2000A1C8D3001A
:10070000408DAED580A80000600000000000000011
:1007100000000000000000E00000000000000000F9
:10072000000000000001E0000000000000000000E8
:100730000000000001F000000000000000000000C8
:1007400000000003F00000000000000000000000B6
:10075000000007F0000000000000000000000000A2
:100760000007F8000000000000000000000000008A
:100770000FF800000003C0007E000001E0007F0FC2
:10078000F800000003C000FE000001E000FFEFF8E9
:1007900000000003C000FE000001E000FFFFF800C1
:1007A000000003C000F00000000F007FFE7FC000CB
:1007B0000003C000F00000000F003FFE7FF83FF193
:1007C000FBCFFCFEF3BC3DEFE01FFE7FFF7FFBFF96
:1007D000DFFEFEFFBC3DEFE01FC6FFFF7FFBFFDF3C
:1007E000FEFEFFBC3DEFE00FE3C7FE787BC3DE1EDD
:1007F000F0FFBC3DEF0007FF87FC787BC3DE1EF0F7
:10080000F83C3DEF0001FFFFF0007BC3C01EF0F09D
:100810003C3DEF0001F37FE03FFBC3CFFEF0F03C37
:100820003DEF0003E33F807FFBC3DFFEF0F03C3D84
:10083000EF0007E73C00787BC3DE1EF0F03C3DEFA5
:100840000007FFBE00787BC3DE1EF0F03C3DEF00EA
:1008500007FFFE00787BC3DE1EF0F03C3DEF000F8B
:10086000FFFE007FFBFFDFFEF0F03FFDEFE00FFF3C
:10087000FF007FFBFFDFFEF0F03FFDEFE00FF9FF31
:10088000003E79F9CF9EF0F01F3DE7E01FF1FF0039
:1008900000000000000000000000001F80FF007F3B
:1008A000FFFFFFFFFFFFFFFFFFE01C007F007FFF58
:1008B000FFFFFEB46D888D18E000001F007FFFFF72
:1008C000FFFE95AD7DB577E000000F007FFFFFFFD5
:1008D000FEA5AD9D8D19E0000006007FFFFFFFFE25
:1008E000B5ADEDB57EE00000000000018000000025
:1008F0000000000000000380000000000000000075
:100900000007C000000000000000000007C0000059
:10091000000000000000000FC00000000000000008
:1009200000001FE00000000000000000001FE000C9
:1009300000000000000000003FE000000000000098
:100940000000003FF00000000000000000007FF009
:10095000000000000000001FF87FF0000000000011
:1009600000003FFE7FF0000000000000003FFF7F1E
:10097000F0000000000000001FFFFBE0000000008E
:100980000000000FFFF9FFC00000000000000FFF93
:10099000F9FFF800000000000007FFF1FFFF000072
:1009A0000000000003FC73FFFF8000000000000156
:1009B000FE3FFFFF80000000000000FF1E0FFF0051
:1009C0000000000000007FFE1FFC0000000000008F
:1009D000003FFFFFF8000000000000000FDFFFE015
:1009E000000000000000001F19FFC0000000000010
:1009F00000003F3CFF00000000000000007E7CF88B
:100A000000000000000000007FFE7C0000000000ED
:100A1000000000FFFFFC0000000000000000FFFFDE
:100A2000FE0000000000000000FFFFFE00000000CC
:100A300000000001FFEFFE0000000000000001FFC9
:100A4000CFFE0000000000000003FF07FE000000D2
:100A50000000000003FC07FE00000000000000038F
:100A6000F003FE00000000000000018000FE000016
:100A700000000000000000007E00000000000000F8
:100A80000000003E000000000000000000000C001C
:100A90000000000000078000FC000003C000000010
:100AA000078001FC000003C0000000078001FC007B
:100AB0000003C0000000078001E00000001E0000ED
:100AC00000078001E00000001E007FE3F79FF9FDB2
:100AD000E7787BDFC0FFF7FFBFFDFDFF787BDFC05E
:100AE000FFF7FFBFFDFDFF787BDFC0F0F787BC3D60
:100AF000E1FF787BDE00F0F787BC3DE1F0787BDE3C
:100B00000000F787803DE1E0787BDE007FF7879F7C
:100B1000FDE1E0787BDE00FFF787BFFDE1E0787B59
:100B2000DE00F0F787BC3DE1E0787BDE00F0F78780
:100B3000BC3DE1E0787BDE00F0F787BC3DE1E0788A
:100B40007BDE00FFF7FFBFFDE1E07FFBDFC0FFF7CB
:100B5000FFBFFDE1E07FFBDFC07CF3F39F3DE1E001
:100B60003E7BCFC00000000000000000000000FF3E
:100B7000FFFFFFFFFFFFFFFFFFC0FFFFFFFFFD685D
:100B8000DB111A31C0FFFFFFFFFD2B5AFB6AEFC0DC
:100B9000FFFFFFFFFD4B5B3B1A33C0FFFFFFFFFD75
:100BA0006B5BDB6AFDC000002100240027002A00E7
:100BB0002D003000330001010000040107010A018B
:100BC000000020002300260029002C002F00320006
:100BD0000001000003010601090100000A0B0209DF
:100BE0000C0D0E08070304010000000000000000C7
:100BF00000000000000000000000000000000000F5
:100C000000000000000012111000000000000000B1
:100C100000000000000000000000000000000000D4
:100C200001021020200808102040102040800201FE
:100C300002010804020101020408102040808040E3
:100C400020100804020180040201804020100804E2
:100C50000201080402010102040810204080010280
:100C600004081020408000002200250028002B00EE
:100C70002E003100340002010000050108010B01C3
:100C800005050505070508080808020202020A0A08
:100C90000808040404040101010101010101030326
:100CA000030303030303040707070C0C0C0C0C0CD1
:100CB0000C0C0202020206060606060606060B0BCE
:100CC0000B0B0B0B0B0B025D01040088010400B839
:100CD00001080088010400B8010800D2010400B82E
:100CE000010400880108005D01040088010800B8C3
:100CF00001040006010800060104000601080006C0
:100D0000010400060101005D01040088010400B82F
:100D100001080088010400B8010800D2010400B8ED
:100D2000010400880108005D01040088010800B882
:100D3000010400060108000601040006010800067F
:100D40000104000601FEFF0000F8FFB8011000B822
:100D500001F8FFB8011000B801F8FFB8011000B8A1
:100D600001F8FFB8011000B801F8FFB8011000D277
:100D700001F8FFD2011000D201F8FFD2011000D219
:100D800001F8FFD2011000D201F8FFD2011000B823
:100D900001F8FFB8011000B801F8FFB8011000B861
:100DA00001F8FFB8011000B801F8FFB80110008881
:100DB00001F8FF880110008801F8FF880110008801
:100DC00001F8FF880110008801F8FF88011000B8C1
:100DD00001F8FFB8011000B801F8FFB8011000B821
:100DE00001F8FFB8011000B801F8FFB801100000C9
:100DF000EA2311241FBECFEFD1E2DEBFCDBF00E05A
:100E00000CBF12E0A0E0B2E0E0E9F0E600E00BBFCA
:100E100002C007900D92A03AB107D9F726E0A0EAE8
:100E2000B2E001C01D92AA33B207E1F716E0C9EFA4
:100E3000D6E000E006C021970109802FFE010E9444
:100E40001C2EC83FD10780E00807A9F70E943D2665
:100E50000C9446300C940000FC01A089B18982E01A
:100E60008C93A485B5851C92A685B7858FEC8C9351
:100E7000108EA489B58986E08C93A289B3898C9160
:100E800080618C93A289B3898C9188608C93A289AC
:100E9000B3898C9180688C930288F389E02D8081DE
:100EA0008F7D808308953F924F925F926F927F92E1
:100EB0008F929F92AF92BF92CF92DF92EF92FF926A
:100EC0000F931F93CF93DF9300D01F92CDB7DEB760
:100ED0009C838B833B016A015901DC01ED91FC91FC
:100EE0000284F385E02D19952801B7E04B0E511CC3
:100EF00093E0559447949A95E1F7C6018E0D9F1D96
:100F00009A838983912C812C312CF12CE12CC701FF
:100F100087709927330C892B59F4F70183E0F595F5
:100F2000E7958A95E1F7E80DF91DEA0DFB1D349070
:100F300037FE10C0AB81BC81ED91FC911197048408
:100F4000F585E02D21E030E0A601B701660D771DA3
:100F5000CD011995BFEFEB1AFB0A0E151F05B9F667
:100F60008FEFC81AD80A840C951CA981BA81CA16B9
:100F7000DB0659F6AB81BC81ED91FC911197068897
:100F8000F789E02DCD010F900F900F900F90DF911A
:100F9000CF911F910F91FF90EF90DF90CF90BF9076
:100FA000AF909F908F907F906F905F904F903F9009
:100FB00019948150823108F05AC0E82FF0E0882758
:100FC000EB51F84F8F4F0C941C2E05080908F707BA
:100FD000FD07010837080C08120816081C0820082D
:100FE00024082A082E083708320838083C0880915F
:100FF00080008F77809380000895809180008F7D9E
:10100000F9CF80918000877FF5CF84B58F7784BD3D
:10101000089584B58F7DFBCF8091B0008F7780934A
:10102000B00008958091B0008F7DF9CF809190003D
:101030008F77809390000895809190008F7DF9CFF5
:1010400080919000877FF5CF8091A0008F7780936B
:10105000A00008958091A0008F7DF9CF8091A0001D
:10106000877FF5CF809120018F77809320010895AD
:10107000809120018F7DF9CF80912001877FF5CF6E
:10108000CF93DF93282F30E0F901E652F44F84919B
:10109000F901E05EF34FD491F901E058F34FC491A8
:1010A000CC23A1F081110E94D907EC2FF0E0EE0FC4
:1010B000FF1FE054F44FA591B491EC91ED2381E032
:1010C00090E009F480E0DF91CF91089580E090E016
:1010D000FACF1F93CF93DF93282F30E0F901E65228
:1010E000F44F8491F901E05EF34FD491F901E05897
:1010F000F34FC491CC23A9F0162F81110E94D90778
:10110000EC2FF0E0EE0FFF1FEA59F34FA591B491D9
:101110008FB7F894EC91111108C0D095DE23DC93C1
:101120008FBFDF91CF911F910895DE2BF8CFCF9322
:10113000DF9390E0FC01E05EF34F24918058934FE1
:10114000FC0184918823C9F090E0880F991FFC016D
:10115000EA55F44FA591B491FC01EA59F34FC591BA
:10116000D49161110DC09FB7F8948C912095822382
:101170008C938881282328839FBFDF91CF91089586
:10118000623051F49FB7F8943C91822F809583236D
:101190008C93E8812E2BEFCF8FB7F894EC912E2B08
:1011A0002C938FBFEACF3FB7F89480916F03909153
:1011B0007003A0917103B091720326B5A89B05C07E
:1011C0002F3F19F00196A11DB11D3FBFBA2FA92FC6
:1011D000982F8827BC01CD01620F711D811D911DC3
:1011E00042E0660F771F881F991F4A95D1F708952F
:1011F0000F931F93CF93DF93EC01E091A303F09142
:10120000A403309709F0199460E08091A9050E9429
:1012100069080E94D3086093A9037093AA0380937E
:10122000AB039093AC0383E199E09093A403809384
:10123000A3030E94D3080091A9031091AA0320914F
:10124000AB033091AC03601B710B820B930B6230CC
:1012500071058105910530F480E0DF91CF911F91F8
:101260000F91089561E08091A9050E9469080E948C
:10127000D3086093A9037093AA038093AB03909360
:10128000AC0381E499E09093A4038093A3030E94AC
:10129000D3080091A9031091AA032091AB033091C8
:1012A000AC03601B710B820B930B6A3071058105D7
:1012B000910590F260E08091A9050E9469080E9462
:1012C000D3086093A5037093A6038093A70390931C
:1012D000A80389E699E09093A4038093A3038091E7
:1012E000AB050E944008019781F48091AB050E94F4
:1012F0004008892BF1F48FEF9FEF99838883109238
:10130000A4031092A30382E0A8CF0E94D308009107
:10131000A5031091A6032091A7033091A803601B99
:10132000710B820B930B693A714681059105E8F6C2
:1013300093CF0E94D3086093A5037093A603809374
:10134000A7039093A80383EA99E09093A403809362
:10135000A3038091AB050E944008892B61F5809121
:10136000AB050E944008019731F20E94D30800911A
:10137000A5031091A6032091A7033091A803601B39
:10138000710B820B930B0E94442C26E933E44BE053
:101390005DE30E94812C20E030E040E05FE30E94AA
:1013A000812C0E94A22D798368831092A40310924D
:1013B000A30383E052CF0E94D3080091A5031091AC
:1013C000A6032091A7033091A803601B710B820B29
:1013D000930B693A71468105910508F63DCF8F92CE
:1013E0009F92AF92BF92CF92DF92EF92FF924B010A
:1013F0005C010E94D3086B017C010E94D3086C1928
:101400007D098E099F09683E734081059105A8F307
:1014100021E0821A9108A108B10888EEC80E83E085
:10142000D81EE11CF11C81149104A104B10429F718
:10143000FF90EF90DF90CF90BF90AF909F908F90F4
:1014400008952FB7F89460916B0370916C038091AD
:101450006D0390916E032FBF0895089508959091A4
:101460000A0289130DC0E6ECFCE0E4919FEF909333
:101470000A02E230E1F038F4EE2381F0E13089F045
:1014800060E00C946908E43049F110F1E530C1F7EF
:10149000909173009D7F90937300F2CF10926E0035
:1014A000EFCF90916F009D7F90936F00E9CF909167
:1014B00070009D7F9093700091E09093B0009091A8
:1014C000B100987F94609093B1001092B300D8CF90
:1014D000909171009D7F90937100D2CF9091720096
:1014E0009D7F90937200CCCF4F925F926F927F92CC
:1014F0008F929F92AF92BF92CF92DF92EF92FF9224
:101500000F931F93CF93DF9300D01F921F92CDB7FD
:10151000DEB741E02091930330919403232B09F02F
:1015200080C010929E0510929D0500919D0510911E
:101530009E058091960590919705880F991F081731
:1015400019077CF7E0909405F090950580919A0535
:1015500090919B050F5F1F4F000F111FF701E00FC8
:10156000F11F659174917093A00560939F05161605
:1015700017060CF075C00E94082E7093A2056093A8
:10158000A105F8013297EE0DFF1D0591149101158B
:101590001105F1F06091A1057091A205072E000CD4
:1015A000880B990B0E94462C26E636E646E65FE35A
:1015B0000E94812C0E94A92D2B013C0180919C0549
:1015C00090910A02891709F45FC09F3F09F4D7C0C0
:1015D0000E94210AAB01BC018091A1059091A20556
:1015E000092E000CAA0BBB0B840F951FA61FB71F5B
:1015F0008093A3059093A405A093A505B093A60599
:101600000E94210A40E00091A3051091A4052091B9
:10161000A5053091A605601771078207930708F0AA
:10162000F2C221E13BE030939403209393034111F4
:10163000E7CF81E00F900F900F900F900F90DF9108
:10164000CF911F910F91FF90EF90DF90CF90BF90BF
:10165000AF909F908F907F906F905F904F90089584
:101660007195619571090E94082E072E000C880B58
:10167000990B0E94462C20E030E040EC5FE30E9492
:10168000812C0E94A22D79CFE6ECFCE024912D83E1
:1016900027FD9ECF61E00E9497082D81222321F033
:1016A0008D81823009F0D4C14801B12CA12C60E0B9
:1016B00072E18AE790E0A50198010E943F2D2983FD
:1016C0003A834B835C8369017A0191E0C91AD1089E
:1016D000E108F1082FEFC216D104E104F10409F08A
:1016E0000CF485C160E472E48FE090E0A5019801FC
:1016F0000E943F2D69017A0181E0C81AD108E108F2
:10170000F1089D81923009F026C182E02FEFC216C8
:10171000D104E104F10409F00CF4D2C260E970EDE7
:1017200083E090E0A50198010E943F2D69017A01B4
:1017300081E0C81AD108E108F10883E09FEFC916DB
:10174000D104E104F10409F00CF4BAC268E478EEC3
:1017500081E090E0A50198010E943F2D69017A0186
:1017600081E0C81AD108E108F1089FEFC916D10439
:10177000E104F10411F00CF012C184E0A1C28093E5
:101780000A02E6ECFCE094919D839F3F09F420CF90
:10179000923009F474C058F4992399F1913009F406
:1017A0004CC097FD15CF61E00E94970879CF2D813D
:1017B000243009F4AEC008F488C0253091F71092A7
:1017C00020011092210190912101986090932101B4
:1017D00090912101916090932101282F30E0F9012F
:1017E000E058F34FE491F0E0EE0FFF1FEA59F34F9A
:1017F00045915491F901E05EF34FE491E093730356
:1018000049CF14BC15BC94B5926094BD95B5916058
:1018100095BD282F30E0F901E058F34FE491F0E056
:10182000EE0FFF1FEA59F34F45915491F901E05E25
:10183000F34FE491E0937A032DCF10928000109241
:101840008100909181009860909381009091810037
:10185000916090938100282F30E0F901E058F34F18
:10186000E491F0E0EE0FFF1FEA59F34F45915491D8
:10187000F901E05EF34FE491E09379030BCF10920E
:10188000B0001092B1009091B00092609093B000BF
:101890009091B10091609093B100282F30E0F90150
:1018A000E058F34FE491F0E0EE0FFF1FEA59F34FD9
:1018B000459154915093780340937703F901E05E8A
:1018C000F34FE491E0937603E5CE109290001092EE
:1018D0009100909191009860909391009091910067
:1018E000916090939100282F30E0F901E058F34F78
:1018F000E491F0E0EE0FFF1FEA59F34F4591549148
:10190000F901E05EF34FE491E093750393E09D836A
:10191000C1CE1092A0001092A1009091A1009860F9
:101920009093A1009091A10091609093A100282F25
:1019300030E0F901E058F34FE491F0E0EE0FFF1FC3
:10194000EA59F34F45915491F901E05EF34FE49168
:10195000E09374039FCE2FEFC216D104E104F1048B
:1019600009F00CF473C068E478EE81E090E0A50122
:1019700098010E943F2D69017A0181E0C81AD108BF
:10198000E108F1089D81992309F466C18FEFC8161B
:10199000D104E104F10409F00CF4EFCE66C164E275
:1019A00074EF80E090E0A50194010E943F2D690151
:1019B0007A0181E0C81AD108E108F10885E09FEFBB
:1019C000C916D104E104F10409F008F479C162E117
:1019D0007AE780E090E0A50194010E943F2D690123
:1019E0007A0191E0C91AD108E108F10850C181E0FB
:1019F0002D81211165C195B5987F892B85BD2FEF6C
:101A00003FEFA901411451046104710409F049C078
:101A10009D81923009F4E7C00CF0CEC0992309F4FF
:101A2000D3C0913009F0D4CDD0928900C092880003
:101A300020938B0330938C0340938D0350938E033C
:101A400080916F00826080936F00C2CD82E0D0CF22
:101A5000B12CA12C60E072E18AE790E0A501980129
:101A60000E943F2D69017A0181E0C81AD108E1087E
:101A7000F108C114D10491E0E906F10404F591E004
:101A80002D81213069F580918100887F892B809399
:101A900081002FEF3FEFA90141145104610471044B
:101AA00019F2D801AA0FBB1FA30192010E945E2D5B
:101AB00028EE33E040E050E00E94712DA9CF68E4A9
:101AC00078EE81E090E0A50198010E943F2D690128
:101AD0007A0181E0C81AD108E108F10893E0D0CF7B
:101AE0008D81833001F580919100887F892B8093CF
:101AF00091002FEF3FEFA9014114510461047104DB
:101B000081F6D0929900C09298002093830330937D
:101B10008403409385035093860380917100826013
:101B20008093710055CD2D81243009F58091A1005D
:101B3000887F892B8093A1002FEF3FEFA9014114EB
:101B400051046104710409F0ACCFD092A900C09295
:101B5000A80020937F033093800340938103509328
:101B600082038091720082608093720031CD8D81FA
:101B7000853009F044CF80912101887F892B8093A3
:101B800021012FEF3FEFA9014114510461047104B9
:101B900009F087CFD0922901C092280120937B03BE
:101BA00030937C0340937D0350937E0380917300B8
:101BB0008260809373000CCD8D81843031F20CF4FF
:101BC000A0CF853039F304CDC7BC20938F03309369
:101BD0009003409391035093920380916E00826032
:101BE00080936E00F5CCC092B300209387033093AE
:101BF00088034093890350938A0380917000826028
:101C000080937000E5CC80919C050E942F0A809102
:101C10009D0590919E05029690939E0580939D054B
:101C200084CC84E09FEFC916D104E104F10409F0EB
:101C300008F4E1CEC980DA80EB80FC808AE0F5947C
:101C4000E794D794C7948A95D1F781E0C81AD10850
:101C5000E108F10885E0CFCE83E02FEFC216D10472
:101C6000E104F10409F00CF4C6CE62E17AE780E009
:101C700090E0A50194010E943F2D69017A0181E065
:101C8000C81AD108E108F1089D81992351F286E034
:101C90002FEFC216D104E104F10491F088F0C9805D
:101CA000DA80EB80FC809AE0F594E794D794C794AF
:101CB0009A95D1F791E0C91AD108E108F10887E0B7
:101CC0009091B100987F892B8093B10098CEAF920C
:101CD000BF92CF92DF92EF92FF920F931F93CF9319
:101CE000DF936C017B018B01040F151FEB015E017B
:101CF000AE18BF08C017D10759F06991D601ED9110
:101D0000FC910190F081E02DC6011995892B79F79E
:101D1000C501DF91CF911F910F91FF90EF90DF9060
:101D2000CF90BF90AF900895FC01538D448D252F27
:101D300030E0842F90E0821B930B541710F0CF9665
:101D4000089501970895FC01918D828D981761F097
:101D5000A28DAE0FBF2FB11D5D968C91928D9F5FAE
:101D60009F73928F90E008958FEF9FEF0895FC018D
:101D7000918D828D981731F0828DE80FF11D858D40
:101D800090E008958FEF9FEF0895FC01918D228DD3
:101D9000892F90E0805C9F4F821B91098F73992758
:101DA00008958DEA93E00E94C50E21E0892B09F485
:101DB00020E0822F08958AE494E00E94C50E21E07D
:101DC000892B09F420E0822F0895FC01A48DA80F2F
:101DD000B92FB11DA35ABF4F2C91848D90E001966D
:101DE0008F739927848FA689B7892C93A089B1898D
:101DF0008C91837080648C93938D848D981306C02E
:101E00000288F389E02D80818F7D80830895EF9291
:101E1000FF920F931F93CF93DF93EC0181E0888FA4
:101E20009B8D8C8D98131AC0E889F989808185FF74
:101E300015C09FB7F894EE89FF896083E889F98916
:101E400080818370806480839FBF81E090E0DF9118
:101E5000CF911F910F91FF90EF900895F62E0B8D6B
:101E600010E00F5F1F4F0F731127E02E8C8D8E1126
:101E70000CC00FB607FCFACFE889F989808185FF8D
:101E8000F5CFCE010E94E50EF1CFEB8DEC0FFD2FCB
:101E9000F11DE35AFF4FF0829FB7F8940B8FEA8948
:101EA000FB8980818062CFCFCF93DF93EC01888D57
:101EB0008823B9F0AA89BB89E889F9898C9185FDC5
:101EC00003C0808186FD0DC00FB607FCF7CF8C9153
:101ED00085FFF2CF808185FFEDCFCE010E94E50E18
:101EE000E9CFDF91CF91089580E090E0892B29F030
:101EF0000E94DB0E81110E94000080E090E0892B9F
:101F000049F080E090E0892B29F00E9400008111C7
:101F10000E94000080E090E0892B49F080E090E092
:101F2000892B29F00E94000081110E94000080E0AE
:101F300090E0892B29F00E94D10E81110C940000B1
:101F400008958F929F92AF92BF92FF920F931F932B
:101F5000CF93DF93FC01F0808FE28F1508F44AC025
:101F6000828108E512E0081B110987FD1395000F17
:101F7000111F000F111F8181C8E8D0E0C81BD109D3
:101F800087FDD395CC0FDD1FCC0FDD1F4E010D2E2D
:101F9000000CAA08BB089801012E000C440B550B3D
:101FA000281939094A095B09DB010E94692D24EBD4
:101FB00030E040E050E00E943F2D820E931EA41EB0
:101FC000B51E8C169D062CF0E801801691060CF4C7
:101FD000E4012297CC0FDD1F2FB7F8948F2D90E0EE
:101FE000FC01EE0FFF1FE80FF91FED50FB4FD283EE
:101FF000C1832FBFDF91CF911F910F91FF90BF90B1
:10200000AF909F908F900895AF92BF92CF92DF9242
:10201000EF92FF920F931F93CF93DF936B017A019F
:10202000EC01C55ADC4F28813CE0389F8001399F84
:10203000100D1124A0908305B12C27FF1FC0FB01B8
:102040001182108288818F5F888388819801280F90
:10205000311D87FD3A95F6012A153B051CF4888150
:102060008C30C4F180819181049680349C4908F4BD
:1020700073C0F60180819181049670C088819801B7
:10208000280F311D87FD3A952A153B05DCF688811E
:10209000A801480F511D87FD5A95FA01EE0FFF1F49
:1020A000E40FF51FED50FB4F808186FFCBCF888179
:1020B000F801E80FF11D87FDFA95CF01EE0FFF1F24
:1020C000E80FF91FED50FB4F808160E08F730E9495
:1020D0006908B8CF808191812881A801420F511DE4
:1020E00027FD5A959A01FA01EE0FFF1FE20FF31F29
:1020F000ED50FB4F21813281820F931FF7019183B5
:10210000808388819801280F311D87FD3A95F90158
:10211000EE0FFF1FE20FF31FED50FB4F808186FF94
:1021200022C08881080F111D87FD1A95F801EE0F56
:10213000FF1FE00FF11FED50FB4F808161E08F73B7
:10214000DF91CF911F910F91FF90EF90DF90CF9093
:10215000BF90AF900C94690880E49CE9F7019183EB
:1021600080838FEF8883DF91CF911F910F91FF9034
:10217000EF90DF90CF90BF90AF90089520915903DA
:1021800030915A03F90181919FEB980F9A3140F4F5
:1021900030935A0320935903805E08959F01F2CF34
:1021A000803239F4232BD1F7F0935A03E09359038B
:1021B000089530935A032093590308951F93CF93A2
:1021C000DF930E94BE10D0E0C0E01AE090ED980FBF
:1021D0009A30B8F41C9F90011D9F300D1124E90125
:1021E000C80FD11D87FDDA95E09780915903909132
:1021F0005A03019690935A03809359030E94BE108C
:10220000E5CFCE01DF91CF911F9108952F923F929C
:102210004F925F926F927F928F929F92AF92BF92F6
:10222000CF92DF92EF92FF920F931F93CF93DF93A2
:1022300000D01F921F92CDB7DEB77A8369834B839C
:1022400020915603211112C021E0209356031092D1
:10225000700021E22093B0002BE02093B1002AEF20
:102260002093B3001092B400539A7894109209020C
:102270003324339497FF03C09F773AE0332E28E24C
:10228000329E202D112430E03D832C83821793074A
:1022900060F021E09D838C83321207C08131974228
:1022A00020F080E197E29D838C83832C912CB12CCC
:1022B000A12C4C805D8056944794712C612C2C810C
:1022C0003D816901F12CE12CA501940160E472E4E7
:1022D0008FE090E00E94D82D640D751D861D971D1E
:1022E000A70196010E943F2D890122E0222E0F3F77
:1022F000110501F1F8F02394E22DF0E0EE0FFF1F3D
:10230000E75DFD4F2081318150E040E060E072E107
:102310008AE790E00E943F2DC501B4010E94D82DAC
:10232000640D751D861D971DA70196010E943F2D06
:102330008901DDCF3AE0331209C08C819D81059679
:102340006AE070E00E94F42D7D836C838C819D8116
:10235000883E23E0920769F029813A81DC010E94DE
:10236000932D28EE33E040E050E00E943F2D3A8369
:102370002983109270008091B100887F282A2092D2
:10238000B1000093B3008B81803108F08FE020E131
:1023900030E0281B310902C0169507952A95E2F70F
:1023A0000093B40089819A819093580380935703D6
:1023B00087B38FEF87BB81E0809370000F900F9001
:1023C0000F900F900F90DF91CF911F910F91FF9081
:1023D000EF90DF90CF90BF90AF909F908F907F90C5
:1023E0006F905F904F903F902F900895EF92FF92E3
:1023F0000F931F93CF93DF93EC01EC80FD806E155C
:102400007F050CF070C057FF04C0240F351F50E04B
:1024100040E08E819F81FA01E20FF31F8E179F0724
:102420001CF49C01241B350B121613060CF05BC028
:10243000922F842F8695869586958E9DD0018F9DAF
:10244000B00D11246A0F7B1FAF8DB8A1A60FB71F67
:10245000477049F188E0841B482F682F70E0FB012A
:10246000E851F94FE491281708F063C0621B710925
:102470002FEF30E002C0359527956A95E2F7E22309
:102480000130110539F0B0F10230110561F58C9180
:10249000E82702C08C91E82BEC93941720F12C8153
:1024A0003D81A20FB31FE92FE41BE83078F0023022
:1024B000110521F58E2F9C9190959C932C813D8147
:1024C000A20FB31F88508830B0F7E770EE2359F0A1
:1024D000F0E0E052F94FE49101301105F9F010F10C
:1024E0000230110519F1DF91CF911F910F91FF90EB
:1024F000EF900895E0958C91E823CECF81E001150F
:10250000110509F480E081959E2F8C932C813D81EB
:10251000A20FB31F98509830C0F7D7CF8C91E82BFB
:10252000EC93E1CFE0958C91E823FACF8C91E827EA
:10253000F7CF0130110509F4ADCFE0F202301105FB
:1025400009F4A5CFAE0DBF1DAECF0F931F93CF9350
:10255000DF9377FF04C0260F371F70E060E0DC01D7
:102560001496CD91DC91FB01E20FF31FCE17DF072C
:102570001CF49E01261B370B121613064CF5FA01AC
:1025800057FD3796A3E0F595E795AA95E1F7EC9FFF
:10259000D001ED9FB00DFC9FB00D11246A0F7B1F81
:1025A000DC015F96ED91FC91E60FF71F4770552710
:1025B00081E090E001C0880F4A95EAF7482F01308A
:1025C000110559F0A8F02E0F3F1F02301105E1F060
:1025D000DF91CF911F910F9108952E0F3F1FE217AA
:1025E000F307B1F38191DF011197842B8C93F7CF1F
:1025F00080952E0F3F1FE217F30751F39191DF01F2
:10260000119798239C93F7CFE217F30709F3819171
:10261000DF01119784278C93F7CF0F931F93FA0153
:10262000DC0156964C9156974230E9F04330A1F1C7
:10263000413061F514964D915C91DA01AE1BBF0BF0
:10264000FD01E21BF30B77FD0BC0DC0116964D91EB
:102650005C916417750724F4AB01BF010E94A512B9
:102660001F910F91089514964D915C91DA01A61B6C
:10267000B70BBD0161507109DC0116964D915C915B
:10268000DA01AE1BBF0BFD01E21BF30B77FDE8CFB8
:10269000AF010E94F611E4CF16964D915C91DA01DC
:1026A000A61BB70BBD0161507109CDCF0F931F93CE
:1026B000FA01DC0156964C9156974230A9F043300E
:1026C00091F1413019F514964D915C91DA01AE1BF0
:1026D000BF0BFD013197F7FD04C0AB01BF010E94A4
:1026E000F6111F910F91089514964D915C91DA01A6
:1026F000A61BB70BBD01DC0116964D915C91DA016A
:10270000AE1BBF0BFD013197621B730BF7FDE9CFC9
:10271000DC0116964D915C91E417F50714F7AF01B3
:102720000E94A512DECF16964D915C91DA01A61B90
:10273000B70BBD01621B730BCECFFC0177FD64C0EC
:1027400080859185681779070CF05EC057FD5CC0E5
:1027500082859385481759070CF056C086898230C8
:10276000B1F0833029F1813041F484819581841B5B
:10277000950BAB01BC01615071092130310509F1A4
:1027800008F443C02230310509F463C00895848100
:102790009581DC01A61BB70BBD01615071098681D3
:1027A0009781DC01A41BB50BAD0141505109E5CF68
:1027B00086819781861B970BBA01AC014150510964
:1027C000DCCFCA0157FD0796A3E095958795AA959A
:1027D000E1F7A481B5818A9F90018B9F300D9A9F6C
:1027E000300D1124620F731F078CF0A1E02DE60F4E
:1027F000F71F4770552721E030E001C0220F4A95AE
:10280000EAF78081822B80830895CA0157FD0796DD
:1028100033E0959587953A95E1F7A481B5818A9F34
:1028200090018B9F300D9A9F300D1124620F731F02
:10283000078CF0A1E02DE60FF71F4770552781E0C8
:1028400090E001C0880F4A95EAF78095908189232E
:10285000DACFCA0157FD079623E0959587952A950B
:10286000E1F7A481B5818A9F90018B9F300D9A9FDB
:10287000300D1124620F731F078CF0A1E02DE60FBD
:10288000F71F4770552721E030E001C0220F4A951D
:10289000EAF780818227B7CF08958EBD00000DB47E
:1028A00007FEFDCF8EB508958CBD9DBD089508959A
:1028B000FC016370668B848195812681378161304C
:1028C00039F0633029F09187808733872287089514
:1028D000318720879387828708952F923F924F9266
:1028E0005F926F927F928F929F92AF92BF92CF92A0
:1028F000DF92EF92FF920F931F93CF93DF93CDB7A9
:10290000DEB76A970FB6F894DEBF0FBECDBF9A8FC1
:10291000898F7A8369834A01D22E18870F83370102
:10292000BC2CDC0159962D913C915A97211531050B
:1029300009F015C118968D919C9119976817790720
:102940000CF0D7C11A968D919C91481759070CF03D
:10295000D0C14C2C512CB6E0CB9E600D711D1124C2
:102960007C876B87161617060CF0C3C1EA2DF0E0C2
:10297000FA87E98793E0EE0FFF1F9A95E1F7F88B4E
:10298000EF87CF01840F951F181619060CF0B1C1FF
:10299000A98DBA8D58968C91811104C0BFEABD15DE
:1029A00008F4D394A98DBA8DED91FC91119702840E
:1029B000F385E02DCD011995B5E0DB9EC001112412
:1029C000E981FA81FC83EB83312C212C9C0120527C
:1029D0003E4F388F2F8B4A2D50E05E8B4D8BEF8909
:1029E000F88DE20DF31D44919E828D82D12CC12C75
:1029F00069817A81620D731D7A8B698B842F90E0D7
:102A00009C8B8B8BE98DFA8DA081B18140FF82C0B8
:102A1000F1E0BF126FC0AF126DC01C96ED91FC913A
:102A20002F813885A4014C0D5D1D69897A89898DB6
:102A30009A8D1995EB89FC89F595E7954E2F5FEFF7
:102A4000C51AD50A6D817E818D899E89680F791F8F
:102A50007E836D8398E0C916D10481F6AFEF2A1A00
:102A60003A0AEB81FC81E40DF51DFC83EB83F5E074
:102A70002F16310409F0B3CF2F813885261537057D
:102A8000B9F0A98DBA8DED91FC91B1E0BB1257C0A0
:102A9000AB1255C069817A816B5F7F4F0088F189E5
:102AA000E02D830128E030E0A401898D9A8D1995ED
:102AB000A98DBA8DED91FC9111970688F789E02DCB
:102AC000CD016A960FB6F894DEBF0FBECDBFDF9181
:102AD000CF911F910F91FF90EF90DF90CF90BF901B
:102AE000AF909F908F907F906F905F904F903F90AE
:102AF0002F9019941E96ED91FC91EF80F884098532
:102B00001A8592014D815E816B817C81898D9A8DC0
:102B1000199590CF2F8138852615370509F48ACF6E
:102B200031E0B31207C0A31205C01C96ED91FC91D1
:102B3000930178CF1E96ED91FC917301E0CF6B85E8
:102B40007C85641975090684F785E02D73010F856E
:102B500018899201A401898D9A8D1995A9CFF9013F
:102B600034969491329745915491D91AB7E0DB9EEF
:102B7000400D511D1124F901259134913C8B2B8B73
:102B8000FA0125903490FA0132967490319634917E
:102B9000398B329664903196449041E04C1518F090
:102BA0004A1508F07FC0662D062C000C770B7C833D
:102BB0006B83842D042C000C990B9E838D83A98D2F
:102BC000BA8DED91FC9111970284F385E02DCD0132
:102BD0001995512CD12CC12CEA2DF0E0FA87E98708
:102BE0002B2D30E03C872B87A401440D511D47FC61
:102BF0005A95588F4F8B69817A81660D711D67FCDC
:102C00007A957E876D877989C71608F051CF2C2D6C
:102C100030E04D815E81420F531FA985BA854A9FDE
:102C2000C0014B9F900D5A9F900D1124FC01E80D9F
:102C3000F91DF88BEF87852D612C4F89588D420F38
:102C4000531F5E8B4D8B671408F050C0442443948F
:102C5000480E877041F4C1010196EB89FC89E20DB1
:102C6000F31DD4901C01D7FE19C0A98DBA8DED912A
:102C7000FC91662D70E0B1E0BB1219C0AB1217C019
:102C80002D853E85620F731F0484F585E02D2F810D
:102C900038854D895E89898D9A8D1995DD0C6394EF
:102CA000842DD1CF1E821D821C821B8288CF4B8136
:102CB0005C81640F751FAB85BC856A9FC0016B9FEB
:102CC000900D7A9F900D112469817A81680F791F88
:102CD0000684F785E02DEF80F88409851A859D012B
:102CE0004F855889898D9A8D1995D8CF570CC394E3
:102CF0008ACF6A960FB6F894DEBF0FBECDBFDF91C4
:102D0000CF911F910F91FF90EF90DF90CF90BF90E8
:102D1000AF909F908F907F906F905F904F903F907B
:102D20002F9008958F929F92AF92CF92EF92FF9241
:102D30000F931F93CF93DF93EC01262F898D9A8DEC
:102D4000009709F051C06A30D1F41D861C868D8928
:102D500048E0849F900111248E859F85820F931FE8
:102D60009F878E8781E090E0DF91CF911F910F9137
:102D7000FF90EF90CF90AF909F908F9008956D301F
:102D800089F3CC88AD888F898823C1F08C859D8597
:102D900036E0C39E800D911D112448855985481742
:102DA000590764F44E855F851D861C8638E0A39E16
:102DB000C0011124840F951F9F878E87EA88FB88A6
:102DC000088919894E855F856C857D85CE010E94B5
:102DD0006D142C898C859D8546E0249F800D911D66
:102DE00011249D878C87BECF6A3069F41D861C86AE
:102DF000FC013896E4912D898E859F85E29F800D98
:102E0000911D1124ADCF6D3009F4ACCFFC01349687
:102E10003491631708F4A6CF3296E491E61708F4CC
:102E2000A1CFFC01329685909490462F431B342FFE
:102E300047E0349F800C911C1124F40132963491A8
:102E40003196E4913323A9F1EE2399F1CC88F40172
:102E50003596E491AD884F89442301F10E2E000C84
:102E6000FF0BE30FF11DCE9EA001CF9E500D11244C
:102E70006C857D85460F571F6885798564177507B2
:102E80006CF44E855F851D861C86FC013896E491A6
:102E9000AE9E400D511D11245F874E87EA88FB8846
:102EA000088919894E855F856C857D85CE010E94D4
:102EB0006D14F4013496E4912C898C859D85E29FF4
:102EC000800D911D11248DCF6F927F928F929F92D2
:102ED000AF92BF92CF92DF92EF92FF920F931F9328
:102EE000CF93DF93EC016B015A0139014801E8816E
:102EF000F9810284F385E02D1995E881F981028832
:102F0000F389E02D87019301A501B601CE01199542
:102F1000A501480D591D41505109E881F9810288E8
:102F2000F389E02D9301B601CE011995E881F9816D
:102F30000088F189E02D9401A501B601CE01199513
:102F4000C60CD71CB60161507109E881F98100886F
:102F5000F189E02D9401A501CE011995E881F9814F
:102F60000688F789E02DCE01DF91CF911F910F9157
:102F7000FF90EF90DF90CF90BF90AF909F908F9099
:102F80007F906F9019946F927F928F929F92AF92E1
:102F9000BF92CF92DF92EF92FF920F931F93CF9346
:102FA000DF935C01EB016A01490138018701DC0113
:102FB000ED91FC916217730719F5641675062CF0F4
:102FC000962D872D3A01C92ED82E9601261937093C
:102FD0002F5F3F4F048CF58DE02DA301BE01C5018D
:102FE0001995DF91CF911F910F91FF90EF90DF9096
:102FF000CF90BF90AF909F908F907F906F900895EB
:103000004615570591F42617370724F0892D4B01F3
:10301000C22FD82F9E01281939092F5F3F4F068CE8
:10302000F78DE02DA601B401DACF0284F385E02DFF
:103030001995D501ED91FC910488F589E02D830166
:103040009401A601BE01C5011995D501ED91FC9130
:103050000688F789E02DC501DF91CF911F910F916F
:10306000FF90EF90DF90CF90BF90AF909F908F90A8
:103070007F906F901994EF92FF920F931F93DC0152
:103080001A960D911C911B9718962D913C911997AA
:10309000ED91FC9100A0F1A1E02D7B0150E040E01A
:1030A00070E060E019951F910F91FF90EF900895E7
:1030B0004F925F926F927F928F929F92AF92BF9248
:1030C000CF92DF92EF92FF920F931F93CF93DF93F4
:1030D0006C012B015A0139014801DC01ED91FC9191
:1030E0000284F385E02D1995E201640C751CD6016C
:1030F000ED91FC91C615D7055CF40088F189E02DAF
:1031000087019401A501BE01C60119952196EFCF53
:103110000688F789E02DC601DF91CF911F910F91AD
:10312000FF90EF90DF90CF90BF90AF909F908F90E7
:103130007F906F905F904F9019948F929F92AF9273
:10314000BF92CF92DF92EF92FF920F931F93CF9394
:10315000DF93EC015B014A016901E881F981028496
:10316000F385E02D199595012C0D3D1D2150310958
:10317000E881F9810488F589E02D78018401A401B2
:10318000B501CE011995E881F9810688F789E02D0E
:10319000CE01DF91CF911F910F91FF90EF90DF90C3
:1031A000CF90BF90AF909F908F9019948F929F92E5
:1031B000AF92BF92CF92DF92EF92FF920F931F9345
:1031C000CF93DF93EC015B014A0169017801E8814B
:1031D000F9810284F385E02D1995C80CD91C86016C
:1031E00001501109E881F9810488F589E02D9501E4
:1031F000A401B501CE011995E881F9810688F78906
:10320000E02DCE01DF91CF911F910F91FF90EF90B4
:10321000DF90CF90BF90AF909F908F9019940895BA
:10322000EF92FF920F931F93DC01ED91FC9100A0B0
:10323000F1A1E02D19951F910F91FF90EF90089546
:103240000F931F93DC01ED91FC91068CF78DE02D1F
:1032500019951F910F9108950F931F93DC01ED9124
:10326000FC91048CF58DE02D19951F910F91089517
:10327000DC01ED91FC910084F185E02D19942F92F1
:103280003F924F925F926F927F928F929F92AF92F6
:10329000BF92CF92DF92EF92FF920F931F93CF9343
:1032A000DF9300D000D0CDB7DEB73C016A013E838A
:1032B0002D83FC82EB825801A41AB50AB7FE03C025
:1032C000B194A194B1088D809E80861A970A97FECA
:1032D00003C09194819491088A149B045CF0902F10
:1032E000812F0D811E819D838E839C2D8D2D6B01E1
:1032F000692F782F0C151D055CF09D818E817E83D2
:103300006D83692F782F902F812F8601C92ED82E9B
:103310001601201A310A2B012D813E81421A530ACF
:1033200057FE03C0519441945108710137FE03C008
:103330003FEFE31AF30AF594E7948D819E81861797
:1033400097075CF5A1E0B0E0BA83A983C016D10667
:103350004CF1D301ED91FC910484F585E02D2B8196
:103360003C81A8016D817E818A149B041CF04D81F3
:103370005E81B801C3011995E418F508F7FE0AC08B
:103380002D813E8189819A81280F391F3E832D83AB
:10339000E20CF31C0F5F1F4FD9CF2FEF3FEF3A83A3
:1033A0002983D4CF26960FB6F894DEBF0FBECDBFCB
:1033B000DF91CF911F910F91FF90EF90DF90CF9011
:1033C000BF90AF909F908F907F906F905F904F9045
:1033D0003F902F900895089520910A03260F3327D8
:1033E000331F21323105ECF420912E03FC0190E0D3
:1033F00080E0243069F082E00895A0910A032191D1
:10340000AC0146515D4FA40FB52FB11D2C93019611
:10341000861798F380910A03680F60930A0380E08F
:10342000089581E0089510922E0381E08093300387
:1034300010922F0361E084E10E94690861E085E158
:103440000E946908E9EBF0E080818E7F80838081B3
:103450008D7F808388E48093B80085E48093BC00EE
:103460000895CF93DF9391E09093E9028823B9F018
:10347000C091B800D091BA008091BC008A7B809343
:10348000BC0060E084E10E94690860E085E10E9480
:1034900069080E94131AD093BA00C093B800DF9154
:1034A000CF910895E091690380916803E81730F4A3
:1034B000F0E0EC53FD4F808190E008958FEF9FEF97
:1034C000089590916903809168032FEF3FEF98175B
:1034D00048F4E92FF0E0EC53FD4F208130E09F5F8E
:1034E00090936903C90108958091680390916903DD
:1034F000891B990B0895CF92DF92EF92FF920F9361
:103500001F93CF93DF937C01CB018A01209160034D
:10351000222389F0EB016B01C40ED51ECC15DD050D
:1035200069F06991D701ED91FC910190F081E02D56
:10353000C7011995F3CF642F0E94EC19C801DF91E0
:10354000CF911F910F91FF90EF90DF90CF90089552
:10355000CF93DF931F92CDB7DEB7698320916003CD
:103560002223F9F020916603203258F021E030E068
:10357000FC013383228390E080E00F90DF91CF91B4
:10358000089580916703E82FF0E0EC55FD4F998195
:1035900090838F5F809367038093660381E090E060
:1035A000ECCF61E0CE0101960E94EC19F7CFCF92EB
:1035B000DF92EF92FF920F931F93CF93DF93D091FF
:1035C000660381E0D13208F09CC0C0915F030E9485
:1035D000D3086B017C0180912E0381116CC082E0C5
:1035E00080932E0381E0809330038FEF80932D032F
:1035F00010925203D0935103A4EAB2E0E1E3F3E066
:1036000080E0D8138DC01092530380915303CC0FE8
:10361000C82BC093530380912F03813009F084C0DD
:1036200010922F030E94D3086B017C0180915303F9
:103630008093BB008091E5029091E602A091E702A1
:10364000B091E802892B8A2B8B2BA1F00E94D30822
:103650000091E5021091E6022091E7023091E80224
:103660006C197D098E099F09061717072807390766
:1036700008F442C08091BC0083FDD8CF85EC8093D4
:10368000BC000E94D3086B017C0180912E03823024
:1036900009F44CC080912D038F3F09F469C08091DB
:1036A0002D03803209F466C080912D03803309F424
:1036B00063C084E026C08091E5029091E602A0916B
:1036C000E702B091E802892B8A2B8B2B09F483CF78
:1036D0000E94D3080091E5021091E6022091E702D2
:1036E0003091E8026C197D098E099F0906171707AA
:1036F0002807390708F06FCF8091E4020E94311A41
:1037000085E0109267031092660310926003DF91C8
:10371000CF911F910F91FF90EF90DF90CF90089580
:103720009D9191938F5F6DCF85EEA9CF8091E5023A
:103730009091E602A091E702B091E802892B8A2BD2
:103740008B2B09F4A2CF0E94D3080091E5021091BF
:10375000E6022091E7023091E8026C197D098E099A
:103760009F09061717072807390708F08ECFC4CF1F
:1037700080E0C7CF82E0C5CF83E0C3CFCF92DF9296
:10378000EF92FF920F931F93CF93DF93EC016B01A6
:10379000142F8D8D9E8D009709F454C029A131E01E
:1037A0003093600320935F031092670310926603C7
:1037B000DC01ED91FC910190F081E02D60E0199524
:1037C0007601CC24C394D12C01E011508D8D9E8DB7
:1037D0001F3F71F1B0E2CB16D104C0F00E94D71A9E
:1037E0008D8D9E8D29A10093600320935F0310921D
:1037F000670310926603DC01ED91FC910190F0816A
:10380000E02D60E01995CC24C394D12C8D8D9E8D34
:10381000F7016491DC01ED91FC910190F081E02DC4
:103820001995BFEFCB1ADB0AEFEFEE1AFE0ACDCFE8
:10383000DF91CF911F910F91FF90EF90DF90CF908C
:103840000C94D71AEDA5FEA590818BA980958923AC
:1038500080837B01115070F1F70184912B8D3C8D99
:10386000232B31F00E944D14FFEFEF1AFF0AF2CF25
:1038700028E030E040E8E9A5FAA599A9582F54239B
:10388000A9F05081952B9083EBA5FCA590815AA9B6
:10389000952B9083EBA5FCA550819AA99095952333
:1038A000908346952150310931F7DECF50819095B4
:1038B0009523E9CFDF91CF911F910F91FF90EF906A
:1038C000DF90CF9008951F93CF93DF93EC018D8D00
:1038D0009E8D009721F1162F29A131E030936003CE
:1038E00020935F031092670310926603DC01ED9151
:1038F000FC910190F081E02D60E019958D8D9E8DF9
:10390000DC01ED91FC910190F081E02D612F199582
:103910008D8D9E8DDF91CF911F910C94D71AADA5FF
:10392000BEA59C918BA9809589238C938B8D9C8DB2
:10393000892B31F0862FDF91CF911F910C944D147C
:1039400028E030E080E8A9A5BAA599A9462F482328
:10395000C1F04C91942B9C93ABA5BCA59C914AA91A
:10396000942B9C93ABA5BCA54C919AA990959423BC
:103970009C9386952150310931F7DF91CF911F91AA
:1039800008954C9190959423E6CF1F93CF93DF93A6
:10399000EC01162F8D8D9E8D892BB1F12DA93EA99D
:1039A0004FA958AD60E074E284EF90E00E94712D61
:1039B0002051310941095109569547953795279569
:1039C0002093B80066EA111167EACE010E94631CD9
:1039D0008D8D9E8D892B41F129AD3AAD4BAD5CADFE
:1039E00060E074E284EF90E00E94712D2051310973
:1039F0004109510956954795379527952093B80069
:103A0000DF91CF911F9108958B8D9C8D892B21F093
:103A10008EAD9FAD0E945414EFA5F8A990818CA99A
:103A2000809589238083CECFEFA5F8A980819CA9BA
:103A3000892B8083E5CF90E080E0089561E0FC0170
:103A400080810C94970842E050E069E872E08AE4D3
:103A500094E00C94670ECF93DF93FC01019000205B
:103A6000E9F73197AF01481B590BBC018AE494E098
:103A70000E94670EEC010E94231D8C0F9D1FDF9199
:103A8000CF9108950F931F9381E02091950330917A
:103A90009603232B09F045C01092A2031092A103B4
:103AA00080E0E091A103F091A203E730F10508F076
:103AB00038C08827E15AF24E8F4F0C941C2E661D99
:103AC0007D1DA21DBB1DD51DEF1D0A1E66E470E005
:103AD0008FEA95E00E94A10F0E94210A60939D0346
:103AE00070939E0380939F039093A00381E090E0E6
:103AF0009093A2038093A10313C00E94210A009116
:103B00009D0310919E0320919F033091A003601BA1
:103B1000710B820B930B683C71058105910558F47C
:103B200080E021E93DE130939603209395038111D4
:103B3000B7CF81E091C01092A4031092A30382E05A
:103B400090E0D6CF8BE993E00E94F808823044F3EE
:103B500068E770E08FEA95E00E94A10F0E94210AB9
:103B600060939D0370939E0380939F039093A003A3
:103B700083E090E0BDCF0E94210A00919D03109147
:103B80009E0320919F033091A003601B710B820B59
:103B9000930B683C71058105910510F21092A40306
:103BA0001092A30384E090E0A3CF89E993E00E9400
:103BB000F80882300CF4B4CF6EE170E08FEA95E043
:103BC0000E94A10F0E94210A60939D0370939E039F
:103BD00080939F039093A00385E090E089CF0E949B
:103BE000210A00919D0310919E0320919F03309123
:103BF000A003601B710B820B930B683C7105810560
:103C0000910508F48DCF1092A4031092A30386E0CF
:103C100090E06ECF87E993E00E94F80882300CF4C0
:103C20007FCF2091990330919A03809197039091CF
:103C30009803821793079CF480919B0390919C03B7
:103C40008217930724F48CE892E00E942B1D1092B7
:103C500096031092950382E01F910F910895281703
:103C60003907ACF720919B0330919C032817390743
:103C700074F782E992E0E9CF0E942A300F931F93F4
:103C8000CF93DF93EC0188819981009759F02A81C5
:103C90003B812617370730F081E0DF91CF911F91EC
:103CA0000F9108958B016F5F7F4F0E94492F0097FE
:103CB00059F0998388831B830A832C813D81232BB0
:103CC00059F7FC011082E8CF80E0E7CFFC01868144
:103CD00097819C01295F3F4F37FF02C0295F3F4F0B
:103CE00083E0359527958A95E1F784819581289F12
:103CF000A001299F500D389F500D112470E060E005
:103D0000878D90A10C94383085ED8093BC00809114
:103D1000E5029091E602A091E702B091E8020796D1
:103D2000A11DB11D23E0B695A795979587952A9576
:103D3000D1F72091BC0024FD03C010922E030895FA
:103D40004091E5025091E6026091E7027091E8022D
:103D5000452B462B472B69F30097A105B10541F090
:103D60002AE22A95F1F700C00197A109B109E1CF34
:103D70008091E4020C94311A1F920F920FB60F92A9
:103D800011242F933F938F939F93AF93BF93809171
:103D90006B0390916C03A0916D03B0916E03309111
:103DA0006A0323E0230F2D3758F50196A11DB11D9D
:103DB00020936A0380936B0390936C03A0936D032D
:103DC000B0936E0380916F0390917003A091710383
:103DD000B09172030196A11DB11D80936F03909362
:103DE0007003A0937103B0937203BF91AF919F9141
:103DF0008F913F912F910F900FBE0F901F901895AC
:103E000026E8230F0296A11DB11DD2CF1F920F925B
:103E10000FB60F9211240BB60F922F933F934F932F
:103E20005F936F937F938F939F93AF93BF93EF9322
:103E3000FF938091870390918803A0918903B091AB
:103E40008A03892B8A2B8B2BE1F190917603E091E9
:103E50007703F0917803808189278083809187039D
:103E600090918803A0918903B0918A0318161906CE
:103E70001A061B069CF48091870390918803A091F9
:103E80008903B0918A030197A109B109809387033F
:103E900090938803A0938903B0938A03FF91EF91D5
:103EA000BF91AF919F918F917F916F915F914F9152
:103EB0003F912F910F900BBE0F900FBE0F901F9050
:103EC000189580910A020E942F0AE8CF1F920F9244
:103ED0000FB60F9211240BB60F922F933F934F936F
:103EE0005F936F937F938F939F93AF93BF93EF9362
:103EF000FF938DEA93E00E94E50EFF91EF91BF9151
:103F0000AF919F918F917F916F915F914F913F9171
:103F10002F910F900BBE0F900FBE0F901F90189512
:103F20001F920F920FB60F9211240BB60F922F9380
:103F30008F939F93EF93FF93E091BD03F091BE03A6
:103F40008081E091C303F091C40382FD1DC0908184
:103F50008091C6038F5F8F732091C703821741F052
:103F6000E091C603F0E0E355FC4F958F8093C603C4
:103F7000FF91EF919F918F912F910F900BBE0F901A
:103F80000FBE0F901F9018958081F2CF1F920F9255
:103F90000FB60F9211240BB60F922F933F934F93AE
:103FA0005F936F937F938F939F93AF93BF93EF93A1
:103FB000FF938AE494E00E94E50EFF91EF91BF9198
:103FC000AF919F918F917F916F915F914F913F91B1
:103FD0002F910F900BBE0F900FBE0F901F90189552
:103FE0001F920F920FB60F9211240BB60F922F93C0
:103FF0008F939F93EF93FF93E0915A04F0915B04AA
:104000008081E0916004F091610482FD1DC0908187
:10401000809163048F5F8F7320916404821741F055
:10402000E0916304F0E0E65BFB4F958F80936304BF
:10403000FF91EF919F918F912F910F900BBE0F9059
:104040000FBE0F901F9018958081F2CF1F920F9294
:104050000FB60F9211240BB60F922F933F934F93ED
:104060005F936F937F938F939F93AF93BF93EF93E0
:10407000FF9348E251E064E271E090E080E00E944A
:104080000410FF91EF91BF91AF919F918F917F911C
:104090006F915F914F913F912F910F900BBE0F90B9
:1040A0000FBE0F901F9018951F920F920FB60F9290
:1040B00011240BB60F922F933F934F935F936F93FF
:1040C0007F938F939F93AF93BF93EF93FF9348EAB0
:1040D00050E064EA70E083E090E00E940410FF91F9
:1040E000EF91BF91AF919F918F917F916F915F9170
:1040F0004F913F912F910F900BBE0F900FBE0F90DD
:104100001F9018951F920F920FB60F9211240BB6A5
:104110000F922F933F934F935F936F937F938F9360
:104120009F93AF93BF93EF93FF9348E950E064E907
:1041300070E082E090E00E940410FF91EF91BF9147
:10414000AF919F918F917F916F915F914F913F912F
:104150002F910F900BBE0F900FBE0F901F901895D0
:104160001F920F920FB60F9211240BB60F922F933E
:104170003F934F935F936F937F938F939F93AF93EF
:10418000BF93EF93FF9348E850E064E870E081E06C
:1041900090E00E940410FF91EF91BF91AF919F9129
:1041A0008F917F916F915F914F913F912F910F90E0
:1041B0000BBE0F900FBE0F901F9018951F920F927D
:1041C0000FB60F9211240BB60F924F925F926F921F
:1041D0007F928F929F92AF92BF92CF92DF92EF9297
:1041E000FF920F931F932F933F934F935F936F9380
:1041F0007F938F939F93AF93BF93CF93DF93EF936F
:10420000FF93C0915703D0915803CE01019790932B
:10421000580380935703209749F5109270007894C3
:104220008091B100887F83608093B1008AEF809392
:10423000B3001092B40081E0809309028091590389
:1042400090915A03892B91F0709008028091550348
:10425000882379F160915403662359F170E040E0BE
:1042600088EE93E00E94061110925403FF91EF91A3
:10427000DF91CF91BF91AF919F918F917F916F917E
:104280005F914F913F912F911F910F91FF90EF9070
:10429000DF90CF90BF90AF909F908F907F906F9066
:1042A0005F904F900F900BBE0F900FBE0F901F901E
:1042B000189555245394F0ECAF2EFDE5BF2EAAE0DF
:1042C0004A2EB4E06B2E10EDC12E17E0D12E04E083
:1042D000E02EF12C04EF11E08FE0882E912C0E944B
:1042E000BE102091590330915A032F5F3F4F3093F6
:1042F0005A0320935903853609F46FC00CF043C06C
:10430000813609F4B1C004F58C3309F464C08E33EE
:1043100009F45FC0813209F03FC060920802D09278
:104320000502C0920402F0920702E0920602109386
:104330000302009302029092010280920002109206
:104340005503E4E07E2ECBCF833609F490C010E015
:104350000BE0843614F010E002E05CE0759E000D86
:1043600011240E94BE10982F977F933209F081C0CC
:104370008091590390915A03019690935A03809328
:1043800059030F5FEECF8D3609F442C054F48736DF
:1043900051F134F18C3651F110925A0310925903B5
:1043A00065CF823709F449C044F48F36A9F70E94DB
:1043B000DE10782E8093080292CF843709F440C033
:1043C000863751F70E94DE1090930102809300021D
:1043D00086CF739484CF7A9482CF10E004E0BDCF6F
:1043E00010E005E0BACF10E007E0B7CF0E94DE1082
:1043F000BC01909307028093060280910402909181
:1044000005020E94F42D709303026093020267CFAD
:104410000E94BE108C3661F41092550380915903AE
:1044200090915A03019690935A038093590357CF62
:104430005092550310925403F1CF11E000E08DCF5C
:104440000E94DE10BC01C5010E94F42D469EC001F1
:10445000479E900D11249093050280930402609171
:10446000060270910702CDCF10E009E076CF10E090
:10447000E5CF8D3269F48091590390915A030196EA
:1044800090935A038093590301500E94BE10F1CFBC
:104490008153E0900202F0900302883058F4E090DB
:1044A0000402F09005020E94DE10BC01C7010E94C8
:1044B000F42D7B016701D694C7940E94BE108E3202
:1044C00061F48091590390915A03019690935A0395
:1044D00080935903EC0CFD1CEECF8091550388238B
:1044E00039F0C7019695879580935403E81AF1082F
:1044F00040910002111104C00F3F11F0411107C09B
:1045000040E0B70188EE93E00E940611AFCE013182
:1045100028F010EF100F103608F01FE5812F6CE027
:104520000E94E82D682F54EF560390011124210FAB
:10453000311D2C30310538F4220F331FF901EF5EA5
:10454000FD4FC081D1818730B9F0082E02C0CC0F59
:10455000DD1F0A94E2F7823040F0CE0105966AE052
:1045600070E00E94F42DCB0102C0CE019058403182
:1045700008F04FE0B701C8CFCE0126E0880F991FA1
:104580002A95E1F7029665E070E0EBCF1F920F925B
:104590000FB60F9211240BB60F922F933F934F93A8
:1045A0005F936F937F938F939F93AF93BF93EF939B
:1045B000FF938091B900887F803609F44DC008F0E0
:1045C00040C0883209F4A9C028F5803109F49DC0A3
:1045D000C8F4882309F4FBC0883009F496C0FF9121
:1045E000EF91BF91AF919F918F917F916F915F916B
:1045F0004F913F912F910F900BBE0F900FBE0F90D8
:104600001F901895883109F488C0803241F7809353
:104610002D0314C0803409F49DC040F48033B9F3F5
:104620008833E9F680932D0385ECB0C0803509F41A
:1046300085C0883509F496C0883489F60E94841EA6
:10464000CECF883909F48CC038F5883729F050F47A
:10465000883611F0803719F683E080932E0310928C
:104660002C0357C0883809F47BC0803919F0803892
:1046700009F0B5CF80912C03803208F071C0E09131
:104680002C0381E08E0F80932C038091BB00F0E01F
:10469000E45FFC4F80833DC0803B39F0E0F4803A1A
:1046A00009F479C0883A09F09ACF84E080932E0308
:1046B00010920B0310920A03E0916403F0916503DA
:1046C000199580910A0381110FC081E080930A033C
:1046D0001092EA0209C0803C09F4A6CF883C09F494
:1046E000A3CF883B09F07BCFE0910B0381E08E0FD5
:1046F00080930B03F0E0E651FD4F80818093BB0077
:1047000090910B0380910A0329C0809153038093F9
:10471000BB0085EC8093BC0062CF909152038091E6
:104720005103981758F5E091520381E08E0F809362
:104730005203F0E0EF5CFC4F8081E9CFE09152033F
:1047400081E08E0F809352038091BB00F0E0EF5C1C
:10475000FC4F808390915203809151039817C8F2C7
:1047600085E8D8CFE091520381E08E0F8093520309
:104770008091BB00F0E0EF5CFC4F808380913003C0
:1047800081115CCF81E080932F0384EA8093BC0089
:1047900010922E0324CF85EC8093BC0010922E0340
:1047A00080912C03803230F4E0912C03F0E0E45F40
:1047B000FC4F108260912C0370E0E0916203F09155
:1047C00063038CE093E0199510922C0308CF1092AC
:1047D0002D0334CF1092B0031092AF0388EE93E014
:1047E000A0E0B0E08093B1039093B203A093B30331
:1047F000B093B40329E632E03093AE032093AD03C7
:1048000045E351E05093BA034093B90344E351E0C8
:104810005093BC034093BB0340E351E05093BE036D
:104820004093BD0341E351E05093C0034093BF0365
:1048300042E351E05093C2034093C10346E351E089
:104840005093C4034093C3031092C6031092C7034E
:104850001092C8031092C90310924D0410924C0498
:1048600080934E0490934F04A0935004B09351044E
:1048700030934B0420934A0425EC30E030935704E6
:104880002093560424EC30E03093590420935804CC
:1048900020EC30E030935B0420935A0421EC30E0AC
:1048A00030935D0420935C0422EC30E030935F048D
:1048B00020935E0426EC30E0309361042093600482
:1048C00010926304109264041092650410926604BE
:1048D0001092EA041092E9048093EB049093EC04A4
:1048E000A093ED04B093EE048BE792E09093E8047C
:1048F0008093E70481E380932B0684E690E0A0E0B8
:10490000B0E080932C0690932D06A0932E06B093D2
:104910002F06109230061092310610923206109235
:10492000330610923406109235062FE220932006AB
:10493000109221061092220610922306109224064D
:10494000109225061092260610922706109228062D
:104950001092290610922A062DE220931506109235
:104960001606109217061092180610921906109249
:104970001A0610921B0610921C0610921D06109229
:104980001E0610921F062BE220930A0680930B0648
:1049900090930C06A0930D06B0930E0610920F068E
:1049A0001092100610921106109212061092130621
:1049B0001092140629E22093FF051092000610922F
:1049C000010610920206109203061092040610923D
:1049D000050610920606109207061092080610921D
:1049E000090627E22093F4051092F5051092F605CA
:1049F0001092F7051092F8051092F9051092FA0539
:104A00001092FB051092FC051092FD051092FE0518
:104A100025E22093E9058093EA059093EB05A093A6
:104A2000EC05B093ED051092EE051092EF05109293
:104A3000F0051092F1051092F2051092F30523E2B1
:104A40002093DE051092DF051092E0051092E1053B
:104A50001092E2051092E3051092E4051092E5052C
:104A60001092E6051092E7051092E80521E22093E6
:104A7000D3051092D4051092D5051092D605109248
:104A8000D7051092D8051092D9051092DA05109228
:104A9000DB051092DC051092DD052FE12093C8059F
:104AA0008093C9059093CA05A093CB05B093CC051C
:104AB0001092CD051092CE051092CF051092D00520
:104AC0001092D1051092D2058DE18093BD05109210
:104AD000BE051092BF051092C0051092C10510923C
:104AE000C2051092C3051092C4051092C50510921C
:104AF000C6051092C7058BE18093B2051092B305ED
:104B00001092B4051092B5051092B6051092B70533
:104B10001092B8051092B9051092BA051092BB0513
:104B20001092BC058BE090E09093AA058093A905B4
:104B300089E090E09093AC058093AB058AE090E02B
:104B40009093AE058093AD0580918305803308F086
:104B50008CC091E0980F909383058093AF0590E00F
:104B6000FC01EE0FFF1FE80FF91FED50FB4F88EB24
:104B70009BE0928381831092A8051092A70560E0C4
:104B800089E00E94970861E08091A9050E9497083A
:104B900060E08091A9050E9469088CE080939C05E3
:104BA00010929E0510929D051092A00510929F05EF
:104BB0001092A2051092A1051092A3051092A405CF
:104BC0001092A5051092A60587EC9CE090939505A0
:104BD000809394058AE490E09093970580939605DE
:104BE0008AE790E090939905809398058FEA97E083
:104BF00090939B0580939A058CE38093870580E4CE
:104C0000809388058093890510928A0510928B0500
:104C100080E890E090938D0580938C0580E490E08F
:104C200090938F0580938E058FEF9FEF9093910562
:104C300080939005109293051092920580918305C0
:104C40008033B8F491E0980F9093830580938405A6
:104C500090E0FC01EE0FFF1FE80FF91FED50FB4F36
:104C600088EB9BE09283818308958FEF8093AF055B
:104C700082CF8FEF809384050895CF93DF9300D088
:104C800000D01F921F92CDB7DEB7789484B58260B2
:104C900084BD84B5816084BD85B5826085BD85B5E0
:104CA000816085BD80916E00816080936E0010925E
:104CB00081008091810082608093810080918100D9
:104CC000816080938100809180008160809380006A
:104CD0008091B10084608093B1008091B0008160C8
:104CE0008093B000809191008260809391008091C8
:104CF0009100816080939100809190008160809309
:104D000090008091A10082608093A1008091A10019
:104D100081608093A1008091A00081608093A000B9
:104D20008091210182608093210180912101816025
:104D300080932101809120018160809320018091E6
:104D40007A00846080937A0080917A0082608093F8
:104D50007A0080917A00816080937A0080917A0055
:104D6000806880937A001092C10080E490E00E94F5
:104D7000242E6C015091900520918E0530918F0565
:104D8000332780918C0590918D059927D601139634
:104D90001C921E92129715969C938E9314971796B9
:104DA0003C932E93169719969C938E9318971B9667
:104DB0003C932E931A9756961C9256971D961C92CA
:104DC0001E921C971F961C921E921E9741E05596AC
:104DD0004C93559754964C9354976FEF7FEF53969F
:104DE0007C936E93529751967C936E9350975796FF
:104DF0004C93579758961C9258975A961C921E920D
:104E000059976DE372E011967C936E935C961C92B9
:104E10001E925B9767EE74E05E967C936E935D974F
:104E20004FEF94964C93949795964C9395979696AE
:104E30004C93969797964C93979798965C939897E0
:104E400040E85AE166E070E0F60145AB56AB67AB6F
:104E500070AF40EA56E861E070E0D9964D935D93FB
:104E60006D937C93DC9740E5DE964C93DE97DF965E
:104E70001C92D0929305C0929205B0908705295F4D
:104E80003F4F43E0359527954A95E1F7FC012E9F6A
:104E9000C0012F9F900D3E9F900D11240E94242E43
:104EA000D60190969C938E935F97892B09F40FC13E
:104EB000C6010E94661EF601868197816481758114
:104EC000AC0181970CF4AEC14054510957FF02C0A8
:104ED0004F5F5F4F559547956255710977FF02C047
:104EE0006F5F7F4F7595679510E4E12EF12C02E519
:104EF00010E026EE38E0C6010E94530782E0D6019A
:104F000092968C9392975D968D919C915E97892B4A
:104F100009F4A2C18B2DB11007C016968D919C91FA
:104F2000809709F097C18CE3F60181A31092690381
:104F30001092680310926703109266030E94131A7E
:104F40008DE29AE090936503809364038EE29AE089
:104F50009093630380936203D60198968C9187FDAA
:104F60001FC061E00E94970861E0F60180A50E94E1
:104F7000690861E070E080E090E00E94EF0960E085
:104F8000D60198968C910E9469086AE070E080E0F2
:104F900090E00E94EF0961E0F60180A50E94690897
:104FA000D6015D968D919C915E97892B09F418C26C
:104FB000D5962D913D914D915C91D89760E074E22A
:104FC00084EF90E00E94712D20513109410951096F
:104FD00056954795379527952093B80044E062E0B1
:104FE00077E0C6010E94BE1BF60166816150C601D2
:104FF0000E94631C44E06EEF76E0C6010E94BE1B77
:10500000D60192968C9160E1813009F064E1C6018D
:105010000E94631C44E06AEF76E0C6010E94BE1B5A
:105020008FE8F60185AF848195818038910509F07C
:10503000ECC1868197818034910509F0F4C182A189
:10504000813009F000C28FE9D601DD968C9312E120
:105050006AEDC6010E94631C612FC6010E94631C99
:1050600061E8C6010E94631CF60165ADC6010E949D
:10507000631C69EDC6010E94631CD60192968C9157
:1050800062E2813009F061EFC6010E94631C46E0D4
:1050900064EF76E0C6010E94BE1BF601858D968DF9
:1050A000892B09F4D2C121AD32AD43AD54AD60E0DE
:1050B00074E284EF90E00E94712D20513109410982
:1050C000510956954795379527952093B8008091BB
:1050D0009205909193050E94661EC0909205D09013
:1050E0009305F601858D968D892B09F4B8C125A904
:1050F00036A947A950AD60E074E284EF90E00E94C9
:10510000712D20513109410951095695479537951F
:1051100027952093B80044E060EF76E0C6010E9436
:10512000BE1BF601848195818034910509F0ABC1E5
:1051300060E2C6010E94631CD60114966C91615E08
:10514000C6010E94631CD60116962D913C91C9019F
:10515000079697FD079623E0959587952A95E1F7A1
:10516000F60124813581829F8001839F100D929FDB
:10517000100D1124A78CB0A0858D968D0A0D1B1DD6
:10518000009709F4E7C221A131E030936003209336
:105190005F031092670310926603DC01ED91FC91AE
:1051A0000190F081E02D60E41995EE24E394F12C58
:1051B00099249394F601858D968D0A151B0509F4A3
:1051C0006AC1F0E2EF16F104E0F00E94D71AD601AE
:1051D0005D968D919C915E9791962C919092600333
:1051E00020935F031092670310926603DC01ED9138
:1051F000FC910190F081E02D60E41995EE24E39498
:10520000F12CF601858D968DD5016D915D01DC0146
:10521000ED91FC910190F081E02D1995BFEFEB1A13
:10522000FB0AC8CF4052510957FF02C04F5F5F4F82
:10523000559547956357710977FF02C06F5F7F4FA0
:1052400075956795F0E2EF2EF12C03E710E026E06C
:1052500037E051CE8DE368CE61E096968C910E9446
:10526000970861E0F60187A10E949708D6019696FB
:105270008C919697082E000C990BFC01E058F34F87
:10528000E491F0E0EE0FFF1FEA59F34F25913491BE
:10529000F60136A725A7FC01E05EF34FE491D39613
:1052A000EC93D39797968C91082E000C990BFC01E8
:1052B000E058F34FE491F0E0EE0FFF1FEA59F34F8F
:1052C000A591B491F601B0ABA7A7FC01E05EF34F46
:1052D0009491F60194AB8C91E92FE82BEC93D601D5
:1052E0005B968D919C91892B09F434C01FB7F8947B
:1052F00080916103811127C0E5EBFCE08491E5E535
:10530000FCE09491E82FF0E0EE0FFF1FEA55F44F18
:10531000A591B491EC91E92321F461E085E30E9429
:10532000690861E085E30E9497088CB580618CBDB7
:105330008CB580648CBD61E084E30E94970861E0D5
:1053400083E30E949708809161038F5F80936103DC
:105350001FBF02CE61E0F60184A10E94970861E0C0
:10536000D60195968C910E949708F60184A1082E8B
:10537000000C990BFC01E058F34FE491F0E0EE0FC4
:10538000FF1FEA59F34F25913491D6019A963C9329
:105390002E939997FC01E05EF34FE491D196EC9344
:1053A000D19795968C91082E000C990BFC01E05832
:1053B000F34FE491F0E0EE0FFF1FEA59F34FA59190
:1053C000B491F601B4A7A3A7FC01E05EF34F94915A
:1053D000F60192AB8C91E92FE095E823EC93BCCDDC
:1053E000F601838D948D892B21F086AD97AD0E94B7
:1053F0005414D6019F96ED91FC91D0979081D4964C
:105400008C91809589238083E9CD8036910579F44C
:1054100086819781409739F482A1813031F480E10F
:10542000D601DD968C9312E013CE8FEAF9CF80344B
:105430009105C9F7868197818097A9F782A181306C
:1054400011F480E101CE8FECFFCDD60107A4F0A9C5
:10545000E02D8081D4969C91892B808338CE838DDA
:10546000948D892B21F086AD97AD0E945414D601FE
:105470009F96ED91FC91D0979081D4968C918095D8
:105480008923808348CE60E0C6010E94631CF60138
:105490006481615055CE0E94D71AF601858D968D94
:1054A000892B09F49EC121AD32AD43AD54AD60E00E
:1054B00074E284EF90E00E94712D2051310941097E
:1054C000510956954795379527952093B800109226
:1054D00094031092930310929603109295031092E6
:1054E000A4031092A30361E080919C050E94970899
:1054F0002091980530919905032E000C440B550B13
:1055000060E879EA83E090E00E943F2D30939B05AC
:1055100020939A0510929E0510929D0561E084E00B
:105520000E94970861E085E00E94970861E080E2B0
:105530000E94970861E082E20E94970861E08EE194
:105540000E94970861E084E20E94970860E088E08A
:105550000E94970860E087E00E94970860E086E07C
:105560000E9497088AE096E00E941E1D8BE296E05A
:105570000E941E1D89EE95E00E941E1D88EC95E09C
:105580000E941E1D80E296E00E941E1D85E196E0AD
:105590000E941E1D8FEF95E00E941E1D80E296E086
:1055A0000E941E1D83ED95E00E941E1D82EB95E07A
:1055B0000E941E1D8EED95E00E941E1D8DEB95E054
:1055C0000E941E1D62E082E00E94970862E082E174
:1055D0000E9497088AE494E00E942C0787E992E0F1
:1055E0000E942B1D8DEA93E00E942C078091840578
:1055F000803308F052C061E084E00E9497088091F7
:105600008405282F30E0F901EE0FFF1FE20FF31F92
:10561000ED50FB4F9081907C9460908310928505B3
:10562000109286052CE0622F0E94E82D829FB00127
:10563000112430E020E0AB01420F531FFA01EE0FBE
:10564000FF1FE40FF51FED50FB4F908196FD17C033
:105650002F5F3F4F2C30310571F7813009F0CBC0FF
:105660001092800082E08093810010928500109259
:105670008400B19A80916F00826080936F00E09106
:1056800084058E2F90E0FC01EE0FFF1FE80FF91F3D
:10569000ED50FB4F80818064808366E470E084E895
:1056A00095E00E94A10F8091840590918505A091BD
:1056B00086058093AF059093B005A093B1050E9435
:1056C000740A8DEA93E00E94C50E892B09F4D7C0B5
:1056D0001A8219821C821B821E821D8270E060E089
:1056E000CE0101960E943E1E29813A818111AFC0F0
:1056F0002115310519F0C9010E94C02E1A821982A4
:105700001E821D821C821B828DEA93E00E94C50EC0
:10571000892B09F4A4C08DEA93E00E94A30E8F8325
:1057200018860D811E810F5F1F4FB801CE010196B3
:105730000E943E1E882341F329813A818D819E81FA
:10574000BE01695F7F4F820F931F0E943F301E830F
:105750000D83DACFD60105A4F6A5E02D8081D3967E
:105760009C91892B80830A151B0509F496CEF501BF
:1057700081915F01D6015B962D913C91232B19F00D
:105780000E944D14F0CF28E030E040E8D601999611
:10579000ED91FC919A97D1969C91582F5423E9F062
:1057A0005081952B9083D6019B96ED91FC919C970F
:1057B0009081D2965C91D297952B90839B96ED9198
:1057C000FC919C975081D2969C91909595239083C3
:1057D000469521503109D1F6C6CF50819095952339
:1057E000E1CFD60107A4F0A9E02D8081D4969C9149
:1057F000892B80836CCE823061F41092900080936C
:105800009100109295001092940088BB80937100D3
:1058100036CF833069F41092A00082E08093A1001B
:105820001092A5001092A40089BB8093720027CF2C
:10583000811125CF1092200182E0809321011092E6
:105840002501109224018ABB8093730018CF1E8219
:105850001D826BE872E0C9010E943F3055CF4D8137
:105860005E8169817A818AE494E00E94670E0E94D9
:10587000231D89819A81009711F00E94C02E0E94F9
:10588000421D0E94740F1BCFE89409C097FB3EF4A1
:1058900090958095709561957F4F8F4F9F4F99237D
:1058A000A9F0F92F96E9BB279395F69587957795FB
:1058B0006795B795F111F8CFFAF4BB0F11F460FFBB
:1058C0001BC06F5F7F4F8F4F9F4F16C0882311F013
:1058D00096E911C0772321F09EE8872F762F05C027
:1058E000662371F096E8862F70E060E02AF09A95C2
:1058F000660F771F881FDAF7880F9695879597F9B7
:1059000008950E94942C0C94052D0E94F72C38F0D9
:105910000E94FE2C20F0952311F00C94EE2C0C9498
:10592000F42C11240C94392D0E94162D70F3959FA0
:10593000C1F3950F50E0551F629FF001729FBB2786
:10594000F00DB11D639FAA27F00DB11DAA1F649F22
:105950006627B00DA11D661F829F2227B00DA11DD5
:10596000621F739FB00DA11D621F839FA00D611D5B
:10597000221F749F3327A00D611D231F849F600D7C
:10598000211D822F762F6A2F11249F5750409AF0A5
:10599000F1F088234AF0EE0FFF1FBB1F661F771F31
:1059A000881F91505040A9F79E3F510580F00C94FC
:1059B000EE2C0C94392D5F3FE4F3983ED4F386959A
:1059C00077956795B795F795E7959F5FC1F7FE2B9C
:1059D000880F911D9695879597F9089597F99F6778
:1059E00080E870E060E008959FEF80EC0895002467
:1059F0000A941616170618060906089500240A9434
:105A000012161306140605060895092E0394000CB9
:105A100011F4882352F0BB0F40F4BF2B11F460FF48
:105A200004C06F5F7F4F8F4F9F4F089557FD905871
:105A3000440F551F59F05F3F71F04795880F97FB52
:105A4000991F61F09F3F79F087950895121613060C
:105A50001406551FF2CF4695F1DF08C0161617063B
:105A60001806991FF1CF8695710561050894089570
:105A7000E894BB2766277727CB0197F90895052E71
:105A800097FB1EF400940E94562D57FD07D00E94EC
:105A9000712D07FC03D04EF40C94562D5095409573
:105AA000309521953F4F4F4F5F4F089590958095CA
:105AB000709561957F4F8F4F9F4F08950E94932D52
:105AC000A59F900DB49F900DA49F800D911D112452
:105AD0000895B7FF0C945E2D0E945E2D821B930BE0
