:100000000C9453060C942B180C9400180C94D517D0
:100010000C94AA170C947F170C9454170C9429175E
:100020000C94FE160C9484060C9484060C9484069E
:100030000C9484060C9484060C9484060C94161973
:100040000C9484060C9484060C9484060C94840608
:100050000C9484060C9484060C9484060C94B416B8
:100060000C9484060C94E0180C94B6180C94840636
:100070000C9484060C9484060C9484060C948406D8
:100080000C9484060C9484060C9484060C948406C8
:100090000C9484060C9484060C9484060C94FE1A2A
:1000A0000C9484060C9484060C9484060C948406A8
:1000B0000C9484060C9484060C9484060C94840698
:1000C0000C9484060C9484060C9484060C94840688
:1000D0000C9484060C9484060C9480180C94561886
:1000E0000C9484060C946D130C94F9060C9466130E
:1000F0000C94FF060C9414080C94DE060C94C911A1
:100100000C949A130C94DA220C94E1060C94FF07D9
:100110000C94EB060C9403070C9416080C94EA104C
:100120000C94AD060C949F0B0C94DA060C94F1061B
:100130000C94F60F0C9453130C9403090C941107B0
:100140000C94A1110C9409080C9452080C94D2063A
:100150000C94CC060C9431120C9444130C94430868
:100160000C942F0C0C941D160C94EA0C0C94CD10CE
:100170000C9474080C94E7060C94BD110C94240F95
:100180000C9413080C940C070C9455100C94DD126D
:100190000C94B1110C94F5060C94D6060C94221C08
:1001A0000C94E80B0C9415080C940D070C9407079D
:1001B0000C94B6080C9466080C94C7150000000057
:1001C000003E5B4F5B3E3E6B4F6B3E1C3E7C3E1CDD
:1001D000183C7E3C181C577D571C1C5E7F5E1C0023
:1001E000183C1800FFE7C3E7FF0018241800FFE7DA
:1001F000DBE7FF30483A060E2629792926407F059D
:100200000507407F05253F5A3CE73C5A7F3E1C1CB2
:1002100008081C1C3E7F14227F22145F5F005F5F72
:1002200006097F017F006689956A6060606060945E
:10023000A2FFA29408047E040810207E2010080863
:100240002A1C08081C2A08081E101010100C1E0C6E
:100250001E0C30383E3830060E3E0E060000000000
:100260000000005F00000007000700147F147F14E7
:10027000242A7F2A1223130864623649562050002C
:1002800008070300001C2241000041221C002A1C18
:100290007F1C2A08083E0808008070300008080803
:1002A0000808000060600020100804023E51494523
:1002B0003E00427F400072494949462141494D3341
:1002C0001814127F1027454545393C4A49493141A8
:1002D000211109073649494936464949291E000076
:1002E00014000000403400000008142241141414CB
:1002F0001414004122140802015909063E415D59B7
:100300004E7C1211127C7F494949363E41414122BF
:100310007F4141413E7F494949417F090909013EE9
:10032000414151737F0808087F00417F4100204010
:10033000413F017F081422417F404040407F021C22
:10034000027F7F0408107F3E4141413E7F09090939
:10035000063E4151215E7F09192946264949493205
:1003600003017F01033F4040403F1F2040201F3FCB
:100370004038403F63140814630304780403615950
:10038000494D43007F414141020408102000414192
:10039000417F04020102044040404040000307083E
:1003A0000020545478407F2844443838444444283A
:1003B000384444287F385454541800087E090218E1
:1003C000A4A49C787F0804047800447D4000204069
:1003D000403D007F1028440000417F40007C0478AD
:1003E00004787C080404783844444438FC182424F5
:1003F0001818242418FC7C08040408485454542475
:1004000004043F44243C4040207C1C2040201C3CF1
:100410004030403C44281028444C9090907C4464E8
:10042000544C44000836410000007700000041367B
:10043000080002010204023C2623263C1EA1A16101
:10044000123A4040207A3854545559215555794133
:100450002254547842215554784020545579400C08
:100460001E527212395555555939545454593955EB
:100470005454580000457C410002457D420001452E
:100480007C407D1211127DF0282528F07C545545C2
:10049000002054547C547C0A097F4932494949322E
:1004A0003A4444443A324A4848303A4141217A3A3F
:1004B00042402078009DA0A07D3D4242423D3D400B
:1004C00040403D3C24FF2424487E4943662B2FFCBA
:1004D0002F2BFF0929F620C0887E09032054547968
:1004E000410000447D413048484A32384040227A39
:1004F000007A0A0A727D0D19317D2629292F2826B6
:100500002929292630484D402038080808080808BD
:100510000808382F10C8ACBA2F102834FA00007B16
:10052000000008142A142222142A14085500550029
:1005300055AA55AA55AAFF55FF55FF000000FF0018
:10054000101010FF00141414FF001010FF00FF1013
:1005500010F010F0141414FC001414F700FF000045
:10056000FF00FF1414F404FC141417101F10101FC4
:10057000101F1414141F00101010F0000000001FB2
:10058000101010101F10101010F010000000FF10BD
:100590001010101010101010FF10000000FF1400B9
:1005A00000FF00FF00001F10170000FC04F41414EB
:1005B0001710171414F404F40000FF00F7141414B7
:1005C00014141414F700F7141414171410101F1037
:1005D0001F141414F4141010F010F000001F101F5A
:1005E0000000001F14000000FC140000F010F010C8
:1005F00010FF10FF141414FF141010101F0000003F
:1006000000F010FFFFFFFFFFF0F0F0F0F0FFFFFF42
:100610000000000000FFFF0F0F0F0F0F3844443899
:1006200044FC4A4A4A347E02020606027E027E02E8
:1006300063554941633844443C04407E201E2006F3
:10064000027E020299A5E7A5991C2A492A1C4C7230
:1006500001724C304A4D4D303048784830BC625AB7
:10066000463D3E494949007E0101017E2A2A2A2A47
:100670002A44445F444440514A444040444A514023
:100680000000FF0103E080FF000008086B6B0836E4
:1006900012362436060F090F060000181800000055
:1006A0001010003040FF0101001F01011E00191D44
:1006B0001712003C3C3C3C00000000000001030716
:1006C0000F1F3F7F0080C0E0F0F8FCFEDB40A4A6D7
:1006D0002EAF2000A1C8D300408DAED580A8000069
:1006E000600000000000000000000000000000E0CA
:1006F0000000000000000000000000000001E00019
:1007000000000000000000000000000001F00000F8
:10071000000000000000000000000003F0000000E6
:100720000000000000000000000007F000000000D2
:1007300000000000000000000007F80000000000BA
:1007400000000000000000000FF800000003C000DF
:100750007E000001E0007F0FF800000003C000FEF3
:10076000000001E000FFEFF800000003C000FE0001
:100770000001E000FFFFF800000003C000F00000EF
:10078000000F007FFE7FC0000003C000F0000000EB
:100790000F003FFE7FF83FF1FBCFFCFEF3BC3DEFC7
:1007A000E01FFE7FFF7FFBFFDFFEFEFFBC3DEFE0B3
:1007B0001FC6FFFF7FFBFFDFFEFEFFBC3DEFE00F2C
:1007C000E3C7FE787BC3DE1EF0FFBC3DEF0007FFF2
:1007D00087FC787BC3DE1EF0F83C3DEF0001FFFF95
:1007E000F0007BC3C01EF0F03C3DEF0001F37FE062
:1007F0003FFBC3CFFEF0F03C3DEF0003E33F807FC3
:10080000FBC3DFFEF0F03C3DEF0007E73C00787BE8
:10081000C3DE1EF0F03C3DEF0007FFBE00787BC357
:10082000DE1EF0F03C3DEF0007FFFE00787BC3DEEC
:100830001EF0F03C3DEF000FFFFE007FFBFFDFFEF0
:10084000F0F03FFDEFE00FFFFF007FFBFFDFFEF06A
:10085000F03FFDEFE00FF9FF003E79F9CF9EF0F099
:100860001F3DE7E01FF1FF00000000000000000056
:100870000000001F80FF007FFFFFFFFFFFFFFFFF63
:10088000FFE01C007F007FFFFFFFFEB46D888D1826
:10089000E000001F007FFFFFFFFE95AD7DB577E014
:1008A00000000F007FFFFFFFFEA5AD9D8D19E0004A
:1008B0000006007FFFFFFFFEB5ADEDB57EE0000056
:1008C0000000000180000000000000000000038024
:1008D00000000000000000000007C0000000000051
:1008E0000000000007C00000000000000000000F32
:1008F000C00000000000000000001FE00000000039
:1009000000000000001FE0000000000000000000E8
:100910003FE00000000000000000003FF000000089
:100920000000000000007FF0000000000000001F39
:10093000F87FF0000000000000003FFE7FF00000A4
:1009400000000000003FFF7FF000000000000000FA
:100950001FFFFBE0000000000000000FFFF9FFC0D8
:100960000000000000000FFFF9FFF8000000000089
:100970000007FFF1FFFF00000000000003FC73FF11
:10098000FF80000000000001FE3FFFFF800000002C
:10099000000000FF1E0FFF000000000000007FFEAF
:1009A0001FFC000000000000003FFFFFF8000000F7
:1009B000000000000FDFFFE0000000000000001F4B
:1009C00019FFC0000000000000003F3CFF000000D5
:1009D00000000000007E7CF8000000000000000025
:1009E0007FFE7C0000000000000000FFFFFC000014
:1009F000000000000000FFFFFE00000000000000FB
:100A000000FFFFFE0000000000000001FFEFFE00FD
:100A100000000000000001FFCFFE00000000000009
:100A20000003FF07FE0000000000000003FC07FEBB
:100A30000000000000000003F003FE0000000000C2
:100A40000000018000FE0000000000000000000027
:100A50007E000000000000000000003E00000000DA
:100A60000000000000000C000000000000078000F3
:100A7000FC000003C0000000078001FC000003C070
:100A8000000000078001FC000003C0000000078098
:100A900001E00000001E000000078001E0000000EF
:100AA0001E007FE3F79FF9FDE7787BDFC0FFF7FFCC
:100AB000BFFDFDFF787BDFC0FFF7FFBFFDFDFF78C7
:100AC0007BDFC0F0F787BC3DE1FF787BDE00F0F70D
:100AD00087BC3DE1F0787BDE0000F787803DE1E0F8
:100AE000787BDE007FF7879FFDE1E0787BDE00FF0B
:100AF000F787BFFDE1E0787BDE00F0F787BC3DE1E2
:100B0000E0787BDE00F0F787BC3DE1E0787BDE003B
:100B1000F0F787BC3DE1E0787BDE00FFF7FFBFFD2B
:100B2000E1E07FFBDFC0FFF7FFBFFDE1E07FFBDF20
:100B3000C07CF3F39F3DE1E03E7BCFC000000000AE
:100B400000000000000000FFFFFFFFFFFFFFFFFFAE
:100B5000FFC0FFFFFFFFFD68DB111A31C0FFFFFF81
:100B6000FFFD2B5AFB6AEFC0FFFFFFFFFD4B5B3B16
:100B70001A33C0FFFFFFFFFD6B5BDB6AFDC0220085
:100B8000FF2100002100240027002A002D00300052
:100B9000330001010000040107010A0100002200E6
:100BA000250028002B002E00310034000201000037
:100BB000050108010B010000200023002600290088
:100BC0002C002F0032000001000003010601090182
:100BD00005050505070508080808020202020A0AB9
:100BE00008080404040401010101010101010303D7
:100BF000030303030303040707070C0C0C0C0C0C82
:100C00000C0C0202020206060606060606060B0B7E
:100C10000B0B0B0B0B0B01021020200808102040BF
:100C200010204080020102010804020101020408B0
:100C3000102040808040201008040201800402013E
:100C40008040201008040201080402010102040887
:100C500010204080010204081020408000000A0B90
:100C600002090C0D0E08070304010000000000003B
:100C70000000000000000000000000000000000074
:100C80000000000000000000121110000000000031
:100C90000000000000000000000000000000000054
:100CA0000000221CDA2211241FBECFEFD1E2DEBFEA
:100CB000CDBF00E00CBF25E0A4EAB2E001C01D9268
:100CC000A138B207E1F712E0A0E0B2E0E0E6FBE411
:100CD00000E00BBF02C007900D92A43AB107D9F70C
:100CE00016E0C2E5D6E000E006C021970109802F9A
:100CF000FE010E947423C135D10780E00807A9F7DF
:100D00000E94771D0C949E250C940000FC01A08984
:100D1000B18982E08C93A485B5851C92A685B785A0
:100D20008FEC8C93108EA489B58986E08C93A28970
:100D3000B3898C9180618C93A289B3898C918860EE
:100D40008C93A289B3898C9180688C930288F389F3
:100D5000E02D80818F7D80830895089581508231B8
:100D600008F05AC0E82FF0E08827E654F94F8F4F7B
:100D70000C947423DA06DE06CC06D206D6060C07DF
:100D8000E106E706EB06F106F506F906FF0603079E
:100D90000C0707070D071107809180008F7780935C
:100DA00080000895809180008F7DF9CF8091800030
:100DB000877FF5CF84B58F7784BD089584B58F7D07
:100DC000FBCF8091B0008F778093B0000895809121
:100DD000B0008F7DF9CF809190008F778093900045
:100DE0000895809190008F7DF9CF80919000877F4A
:100DF000F5CF8091A0008F778093A0000895809117
:100E0000A0008F7DF9CF8091A000877FF5CF8091E2
:100E100020018F77809320010895809120018F7D9C
:100E2000F9CF80912001877FF5CFCF93DF93282FD3
:100E300030E0F901E45AF34F8491F901EA5EF34F8F
:100E4000D491F901E053F44FC491CC23A1F0811166
:100E50000E94AE06EC2FF0E0EE0FFF1FEA54F44FB5
:100E6000A591B491EC91ED2381E090E009F480E04C
:100E7000DF91CF91089580E090E0FACF1F93CF9358
:100E8000DF93282F30E0F901E45AF34F8491F90100
:100E9000EA5EF34FD491F901E053F44FC491CC23AF
:100EA000A9F0162F81110E94AE06EC2FF0E0EE0F94
:100EB000FF1FE456F44FA591B4918FB7F894EC91CD
:100EC000111108C0D095DE23DC938FBFDF91CF9145
:100ED0001F910895DE2BF8CFCF93DF9390E0FC01B4
:100EE000EA5EF34F24918053944FFC018491882350
:100EF000C9F090E0880F991FFC01EE57F44FA591BF
:100F0000B491FC01E456F44FC591D49161110DC028
:100F10009FB7F8948C91209582238C938881282305
:100F200028839FBFDF91CF910895623051F49FB71E
:100F3000F8943C91822F809583238C93E8812E2B0B
:100F4000EFCF8FB7F894EC912E2B2C938FBFEACF75
:100F50003FB7F89480916B0390916C03A0916D035F
:100F6000B0916E0326B5A89B05C02F3F19F00196DE
:100F7000A11DB11D3FBFBA2FA92F982F8827BC01F3
:100F8000CD01620F711D811D911D42E0660F771F1B
:100F9000881F991F4A95D1F708958F929F92AF921B
:100FA000BF92CF92DF92EF92FF924B015C010E94C1
:100FB000A8076B017C010E94A8076C197D098E09A6
:100FC0009F09683E734081059105A8F321E0821ACC
:100FD0009108A108B10888EEC80E83E0D81EE11C74
:100FE000F11C81149104A104B10429F7FF90EF9042
:100FF000DF90CF90BF90AF909F908F900895809199
:10100000A4029091A50201969093A5028093A40258
:1010100008958091A6029091A70201969093A7024D
:101020008093A6020895089508950895AF92BF92FF
:10103000CF92DF92EF92FF920F931F93CF93DF93A4
:101040006C017B018B01040F151FEB015E01AE18D3
:10105000BF08C017D10759F06991D601ED91FC91F5
:101060000190F081E02DC6011995892B79F7C50112
:10107000DF91CF911F910F91FF90EF90DF90CF9074
:10108000BF90AF900895FC01538D448D252F30E023
:10109000842F90E0821B930B541710F0CF96089585
:1010A00001970895FC01918D828D981761F0A28DB2
:1010B000AE0FBF2FB11D5D968C91928D9F5F9F7378
:1010C000928F90E008958FEF9FEF0895FC01918D2E
:1010D000828D981731F0828DE80FF11D858D90E09B
:1010E00008958FEF9FEF0895FC01918D228D892F38
:1010F00090E0805C9F4F821B91098F739927089520
:1011000083E793E00E94740821E0892B09F420E032
:10111000822F089580E194E00E94740821E0892BD9
:1011200009F420E0822F0895FC01A48DA80FB92FA7
:10113000B11DA35ABF4F2C91848D90E001968F73FF
:101140009927848FA689B7892C93A089B1898C911E
:10115000837080648C93938D848D981306C002886D
:10116000F389E02D80818F7D80830895EF92FF9237
:101170000F931F93CF93DF93EC0181E0888F9B8DBA
:101180008C8D98131AC0E889F989808185FF15C074
:101190009FB7F894EE89FF896083E889F989808197
:1011A0008370806480839FBF81E090E0DF91CF9166
:1011B0001F910F91FF90EF900895F62E0B8D10E088
:1011C0000F5F1F4F0F731127E02E8C8D8E110CC0F7
:1011D0000FB607FCFACFE889F989808185FFF5CF42
:1011E000CE010E949408F1CFEB8DEC0FFD2FF11D85
:1011F000E35AFF4FF0829FB7F8940B8FEA89FB897F
:1012000080818062CFCFCF93DF93EC01888D8823DC
:10121000B9F0AA89BB89E889F9898C9185FD03C059
:10122000808186FD0DC00FB607FCF7CF8C9185FF3E
:10123000F2CF808185FFEDCFCE010E949408E9CFE7
:10124000DF91CF91089580E090E0892B29F00E94F2
:101250008A0881110E94000080E090E0892B49F00B
:1012600080E090E0892B29F00E94000081110E940B
:10127000000080E090E0892B49F080E090E0892B2D
:1012800029F00E94000081110E94000080E090E09F
:10129000892B29F00E94800881110C940000089588
:1012A00020915D0330915E03F90181919FEB980FCE
:1012B0009A3140F430935E0320935D03805E08957D
:1012C0009F01F2CF803239F4232BD1F7F0935E03E4
:1012D000E0935D03089530935E0320935D030895CA
:1012E0001F93CF93DF930E945009D0E0C0E01AE033
:1012F00090ED980F9A30B8F41C9F90011D9F300D0F
:101300001124E901C80FD11D87FDDA95E09780917E
:101310005D0390915E03019690935E0380935D035D
:101320000E945009E5CFCE01DF91CF911F91089522
:101330002F923F924F925F926F927F928F929F92E5
:10134000AF92BF92CF92DF92EF92FF920F931F93D3
:10135000CF93DF9300D01F921F92CDB7DEB77A8371
:1013600069834B8320915A03211112C021E02093FD
:101370005A031092700021E22093B0002BE02093DA
:10138000B1002AEF2093B3001092B400539A7894DE
:10139000109209023324339497FF03C09F773AE0F9
:1013A000332E28E2329E202D112430E03D832C8301
:1013B0008217930760F021E09D838C83321207C06F
:1013C0008131974220F080E197E29D838C83832CCA
:1013D000912CB12CA12C4C805D8056944794712C9B
:1013E000612C2C813D816901F12CE12CA501940136
:1013F00060E472E48FE090E00E940323640D751DA9
:10140000861D971DA70196010E945523890122E0A0
:10141000222E0F3F110501F1F8F02394E22DF0E0A8
:10142000EE0FFF1FE85CFD4F2081318150E040E06E
:1014300060E072E18AE790E00E945523C501B401A3
:101440000E940323640D751D861D971DA70196013B
:101450000E9455238901DDCF3AE0331209C08C8107
:101460009D8105966AE070E00E941F237D836C8356
:101470008C819D81883E23E0920769F029813A8121
:10148000DC010E94F42228EE33E040E050E00E94AC
:1014900055233A832983109270008091B100887F90
:1014A000282A2092B1000093B3008B81803108F08C
:1014B0008FE020E130E0281B310902C01695079526
:1014C0002A95E2F70093B40089819A8190935C0396
:1014D00080935B0387B38FEF87BB81E080937000BD
:1014E0000F900F900F900F900F90DF91CF911F9161
:1014F0000F91FF90EF90DF90CF90BF90AF909F90B3
:101500008F907F906F905F904F903F902F900895B5
:10151000EF92FF920F931F93CF93DF93EC01EC8038
:10152000FD806E157F050CF070C057FF04C0240FBE
:10153000351F50E040E08E819F81FA01E20FF31FDA
:101540008E179F071CF49C01241B350B12161306E3
:101550000CF05BC0922F842F8695869586958E9D84
:10156000D0018F9DB00D11246A0F7B1FAF8DB8A1E4
:10157000A60FB71F477049F188E0841B482F682FDA
:1015800070E0FB01EC53F94FE491281708F063C0B9
:10159000621B71092FEF30E002C0359527956A95DF
:1015A000E2F7E2230130110539F0B0F10230110504
:1015B00061F58C91E82702C08C91E82BEC9394178D
:1015C00020F12C813D81A20FB31FE92FE41BE830ED
:1015D00078F00230110521F58E2F9C9190959C9307
:1015E0002C813D81A20FB31F88508830B0F7E7707F
:1015F000EE2359F0F0E0E454F94FE4910130110585
:10160000F9F010F10230110519F1DF91CF911F911E
:101610000F91FF90EF900895E0958C91E823CECF45
:1016200081E00115110509F480E081959E2F8C93CE
:101630002C813D81A20FB31F98509830C0F7D7CFAF
:101640008C91E82BEC93E1CFE0958C91E823FACFD5
:101650008C91E827F7CF0130110509F4ADCFE0F206
:101660000230110509F4A5CFAE0DBF1DAECF0F930B
:101670001F93CF93DF9377FF04C0260F371F70E0CF
:1016800060E0DC011496CD91DC91FB01E20FF31FC9
:10169000CE17DF071CF49E01261B370B121613060C
:1016A0004CF5FA0157FD3796A3E0F595E795AA9515
:1016B000E1F7EC9FD001ED9FB00DFC9FB00D112420
:1016C0006A0F7B1FDC015F96ED91FC91E60FF71F1F
:1016D0004770552781E090E001C0880F4A95EAF7EE
:1016E000482F0130110559F0A8F02E0F3F1F02308E
:1016F0001105E1F0DF91CF911F910F9108952E0F09
:101700003F1FE217F307B1F38191DF011197842B9B
:101710008C93F7CF80952E0F3F1FE217F30751F3FD
:101720009191DF01119798239C93F7CFE217F3076C
:1017300009F38191DF01119784278C93F7CF0F93E1
:101740001F93FA01DC0156964C9156974230E9F00E
:101750004330A1F1413061F514964D915C91DA016D
:10176000AE1BBF0BFD01E21BF30B77FD0BC0DC01D1
:1017700016964D915C916417750724F4AB01BF0177
:101780000E94370B1F910F91089514964D915C9113
:10179000DA01A61BB70BBD0161507109DC01169679
:1017A0004D915C91DA01AE1BBF0BFD01E21BF30B07
:1017B00077FDE8CFAF010E94880AE4CF16964D91DD
:1017C0005C91DA01A61BB70BBD0161507109CDCF49
:1017D0000F931F93FA01DC0156964C9156974230B5
:1017E000A9F0433091F1413019F514964D915C9177
:1017F000DA01AE1BBF0BFD013197F7FD04C0AB0151
:10180000BF010E94880A1F910F91089514964D916F
:101810005C91DA01A61BB70BBD01DC0116964D9158
:101820005C91DA01AE1BBF0BFD013197621B730B9C
:10183000F7FDE9CFDC0116964D915C91E417F507B1
:1018400014F7AF010E94370BDECF16964D915C91D5
:10185000DA01A61BB70BBD01621B730BCECFFC01D7
:1018600077FD64C080859185681779070CF05EC0AC
:1018700057FD5CC082859385481759070CF056C008
:1018800086898230B1F0833029F1813041F484813E
:101890009581841B950BAB01BC016150710921300E
:1018A000310509F108F443C02230310509F463C061
:1018B000089584819581DC01A61BB70BBD016150A1
:1018C000710986819781DC01A41BB50BAD014150E4
:1018D0005109E5CF86819781861B970BBA01AC0130
:1018E00041505109DCCFCA0157FD0796A3E09595F9
:1018F0008795AA95E1F7A481B5818A9F90018B9F76
:10190000300D9A9F300D1124620F731F078CF0A1C8
:10191000E02DE60FF71F4770552721E030E001C0AA
:10192000220F4A95EAF78081822B80830895CA01AD
:1019300057FD079633E0959587953A95E1F7A48191
:10194000B5818A9F90018B9F300D9A9F300D112495
:10195000620F731F078CF0A1E02DE60FF71F477091
:10196000552781E090E001C0880F4A95EAF78095FD
:1019700090818923DACFCA0157FD079623E0959518
:1019800087952A95E1F7A481B5818A9F90018B9F65
:10199000300D9A9F300D1124620F731F078CF0A138
:1019A000E02DE60FF71F4770552721E030E001C01A
:1019B000220F4A95EAF780818227B7CF08958EBD1E
:1019C00000000DB407FEFDCF8EB508958CBD9DBD02
:1019D00008950895FC016370668B8481958126814A
:1019E0003781613039F0633029F091878087338700
:1019F00022870895318720879387828708952F92C1
:101A00003F924F925F926F927F928F929F92AF928E
:101A1000BF92CF92DF92EF92FF920F931F93CF93DB
:101A2000DF93CDB7DEB76A970FB6F894DEBF0FBE6F
:101A3000CDBF9A8F898F7A8369834A01D22E188706
:101A40000F833701BC2CDC0159962D913C915A979C
:101A50002115310509F015C118968D919C911997A2
:101A6000681779070CF0D7C11A968D919C91481789
:101A700059070CF0D0C14C2C512CB6E0CB9E600D18
:101A8000711D11247C876B87161617060CF0C3C1D5
:101A9000EA2DF0E0FA87E98793E0EE0FFF1F9A95B1
:101AA000E1F7F88BEF87CF01840F951F1816190601
:101AB0000CF0B1C1A98DBA8D58968C91811104C0DA
:101AC000BFEABD1508F4D394A98DBA8DED91FC91B0
:101AD00011970284F385E02DCD011995B5E0DB9EC9
:101AE000C0011124E981FA81FC83EB83312C212C84
:101AF0009C0124543E4F388F2F8B4A2D50E05E8B33
:101B00004D8BEF89F88DE20DF31D44919E828D82FD
:101B1000D12CC12C69817A81620D731D7A8B698BFE
:101B2000842F90E09C8B8B8BE98DFA8DA081B18105
:101B300040FF82C0F1E0BF126FC0AF126DC01C96B3
:101B4000ED91FC912F813885A4014C0D5D1D6989B3
:101B50007A89898D9A8D1995EB89FC89F595E79598
:101B60004E2F5FEFC51AD50A6D817E818D899E89C2
:101B7000680F791F7E836D8398E0C916D10481F6C2
:101B8000AFEF2A1A3A0AEB81FC81E40DF51DFC83C4
:101B9000EB83F5E02F16310409F0B3CF2F813885A0
:101BA00026153705B9F0A98DBA8DED91FC91B1E0FC
:101BB000BB1257C0AB1255C069817A816B5F7F4FF2
:101BC0000088F189E02D830128E030E0A401898DAF
:101BD0009A8D1995A98DBA8DED91FC911197068872
:101BE000F789E02DCD016A960FB6F894DEBF0FBEDF
:101BF000CDBFDF91CF911F910F91FF90EF90DF90BC
:101C0000CF90BF90AF909F908F907F906F905F909C
:101C10004F903F902F9019941E96ED91FC91EF807C
:101C2000F88409851A8592014D815E816B817C81E2
:101C3000898D9A8D199590CF2F8138852615370576
:101C400009F48ACF31E0B31207C0A31205C01C9675
:101C5000ED91FC91930178CF1E96ED91FC9173016B
:101C6000E0CF6B857C85641975090684F785E02DC6
:101C700073010F8518899201A401898D9A8D199598
:101C8000A9CFF90134969491329745915491D91A7C
:101C9000B7E0DB9E400D511D1124F90125913491CF
:101CA0003C8B2B8BFA0125903490FA01329674907C
:101CB00031963491398B329664903196449041E05C
:101CC0004C1518F04A1508F07FC0662D062C000C44
:101CD000770B7C836B83842D042C000C990B9E83E3
:101CE0008D83A98DBA8DED91FC9111970284F385B6
:101CF000E02DCD011995512CD12CC12CEA2DF0E00D
:101D0000FA87E9872B2D30E03C872B87A401440D0F
:101D1000511D47FC5A95588F4F8B69817A81660D0A
:101D2000711D67FC7A957E876D877989C71608F0E3
:101D300051CF2C2D30E04D815E81420F531FA9857C
:101D4000BA854A9FC0014B9F900D5A9F900D112458
:101D5000FC01E80DF91DF88BEF87852D612C4F896B
:101D6000588D420F531F5E8B4D8B671408F050C087
:101D700044244394480E877041F4C1010196EB89D5
:101D8000FC89E20DF31DD4901C01D7FE19C0A98D6A
:101D9000BA8DED91FC91662D70E0B1E0BB1219C0D7
:101DA000AB1217C02D853E85620F731F0484F58525
:101DB000E02D2F8138854D895E89898D9A8D199501
:101DC000DD0C6394842DD1CF1E821D821C821B8268
:101DD00088CF4B815C81640F751FAB85BC856A9F82
:101DE000C0016B9F900D7A9F900D112469817A81BB
:101DF000680F791F0684F785E02DEF80F884098548
:101E00001A859D014F855889898D9A8D1995D8CF4E
:101E1000570CC3948ACF6A960FB6F894DEBF0FBEF4
:101E2000CDBFDF91CF911F910F91FF90EF90DF9089
:101E3000CF90BF90AF909F908F907F906F905F906A
:101E40004F903F902F9008958F929F92AF92CF9294
:101E5000EF92FF920F931F93CF93DF93EC01262F06
:101E6000898D9A8D009709F051C06A30D1F41D8692
:101E70001C868D8948E0849F900111248E859F8562
:101E8000820F931F9F878E8781E090E0DF91CF9133
:101E90001F910F91FF90EF90CF90AF909F908F90F8
:101EA00008956D3089F3CC88AD888F898823C1F07F
:101EB0008C859D8536E0C39E800D911D112448853B
:101EC00059854817590764F44E855F851D861C8621
:101ED00038E0A39EC0011124840F951F9F878E8731
:101EE000EA88FB88088919894E855F856C857D8520
:101EF000CE010E94FF0C2C898C859D8546E0249F95
:101F0000800D911D11249D878C87BECF6A3069F4A6
:101F10001D861C86FC013896E4912D898E859F854F
:101F2000E29F800D911D1124ADCF6D3009F4ACCF2F
:101F3000FC0134963491631708F4A6CF3296E491ED
:101F4000E61708F4A1CFFC01329685909490462FB5
:101F5000431B342F47E0349F800C911C1124F40163
:101F6000329634913196E4913323A9F1EE2399F11D
:101F7000CC88F4013596E491AD884F89442301F172
:101F80000E2E000CFF0BE30FF11DCE9EA001CF9E85
:101F9000500D11246C857D85460F571F6885798506
:101FA000641775076CF44E855F851D861C86FC01E1
:101FB0003896E491AE9E400D511D11245F874E87E7
:101FC000EA88FB88088919894E855F856C857D853F
:101FD000CE010E94FF0CF4013496E4912C898C858B
:101FE0009D85E29F800D911D11248DCF6F927F9270
:101FF0008F929F92AF92BF92CF92DF92EF92FF9219
:102000000F931F93CF93DF93EC016B015A013901BA
:102010004801E881F9810284F385E02D1995E88172
:10202000F9810288F389E02D87019301A501B601AA
:10203000CE011995A501480D591D41505109E8815E
:10204000F9810288F389E02D9301B601CE0119953B
:10205000E881F9810088F189E02D9401A501B6019C
:10206000CE011995C60CD71CB60161507109E881E3
:10207000F9810088F189E02D9401A501CE0119951F
:10208000E881F9810688F789E02DCE01DF91CF91B3
:102090001F910F91FF90EF90DF90CF90BF90AF9086
:1020A0009F908F907F906F9019946F927F928F92F4
:1020B0009F92AF92BF92CF92DF92EF92FF920F93D7
:1020C0001F93CF93DF935C01EB016A014901380153
:1020D0008701DC01ED91FC916217730719F5641615
:1020E00075062CF0962D872D3A01C92ED82E960113
:1020F000261937092F5F3F4F048CF58DE02DA30182
:10210000BE01C5011995DF91CF911F910F91FF90ED
:10211000EF90DF90CF90BF90AF909F908F907F9087
:102120006F9008954615570591F42617370724F048
:10213000892D4B01C22FD82F9E01281939092F5FF5
:102140003F4F068CF78DE02DA601B401DACF028453
:10215000F385E02D1995D501ED91FC910488F58961
:10216000E02D83019401A601BE01C5011995D50199
:10217000ED91FC910688F789E02DC501DF91CF91A3
:102180001F910F91FF90EF90DF90CF90BF90AF9095
:102190009F908F907F906F901994EF92FF920F9382
:1021A0001F93DC011A960D911C911B9718962D9187
:1021B0003C911997ED91FC9100A0F1A1E02D7B01DC
:1021C00050E040E070E060E019951F910F91FF90A2
:1021D000EF9008954F925F926F927F928F929F92AD
:1021E000AF92BF92CF92DF92EF92FF920F931F9325
:1021F000CF93DF936C012B015A0139014801DC01B7
:10220000ED91FC910284F385E02D1995E201640CB7
:10221000751CD601ED91FC91C615D7055CF40088BC
:10222000F189E02D87019401A501BE01C601199530
:102230002196EFCF0688F789E02DC601DF91CF9177
:102240001F910F91FF90EF90DF90CF90BF90AF90D4
:102250009F908F907F906F905F904F9019948F9286
:102260009F92AF92BF92CF92DF92EF92FF920F9325
:102270001F93CF93DF93EC015B014A016901E88171
:10228000F9810284F385E02D199595012C0D3D1DF2
:1022900021503109E881F9810488F589E02D780120
:1022A0008401A401B501CE011995E881F981068860
:1022B000F789E02DCE01DF91CF911F910F91FF9013
:1022C000EF90DF90CF90BF90AF909F908F90199438
:1022D0008F929F92AF92BF92CF92DF92EF92FF9236
:1022E0000F931F93CF93DF93EC015B014A016901C8
:1022F0007801E881F9810284F385E02D1995C80CF5
:10230000D91C860101501109E881F9810488F589F9
:10231000E02D9501A401B501CE011995E881F9815F
:102320000688F789E02DCE01DF91CF911F910F91A3
:10233000FF90EF90DF90CF90BF90AF909F908F90E5
:102340001994EF92FF920F931F93DC01ED91FC9192
:1023500000A0F1A1E02D19951F910F91FF90EF9032
:1023600008950F931F93DC01ED91FC91068CF78D7E
:10237000E02D19951F910F9108950F931F93DC0184
:10238000ED91FC91048CF58DE02D19951F910F9125
:102390000895DC01ED91FC910084F185E02D199404
:1023A0003F924F925F926F927F928F929F92AF92E5
:1023B000BF92CF92DF92EF92FF920F931F93CF9332
:1023C000DF935C017B014A016901390187E0680EF6
:1023D000711C93E0759467949A95E1F72B01400E78
:1023E000511E10E000E0312CD0E0C0E0CE0187703B
:1023F0009927330C892B59F4FE0183E0F595E79575
:102400008A95E1F7E00FF11FE80DF91D349037FED2
:102410000AC021E030E0A701B5016C0F7D1F8DE3FC
:1024200095E00E94C9112196CC16DD06F9F68FEFD2
:10243000E81AF80A060D171DE414F504A9F6DF9151
:10244000CF911F910F91FF90EF90DF90CF90BF90B1
:10245000AF909F908F907F906F905F904F903F9044
:1024600008952F923F924F925F926F927F928F9238
:102470009F92AF92BF92CF92DF92EF92FF920F9313
:102480001F93CF93DF9300D000D0CDB7DEB73C01D0
:102490006A013E832D83FC82EB825801A41AB50A9F
:1024A000B7FE03C0B194A194B1088D809E80861AB6
:1024B000970A97FE03C09194819491088A149B0413
:1024C0005CF0902F812F0D811E819D838E839C2D2A
:1024D0008D2D6B01692F782F0C151D055CF09D81EA
:1024E0008E817E836D83692F782F902F812F8601B7
:1024F000C92ED82E1601201A310A2B012D813E81BA
:10250000421A530A57FE03C0519441945108710175
:1025100037FE03C03FEFE31AF30AF594E7948D8189
:102520009E81861797075CF5A1E0B0E0BA83A98386
:10253000C016D1064CF1D301ED91FC910484F585D0
:10254000E02D2B813C81A8016D817E818A149B0442
:102550001CF04D815E81B801C3011995E418F5089E
:10256000F7FE0AC02D813E8189819A81280F391F8B
:102570003E832D83E20CF31C0F5F1F4FD9CF2FEF4B
:102580003FEF3A832983D4CF26960FB6F894DEBF67
:102590000FBECDBFDF91CF911F910F91FF90EF90B4
:1025A000DF90CF90BF90AF909F908F907F906F9073
:1025B0005F904F903F902F900895089520910E03C3
:1025C000260F3327331F21323105ECF420913203DB
:1025D000FC0190E080E0243069F082E00895A09151
:1025E0000E032191AC0142515D4FA40FB52FB11DD7
:1025F0002C930196861798F380910E03680F6093D1
:102600000E0380E0089581E008951092320381E086
:10261000809334031092330361E084E10E943E070B
:1026200061E085E10E943E07E9EBF0E080818E7F6A
:10263000808380818D7F808388E48093B80085E4E7
:102640008093BC000895CF93DF9391E09093ED02C7
:102650008823B9F0C091B800D091BA008091BC0035
:102660008A7B8093BC0060E084E10E943E0760E0CA
:1026700085E10E943E070E940513D093BA00C093E3
:10268000B800DF91CF910895E091650380916403D4
:10269000E81730F4F0E0E853FD4F808190E00895B2
:1026A0008FEF9FEF089590916503809164032FEF62
:1026B0003FEF981748F4E92FF0E0E853FD4F2081F1
:1026C00030E09F5F90936503C90108958091640392
:1026D00090916503891B990B0895CF92DF92EF9239
:1026E000FF920F931F93CF93DF937C01CB018A015D
:1026F00020917203222389F0EB016B01C40ED51ED9
:10270000CC15DD0569F06991D701ED91FC9101903F
:10271000F081E02DC7011995F3CF642F0E94DE12DE
:10272000C801DF91CF911F910F91FF90EF90DF9043
:10273000CF900895CF93DF931F92CDB7DEB7698313
:10274000209172032223F9F020916F03203258F078
:1027500021E030E0FC013383228390E080E00F90A1
:10276000DF91CF91089580917003E82FF0E0E85554
:10277000FD4F998190838F5F8093700380936F03E7
:1027800081E090E0ECCF61E0CE0101960E94DE1284
:10279000F7CFCF92DF92EF92FF920F931F93CF93D9
:1027A000DF93D0916F0381E0D13208F09CC0C091DB
:1027B00071030E94A8076B017C0180913203811193
:1027C0006CC082E08093320381E0809334038FEF0A
:1027D0008093310310925603D0935503A8EAB2E0D8
:1027E000E5E3F3E080E0D8138DC0109257038091A9
:1027F0005703CC0FC82BC09357038091330381300C
:1028000009F084C0109233030E94A8076B017C0179
:10281000809157038093BB008091E9029091EA0276
:10282000A091EB02B091EC02892B8A2B8B2BA1F0AB
:102830000E94A8070091E9021091EA022091EB02A0
:102840003091EC026C197D098E099F090617170754
:102850002807390708F442C08091BC0083FDD8CF17
:1028600085EC8093BC000E94A8076B017C018091DD
:102870003203823009F44CC0809131038F3F09F458
:1028800069C080913103803209F466C080913103C0
:10289000803309F463C084E026C08091E9029091FE
:1028A000EA02A091EB02B091EC02892B8A2B8B2BD0
:1028B00009F483CF0E94A8070091E9021091EA026F
:1028C0002091EB023091EC026C197D098E099F0971
:1028D000061717072807390708F06FCF8091E8021D
:1028E0000E94231385E01092700310926F031092E0
:1028F0007203DF91CF911F910F91FF90EF90DF90C6
:10290000CF9008959D9191938F5F6DCF85EEA9CF64
:102910008091E9029091EA02A091EB02B091EC0261
:10292000892B8A2B8B2B09F4A2CF0E94A807009138
:10293000E9021091EA022091EB023091EC026C194D
:102940007D098E099F09061717072807390708F020
:102950008ECFC4CF80E0C7CF82E0C5CF83E0C3CFA6
:10296000EF92FF920F931F93CF93DF937C01C62FBB
:1029700080915A0590915B05009709F459C0209108
:102980005E0531E03093720320937103109270035F
:1029900010926F03DC01ED91FC910190F081E02D2C
:1029A00060E019958701EE24E394F12CD1E0C15049
:1029B00080915A0590915B05CF3F91F1B0E2EB1603
:1029C000F104D8F00E94C91380915A0590915B05DB
:1029D00020915E05D09372032093710310927003CF
:1029E00010926F03DC01ED91FC910190F081E02DDC
:1029F00060E01995EE24E394F12C80915A059091B2
:102A00005B05F8016491DC01ED91FC910190F0818E
:102A1000E02D1995BFEFEB1AFB0A0F5F1F4FC7CFD1
:102A2000DF91CF911F910F91FF90EF900C94C913FC
:102A3000E0916A05F0916B05908180917005809519
:102A4000892380838701C15008F438C0F80184913C
:102A50002091580530915905232B29F00E94DF0C55
:102A60000F5F1F4FF0CF28E030E040E8E0916605AF
:102A7000F091670590916E05582F5423D9F050813D
:102A8000952B9083E0916805F091690590815091B4
:102A90006F05952B9083E0916805F0916905508151
:102AA00090916F059095952390834695215031091B
:102AB000E9F6D6CF508190959523E3CFDF91CF9162
:102AC0001F910F91FF90EF9008951F93CF93DF9385
:102AD000EC018D8D9E8D009721F1162F29A131E0FB
:102AE00030937203209371031092700310926F035E
:102AF000DC01ED91FC910190F081E02D60E01995F1
:102B00008D8D9E8DDC01ED91FC910190F081E02D89
:102B1000612F19958D8D9E8DDF91CF911F910C9412
:102B2000C913ADA5BEA59C918BA9809589238C93D3
:102B30008B8D9C8D892B31F0862FDF91CF911F914A
:102B40000C94DF0C28E030E080E8A9A5BAA599A98B
:102B5000462F4823C1F04C91942B9C93ABA5BCA568
:102B60009C914AA9942B9C93ABA5BCA54C919AA986
:102B7000909594239C9386952150310931F7DF91EC
:102B8000CF911F9108954C9190959423E6CF1F9378
:102B9000CF93DF93EC01162F8D8D9E8D892BB1F194
:102BA0002DA93EA94FA958AD60E074E284EF90E0F2
:102BB0000E94332320513109410951095695479507
:102BC000379527952093B80066EA111167EACE0180
:102BD0000E9465158D8D9E8D892B41F129AD3AADF1
:102BE0004BAD5CAD60E074E284EF90E00E94332373
:102BF0002051310941095109569547953795279537
:102C00002093B800DF91CF911F9108958B8D9C8DFB
:102C1000892B21F08EAD9FAD0E94E60CEFA5F8A99F
:102C200090818CA9809589238083CECFEFA5F8A9C8
:102C300080819CA9892B8083E5CF90E080E0089576
:102C400061E0FC0180810C946C07FC010190002084
:102C5000E9F73197AF01481B590BBC0180E194E0C3
:102C60000C9416082091430530914405C90107963C
:102C700097FD079623E0959587952A95E1F7209192
:102C8000410530914205829FA001839F500D929F84
:102C9000500D112470E060E080915C0590915D051D
:102CA0000C9490250E9482250F931F93CF93DF935E
:102CB000EC0188819981009759F02A813B81261780
:102CC000370730F081E0DF91CF911F910F91089588
:102CD0008B016F5F7F4F0E94A124009759F0998369
:102CE00088831B830A832C813D81232B59F7FC01A8
:102CF0001082E8CF80E0E7CF85ED8093BC00809123
:102D0000E9029091EA02A091EB02B091EC020796E1
:102D1000A11DB11D23E0B695A795979587952A9596
:102D2000D1F72091BC0024FD03C010923203089516
:102D30004091E9025091EA026091EB027091EC023D
:102D4000452B462B472B69F30097A105B10541F0B0
:102D50002AE22A95F1F700C00197A109B109E1CF54
:102D60008091E8020C9423131F920F920FB60F92DA
:102D700011242F933F938F939F93AF93BF93809191
:102D8000670390916803A0916903B0916A03309141
:102D9000660323E0230F2D3758F50196A11DB11DC1
:102DA000209366038093670390936803A09369035D
:102DB000B0936A0380916B0390916C03A0916D03B3
:102DC000B0916E030196A11DB11D80936B0390938A
:102DD0006C03A0936D03B0936E03BF91AF919F916D
:102DE0008F913F912F910F900FBE0F901F901895CC
:102DF00026E8230F0296A11DB11DD2CF1F920F927C
:102E00000FB60F9211240BB60F922F933F934F934F
:102E10005F936F937F938F939F93AF93BF93EF9342
:102E2000FF93E0911802F09119021995FF91EF912B
:102E3000BF91AF919F918F917F916F915F914F91D2
:102E40003F912F910F900BBE0F900FBE0F901F90D0
:102E500018951F920F920FB60F9211240BB60F9276
:102E60002F933F934F935F936F937F938F939F9392
:102E7000AF93BF93EF93FF93E0911602F091170287
:102E80001995FF91EF91BF91AF919F918F917F9194
:102E90006F915F914F913F912F910F900BBE0F90CB
:102EA0000FBE0F901F9018951F920F920FB60F92A2
:102EB00011240BB60F922F933F934F935F936F9311
:102EC0007F938F939F93AF93BF93EF93FF93E09183
:102ED0000C02F0910D021995FF91EF91BF91AF9106
:102EE0009F918F917F916F915F914F913F912F9122
:102EF0000F900BBE0F900FBE0F901F9018951F9252
:102F00000F920FB60F9211240BB60F922F933F938F
:102F10004F935F936F937F938F939F93AF93BF93E1
:102F2000EF93FF93E0910A02F0910B021995FF9144
:102F3000EF91BF91AF919F918F917F916F915F9131
:102F40004F913F912F910F900BBE0F900FBE0F909E
:102F50001F9018951F920F920FB60F9211240BB667
:102F60000F922F933F934F935F936F937F938F9322
:102F70009F93AF93BF93EF93FF93E0911402F0916F
:102F800015021995FF91EF91BF91AF919F918F918C
:102F90007F916F915F914F913F912F910F900BBE59
:102FA0000F900FBE0F901F9018951F920F920FB6A3
:102FB0000F9211240BB60F922F933F934F935F9371
:102FC0006F937F938F939F93AF93BF93EF93FF93F1
:102FD000E0911202F09113021995FF91EF91BF91C8
:102FE000AF919F918F917F916F915F914F913F91A1
:102FF0002F910F900BBE0F900FBE0F901F90189542
:103000001F920F920FB60F9211240BB60F922F93AF
:103010003F934F935F936F937F938F939F93AF9360
:10302000BF93EF93FF93E0911002F0911102199575
:10303000FF91EF91BF91AF919F918F917F916F9190
:103040005F914F913F912F910F900BBE0F900FBE4C
:103050000F901F9018951F920F920FB60F92112488
:103060000BB60F922F933F934F935F936F937F9382
:103070008F939F93AF93BF93EF93FF93E0910E02D3
:10308000F0910F021995FF91EF91BF91AF919F9130
:103090008F917F916F915F914F913F912F910F9001
:1030A0000BBE0F900FBE0F901F9018951F920F929E
:1030B0000FB60F9211240BB60F922F933F934F939D
:1030C0005F936F937F938F939F93AF93BF93EF9390
:1030D000FF9383E793E00E949408FF91EF91BF91E3
:1030E000AF919F918F917F916F915F914F913F91A0
:1030F0002F910F900BBE0F900FBE0F901F90189541
:103100001F920F920FB60F9211240BB60F922F93AE
:103110008F939F93EF93FF93E0918303F091840348
:103120008081E0918903F0918A0382FD1DC0908126
:1031300080918C038F5F8F7320918D03821741F0F4
:10314000E0918C03F0E0ED58FC4F958F80938C0359
:10315000FF91EF919F918F912F910F900BBE0F9048
:103160000FBE0F901F9018958081F2CF1F920F9283
:103170000FB60F9211240BB60F922F933F934F93DC
:103180005F936F937F938F939F93AF93BF93EF93CF
:10319000FF9380E194E00E949408FF91EF91BF912A
:1031A000AF919F918F917F916F915F914F913F91DF
:1031B0002F910F900BBE0F900FBE0F901F90189580
:1031C0001F920F920FB60F9211240BB60F922F93EE
:1031D0008F939F93EF93FF93E0912004F09121044C
:1031E0008081E0912604F091270482FD1DC090812A
:1031F000809129048F5F8F7320912A04821741F0F8
:10320000E0912904F0E0E05FFB4F958F8093290463
:10321000FF91EF919F918F912F910F900BBE0F9087
:103220000FBE0F901F9018958081F2CF1F920F92C2
:103230000FB60F9211240BB60F924F925F926F92BE
:103240007F928F929F92AF92BF92CF92DF92EF9236
:10325000FF920F931F932F933F934F935F936F931F
:103260007F938F939F93AF93BF93CF93DF93EF930E
:10327000FF93C0915B03D0915C03CE0101979093C3
:103280005C0380935B03209749F51092700078945B
:103290008091B100887F83608093B1008AEF809332
:1032A000B3001092B40081E08093090280915D0325
:1032B00090915E03892B91F07090080280915903E0
:1032C000882379F160915803662359F170E040E05A
:1032D00088EE93E00E94980910925803FF91EF91B5
:1032E000DF91CF91BF91AF919F918F917F916F911E
:1032F0005F914F913F912F911F910F91FF90EF9010
:10330000DF90CF90BF90AF909F908F907F906F9005
:103310005F904F900F900BBE0F900FBE0F901F90BD
:10332000189555245394F0ECAF2EFDE5BF2EAAE07E
:103330004A2EB4E06B2E10EDC12E17E0D12E04E022
:10334000E02EF12C04EF11E08FE0882E912C0E94EA
:10335000500920915D0330915E032F5F3F4F309302
:103360005E0320935D03853609F46FC00CF043C003
:10337000813609F4B1C004F58C3309F464C08E338E
:1033800009F45FC0813209F03FC060920802D09218
:103390000502C0920402F0920702E0920602109326
:1033A00003020093020290920102809200021092A6
:1033B0005903E4E07E2ECBCF833609F490C010E0B1
:1033C0000BE0843614F010E002E05CE0759E000D26
:1033D00011240E945009982F977F933209F081C0E1
:1033E00080915D0390915E03019690935E038093BC
:1033F0005D030F5FEECF8D3609F442C054F487367B
:1034000051F134F18C3651F110925E0310925D034C
:1034100065CF823709F449C044F48F36A9F70E947A
:103420007009782E8093080292CF843709F440C047
:10343000863751F70E947009909301028093000231
:1034400086CF739484CF7A9482CF10E004E0BDCF0E
:1034500010E005E0BACF10E007E0B7CF0E94700996
:10346000BC01909307028093060280910402909120
:1034700005020E941F23709303026093020267CF2C
:103480000E9450098C3661F41092590380915D03BB
:1034900090915E03019690935E0380935D0357CFF6
:1034A0005092590310925803F1CF11E000E08DCFF4
:1034B0000E947009BC01C5010E941F23469EC001E5
:1034C000479E900D11249093050280930402609111
:1034D000060270910702CDCF10E009E076CF10E030
:1034E000E5CF8D3269F480915D0390915E03019682
:1034F00090935E0380935D0301500E945009F1CFC9
:103500008153E0900202F0900302883058F4E0907A
:103510000402F09005020E947009BC01C7010E94DC
:103520001F237B016701D694C7940E9450098E32F5
:1035300061F480915D0390915E03019690935E0328
:1035400080935D03EC0CFD1CEECF80915903882322
:1035500039F0C7019695879580935803E81AF108CA
:1035600040910002111104C00F3F11F0411107C03A
:1035700040E0B70188EE93E00E949809AFCE013198
:1035800028F010EF100F103608F01FE5812F6CE0C7
:103590000E941323682F54EF560390011124210F2A
:1035A000311D2C30310538F4220F331FF901E05E54
:1035B000FD4FC081D1818730B9F0082E02C0CC0FF9
:1035C000DD1F0A94E2F7823040F0CE0105966AE0F2
:1035D00070E00E941F23CB0102C0CE019058403101
:1035E00008F04FE0B701C8CFCE0126E0880F991F41
:1035F0002A95E1F7029665E070E0EBCF1F920F92FB
:103600000FB60F9211240BB60F922F933F934F9347
:103610005F936F937F938F939F93AF93BF93EF933A
:10362000FF938091B900887F803609F44DC008F07F
:1036300040C0883209F4A9C028F5803109F49DC042
:10364000C8F4882309F4FBC0883009F496C0FF91C0
:10365000EF91BF91AF919F918F917F916F915F910A
:103660004F913F912F910F900BBE0F900FBE0F9077
:103670001F901895883109F488C0803241F78093F3
:10368000310314C0803409F49DC040F48033B9F391
:103690008833E9F68093310385ECB0C0803509F4B6
:1036A00085C0883509F496C0883489F60E947C1656
:1036B000CECF883909F48CC038F5883729F050F41A
:1036C000883611F0803719F683E080933203109228
:1036D000300357C0883809F47BC0803919F080382E
:1036E00009F0B5CF80913003803208F071C0E091CD
:1036F000300381E08E0F809330038091BB00F0E0B7
:10370000E05FFC4F80833DC0803B39F0E0F4803ABD
:1037100009F479C0883A09F09ACF84E080933203A3
:1037200010920F0310920E03E0916203F091630375
:10373000199580910E0381110FC081E080930E03D3
:103740001092EE0209C0803C09F4A6CF883C09F42F
:10375000A3CF883B09F07BCFE0910F0381E08E0F70
:1037600080930F03F0E0E251FD4F80818093BB0016
:1037700090910F0380910E0329C08091570380938D
:10378000BB0085EC8093BC0062CF90915603809182
:103790005503981758F5E091560381E08E0F8093FA
:1037A0005603F0E0EB5CFC4F8081E9CFE0915603DB
:1037B00081E08E0F809356038091BB00F0E0EB5CBC
:1037C000FC4F808390915603809155039817C8F25F
:1037D00085E8D8CFE091560381E08E0F80935603A1
:1037E0008091BB00F0E0EB5CFC4F80838091340360
:1037F00081115CCF81E08093330384EA8093BC0025
:103800001092320324CF85EC8093BC0010923203D7
:1038100080913003803230F4E0913003F0E0E05FDB
:10382000FC4F10826091300370E0E0916003F091F2
:10383000610380E193E019951092300308CF109254
:10384000310334CFE3E7F3E01382128248EE53E012
:1038500060E070E044835583668377838CE492E074
:103860009183808325E331E03587248724E331E0A9
:103870003787268720E331E0318B208B21E331E04D
:10388000338B228B22E331E0358B248B26E331E02E
:10389000378B268B118E128E138E148EE0E1F4E09E
:1038A0001382128244835583668377839183808356
:1038B00085EC90E09587848784EC90E097878687F5
:1038C00080EC90E0918B808B81EC90E0938B828BED
:1038D00082EC90E0958B848B86EC90E0978B868BC6
:1038E000118E128E138E148EA1E3B5E013961C92E6
:1038F0001E92129714964D935D936D937C93179738
:103900008EE592E011969C938E93EDE3F5E01382A1
:10391000128220E830E03583248380E290E09783B0
:1039200086833187208793878287168A1586148637
:103930001786168681E0858B848B2FEF3FEF338BC4
:10394000228B318B208B878B108E128E118E80E70D
:1039500092E091838083148E138EB68FA58F10A270
:10396000178E8FEF84A385A386A387A380A780E803
:103970009AE1A6E0B0E085AB96ABA7ABB0AF80EA2A
:1039800096E8A1E0B0E081AF92AFA3AFB4AF80E51D
:1039900086AF17AEE6E2F5E081E3808384E690E04F
:1039A000A0E0B0E081839283A383B4831582168262
:1039B0001782108611861286EBE1F5E02FE2208354
:1039C0001182128213821482158216821782108647
:1039D00011861286E0E1F5E02DE220831182128249
:1039E000138214821582168217821086118612861F
:1039F000E5E0F5E02BE2208381839283A383B48307
:103A0000158216821782108611861286EAEFF4E07C
:103A100029E2208311821282138214821582168277
:103A20001782108611861286EFEEF4E027E22083DB
:103A300011821282138214821582168217821086D6
:103A400011861286E4EEF4E025E2208381839283DE
:103A5000A383B4831582168217821086118612867C
:103A6000E9EDF4E023E220831182128213821482B2
:103A7000158216821782108611861286EEECF4E00B
:103A800021E220831182128213821482158216820F
:103A90001782108611861286E3ECF4E02FE1208372
:103AA00081839283A383B483158216821782108642
:103AB00011861286E8EBF4E08DE180831182128298
:103AC000138214821582168217821086118612863E
:103AD000EDEAF4E08BE1808311821282138214827A
:103AE0001582168217821086118612860895CF934A
:103AF000DF93CDB7DEB7A3970FB6F894DEBF0FBE46
:103B0000CDBF789484B5826084BD84B5816084BD66
:103B100085B5826085BD85B5816085BD80916E006B
:103B2000816080936E00109281008091810082609C
:103B300080938100809181008160809381008091D9
:103B400080008160809380008091B10084608093C8
:103B5000B1008091B00081608093B00080919100AD
:103B600082608093910080919100816080939100A8
:103B7000809190008160809390008091A10082608C
:103B80008093A1008091A10081608093A100809129
:103B9000A00081608093A0008091210182608093C9
:103BA0002101809121018160809321018091200178
:103BB00081608093200180917A00846080937A00F4
:103BC00080917A00826080937A0080917A0081608F
:103BD00080937A0080917A00806880937A001092B6
:103BE000C10080915C0590915D05892B11F10E94C7
:103BF0003216209143053091440580914105909102
:103C00004205213231050CF0E6C0B901605271095C
:103C100077FF02C06F5F7F4F759567958357910956
:103C200097FD019600E210E023E730E04EED56E00C
:103C3000E5C02091430530914405C901079697FDE1
:103C40000796B3E095958795BA95E1F720914105E0
:103C500030914205AC01429FC001439F900D529F9D
:103C6000900D11240E947C2390935D0580935C0548
:103C7000892B09F0BCCF0E94321680915A05909191
:103C80005B05892B09F4ACC2209172053091730554
:103C9000409174055091750560E074E284EF90E006
:103CA0000E94332320513109410951095695479506
:103CB000379527952093B80064E08EE79BE00E943B
:103CC000B01480914105909142058034910509F02E
:103CD0009EC260E28DE395E00E946515609141050A
:103CE000615E8DE395E00E9465152091430530915A
:103CF0004405C901079697FD0796F3E095958795CA
:103D0000FA95E1F72091410530914205829F7001BB
:103D1000839FF00C929FF00C112400915C05109190
:103D20005D0580915A0590915B05E00EF11E0097AC
:103D300009F46DC320915E0531E030937203209346
:103D400071031092700310926F03DC01ED91FC91EE
:103D50000190F081E02D60E41995CC24C394D12C1E
:103D6000BB24B39480915A0590915B05E016F1064F
:103D700009F456C2B0E2CB16D104D8F00E94C913A0
:103D800080915A0590915B0520915E05B092720377
:103D9000209371031092700310926F03DC01ED9178
:103DA000FC910190F081E02D60E41995CC24C3943E
:103DB000D12C80915A0590915B05F80161918F019A
:103DC000DC01ED91FC910190F081E02D1995BFEFA0
:103DD000CB1ADB0AC7CFB9016054710977FF02C063
:103DE0006F5F7F4F759567958255910997FD019695
:103DF00000E410E022E530E04EEB58E09595879521
:103E00000E94D01182E080935F0580915A059091C5
:103E10005B05892B09F4DFC08CE380935E0510926B
:103E20006503109264031092700310926F030E9456
:103E3000051383E198E0909363038093620384E128
:103E400098E090936103809360038091650587FDFE
:103E50001EC061E00E946C0761E0809165050E94D0
:103E60003E0761E070E080E090E00E94CD0760E0F6
:103E7000809165050E943E076AE070E080E090E076
:103E80000E94CD0761E0809165050E943E07809108
:103E90005A0590915B05892B09F45CC1209172054C
:103EA00030917305409174055091750560E074E29E
:103EB00084EF90E00E9433232051310941095109D8
:103EC00056954795379527952093B80064E08AED7D
:103ED00096E00E94B0146091430561508DE395E037
:103EE0000E94651564E086ED96E00E94B014809112
:103EF0005F0560E1813009F064E18DE395E00E94A7
:103F0000651564E082ED96E00E94B0148FE880931E
:103F10007A0580914105909142058038910509F01C
:103F200030C180914305909144058034910509F09A
:103F300038C180915F05813009F046C18FE98093D7
:103F40007A0512E16AED8DE395E00E946515612F17
:103F50008DE395E00E94651561E88DE395E00E9490
:103F6000651560917A058DE395E00E94651569ED10
:103F70008DE395E00E94651580915F0562E28130D6
:103F800009F061EF8DE395E00E94651566E08CEC29
:103F900096E00E94B01480915A0590915B05892BA0
:103FA00009F414C120917605309177054091780588
:103FB0005091790560E074E284EF90E00E94332331
:103FC0002051310941095109569547953795279553
:103FD0002093B80050CE61E0809163050E946C0789
:103FE00061E0809164050E946C0780916305082E52
:103FF000000C990BFC01E053F44FE491F0E0EE0F5C
:10400000FF1FE456F44F2591349130936B052093B4
:104010006A05FC01EA5EF34FE491E093700580913C
:104020006405082E000C990BFC01E053F44FE49159
:10403000F0E0EE0FFF1FE456F44FA591B491B0935A
:104040006D05A0936C05FC01EA5EF34FE491E093EB
:1040500071058C91E82BEC9380915805909159054E
:10406000892B09F434C01FB7F89480915F03811144
:1040700027C0E5E0FCE08491EBE4FCE09491E82FBC
:10408000F0E0EE0FFF1FEE57F44FA591B491EC91C5
:10409000E92321F461E085E30E943E0761E085E3C6
:1040A0000E946C078CB580618CBD8CB580648CBD22
:1040B00061E084E30E946C0761E083E30E946C0787
:1040C00080915F038F5F80935F031FBFBECE61E06F
:1040D000809161050E946C0761E0809162050E94F9
:1040E0006C0780916105082E000C990BFC01E053D0
:1040F000F44FE491F0E0EE0FFF1FE456F44F2591EA
:1041000034913093670520936605FC01EA5EF34F16
:10411000E491E0936E0580916205082E000C990BE6
:10412000FC01E053F44FE491F0E0EE0FFF1FE45682
:10413000F44FA591B491B0936905A0936805FC0173
:10414000EA5EF34FE491E0936F058C91E095E823EC
:10415000EC937BCE8091580590915905892B31F0D5
:1041600080917B0590917C050E94E60CE0916C05A6
:10417000F0916D05908180917105809589238083F0
:10418000A5CE8036910589F4809143059091440530
:10419000409739F480915F05813029F480E1809364
:1041A0007A0512E0CFCE8FEAFACF80349105C9F7B5
:1041B0008091430590914405809799F780915F0520
:1041C000813011F480E1BBCE8FECB9CEE0916C056B
:1041D000F0916D05808190917105892B80834BCD85
:1041E0008091580590915905892B31F080917B057C
:1041F00090917C050E94E60CE0916C05F0916D05B4
:1042000090818091710580958923808355CD60E0F0
:104210008DE395E00E94651560914105615061CD87
:104220000E94C91380915A0590915B05892B09F46E
:1042300032C12091760530917705409178055091F3
:10424000790560E074E284EF90E00E94332320510E
:10425000310941095109569547953795279520937E
:10426000B80061E084E00E946C0761E085E00E9494
:104270006C0761E080E20E946C0761E082E20E94CC
:104280006C0761E08EE10E946C0761E084E20E94AD
:104290006C0760E088E00E946C0760E087E00E94A5
:1042A0006C0760E086E00E946C0785E095E00E9464
:1042B000201686E295E00E94201684EE94E00E948B
:1042C000201683EC94E00E9420168BE195E00E947A
:1042D000201680E195E00E9420168AEF94E00E946B
:1042E00020168BE195E00E9420168EEC94E00E944F
:1042F00020168DEA94E00E94201689ED94E00E9439
:10430000201688EB94E00E94201662E082E00E9472
:104310006C0762E082E10E946C078FEF97E0909358
:104320000B0280930A0280916A008C7F82608093E6
:104330006A00EC9A89E098E0909315028093140249
:10434000809169008F73806880936900EB9A80E1A7
:1043500094E00E94860688E992E00E94251681EA90
:1043600092E00E94251683E793E00E9486064AE0C9
:10437000842E912CA12CB12C7724739483E793E0A5
:104380000E947408892B09F4AAC01A8219821C821F
:104390001B821E821D8270E060E0CE0101960E94A9
:1043A000541629813A81811180C02115310519F0F7
:1043B000C9010E9418241A8219821E821D821C8241
:1043C0001B8283E793E00E947408892B09F475C06F
:1043D00083E793E00E9452088AA31BA20D811E81ED
:1043E0000F5F1F4FB801CE0101960E94541688231B
:1043F00041F329813A818D819E81BE016E5D7F4F9F
:10440000820F931F0E9497251E830D83DACFE091C0
:104410006A05F0916B05808190917005892B8083EE
:10442000E016F10609F4FECEF80181918F0120918A
:10443000580530915905232B19F00E94DF0CF0CF5D
:1044400028E030E040E8E0916605F0916705909142
:104450006E05582F5423D9F05081952B9083E0910D
:104460006805F0916905908150916F05952B9083B7
:10447000E0916805F0916905508190916F059095E4
:1044800095239083469521503109E9F6C9CF508193
:1044900090959523E3CFE0916C05F0916D058081B7
:1044A00090917105892B8083DCCE1E821D8263EA88
:1044B00072E0C9010E94972584CF4D815E81698198
:1044C0007A8180E194E00E94160881EA92E00E94DD
:1044D000251689819A81009711F00E94182488E09E
:1044E0000E9415078C0187E00E9415077C0186E079
:1044F0000E941507000F111F000F111FEE0CFF1C6B
:104500000E291F29082B192B6801012E000CEE081B
:10451000FF08F7FE39C06DE280E194E00E94B60822
:1045200022273327A9012C193D094E095F0919A239
:10453000CE0181967C01CA01B901A50194010E94B6
:104540003323605DD7016E937D012115310541054F
:10455000510589F7E114F10419F0C7010E942516ED
:1045600081EA92E00E9425160130110534F00530F1
:1045700011053CF00630110521F07092D8047092BC
:10458000B7040E942309FACEA701960119A2FE01E1
:10459000B1967F01CA01B901A50194010E9433239C
:1045A000605DD7016E937D012115310541055105EF
:1045B00089F7D0CF80E792E090933E0580933D0548
:1045C00080915C0590915D05009711F00C94182482
:1045D00008950E94F422A59F900DB49F900DA49F72
:1045E000800D911D11240895A29FB001B39FC001B9
:1045F000A39F700D811D1124911DB29F700D811D0F
:104600001124911D0895DB018F939F930E94E9224D
:10461000BF91AF91A29F800D911DA39F900DB29F5E
:10462000900D11240895991B79E004C0991F9617E5
:1046300008F0961B881F7A95C9F780950895AA1BE4
:10464000BB1B51E107C0AA1FBB1FA617B70710F07D
:10465000A61BB70B881F991F5A95A9F780959095AF
:10466000BC01CD010895A1E21A2EAA1BBB1BFD01BE
:104670000DC0AA1FBB1FEE1FFF1FA217B307E40741
:10468000F50720F0A21BB30BE40BF50B661F771F99
:10469000881F991F1A9469F7609570958095909579
:1046A0009B01AC01BD01CF010895052E97FB1EF4BF
:1046B00000940E946C2357FD07D00E94332307FC0F
:1046C00003D04EF40C946C23509540953095219571
:1046D0003F4F4F4F5F4F089590958095709561952E
:1046E0007F4F8F4F9F4F0895EE0FFF1F881F8BBF87
:1046F0000790F691E02D19940F931F93CF93DF93BA
:104700008230910510F482E090E0E0917F05F09115
:10471000800530E020E0B0E0A0E0309799F421156A
:10472000310509F44AC0281B390B24303105D8F56E
:104730008A819B816115710589F1FB0193838283D5
:10474000FE0111C040815181028113814817590730
:10475000E0F04817590799F4109761F012960C93FE
:10476000129713961C933296CF01DF91CF911F9130
:104770000F91089500937F0510938005F4CF2115C4
:10478000310551F04217530738F0A901DB019A01B6
:10479000BD01DF01F801C1CFEF01F9CF9093800592
:1047A00080937F05CDCFFE01E20FF31F819391939C
:1047B0002250310939832883D7CF20917D0530914C
:1047C0007E05232B41F420911C0230911D02309371
:1047D0007E0520937D0520911A0230911B02211540
:1047E000310541F42DB73EB740911E0250911F0292
:1047F000241B350BE0917D05F0917E05E217F30750
:10480000A0F42E1B3F0B2817390778F0AC014E5F40
:104810005F4F2417350748F04E0F5F1F50937E05FA
:1048200040937D05819391939FCFF0E0E0E09CCF92
:10483000CF93DF930097E9F0FC0132971382128245
:10484000A0917F05B0918005ED0130E020E0109748
:10485000A1F420813181820F931F20917D05309139
:104860007E052817390709F061C0F0937E05E093B3
:104870007D05DF91CF910895EA01CE17DF07E8F5B6
:104880004A815B819E0141155105B1F7E901FB8326
:10489000EA8349915991C40FD51FEC17FD0761F4C4
:1048A000808191810296840F951FE9019983888305
:1048B000828193819B838A83F0E0E0E012968D9160
:1048C0009C9113970097B9F52D913C911197CD01CB
:1048D0000296820F931F20917D0530917E05281747
:1048E000390739F6309751F51092800510927F05FF
:1048F000B0937E05A0937D05BCCFD383C283408156
:104900005181840F951FC817D90761F44E5F5F4F1F
:1049100088819981480F591F518340838A819B81E7
:10492000938382832115310509F0B0CFF093800580
:10493000E0937F059ECFFD01DC01C0CF1382128280
:10494000D7CF4F925F926F927F928F929F92AF924A
:10495000BF92CF92DF92EF92FF920F931F93CF936C
:10496000DF938C01009799F4CB01DF91CF911F91D8
:104970000F91FF90EF90DF90CF90BF90AF909F90FE
:104980008F907F906F905F904F900C947C23FC01F0
:10499000E60FF71F9C0122503109E217F30708F4D4
:1049A000AEC0D901CD91DC911197C617D70720F180
:1049B000C530D10578F0CE0104978617970750F0DF
:1049C000C61BD70B2297C193D1936D937C93CF01D4
:1049D0000E941824C801DF91CF911F910F91FF9081
:1049E000EF90DF90CF90BF90AF909F908F907F908F
:1049F0006F905F904F9008955B01AC1ABD0A4C0117
:104A00008C0E9D1EA0917F05B0918005512C412CEC
:104A1000F12CE12C109731F580917D0590917E0568
:104A20008815990509F05CC04616570608F058C06D
:104A300080911A0290911B02009741F48DB79EB7A6
:104A400040911E0250911F02841B950BE817F90735
:104A500008F055C0F0937E05E0937D05F901718360
:104A60006083B8CF8D919C91119712966C9012979C
:104A700013967C901397A815B90559F56C0142E07F
:104A8000C40ED11CCA14DB0420F1AC014A195B0925
:104A9000DA011296159780F0628273825183408307
:104AA000D9016D937C93E114F10471F0D701139651
:104AB000FC93EE9312978ECF22968C0F9D1FF901D7
:104AC00091838083F301EFCFF0938005E0937F051E
:104AD00081CF4816590608F42C017D01D3019ACFE5
:104AE000CB010E947C237C01009749F0AE01B80104
:104AF0000E948725C8010E94182487016BCF10E00F
:104B000000E068CF81E090E0F8940C949E25FB01D2
:104B1000DC0102C001900D9241505040D8F7089539
:104B2000DC0101C06D9341505040E0F70895FB0156
:104B3000DC0101900D920020E1F7089516E0C2E536
:104B4000D6E000E006C0802FFE010E94742321966B
:104B5000011DC335D10780E00807A9F7F894FFCFFE
:104B60000F00F401D007040004011508150815080A
:104B7000150815081508150815080000810580009E
:104B80009C01B501CF01EA01070226024702690232
:104B90008E02B502DE020A030000010008002000B8
:104BA000400080000001000400000000B608160864
:104BB00043080309740852086608000000009A13AD
:104BC0006D131D16AD066613531344130000000049
:104BD000240F16081D16DD122F0CAD06C911A111E8
:104BE000BD11B1113112AD06EA0CC7159F0BE80BD0
:104BF000EA10CD105510F60F5374617274696E6728
:044C0000000D0A0099
:00000001FF
