:100000000C9453060C94A3160C9478160C944D166D
:100010000C9422160C94F7150C94CC150C94A11585
:100020000C9476150C9484060C9484060C94840627
:100030000C9484060C9484060C9484060C94840618
:100040000C9484060C9484060C9484060C94840608
:100050000C9484060C9484060C9484060C942C1541
:100060000C9484060C94F8160C94CE160C9484060A
:100070000C9484060C9484060C9484060C948406D8
:100080000C9484060C9484060C9484060C948406C8
:100090000C9484060C9484060C9484060C942E17FD
:1000A0000C9484060C9484060C9484060C948406A8
:1000B0000C9484060C9484060C9484060C94840698
:1000C0000C9484060C9484060C9484060C94840688
:1000D0000C9484060C9484060C9484060C94840678
:1000E0000C9484060C947A0B0C946D110C94AF064E
:1000F0000C942A120C94AB060C94E6060C94C406DD
:100100000C9431100C94EA060C94E3070C94860EC0
:100110000C9459100C9486060C94661E0C9457147B
:100120000C94C7080C9434080C94CA060C94F6116D
:100130000C94E5060C945D0F0C947A0F0C94B706A2
:100140000C94E1070C94AD140C94CD070C944D1055
:100150000C94E3110C94D2060C94D7070C94411024
:100160000C9420080C94DC060C94E50E0C94D80634
:100170000C94C1100C94BF0A0C94B40D0C94E407B9
:100180000C94FD110C9452180C942F0A0C94D41159
:100190000C94E0060C94E2070C94BA060C94C0068A
:1001A0000C94CE060C947A080C9442080C94B30676
:1001B0000C9411080C94A5060C94780A0000000019
:1001C000003E5B4F5B3E3E6B4F6B3E1C3E7C3E1CDD
:1001D000183C7E3C181C577D571C1C5E7F5E1C0023
:1001E000183C1800FFE7C3E7FF0018241800FFE7DA
:1001F000DBE7FF30483A060E2629792926407F059D
:100200000507407F05253F5A3CE73C5A7F3E1C1CB2
:1002100008081C1C3E7F14227F22145F5F005F5F72
:1002200006097F017F006689956A6060606060945E
:10023000A2FFA29408047E040810207E2010080863
:100240002A1C08081C2A08081E101010100C1E0C6E
:100250001E0C30383E3830060E3E0E060000000000
:100260000000005F00000007000700147F147F14E7
:10027000242A7F2A1223130864623649562050002C
:1002800008070300001C2241000041221C002A1C18
:100290007F1C2A08083E0808008070300008080803
:1002A0000808000060600020100804023E51494523
:1002B0003E00427F400072494949462141494D3341
:1002C0001814127F1027454545393C4A49493141A8
:1002D000211109073649494936464949291E000076
:1002E00014000000403400000008142241141414CB
:1002F0001414004122140802015909063E415D59B7
:100300004E7C1211127C7F494949363E41414122BF
:100310007F4141413E7F494949417F090909013EE9
:10032000414151737F0808087F00417F4100204010
:10033000413F017F081422417F404040407F021C22
:10034000027F7F0408107F3E4141413E7F09090939
:10035000063E4151215E7F09192946264949493205
:1003600003017F01033F4040403F1F2040201F3FCB
:100370004038403F63140814630304780403615950
:10038000494D43007F414141020408102000414192
:10039000417F04020102044040404040000307083E
:1003A0000020545478407F2844443838444444283A
:1003B000384444287F385454541800087E090218E1
:1003C000A4A49C787F0804047800447D4000204069
:1003D000403D007F1028440000417F40007C0478AD
:1003E00004787C080404783844444438FC182424F5
:1003F0001818242418FC7C08040408485454542475
:1004000004043F44243C4040207C1C2040201C3CF1
:100410004030403C44281028444C9090907C4464E8
:10042000544C44000836410000007700000041367B
:10043000080002010204023C2623263C1EA1A16101
:10044000123A4040207A3854545559215555794133
:100450002254547842215554784020545579400C08
:100460001E527212395555555939545454593955EB
:100470005454580000457C410002457D420001452E
:100480007C407D1211127DF0282528F07C545545C2
:10049000002054547C547C0A097F4932494949322E
:1004A0003A4444443A324A4848303A4141217A3A3F
:1004B00042402078009DA0A07D3D4242423D3D400B
:1004C00040403D3C24FF2424487E4943662B2FFCBA
:1004D0002F2BFF0929F620C0887E09032054547968
:1004E000410000447D413048484A32384040227A39
:1004F000007A0A0A727D0D19317D2629292F2826B6
:100500002929292630484D402038080808080808BD
:100510000808382F10C8ACBA2F102834FA00007B16
:10052000000008142A142222142A14085500550029
:1005300055AA55AA55AAFF55FF55FF000000FF0018
:10054000101010FF00141414FF001010FF00FF1013
:1005500010F010F0141414FC001414F700FF000045
:10056000FF00FF1414F404FC141417101F10101FC4
:10057000101F1414141F00101010F0000000001FB2
:10058000101010101F10101010F010000000FF10BD
:100590001010101010101010FF10000000FF1400B9
:1005A00000FF00FF00001F10170000FC04F41414EB
:1005B0001710171414F404F40000FF00F7141414B7
:1005C00014141414F700F7141414171410101F1037
:1005D0001F141414F4141010F010F000001F101F5A
:1005E0000000001F14000000FC140000F010F010C8
:1005F00010FF10FF141414FF141010101F0000003F
:1006000000F010FFFFFFFFFFF0F0F0F0F0FFFFFF42
:100610000000000000FFFF0F0F0F0F0F3844443899
:1006200044FC4A4A4A347E02020606027E027E02E8
:1006300063554941633844443C04407E201E2006F3
:10064000027E020299A5E7A5991C2A492A1C4C7230
:1006500001724C304A4D4D303048784830BC625AB7
:10066000463D3E494949007E0101017E2A2A2A2A47
:100670002A44445F444440514A444040444A514023
:100680000000FF0103E080FF000008086B6B0836E4
:1006900012362436060F090F060000181800000055
:1006A0001010003040FF0101001F01011E00191D44
:1006B0001712003C3C3C3C00000000000001030716
:1006C0000F1F3F7F0080C0E0F0F8FCFEDB40A4A6D7
:1006D0002EAF2000A1C8D300408DAED580A8000069
:1006E000600000000000000000000000000000E0CA
:1006F0000000000000000000000000000001E00019
:1007000000000000000000000000000001F00000F8
:10071000000000000000000000000003F0000000E6
:100720000000000000000000000007F000000000D2
:1007300000000000000000000007F80000000000BA
:1007400000000000000000000FF800000003C000DF
:100750007E000001E0007F0FF800000003C000FEF3
:10076000000001E000FFEFF800000003C000FE0001
:100770000001E000FFFFF800000003C000F00000EF
:10078000000F007FFE7FC0000003C000F0000000EB
:100790000F003FFE7FF83FF1FBCFFCFEF3BC3DEFC7
:1007A000E01FFE7FFF7FFBFFDFFEFEFFBC3DEFE0B3
:1007B0001FC6FFFF7FFBFFDFFEFEFFBC3DEFE00F2C
:1007C000E3C7FE787BC3DE1EF0FFBC3DEF0007FFF2
:1007D00087FC787BC3DE1EF0F83C3DEF0001FFFF95
:1007E000F0007BC3C01EF0F03C3DEF0001F37FE062
:1007F0003FFBC3CFFEF0F03C3DEF0003E33F807FC3
:10080000FBC3DFFEF0F03C3DEF0007E73C00787BE8
:10081000C3DE1EF0F03C3DEF0007FFBE00787BC357
:10082000DE1EF0F03C3DEF0007FFFE00787BC3DEEC
:100830001EF0F03C3DEF000FFFFE007FFBFFDFFEF0
:10084000F0F03FFDEFE00FFFFF007FFBFFDFFEF06A
:10085000F03FFDEFE00FF9FF003E79F9CF9EF0F099
:100860001F3DE7E01FF1FF00000000000000000056
:100870000000001F80FF007FFFFFFFFFFFFFFFFF63
:10088000FFE01C007F007FFFFFFFFEB46D888D1826
:10089000E000001F007FFFFFFFFE95AD7DB577E014
:1008A00000000F007FFFFFFFFEA5AD9D8D19E0004A
:1008B0000006007FFFFFFFFEB5ADEDB57EE0000056
:1008C0000000000180000000000000000000038024
:1008D00000000000000000000007C0000000000051
:1008E0000000000007C00000000000000000000F32
:1008F000C00000000000000000001FE00000000039
:1009000000000000001FE0000000000000000000E8
:100910003FE00000000000000000003FF000000089
:100920000000000000007FF0000000000000001F39
:10093000F87FF0000000000000003FFE7FF00000A4
:1009400000000000003FFF7FF000000000000000FA
:100950001FFFFBE0000000000000000FFFF9FFC0D8
:100960000000000000000FFFF9FFF8000000000089
:100970000007FFF1FFFF00000000000003FC73FF11
:10098000FF80000000000001FE3FFFFF800000002C
:10099000000000FF1E0FFF000000000000007FFEAF
:1009A0001FFC000000000000003FFFFFF8000000F7
:1009B000000000000FDFFFE0000000000000001F4B
:1009C00019FFC0000000000000003F3CFF000000D5
:1009D00000000000007E7CF8000000000000000025
:1009E0007FFE7C0000000000000000FFFFFC000014
:1009F000000000000000FFFFFE00000000000000FB
:100A000000FFFFFE0000000000000001FFEFFE00FD
:100A100000000000000001FFCFFE00000000000009
:100A20000003FF07FE0000000000000003FC07FEBB
:100A30000000000000000003F003FE0000000000C2
:100A40000000018000FE0000000000000000000027
:100A50007E000000000000000000003E00000000DA
:100A60000000000000000C000000000000078000F3
:100A7000FC000003C0000000078001FC000003C070
:100A8000000000078001FC000003C0000000078098
:100A900001E00000001E000000078001E0000000EF
:100AA0001E007FE3F79FF9FDE7787BDFC0FFF7FFCC
:100AB000BFFDFDFF787BDFC0FFF7FFBFFDFDFF78C7
:100AC0007BDFC0F0F787BC3DE1FF787BDE00F0F70D
:100AD00087BC3DE1F0787BDE0000F787803DE1E0F8
:100AE000787BDE007FF7879FFDE1E0787BDE00FF0B
:100AF000F787BFFDE1E0787BDE00F0F787BC3DE1E2
:100B0000E0787BDE00F0F787BC3DE1E0787BDE003B
:100B1000F0F787BC3DE1E0787BDE00FFF7FFBFFD2B
:100B2000E1E07FFBDFC0FFF7FFBFFDE1E07FFBDF20
:100B3000C07CF3F39F3DE1E03E7BCFC000000000AE
:100B400000000000000000FFFFFFFFFFFFFFFFFFAE
:100B5000FFC0FFFFFFFFFD68DB111A31C0FFFFFF81
:100B6000FFFD2B5AFB6AEFC0FFFFFFFFFD4B5B3B16
:100B70001A33C0FFFFFFFFFD6B5BDB6AFDC0220085
:100B8000FF2100002100240027002A002D00300052
:100B9000330001010000040107010A0100002200E6
:100BA000250028002B002E00310034000201000037
:100BB000050108010B010000200023002600290088
:100BC0002C002F0032000001000003010601090182
:100BD00005050505070508080808020202020A0AB9
:100BE00008080404040401010101010101010303D7
:100BF000030303030303040707070C0C0C0C0C0C82
:100C00000C0C0202020206060606060606060B0B7E
:100C10000B0B0B0B0B0B01021020200808102040BF
:100C200010204080020102010804020101020408B0
:100C3000102040808040201008040201800402013E
:100C40008040201008040201080402010102040887
:100C500010204080010204081020408000000A0B90
:100C600002090C0D0E08070304010000000000003B
:100C70000000000000000000000000000000000074
:100C80000000000000000000121110000000000031
:100C90000000000000000000000000000000000054
:100CA00000005218661E11241FBECFEFD1E2DEBF36
:100CB000CDBF00E00CBF12E0A0E0B2E0E4ECFFE347
:100CC00000E00BBF02C007900D92A039B107D9F721
:100CD00024E0A0E9B2E001C01D92A93CB207E1F70F
:100CE00016E0C2E5D6E000E006C021970109802F9A
:100CF000FE010E94971EC135D10780E00807A9F7C1
:100D00000E9481190C94D01F0C940000089581500A
:100D1000823108F05AC0E82FF0E08827ED56F94FED
:100D20008F4F0C94971EB306B706A506AB06AF0609
:100D3000E506BA06C006C406CA06CE06D206D8061E
:100D4000DC06E506E006E606EA06809180008F777D
:100D5000809380000895809180008F7DF9CF8091ED
:100D60008000877FF5CF84B58F7784BD089584B5E3
:100D70008F7DFBCF8091B0008F778093B000089576
:100D80008091B0008F7DF9CF809190008F77809314
:100D900090000895809190008F7DF9CF8091900010
:100DA000877FF5CF8091A0008F778093A000089572
:100DB0008091A0008F7DF9CF8091A000877FF5CF33
:100DC000809120018F7780932001089580912001E8
:100DD0008F7DF9CF80912001877FF5CFCF93DF936F
:100DE000282F30E0F901E45AF34F8491F901EA5ECB
:100DF000F34FD491F901E053F44FC491CC23A1F007
:100E000081110E948706EC2FF0E0EE0FFF1FEA54DD
:100E1000F44FA591B491EC91ED2381E090E009F4B9
:100E200080E0DF91CF91089580E090E0FACF1F93AA
:100E3000CF93DF93282F30E0F901E45AF34F8491E8
:100E4000F901EA5EF34FD491F901E053F44FC491F4
:100E5000CC23A9F0162F81110E948706EC2FF0E019
:100E6000EE0FFF1FE456F44FA591B4918FB7F8949D
:100E7000EC91111108C0D095DE23DC938FBFDF9178
:100E8000CF911F910895DE2BF8CFCF93DF9390E0A1
:100E9000FC01EA5EF34F24918053944FFC0184914E
:100EA0008823D1F090E0880F991FFC01EE57F44F92
:100EB000A591B491FC01E456F44FC591D4916230F0
:100EC00071F49FB7F8943C91822F809583238C9383
:100ED000E8812E2B28839FBFDF91CF9108958FB794
:100EE000F894EC912E2B2C938FBFF6CF3FB7F8944C
:100EF0008091500390915103A0915203B0915303FC
:100F000026B5A89B05C02F3F19F00196A11DB11D64
:100F10003FBFBA2FA92F982F8827BC01CD01620FA0
:100F2000711D811D911D42E0660F771F881F991F5B
:100F30004A95D1F708958F929F92AF92BF92CF9228
:100F4000DF92EF92FF924B015C010E9476076B01EA
:100F50007C010E9476076C197D098E099F09683E05
:100F6000734081059105A8F321E0821A9108A10838
:100F7000B10888EEC80E83E0D81EE11CF11C811474
:100F80009104A104B10429F7FF90EF90DF90CF9076
:100F9000BF90AF909F908F90089580919002909114
:100FA000910201969093910280939002089580910E
:100FB00092029091930201969093930280939202F1
:100FC0000895089508950895AF92BF92CF92DF9249
:100FD000EF92FF920F931F93CF93DF936C017B01EE
:100FE0008B01040F151FEB015E01AE18BF08C0177F
:100FF000D10759F06991D601ED91FC910190F081F2
:10100000E02DC6011995892B79F7C501DF91CF91A4
:101010001F910F91FF90EF90DF90CF90BF90AF9016
:101020000895FC01538D448D252F30E0842F90E0EE
:10103000821B930B541710F0CF96089501970895D3
:10104000FC01918D828D981761F0A28DAE0FBF2F9C
:10105000B11D5D968C91928D9F5F9F73928F90E0F2
:1010600008958FEF9FEF0895FC01918D828D981761
:1010700031F0828DE80FF11D858D90E008958FEF9E
:101080009FEF0895FC01918D228D892F90E0805C67
:101090009F4F821B91098F739927089588E593E0EC
:1010A0000E94420821E0892B09F420E0822F089554
:1010B000FC01A48DA80FB92FB11DA35ABF4F2C91CD
:1010C000848D90E001968F739927848FA689B789C4
:1010D0002C93A089B1898C91837080648C93938DBB
:1010E000848D981306C00288F389E02D80818F7D5E
:1010F00080830895EF92FF920F931F93CF93DF9316
:10110000EC0181E0888F9B8D8C8D98131AC0E88943
:10111000F989808185FF15C09FB7F894EE89FF8912
:101120006083E889F98980818370806480839FBFB0
:1011300081E090E0DF91CF911F910F91FF90EF90B0
:101140000895F62E0B8D10E00F5F1F4F0F731127C0
:10115000E02E8C8D8E110CC00FB607FCFACFE889FB
:10116000F989808185FFF5CFCE010E945808F1CF23
:10117000EB8DEC0FFD2FF11DE35AFF4FF0829FB76F
:10118000F8940B8FEA89FB8980818062CFCFCF935F
:10119000DF93EC01888D8823B9F0AA89BB89E8899F
:1011A000F9898C9185FD03C0808186FD0DC00FB645
:1011B00007FCF7CF8C9185FFF2CF808185FFEDCFC3
:1011C000CE010E945808E9CFDF91CF91089580E0C9
:1011D00090E0892B29F00E944E0881110E940000A6
:1011E00080E090E0892B49F080E090E0892B29F0A5
:1011F0000E94000081110E94000080E090E0892B95
:1012000049F080E090E0892B29F00E9400008111D4
:101210000E94000080E090E0892B49F080E090E09F
:10122000892B29F00E94000081110C940000089580
:10123000EF92FF920F931F93CF93DF93EC01EC801B
:10124000FD806E157F050CF070C057FF04C0240FA1
:10125000351F50E040E08E819F81FA01E20FF31FBD
:101260008E179F071CF49C01241B350B12161306C6
:101270000CF05BC0922F842F8695869586958E9D67
:10128000D0018F9DB00D11246A0F7B1FAF8DB8A1C7
:10129000A60FB71F477049F188E0841B482F682FBD
:1012A00070E0FB01EC53F94FE491281708F063C09C
:1012B000621B71092FEF30E002C0359527956A95C2
:1012C000E2F7E2230130110539F0B0F102301105E7
:1012D00061F58C91E82702C08C91E82BEC93941770
:1012E00020F12C813D81A20FB31FE92FE41BE830D0
:1012F00078F00230110521F58E2F9C9190959C93EA
:101300002C813D81A20FB31F88508830B0F7E77061
:10131000EE2359F0F0E0E454F94FE4910130110567
:10132000F9F010F10230110519F1DF91CF911F9101
:101330000F91FF90EF900895E0958C91E823CECF28
:1013400081E00115110509F480E081959E2F8C93B1
:101350002C813D81A20FB31F98509830C0F7D7CF92
:101360008C91E82BEC93E1CFE0958C91E823FACFB8
:101370008C91E827F7CF0130110509F4ADCFE0F2E9
:101380000230110509F4A5CFAE0DBF1DAECF0F93EE
:101390001F93CF93DF9377FF04C0260F371F70E0B2
:1013A00060E0DC011496CD91DC91FB01E20FF31FAC
:1013B000CE17DF071CF49E01261B370B12161306EF
:1013C0004CF5FA0157FD3796A3E0F595E795AA95F8
:1013D000E1F7EC9FD001ED9FB00DFC9FB00D112403
:1013E0006A0F7B1FDC015F96ED91FC91E60FF71F02
:1013F0004770552781E090E001C0880F4A95EAF7D1
:10140000482F0130110559F0A8F02E0F3F1F023070
:101410001105E1F0DF91CF911F910F9108952E0FEB
:101420003F1FE217F307B1F38191DF011197842B7E
:101430008C93F7CF80952E0F3F1FE217F30751F3E0
:101440009191DF01119798239C93F7CFE217F3074F
:1014500009F38191DF01119784278C93F7CF0F93C4
:101460001F93FA01DC0156964C9156974230E9F0F1
:101470004330A1F1413061F514964D915C91DA0150
:10148000AE1BBF0BFD01E21BF30B77FD0BC0DC01B4
:1014900016964D915C916417750724F4AB01BF015A
:1014A0000E94C7091F910F91089514964D915C9168
:1014B000DA01A61BB70BBD0161507109DC0116965C
:1014C0004D915C91DA01AE1BBF0BFD01E21BF30BEA
:1014D00077FDE8CFAF010E941809E4CF16964D9131
:1014E0005C91DA01A61BB70BBD0161507109CDCF2C
:1014F0000F931F93FA01DC0156964C915697423098
:10150000A9F0433091F1413019F514964D915C9159
:10151000DA01AE1BBF0BFD013197F7FD04C0AB0133
:10152000BF010E9418091F910F91089514964D91C3
:101530005C91DA01A61BB70BBD01DC0116964D913B
:101540005C91DA01AE1BBF0BFD013197621B730B7F
:10155000F7FDE9CFDC0116964D915C91E417F50794
:1015600014F7AF010E94C709DECF16964D915C912A
:10157000DA01A61BB70BBD01621B730BCECFFC01BA
:1015800077FD64C080859185681779070CF05EC08F
:1015900057FD5CC082859385481759070CF056C0EB
:1015A00086898230B1F0833029F1813041F4848121
:1015B0009581841B950BAB01BC01615071092130F1
:1015C000310509F108F443C02230310509F463C044
:1015D000089584819581DC01A61BB70BBD01615084
:1015E000710986819781DC01A41BB50BAD014150C7
:1015F0005109E5CF86819781861B970BBA01AC0113
:1016000041505109DCCFCA0157FD0796A3E09595DB
:101610008795AA95E1F7A481B5818A9F90018B9F58
:10162000300D9A9F300D1124620F731F078CF0A1AB
:10163000E02DE60FF71F4770552721E030E001C08D
:10164000220F4A95EAF78081822B80830895CA0190
:1016500057FD079633E0959587953A95E1F7A48174
:10166000B5818A9F90018B9F300D9A9F300D112478
:10167000620F731F078CF0A1E02DE60FF71F477074
:10168000552781E090E001C0880F4A95EAF78095E0
:1016900090818923DACFCA0157FD079623E09595FB
:1016A00087952A95E1F7A481B5818A9F90018B9F48
:1016B000300D9A9F300D1124620F731F078CF0A11B
:1016C000E02DE60FF71F4770552721E030E001C0FD
:1016D000220F4A95EAF780818227B7CF08958EBD01
:1016E00000000DB407FEFDCF8EB508958CBD9DBDE5
:1016F00008950895FC016370668B8481958126812D
:101700003781613039F0633029F0918780873387E2
:1017100022870895318720879387828708952F92A3
:101720003F924F925F926F927F928F929F92AF9271
:10173000BF92CF92DF92EF92FF920F931F93CF93BE
:10174000DF93CDB7DEB76A970FB6F894DEBF0FBE52
:10175000CDBF9A8F898F7A8369834A01D22E1887E9
:101760000F833701BC2CDC0159962D913C915A977F
:101770002115310509F015C118968D919C91199785
:10178000681779070CF0D7C11A968D919C9148176C
:1017900059070CF0D0C14C2C512CB6E0CB9E600DFB
:1017A000711D11247C876B87161617060CF0C3C1B8
:1017B000EA2DF0E0FA87E98793E0EE0FFF1F9A9594
:1017C000E1F7F88BEF87CF01840F951F18161906E4
:1017D0000CF0B1C1A98DBA8D58968C91811104C0BD
:1017E000BFEABD1508F4D394A98DBA8DED91FC9193
:1017F00011970284F385E02DCD011995B5E0DB9EAC
:10180000C0011124E981FA81FC83EB83312C212C66
:101810009C0124543E4F388F2F8B4A2D50E05E8B15
:101820004D8BEF89F88DE20DF31D44919E828D82E0
:10183000D12CC12C69817A81620D731D7A8B698BE1
:10184000842F90E09C8B8B8BE98DFA8DA081B181E8
:1018500040FF82C0F1E0BF126FC0AF126DC01C9696
:10186000ED91FC912F813885A4014C0D5D1D698996
:101870007A89898D9A8D1995EB89FC89F595E7957B
:101880004E2F5FEFC51AD50A6D817E818D899E89A5
:10189000680F791F7E836D8398E0C916D10481F6A5
:1018A000AFEF2A1A3A0AEB81FC81E40DF51DFC83A7
:1018B000EB83F5E02F16310409F0B3CF2F81388583
:1018C00026153705B9F0A98DBA8DED91FC91B1E0DF
:1018D000BB1257C0AB1255C069817A816B5F7F4FD5
:1018E0000088F189E02D830128E030E0A401898D92
:1018F0009A8D1995A98DBA8DED91FC911197068855
:10190000F789E02DCD016A960FB6F894DEBF0FBEC1
:10191000CDBFDF91CF911F910F91FF90EF90DF909E
:10192000CF90BF90AF909F908F907F906F905F907F
:101930004F903F902F9019941E96ED91FC91EF805F
:10194000F88409851A8592014D815E816B817C81C5
:10195000898D9A8D199590CF2F8138852615370559
:1019600009F48ACF31E0B31207C0A31205C01C9658
:10197000ED91FC91930178CF1E96ED91FC9173014E
:10198000E0CF6B857C85641975090684F785E02DA9
:1019900073010F8518899201A401898D9A8D19957B
:1019A000A9CFF90134969491329745915491D91A5F
:1019B000B7E0DB9E400D511D1124F90125913491B2
:1019C0003C8B2B8BFA0125903490FA01329674905F
:1019D00031963491398B329664903196449041E03F
:1019E0004C1518F04A1508F07FC0662D062C000C27
:1019F000770B7C836B83842D042C000C990B9E83C6
:101A00008D83A98DBA8DED91FC9111970284F38598
:101A1000E02DCD011995512CD12CC12CEA2DF0E0EF
:101A2000FA87E9872B2D30E03C872B87A401440DF2
:101A3000511D47FC5A95588F4F8B69817A81660DED
:101A4000711D67FC7A957E876D877989C71608F0C6
:101A500051CF2C2D30E04D815E81420F531FA9855F
:101A6000BA854A9FC0014B9F900D5A9F900D11243B
:101A7000FC01E80DF91DF88BEF87852D612C4F894E
:101A8000588D420F531F5E8B4D8B671408F050C06A
:101A900044244394480E877041F4C1010196EB89B8
:101AA000FC89E20DF31DD4901C01D7FE19C0A98D4D
:101AB000BA8DED91FC91662D70E0B1E0BB1219C0BA
:101AC000AB1217C02D853E85620F731F0484F58508
:101AD000E02D2F8138854D895E89898D9A8D1995E4
:101AE000DD0C6394842DD1CF1E821D821C821B824B
:101AF00088CF4B815C81640F751FAB85BC856A9F65
:101B0000C0016B9F900D7A9F900D112469817A819D
:101B1000680F791F0684F785E02DEF80F88409852A
:101B20001A859D014F855889898D9A8D1995D8CF31
:101B3000570CC3948ACF6A960FB6F894DEBF0FBED7
:101B4000CDBFDF91CF911F910F91FF90EF90DF906C
:101B5000CF90BF90AF909F908F907F906F905F904D
:101B60004F903F902F9008958F929F92AF92CF9277
:101B7000EF92FF920F931F93CF93DF93EC01262FE9
:101B8000898D9A8D009709F051C06A30D1F41D8675
:101B90001C868D8948E0849F900111248E859F8545
:101BA000820F931F9F878E8781E090E0DF91CF9116
:101BB0001F910F91FF90EF90CF90AF909F908F90DB
:101BC00008956D3089F3CC88AD888F898823C1F062
:101BD0008C859D8536E0C39E800D911D112448851E
:101BE00059854817590764F44E855F851D861C8604
:101BF00038E0A39EC0011124840F951F9F878E8714
:101C0000EA88FB88088919894E855F856C857D8502
:101C1000CE010E948F0B2C898C859D8546E0249FE8
:101C2000800D911D11249D878C87BECF6A3069F489
:101C30001D861C86FC013896E4912D898E859F8532
:101C4000E29F800D911D1124ADCF6D3009F4ACCF12
:101C5000FC0134963491631708F4A6CF3296E491D0
:101C6000E61708F4A1CFFC01329685909490462F98
:101C7000431B342F47E0349F800C911C1124F40146
:101C8000329634913196E4913323A9F1EE2399F100
:101C9000CC88F4013596E491AD884F89442301F155
:101CA0000E2E000CFF0BE30FF11DCE9EA001CF9E68
:101CB000500D11246C857D85460F571F68857985E9
:101CC000641775076CF44E855F851D861C86FC01C4
:101CD0003896E491AE9E400D511D11245F874E87CA
:101CE000EA88FB88088919894E855F856C857D8522
:101CF000CE010E948F0BF4013496E4912C898C85DF
:101D00009D85E29F800D911D11248DCF6F927F9252
:101D10008F929F92AF92BF92CF92DF92EF92FF92FB
:101D20000F931F93CF93DF93EC016B015A0139019D
:101D30004801E881F9810284F385E02D1995E88155
:101D4000F9810288F389E02D87019301A501B6018D
:101D5000CE011995A501480D591D41505109E88141
:101D6000F9810288F389E02D9301B601CE0119951E
:101D7000E881F9810088F189E02D9401A501B6017F
:101D8000CE011995C60CD71CB60161507109E881C6
:101D9000F9810088F189E02D9401A501CE01199502
:101DA000E881F9810688F789E02DCE01DF91CF9196
:101DB0001F910F91FF90EF90DF90CF90BF90AF9069
:101DC0009F908F907F906F9019946F927F928F92D7
:101DD0009F92AF92BF92CF92DF92EF92FF920F93BA
:101DE0001F93CF93DF935C01EB016A014901380136
:101DF0008701DC01ED91FC916217730719F56416F8
:101E000075062CF0962D872D3A01C92ED82E9601F5
:101E1000261937092F5F3F4F048CF58DE02DA30164
:101E2000BE01C5011995DF91CF911F910F91FF90D0
:101E3000EF90DF90CF90BF90AF909F908F907F906A
:101E40006F9008954615570591F42617370724F02B
:101E5000892D4B01C22FD82F9E01281939092F5FD8
:101E60003F4F068CF78DE02DA601B401DACF028436
:101E7000F385E02D1995D501ED91FC910488F58944
:101E8000E02D83019401A601BE01C5011995D5017C
:101E9000ED91FC910688F789E02DC501DF91CF9186
:101EA0001F910F91FF90EF90DF90CF90BF90AF9078
:101EB0009F908F907F906F901994EF92FF920F9365
:101EC0001F93DC011A960D911C911B9718962D916A
:101ED0003C911997ED91FC9100A0F1A1E02D7B01BF
:101EE00050E040E070E060E019951F910F91FF9085
:101EF000EF9008954F925F926F927F928F929F9290
:101F0000AF92BF92CF92DF92EF92FF920F931F9307
:101F1000CF93DF936C012B015A0139014801DC0199
:101F2000ED91FC910284F385E02D1995E201640C9A
:101F3000751CD601ED91FC91C615D7055CF400889F
:101F4000F189E02D87019401A501BE01C601199513
:101F50002196EFCF0688F789E02DC601DF91CF915A
:101F60001F910F91FF90EF90DF90CF90BF90AF90B7
:101F70009F908F907F906F905F904F9019948F9269
:101F80009F92AF92BF92CF92DF92EF92FF920F9308
:101F90001F93CF93DF93EC015B014A016901E88154
:101FA000F9810284F385E02D199595012C0D3D1DD5
:101FB00021503109E881F9810488F589E02D780103
:101FC0008401A401B501CE011995E881F981068843
:101FD000F789E02DCE01DF91CF911F910F91FF90F6
:101FE000EF90DF90CF90BF90AF909F908F9019941B
:101FF0008F929F92AF92BF92CF92DF92EF92FF9219
:102000000F931F93CF93DF93EC015B014A016901AA
:102010007801E881F9810284F385E02D1995C80CD7
:10202000D91C860101501109E881F9810488F589DC
:10203000E02D9501A401B501CE011995E881F98142
:102040000688F789E02DCE01DF91CF911F910F9186
:10205000FF90EF90DF90CF90BF90AF909F908F90C8
:102060001994EF92FF920F931F93DC01ED91FC9175
:1020700000A0F1A1E02D19951F910F91FF90EF9015
:1020800008950F931F93DC01ED91FC91068CF78D61
:10209000E02D19951F910F9108950F931F93DC0167
:1020A000ED91FC91048CF58DE02D19951F910F9108
:1020B0000895DC01ED91FC910084F185E02D1994E7
:1020C0003F924F925F926F927F928F929F92AF92C8
:1020D000BF92CF92DF92EF92FF920F931F93CF9315
:1020E000DF935C017B014A016901390187E0680ED9
:1020F000711C93E0759467949A95E1F72B01400E5B
:10210000511E10E000E0312CD0E0C0E0CE0187701D
:102110009927330C892B59F4FE0183E0F595E79557
:102120008A95E1F7E00FF11FE80DF91D349037FEB5
:102130000AC021E030E0A701B5016C0F7D1F85E8E2
:1021400094E00E9459102196CC16DD06F9F68FEF27
:10215000E81AF80A060D171DE414F504A9F6DF9134
:10216000CF911F910F91FF90EF90DF90CF90BF9094
:10217000AF909F908F907F906F905F904F903F9027
:1021800008952F923F924F925F926F927F928F921B
:102190009F92AF92BF92CF92DF92EF92FF920F93F6
:1021A0001F93CF93DF9300D000D0CDB7DEB73C01B3
:1021B0006A013E832D83FC82EB825801A41AB50A82
:1021C000B7FE03C0B194A194B1088D809E80861A99
:1021D000970A97FE03C09194819491088A149B04F6
:1021E0005CF0902F812F0D811E819D838E839C2D0D
:1021F0008D2D6B01692F782F0C151D055CF09D81CD
:102200008E817E836D83692F782F902F812F860199
:10221000C92ED82E1601201A310A2B012D813E819C
:10222000421A530A57FE03C0519441945108710158
:1022300037FE03C03FEFE31AF30AF594E7948D816C
:102240009E81861797075CF5A1E0B0E0BA83A98369
:10225000C016D1064CF1D301ED91FC910484F585B3
:10226000E02D2B813C81A8016D817E818A149B0425
:102270001CF04D815E81B801C3011995E418F50881
:10228000F7FE0AC02D813E8189819A81280F391F6E
:102290003E832D83E20CF31C0F5F1F4FD9CF2FEF2E
:1022A0003FEF3A832983D4CF26960FB6F894DEBF4A
:1022B0000FBECDBFDF91CF911F910F91FF90EF9097
:1022C000DF90CF90BF90AF909F908F907F906F9056
:1022D0005F904F903F902F90089508952091FA02BB
:1022E000260F3327331F21323105ECF420911E03D2
:1022F000FC0190E080E0243069F082E00895A09134
:10230000FA022191AC0146525D4FA40FB52FB11DC9
:102310002C930196861798F38091FA02680F6093C8
:10232000FA0280E0089581E0089510921E0381E092
:102330008093200310921F0361E084E10E9417073D
:1023400061E085E10E941707E9EBF0E080818E7F74
:10235000808380818D7F808388E48093B80085E4CA
:102360008093BC000895CF93DF9391E09093D902BE
:102370008823B9F0C091B800D091BA008091BC0018
:102380008A7B8093BC0060E084E10E94170760E0D4
:1023900085E10E9417070E949511D093BA00C0935F
:1023A000B800DF91CF910895E0914A0380914903ED
:1023B000E81730F4F0E0EC54FD4F808190E0089590
:1023C0008FEF9FEF089590914A03809149032FEF7B
:1023D0003FEF981748F4E92FF0E0EC54FD4F2081CF
:1023E00030E09F5F90934A03C901089580914903AB
:1023F00090914A03891B990B0895CF92DF92EF9237
:10240000FF920F931F93CF93DF937C01CB018A013F
:1024100020915703222389F0EB016B01C40ED51ED6
:10242000CC15DD0569F06991D701ED91FC91019022
:10243000F081E02DC7011995F3CF642F0E946E1132
:10244000C801DF91CF911F910F91FF90EF90DF9026
:10245000CF900895CF93DF931F92CDB7DEB76983F6
:10246000209157032223F9F020915403203258F091
:1024700021E030E0FC013383228390E080E00F9084
:10248000DF91CF91089580915503E82FF0E0EC564D
:10249000FD4F998190838F5F809355038093540300
:1024A00081E090E0ECCF61E0CE0101960E946E11D8
:1024B000F7CFCF92DF92EF92FF920F931F93CF93BC
:1024C000DF93D091540381E0D13208F09CC0C091D9
:1024D00056030E9476076B017C0180911E038111D7
:1024E0006CC082E080931E0381E0809320038FEF15
:1024F00080931D0310924203D0934103A4E9B2E0FC
:10250000E1E2F3E080E0D8138DC0109243038091A4
:102510004303CC0FC82BC093430380911F0381302A
:1025200009F084C010921F030E9476076B017C01A2
:10253000809143038093BB008091D5029091D60295
:10254000A091D702B091D802892B8A2B8B2BA1F0B6
:102550000E9476070091D5021091D6022091D702F1
:102560003091D8026C197D098E099F09061717074B
:102570002807390708F442C08091BC0083FDD8CFFA
:1025800085EC8093BC000E9476076B017C018091F2
:102590001E03823009F44CC080911D038F3F09F463
:1025A00069C080911D03803209F466C080911D03CB
:1025B000803309F463C084E026C08091D5029091F5
:1025C000D602A091D702B091D802892B8A2B8B2BEF
:1025D00009F483CF0E9476070091D5021091D602AC
:1025E0002091D7023091D8026C197D098E099F097C
:1025F000061717072807390708F06FCF8091D40214
:102600000E94B31185E0109255031092540310926A
:102610005703DF91CF911F910F91FF90EF90DF90C3
:10262000CF9008959D9191938F5F6DCF85EEA9CF47
:102630008091D5029091D602A091D702B091D80294
:10264000892B8A2B8B2B09F4A2CF0E94760700914D
:10265000D5021091D6022091D7023091D8026C1980
:102660007D098E099F09061717072807390708F003
:102670008ECFC4CF80E0C7CF82E0C5CF83E0C3CF89
:10268000EF92FF920F931F93CF93DF937C01C62F9E
:102690008091A2049091A304009709F459C020915D
:1026A000A60431E03093570320935603109255034C
:1026B00010925403DC01ED91FC910190F081E02D2A
:1026C00060E019958701EE24E394F12CD1E0C1502C
:1026D0008091A2049091A304CF3F91F1B0E2EB1658
:1026E000F104D8F00E9459128091A2049091A304A1
:1026F0002091A604D09357032093560310925503BC
:1027000010925403DC01ED91FC910190F081E02DD9
:1027100060E01995EE24E394F12C8091A20490914D
:10272000A304F8016491DC01ED91FC910190F0812A
:10273000E02D1995BFEFEB1AFB0A0F5F1F4FC7CFB4
:10274000DF91CF911F910F91FF90EF900C94591250
:10275000E091B204F091B30490818091B804809527
:10276000892380838701C15008F438C0F80184911F
:102770002091A0043091A104232B29F00E946F0B1B
:102780000F5F1F4FF0CF28E030E040E8E091AE044B
:10279000F091AF049091B604582F5423D9F0508192
:1027A000952B9083E091B004F091B1049081509109
:1027B000B704952B9083E091B004F091B10450815F
:1027C0009091B704909595239083469521503109B7
:1027D000E9F6D6CF508190959523E3CFDF91CF9145
:1027E0001F910F91FF90EF9008951F93CF93DF9368
:1027F000EC018D8D9E8D009721F1162F29A131E0DE
:1028000030935703209356031092550310925403AC
:10281000DC01ED91FC910190F081E02D60E01995D3
:102820008D8D9E8DDC01ED91FC910190F081E02D6C
:10283000612F19958D8D9E8DDF91CF911F910C94F5
:102840005912ADA5BEA59C918BA9809589238C9327
:102850008B8D9C8D892B31F0862FDF91CF911F912D
:102860000C946F0B28E030E080E8A9A5BAA599A9DF
:10287000462F4823C1F04C91942B9C93ABA5BCA54B
:102880009C914AA9942B9C93ABA5BCA54C919AA969
:10289000909594239C9386952150310931F7DF91CF
:1028A000CF911F9108954C9190959423E6CF1F935B
:1028B000CF93DF93EC01162F8D8D9E8D892BB1F177
:1028C0002DA93EA94FA958AD60E074E284EF90E0D5
:1028D0000E94751E205131094109510956954795AD
:1028E000379527952093B80066EA111167EACE0163
:1028F0000E94F5138D8D9E8D892B41F129AD3AAD46
:102900004BAD5CAD60E074E284EF90E00E94751E18
:102910002051310941095109569547953795279519
:102920002093B800DF91CF911F9108958B8D9C8DDE
:10293000892B21F08EAD9FAD0E94760BEFA5F8A9F3
:1029400090818CA9809589238083CECFEFA5F8A9AB
:1029500080819CA9892B8083E5CF90E080E0089559
:1029600061E0FC0180810C944507CF93DF93FC016B
:1029700001900020E9F73197AF01481B590BBC01CA
:1029800088E593E00E94E407EC0142E050E066E64F
:1029900072E088E593E00E94E4078C0F9D1FDF91B1
:1029A000CF91089520918B0430918C04C901079632
:1029B00097FD079623E0959587952A95E1F7209155
:1029C000890430918A04829FA001839F500D929FB9
:1029D000500D112470E060E08091A4049091A50452
:1029E0000C94C91F0E94C41F85ED8093BC00809188
:1029F000D5029091D602A091D702B091D802079645
:102A0000A11DB11D23E0B695A795979587952A95A9
:102A1000D1F72091BC0024FD03C010921E0308953D
:102A20004091D5025091D6026091D7027091D802A0
:102A3000452B462B472B69F30097A105B10541F0C3
:102A40002AE22A95F1F700C00197A109B109E1CF67
:102A50008091D4020C94B3111F920F920FB60F9273
:102A600011242F933F938F939F93AF93BF938091A4
:102A70004C0390914D03A0914E03B0914F033091C0
:102A80004B0323E0230F2D3758F50196A11DB11DEF
:102A900020934B0380934C0390934D03A0934E03DC
:102AA000B0934F038091500390915103A091520332
:102AB000B09153030196A11DB11D809350039093D3
:102AC0005103A0935203B0935303BF91AF919F91D1
:102AD0008F913F912F910F900FBE0F901F901895DF
:102AE00026E8230F0296A11DB11DD2CF1F920F928F
:102AF0000FB60F9211240BB60F922F933F934F9363
:102B00005F936F937F938F939F93AF93BF93EF9355
:102B1000FF93E0910E02F0910F021995FF91EF9152
:102B2000BF91AF919F918F917F916F915F914F91E5
:102B30003F912F910F900BBE0F900FBE0F901F90E3
:102B400018951F920F920FB60F9211240BB60F9289
:102B50002F933F934F935F936F937F938F939F93A5
:102B6000AF93BF93EF93FF93E0910C02F0910D02AE
:102B70001995FF91EF91BF91AF919F918F917F91A7
:102B80006F915F914F913F912F910F900BBE0F90DE
:102B90000FBE0F901F9018951F920F920FB60F92B5
:102BA00011240BB60F922F933F934F935F936F9324
:102BB0007F938F939F93AF93BF93EF93FF93E09196
:102BC0000202F09103021995FF91EF91BF91AF912D
:102BD0009F918F917F916F915F914F913F912F9135
:102BE0000F900BBE0F900FBE0F901F9018951F9265
:102BF0000F920FB60F9211240BB60F922F933F93A3
:102C00004F935F936F937F938F939F93AF93BF93F4
:102C1000EF93FF93E0910002F09101021995FF916B
:102C2000EF91BF91AF919F918F917F916F915F9144
:102C30004F913F912F910F900BBE0F900FBE0F90B1
:102C40001F9018951F920F920FB60F9211240BB67A
:102C50000F922F933F934F935F936F937F938F9335
:102C60009F93AF93BF93EF93FF93E0910A02F0918C
:102C70000B021995FF91EF91BF91AF919F918F91A9
:102C80007F916F915F914F913F912F910F900BBE6C
:102C90000F900FBE0F901F9018951F920F920FB6B6
:102CA0000F9211240BB60F922F933F934F935F9384
:102CB0006F937F938F939F93AF93BF93EF93FF9304
:102CC000E0910802F09109021995FF91EF91BF91EF
:102CD000AF919F918F917F916F915F914F913F91B4
:102CE0002F910F900BBE0F900FBE0F901F90189555
:102CF0001F920F920FB60F9211240BB60F922F93C3
:102D00003F934F935F936F937F938F939F93AF9373
:102D1000BF93EF93FF93E0910602F091070219959C
:102D2000FF91EF91BF91AF919F918F917F916F91A3
:102D30005F914F913F912F910F900BBE0F900FBE5F
:102D40000F901F9018951F920F920FB60F9211249B
:102D50000BB60F922F933F934F935F936F937F9395
:102D60008F939F93AF93BF93EF93FF93E0910402F0
:102D7000F09105021995FF91EF91BF91AF919F914D
:102D80008F917F916F915F914F913F912F910F9014
:102D90000BBE0F900FBE0F901F9018951F920F92B1
:102DA0000FB60F9211240BB60F922F933F934F93B0
:102DB0005F936F937F938F939F93AF93BF93EF93A3
:102DC000FF9388E593E00E945808FF91EF91BF912F
:102DD000AF919F918F917F916F915F914F913F91B3
:102DE0002F910F900BBE0F900FBE0F901F90189554
:102DF0001F920F920FB60F9211240BB60F922F93C2
:102E00008F939F93EF93FF93E0916803F091690391
:102E10008081E0916E03F0916F0382FD1DC090816F
:102E2000809171038F5F8F7320917203821741F03D
:102E3000E0917103F0E0E85AFC4F958F80937103A5
:102E4000FF91EF919F918F912F910F900BBE0F905B
:102E50000FBE0F901F9018958081F2CF1F920F9296
:102E60000FB60F9211240BB60F922F933F934F93EF
:102E70005F936F937F938F939F93AF93BF93EF93E2
:102E8000FF938091B900887F803609F44DC008F027
:102E900040C0883209F4A9C028F5803109F49DC0EA
:102EA000C8F4882309F4FBC0883009F496C0FF9168
:102EB000EF91BF91AF919F918F917F916F915F91B2
:102EC0004F913F912F910F900BBE0F900FBE0F901F
:102ED0001F901895883109F488C0803241F780939B
:102EE0001D0314C0803409F49DC040F48033B9F34D
:102EF0008833E9F680931D0385ECB0C0803509F472
:102F000085C0883509F496C0883489F60E94F41487
:102F1000CECF883909F48CC038F5883729F050F4C1
:102F2000883611F0803719F683E080931E031092E3
:102F30001C0357C0883809F47BC0803919F08038E9
:102F400009F0B5CF80911C03803208F071C0E09188
:102F50001C0381E08E0F80931C038091BB00F0E086
:102F6000E450FD4F80833DC0803B39F0E0F4803A6F
:102F700009F479C0883A09F09ACF84E080931E035F
:102F80001092FB021092FA02E0914703F09148037D
:102F900019958091FA0281110FC081E08093FA02A5
:102FA0001092DA0209C0803C09F4A6CF883C09F4EB
:102FB000A3CF883B09F07BCFE091FB0281E08E0F2D
:102FC0008093FB02F0E0E652FD4F80818093BB00CE
:102FD0009091FB028091FA0229C080914303809373
:102FE000BB0085EC8093BC0062CF9091420380913E
:102FF0004103981758F5E091420381E08E0F8093CA
:103000004203F0E0EF5DFC4F8081E9CFE0914203A5
:1030100081E08E0F809342038091BB00F0E0EF5D72
:10302000FC4F808390914203809141039817C8F22E
:1030300085E8D8CFE091420381E08E0F8093420370
:103040008091BB00F0E0EF5DFC4F80838091200316
:1030500081115CCF81E080931F0384EA8093BC00E0
:1030600010921E0324CF85EC8093BC0010921E03A7
:1030700080911C03803230F4E0911C03F0E0E450B6
:10308000FD4F108260911C0370E0E0914503F091C8
:1030900046038CEF92E0199510921C0308CF109212
:1030A0001D0334CFE8E5F3E01382128248EE53E0CB
:1030B00060E070E044835583668377838AE192E021
:1030C0009183808385EC90E09587848784EC90E001
:1030D0009787868780EC90E0918B808B81EC90E0E5
:1030E000938B828B82EC90E0958B848B86EC90E0C6
:1030F000978B868B118E128E138E148EA9E7B4E0F7
:1031000013961C921E92129714964D935D936D9395
:103110007C9317978CE292E011969C938E93E5E84E
:10312000F4E01382128220E830E03583248380E2C9
:1031300090E0978386833187208793878287168ADA
:10314000158614861786168681E0858B848B2FEF73
:103150003FEF338B228B318B208B878B108E128E1F
:10316000118E8EE392E091838083148E138EB68F3E
:10317000A58F10A2178E8FEF84A385A386A387A3A4
:1031800080A780E89AE1A6E0B0E085AB96ABA7AB5C
:10319000B0AF80EA96E8A1E0B0E081AF92AFA3AF14
:1031A000B4AF80E586AF17AEEEE6F4E081E380834E
:1031B00084E690E0A0E0B0E081839283A383B483AF
:1031C000158216821782108611861286E3E6F4E0D5
:1031D0002FE22083118212821382148215821682BA
:1031E0001782108611861286E8E5F4E02DE220832E
:1031F000118212821382148215821682178210861F
:1032000011861286EDE4F4E02BE220838183928321
:10321000A383B483158216821782108611861286C4
:10322000E2E4F4E029E22083118212821382148204
:10323000158216821782108611861286E7E3F4E063
:1032400027E2208311821282138214821582168251
:103250001782108611861286ECE2F4E025E22083C4
:1032600081839283A383B48315821682178210868A
:1032700011861286E1E2F4E023E2208311821282B9
:103280001382148215821682178210861186128686
:10329000E6E1F4E021E2208311821282138214829B
:1032A000158216821782108611861286EBE0F4E0F2
:1032B0002FE1208381839283A383B48315821682B6
:1032C0001782108611861286E0E0F4E08DE180839B
:1032D000118212821382148215821682178210863E
:1032E00011861286E5EFF3E08BE180831182128272
:1032F0001382148215821682178210861186128616
:103300000895789484B5826084BD84B5816084BD5D
:1033100085B5826085BD85B5816085BD80916E0073
:10332000816080936E0010928100809181008260A4
:1033300080938100809181008160809381008091E1
:1033400080008160809380008091B10084608093D0
:10335000B1008091B00081608093B00080919100B5
:1033600082608093910080919100816080939100B0
:10337000809190008160809390008091A100826094
:103380008093A1008091A10081608093A100809131
:10339000A00081608093A0008091210182608093D1
:1033A0002101809121018160809321018091200180
:1033B00081608093200180917A00846080937A00FC
:1033C00080917A00826080937A0080917A00816097
:1033D00080937A0080917A00806880937A001092BE
:1033E000C1008091A4049091A504892B11F10E9441
:1033F000D21420918B0430918C0480918904909197
:103400008A04213231050CF0E4C0B901605271091F
:1034100077FF02C06F5F7F4F75956795835791095E
:1034200097FD019600E210E023E730E04EED56E014
:10343000E3C020918B0430918C04C901079697FD5D
:103440000796B3E095958795BA95E1F720918904A1
:1034500030918A04AC01429FC001439F900D529F5E
:10346000900D11240E949F1E9093A5048093A404A4
:10347000892B09F0BCCF0E94D2148091A2049091B4
:10348000A304892B09F4AAC22091BA043091BB0489
:103490004091BC045091BD0460E074E284EF90E080
:1034A0000E94751E205131094109510956954795D1
:1034B000379527952093B80064E08EE79BE00E9443
:1034C00040138091890490918A048034910509F019
:1034D0009CC260E285E894E00E94F5136091890443
:1034E000615E85E894E00E94F51320918B04309191
:1034F0008C04C901079697FD079633E0959587954B
:103500003A95E1F72091890430918A04829F8001E5
:10351000839F100D929F100D1124C091A404D0918F
:10352000A5048091A2049091A3040C0F1D1F009785
:1035300009F460C32091A60431E03093570320932F
:1035400056031092550310925403DC01ED91FC9147
:103550000190F081E02D60E41995EE24E394F12CC4
:10356000DD24D3948091A2049091A3040C171D072D
:1035700009F454C2B0E2EB16F104D8F00E945912DB
:103580008091A2049091A3042091A604D0925703A5
:10359000209356031092550310925403DC01ED91D1
:1035A000FC910190F081E02D60E41995EE24E39404
:1035B000F12C8091A2049091A3046991DC01ED911A
:1035C000FC910190F081E02D1995BFEFEB1AFB0AF9
:1035D000C9CFB9016054710977FF02C06F5F7F4F97
:1035E000759567958255910997FD019600E410E065
:1035F00022E530E04EEB58E0959587950E946010EB
:1036000082E08093A7048091A2049091A304892B67
:1036100009F4DFC08CE38093A60410924A03109251
:10362000490310925503109254030E94951181EEA4
:1036300097E0909348038093470382EE97E090933E
:103640004603809345038091AD0487FD1EC061E071
:103650000E94450761E08091AD040E94170761E078
:1036600070E080E090E00E949B0760E08091AD04F4
:103670000E9417076AE070E080E090E00E949B07DC
:1036800061E08091AD040E9417078091A20490919F
:10369000A304892B09F45CC12091BA043091BB04C6
:1036A0004091BC045091BD0460E074E284EF90E06E
:1036B0000E94751E205131094109510956954795BF
:1036C000379527952093B80064E08AED96E00E9434
:1036D000401360918B04615085E894E00E94F513DB
:1036E00064E086ED96E00E9440138091A70460E1BB
:1036F000813009F064E185E894E00E94F51364E00C
:1037000082ED96E00E9440138FE88093C20480917E
:10371000890490918A048038910509F030C1809124
:103720008B0490918C048034910509F038C180910C
:10373000A704813009F046C18FE98093C204C2E139
:103740006AED85E894E00E94F5136C2F85E894E01B
:103750000E94F51361E885E894E00E94F5136091FA
:10376000C20485E894E00E94F51369ED85E894E0D1
:103770000E94F5138091A70462E2813009F061EFA5
:1037800085E894E00E94F51366E08CEC96E00E94D8
:1037900040138091A2049091A304892B09F414C1D1
:1037A0002091BE043091BF044091C0045091C104E7
:1037B00060E074E284EF90E00E94751E20513109B0
:1037C0004109510956954795379527952093B8009B
:1037D00052CE61E08091AB040E94450761E0809188
:1037E000AC040E9445078091AB04082E000C990B95
:1037F000FC01E053F44FE491F0E0EE0FFF1FE456BC
:10380000F44F259134913093B3042093B204FC011A
:10381000EA5EF34FE491E093B8048091AC04082E83
:10382000000C990BFC01E053F44FE491F0E0EE0F33
:10383000FF1FE456F44FA591B491B093B504A09343
:10384000B404FC01EA5EF34FE491E093B9048C9177
:10385000E82BEC938091A0049091A104892B09F4AA
:1038600034C0CFB7F89480914403811127C0E5E0BC
:10387000FCE08491EBE4FCE09491E82FF0E0EE0FA3
:10388000FF1FEE57F44FA591B491EC91E92321F479
:1038900061E085E30E94170761E085E30E94450728
:1038A0008CB580618CBD8CB580648CBD61E084E397
:1038B0000E94450761E083E30E944507809144032D
:1038C0008F5F80934403CFBFBECE61E08091A90497
:1038D0000E94450761E08091AA040E9445078091FB
:1038E000A904082E000C990BFC01E053F44FE4915D
:1038F000F0E0EE0FFF1FE456F44F25913491309322
:10390000AF042093AE04FC01EA5EF34FE491E09330
:10391000B6048091AA04082E000C990BFC01E05318
:10392000F44FE491F0E0EE0FFF1FE456F44FA59141
:10393000B491B093B104A093B004FC01EA5EF34FDC
:10394000E491E093B7048C91E095E823EC937BCE6F
:103950008091A0049091A104892B31F08091C3043F
:103960009091C4040E94760BE091B404F091B504E8
:1039700090818091B904809589238083A5CE80367B
:10398000910589F480918B0490918C04409739F4CF
:103990008091A704813029F480E18093C204C2E0C1
:1039A000CFCE8FEAFACF80349105C9F780918B048E
:1039B00090918C04809799F78091A704813011F43D
:1039C00080E1BBCE8FECB9CEE091B404F091B504A8
:1039D00080819091B904892B80834DCD8091A00482
:1039E0009091A104892B31F08091C3049091C4047B
:1039F0000E94760BE091B404F091B504908180911F
:103A0000B90480958923808357CD60E085E894E0F0
:103A10000E94F51360918904615063CD0E94591290
:103A20008091A2049091A304892B09F425C12091CF
:103A3000BE043091BF044091C0045091C10460E0C5
:103A400074E284EF90E00E94751E20513109410913
:103A5000510956954795379527952093B80061E011
:103A600084E00E94450761E085E00E94450761E02F
:103A700080E20E94450761E082E20E94450761E022
:103A80008EE10E94450761E084E20E94450762E002
:103A900088E00E94450762E087E00E94450762E0F7
:103AA00086E00E9445078DE494E00E94B0148EE603
:103AB00094E00E94B0148CE294E00E94B0148BE079
:103AC00094E00E94B01483E694E00E94B01488E56C
:103AD00094E00E94B01482E494E00E94B01483E663
:103AE00094E00E94B01486E194E00E94B01485EF47
:103AF00093E00E94B01481E294E00E94B01480E050
:103B000094E00E94B01462E082E00E94450762E007
:103B100082E10E9445078DEC97E09093010280932B
:103B2000000280916A008C7F826080936A00EC9A28
:103B300087ED97E090930B0280930A0280916900D1
:103B40008F73806880936900EB9AE0916803F0912D
:103B5000690382E08083E0916403F0916503108241
:103B6000E0916603F09167038FEC808310927003FD
:103B7000E0916C03F0916D0386E08083E0916A032D
:103B8000F0916B03808180618083E0916A03F09102
:103B90006B03808188608083E0916A03F0916B03FE
:103BA000808180688083E0916A03F0916B0380815B
:103BB0008F7D808389E692E00E94B51488E00E94A0
:103BC000EE068C0187E00E94EE06EC0186E00E9482
:103BD000EE060115110509F059C0219741F4813015
:103BE000910509F06DC082E792E00E94B5140E9431
:103BF000E708E4CFE091B204F091B30480819091A2
:103C0000B804892B80830C171D0709F409CF89910B
:103C10002091A0043091A104232B19F00E946F0B76
:103C2000F2CF28E030E040E8E091AE04F091AF043C
:103C30009091B604582F5423D9F05081952B90833E
:103C4000E091B004F091B10490815091B704952BAC
:103C50009083E091B004F091B10450819091B70449
:103C6000909595239083469521503109E9F6CBCF65
:103C7000508190959523E3CFE091B404F091B50481
:103C800080819091B904892B8083E9CE01301105A0
:103C900009F0ADCF209731F4019709F0A8CF88E75C
:103CA00092E0A3CF219709F0A2CF009719F48DE7F6
:103CB00092E09BCF019709F09ACF82E892E095CFEE
:103CC000892B09F094CF88E892E08FCF8EE392E0C1
:103CD00090938604809385048091A4049091A50418
:103CE000009711F00C943B1F0895A1E21A2EAA1B15
:103CF000BB1BFD010DC0AA1FBB1FEE1FFF1FA2179C
:103D0000B307E407F50720F0A21BB30BE40BF50B98
:103D1000661F771F881F991F1A9469F76095709521
:103D2000809590959B01AC01BD01CF010895EE0FE8
:103D3000FF1F881F8BBF0790F691E02D19940F93FA
:103D40001F93CF93DF938230910510F482E090E0CF
:103D5000E091C704F091C80430E020E0B0E0A0E0BA
:103D6000309799F42115310509F44AC0281B390B05
:103D700024303105D8F58A819B816115710589F15F
:103D8000FB0193838283FE0111C040815181028136
:103D9000138148175907E0F04817590799F410970D
:103DA00061F012960C93129713961C933296CF01E2
:103DB000DF91CF911F910F9108950093C704109345
:103DC000C804F4CF2115310551F04217530738F0DC
:103DD000A901DB019A01BD01DF01F801C1CFEF01AB
:103DE000F9CF9093C8048093C704CDCFFE01E20FB2
:103DF000F31F819391932250310939832883D7CFC0
:103E00002091C5043091C604232B41F42091120265
:103E1000309113023093C6042093C5042091100200
:103E2000309111022115310541F42DB73EB7409173
:103E3000140250911502241B350BE091C504F0913A
:103E4000C604E217F307A0F42E1B3F0B281739070F
:103E500078F0AC014E5F5F4F2417350748F04E0FE6
:103E60005F1F5093C6044093C504819391939FCFE5
:103E7000F0E0E0E09CCFCF93DF930097E9F0FC0106
:103E8000329713821282A091C704B091C804ED0149
:103E900030E020E01097A1F420813181820F931F40
:103EA0002091C5043091C6042817390709F061C074
:103EB000F093C604E093C504DF91CF910895EA0121
:103EC000CE17DF07E8F54A815B819E014115510558
:103ED000B1F7E901FB83EA8349915991C40FD51FDA
:103EE000EC17FD0761F4808191810296840F951F84
:103EF000E90199838883828193819B838A83F0E09F
:103F0000E0E012968D919C9113970097B9F52D9151
:103F10003C911197CD010296820F931F2091C50409
:103F20003091C6042817390739F6309751F51092A9
:103F3000C8041092C704B093C604A093C504BCCFB4
:103F4000D383C28340815181840F951FC817D9073D
:103F500061F44E5F5F4F88819981480F591F5183EB
:103F600040838A819B81938382832115310509F0E7
:103F7000B0CFF093C804E093C7049ECFFD01DC01ED
:103F8000C0CF13821282D7CF81E090E0F8940C94D6
:103F9000D01FDC0101C06D9341505040E0F70895FF
:103FA00016E0C2E5D6E000E006C0802FFE010E94C8
:103FB000971E2196011DC335D10780E00807A9F798
:043FC000F894FFCFA3
:103FC400E307E307E307E307E307E307E307E3079D
:103FD4000000C9048000000000007A08E40711080A
:103FE400C708420820083408000000002A12FD1106
:103FF400AD148606F611E311D41100000000B40DCF
:10400400E407AD146D11BF0A8606591031104D1026
:104014004110C11086067A0B57142F0A780A7A0FBA
:104024005D0FE50E860E0D0A005374617274696E9D
:10403400670052494748540057484154004C45468C
:1040440054004252414B4500464F5257415244009E
:00000001FF
