:020000040000FA
:100000000C9446060C9451190C9426190C94FB1868
:100010000C94D0180C94A5180C947A180C944F18C2
:100020000C9424180C9477060C9477060C9477069D
:100030000C9477060C9477060C9477060C943C1A73
:100040000C9477060C94D21D0C9477060C947706CA
:100050000C9477060C9477060C9477060C94DA17B8
:100060000C9477060C94061A0C94DC190C94770601
:100070000C9477060C9477060C9477060C9477060C
:100080000C94A41D0C9477060C9477060C947706B8
:100090000C9477060C9477060C9477060C94241C29
:1000A0000C9477060C9477060C94761D0C947706C6
:1000B0000C9477060C9477060C9477060C94481DE4
:1000C0000C9477060C9477060C9477060C947706BC
:1000D0000C9477060C9477060C94A6190C947C1952
:1000E0000C9477060C94170C0C9495070C9442080A
:1000F0000C94530F0C9495130C942E080C947313BA
:100100000C9425100C94CE0B0C9456070C945E0C9A
:100110000C9444080C948B070C949C130C94C913F6
:100120000C94A3080C94F6150C9487070C94841077
:100130000C9415260C9462070C9481080C94E50825
:100140000C9475070C945A070C947D070C94440783
:100150000C946B070C945E070C94A0060C946F072C
:100160000C9460120C9491070C944C160C94450856
:100170000C9465070C9443080C94D0110C949508CA
:100180000C9482130C94F8110C943F070C9479078B
:100190000C9472080C9438080C94E0110C94001E16
:1001A0000C94FC100C9483070C9419110C94190DE9
:1001B0000C940C130C94EC110C9432090000000008
:1001C000003E5B4F5B3E3E6B4F6B3E1C3E7C3E1CDD
:1001D000183C7E3C181C577D571C1C5E7F5E1C0023
:1001E000183C1800FFE7C3E7FF0018241800FFE7DA
:1001F000DBE7FF30483A060E2629792926407F059D
:100200000507407F05253F5A3CE73C5A7F3E1C1CB2
:1002100008081C1C3E7F14227F22145F5F005F5F72
:1002200006097F017F006689956A6060606060945E
:10023000A2FFA29408047E040810207E2010080863
:100240002A1C08081C2A08081E101010100C1E0C6E
:100250001E0C30383E3830060E3E0E060000000000
:100260000000005F00000007000700147F147F14E7
:10027000242A7F2A1223130864623649562050002C
:1002800008070300001C2241000041221C002A1C18
:100290007F1C2A08083E0808008070300008080803
:1002A0000808000060600020100804023E51494523
:1002B0003E00427F400072494949462141494D3341
:1002C0001814127F1027454545393C4A49493141A8
:1002D000211109073649494936464949291E000076
:1002E00014000000403400000008142241141414CB
:1002F0001414004122140802015909063E415D59B7
:100300004E7C1211127C7F494949363E41414122BF
:100310007F4141413E7F494949417F090909013EE9
:10032000414151737F0808087F00417F4100204010
:10033000413F017F081422417F404040407F021C22
:10034000027F7F0408107F3E4141413E7F09090939
:10035000063E4151215E7F09192946264949493205
:1003600003017F01033F4040403F1F2040201F3FCB
:100370004038403F63140814630304780403615950
:10038000494D43007F414141020408102000414192
:10039000417F04020102044040404040000307083E
:1003A0000020545478407F2844443838444444283A
:1003B000384444287F385454541800087E090218E1
:1003C000A4A49C787F0804047800447D4000204069
:1003D000403D007F1028440000417F40007C0478AD
:1003E00004787C080404783844444438FC182424F5
:1003F0001818242418FC7C08040408485454542475
:1004000004043F44243C4040207C1C2040201C3CF1
:100410004030403C44281028444C9090907C4464E8
:10042000544C44000836410000007700000041367B
:10043000080002010204023C2623263C1EA1A16101
:10044000123A4040207A3854545559215555794133
:100450002254547842215554784020545579400C08
:100460001E527212395555555939545454593955EB
:100470005454580000457C410002457D420001452E
:100480007C407D1211127DF0282528F07C545545C2
:10049000002054547C547C0A097F4932494949322E
:1004A0003A4444443A324A4848303A4141217A3A3F
:1004B00042402078009DA0A07D3D4242423D3D400B
:1004C00040403D3C24FF2424487E4943662B2FFCBA
:1004D0002F2BFF0929F620C0887E09032054547968
:1004E000410000447D413048484A32384040227A39
:1004F000007A0A0A727D0D19317D2629292F2826B6
:100500002929292630484D402038080808080808BD
:100510000808382F10C8ACBA2F102834FA00007B16
:10052000000008142A142222142A14085500550029
:1005300055AA55AA55AAFF55FF55FF000000FF0018
:10054000101010FF00141414FF001010FF00FF1013
:1005500010F010F0141414FC001414F700FF000045
:10056000FF00FF1414F404FC141417101F10101FC4
:10057000101F1414141F00101010F0000000001FB2
:10058000101010101F10101010F010000000FF10BD
:100590001010101010101010FF10000000FF1400B9
:1005A00000FF00FF00001F10170000FC04F41414EB
:1005B0001710171414F404F40000FF00F7141414B7
:1005C00014141414F700F7141414171410101F1037
:1005D0001F141414F4141010F010F000001F101F5A
:1005E0000000001F14000000FC140000F010F010C8
:1005F00010FF10FF141414FF141010101F0000003F
:1006000000F010FFFFFFFFFFF0F0F0F0F0FFFFFF42
:100610000000000000FFFF0F0F0F0F0F3844443899
:1006200044FC4A4A4A347E02020606027E027E02E8
:1006300063554941633844443C04407E201E2006F3
:10064000027E020299A5E7A5991C2A492A1C4C7230
:1006500001724C304A4D4D303048784830BC625AB7
:10066000463D3E494949007E0101017E2A2A2A2A47
:100670002A44445F444440514A444040444A514023
:100680000000FF0103E080FF000008086B6B0836E4
:1006900012362436060F090F060000181800000055
:1006A0001010003040FF0101001F01011E00191D44
:1006B0001712003C3C3C3C00000000000001030716
:1006C0000F1F3F7F0080C0E0F0F8FCFEDB40A4A6D7
:1006D0002EAF2000A1C8D300408DAED580A8000069
:1006E000600000000000000000000000000000E0CA
:1006F0000000000000000000000000000001E00019
:1007000000000000000000000000000001F00000F8
:10071000000000000000000000000003F0000000E6
:100720000000000000000000000007F000000000D2
:1007300000000000000000000007F80000000000BA
:1007400000000000000000000FF800000003C000DF
:100750007E000001E0007F0FF800000003C000FEF3
:10076000000001E000FFEFF800000003C000FE0001
:100770000001E000FFFFF800000003C000F00000EF
:10078000000F007FFE7FC0000003C000F0000000EB
:100790000F003FFE7FF83FF1FBCFFCFEF3BC3DEFC7
:1007A000E01FFE7FFF7FFBFFDFFEFEFFBC3DEFE0B3
:1007B0001FC6FFFF7FFBFFDFFEFEFFBC3DEFE00F2C
:1007C000E3C7FE787BC3DE1EF0FFBC3DEF0007FFF2
:1007D00087FC787BC3DE1EF0F83C3DEF0001FFFF95
:1007E000F0007BC3C01EF0F03C3DEF0001F37FE062
:1007F0003FFBC3CFFEF0F03C3DEF0003E33F807FC3
:10080000FBC3DFFEF0F03C3DEF0007E73C00787BE8
:10081000C3DE1EF0F03C3DEF0007FFBE00787BC357
:10082000DE1EF0F03C3DEF0007FFFE00787BC3DEEC
:100830001EF0F03C3DEF000FFFFE007FFBFFDFFEF0
:10084000F0F03FFDEFE00FFFFF007FFBFFDFFEF06A
:10085000F03FFDEFE00FF9FF003E79F9CF9EF0F099
:100860001F3DE7E01FF1FF00000000000000000056
:100870000000001F80FF007FFFFFFFFFFFFFFFFF63
:10088000FFE01C007F007FFFFFFFFEB46D888D1826
:10089000E000001F007FFFFFFFFE95AD7DB577E014
:1008A00000000F007FFFFFFFFEA5AD9D8D19E0004A
:1008B0000006007FFFFFFFFEB5ADEDB57EE0000056
:1008C0000000000180000000000000000000038024
:1008D00000000000000000000007C0000000000051
:1008E0000000000007C00000000000000000000F32
:1008F000C00000000000000000001FE00000000039
:1009000000000000001FE0000000000000000000E8
:100910003FE00000000000000000003FF000000089
:100920000000000000007FF0000000000000001F39
:10093000F87FF0000000000000003FFE7FF00000A4
:1009400000000000003FFF7FF000000000000000FA
:100950001FFFFBE0000000000000000FFFF9FFC0D8
:100960000000000000000FFFF9FFF8000000000089
:100970000007FFF1FFFF00000000000003FC73FF11
:10098000FF80000000000001FE3FFFFF800000002C
:10099000000000FF1E0FFF000000000000007FFEAF
:1009A0001FFC000000000000003FFFFFF8000000F7
:1009B000000000000FDFFFE0000000000000001F4B
:1009C00019FFC0000000000000003F3CFF000000D5
:1009D00000000000007E7CF8000000000000000025
:1009E0007FFE7C0000000000000000FFFFFC000014
:1009F000000000000000FFFFFE00000000000000FB
:100A000000FFFFFE0000000000000001FFEFFE00FD
:100A100000000000000001FFCFFE00000000000009
:100A20000003FF07FE0000000000000003FC07FEBB
:100A30000000000000000003F003FE0000000000C2
:100A40000000018000FE0000000000000000000027
:100A50007E000000000000000000003E00000000DA
:100A60000000000000000C000000000000078000F3
:100A7000FC000003C0000000078001FC000003C070
:100A8000000000078001FC000003C0000000078098
:100A900001E00000001E000000078001E0000000EF
:100AA0001E007FE3F79FF9FDE7787BDFC0FFF7FFCC
:100AB000BFFDFDFF787BDFC0FFF7FFBFFDFDFF78C7
:100AC0007BDFC0F0F787BC3DE1FF787BDE00F0F70D
:100AD00087BC3DE1F0787BDE0000F787803DE1E0F8
:100AE000787BDE007FF7879FFDE1E0787BDE00FF0B
:100AF000F787BFFDE1E0787BDE00F0F787BC3DE1E2
:100B0000E0787BDE00F0F787BC3DE1E0787BDE003B
:100B1000F0F787BC3DE1E0787BDE00FFF7FFBFFD2B
:100B2000E1E07FFBDFC0FFF7FFBFFDE1E07FFBDF20
:100B3000C07CF3F39F3DE1E03E7BCFC000000000AE
:100B400000000000000000FFFFFFFFFFFFFFFFFFAE
:100B5000FFC0FFFFFFFFFD68DB111A31C0FFFFFF81
:100B6000FFFD2B5AFB6AEFC0FFFFFFFFFD4B5B3B16
:100B70001A33C0FFFFFFFFFD6B5BDB6AFDC0220085
:100B8000FF2100002100240027002A002D00300052
:100B9000330001010000040107010A0100002200E6
:100BA000250028002B002E00310034000201000037
:100BB000050108010B0105050505070508080808DA
:100BC000020202020A0A08080404040401010101E5
:100BD00001010101030303030303030304070707E0
:100BE0000C0C0C0C0C0C0C0C020202020606060685
:100BF000060606060B0B0B0B0B0B0B0B0102102052
:100C00002008081020401020408002010201080442
:100C100002010102040810204080804020100804D6
:100C2000020180040201804020100804020108042F
:100C30000201010204081020408001020408102073
:100C4000408000000A0B02090C0D0E080703040186
:100C50000000000000000000000000000000000094
:100C60000000000000000000000000000000121161
:100C70001000000000000000000000000000000064
:100C80000000000000000000001E152611241FBEF9
:100C9000CFEFD1E2DEBFCDBF00E00CBF12E0A0E09D
:100CA000B2E0E6EEF1E500E00BBF02C007900D9266
:100CB000A43AB107D9F726E0A4EAB2E001C01D9238
:100CC000A432B207E1F716E0C5E4D6E000E006C0C2
:100CD00021970109802FFE010E94B726C434D10755
:100CE00080E00807A9F70E94BA200C94E1280C9430
:100CF0000000FC01A089B18982E08C93A485B585B0
:100D00001C92A685B7858FEC8C93108EA489B5892B
:100D100086E08C93A289B3898C9180618C93A2899F
:100D2000B3898C9188608C93A289B3898C918068F7
:100D30008C930288F389E02D80818F7D80830895D4
:100D400008958F929F92AF92BF92FF920F931F933D
:100D5000CF93DF93F09042052FE22F1508F455C092
:100D60002091440508E512E0021B110927FD1395A7
:100D7000000F111F000F111F20914305C8E8D0E09C
:100D8000C21BD10927FDD395CC0FDD1FCC0FDD1F72
:100D90004E010D2E000CAA08BB08DC01853B910515
:100DA00014F0A4EBB0E0B7FF02C0B0E0A0E09801FF
:100DB000012E000C440B550B281939094A095B090F
:100DC0000E944E2624EB30E040E050E00E942426B2
:100DD000820E931EA41EB51E8C169D062CF0E801F3
:100DE000801691060CF4E4012297CC0FDD1F2FB77B
:100DF000F8948F2D90E0FC01EE0FFF1FE80FF91F14
:100E0000EF54FB4FD283C1832FBFDF91CF911F914E
:100E10000F91FF90BF90AF909F908F900895282FD3
:100E200030E0F901EE5BF34F9491F901E450F44F97
:100E300044912A54344FF9012491222309F435C0F6
:100E4000992311F191509231F8F4E92FF0E08827BD
:100E5000E35DF84F8F4F0C94B7265E0762073F079C
:100E600056075A07440765076B076F077507790729
:100E70007D078307870744078B07910795078091B4
:100E800080008F7780938000E22FF0E0EE0FFF1F4D
:100E9000E456F44FA591B4918FB7F894EC91611199
:100EA00048C040954E234C938FBF08958091800099
:100EB0008F7DE8CF80918000877FE4CF84B58F77E6
:100EC00084BDE2CF84B58F7DFBCF8091B0008F775A
:100ED0008093B000D9CF8091B0008F7DF9CF809101
:100EE00090008F7780939000CFCF809190008F7D7E
:100EF000F9CF80919000877FF5CF8091A0008F7708
:100F00008093A000C1CF8091A0008F7DF9CF809108
:100F1000A000877FF5CF809120018F7780932001FB
:100F2000B3CF809120018F7DF9CF80912001877F01
:100F3000F5CF4E2BB8CFCF93DF9390E0FC01E45078
:100F4000F44F24918A54944FFC0184918823C9F072
:100F500090E0880F991FFC01EE57F44FA591B491D2
:100F6000FC01E456F44FC591D49161110DC09FB7B7
:100F7000F8948C91209582238C9388812823288350
:100F80009FBFDF91CF910895623051F49FB7F894DD
:100F90003C91822F809583238C93E8812E2BEFCF79
:100FA0008FB7F894EC912E2B2C938FBFEACF3FB7DD
:100FB000F89480916F0390917003A0917103B091A8
:100FC000720326B5A89B05C02F3F19F00196A11DFD
:100FD000B11D3FBFBA2FA92F982F8827BC01CD0183
:100FE000620F711D811D911D42E0660F771F881FE2
:100FF000991F4A95D1F708958F929F92AF92BF9211
:10100000CF92DF92EF92FF924B015C010E94D707D3
:101010006B017C010E94D7076C197D098E099F091D
:10102000683E734081059105A8F321E0821A91087A
:10103000A108B10888EEC80E83E0D81EE11CF11C9F
:1010400081149104A104B10429F7FF90EF90DF907F
:10105000CF90BF90AF909F908F9008958091A40201
:101060009091A50201969093A5028093A402089501
:101070008091A6029091A70201969093A702809377
:10108000A6020895089508950895AF92BF92CF9251
:10109000DF92EF92FF920F931F93CF93DF936C0138
:1010A0007B018B01040F151FEB015E01AE18BF0819
:1010B000C017D10759F06991D601ED91FC910190CB
:1010C000F081E02DC6011995892B79F7C501DF91D3
:1010D000CF911F910F91FF90EF90DF90CF90BF9035
:1010E000AF900895FC01538D448D252F30E0842F5F
:1010F00090E0821B930B541710F0CF960895019740
:101100000895FC01918D828D981761F0A28DAE0F2C
:10111000BF2FB11D5D968C91928D9F5F9F73928FB3
:1011200090E008958FEF9FEF0895FC01918D828DDF
:10113000981731F0828DE80FF11D858D90E00895AC
:101140008FEF9FEF0895FC01918D228D892F90E004
:10115000805C9F4F821B91098F739927089587E7C1
:1011600093E00E94A30821E0892B09F420E0822F5C
:10117000089584E194E00E94A30821E0892B09F4FA
:1011800020E0822F0895FC01A48DA80FB92FB11D76
:10119000A35ABF4F2C91848D90E001968F739927AD
:1011A000848FA689B7892C93A089B1898C9183708B
:1011B00080648C93938D848D981306C00288F38984
:1011C000E02D80818F7D80830895EF92FF920F93B1
:1011D0001F93CF93DF93EC0181E0888F9B8D8C8DE3
:1011E00098131AC0E889F989808185FF15C09FB7D7
:1011F000F894EE89FF896083E889F989808183709A
:10120000806480839FBF81E090E0DF91CF911F9148
:101210000F91FF90EF900895F62E0B8D10E00F5F69
:101220001F4F0F731127E02E8C8D8E110CC00FB63F
:1012300007FCFACFE889F989808185FFF5CFCE01D7
:101240000E94C308F1CFEB8DEC0FFD2FF11DE35A87
:10125000FF4FF0829FB7F8940B8FEA89FB8980815A
:101260008062CFCFCF93DF93EC01888D8823B9F0D4
:10127000AA89BB89E889F9898C9185FD03C08081A1
:1012800086FD0DC00FB607FCF7CF8C9185FFF2CF1E
:10129000808185FFEDCFCE010E94C308E9CFDF91A9
:1012A000CF91089580E090E0892B29F00E94B90841
:1012B00081110E94000080E090E0892B49F080E0DD
:1012C00090E0892B29F00E94000081110E9400000B
:1012D00080E090E0892B49F080E090E0892B29F0B4
:1012E0000E94000081110E94000080E090E0892BA4
:1012F00029F00E94AF0881110C94000008952091FC
:10130000610330916203F90181919FEB980F9A314B
:1013100040F43093620320936103805E08959F013F
:10132000F2CF803239F4232BD1F7F0936203E093AC
:1013300061030895309362032093610308951F931E
:10134000CF93DF930E947F09D0E0C0E01AE090EDD8
:10135000980F9A30B8F41C9F90011D9F300D1124F6
:10136000E901C80FD11D87FDDA95E09780916103EF
:1013700090916203019690936203809361030E94AF
:101380007F09E5CFCE01DF91CF911F9108952F9274
:101390003F924F925F926F927F928F929F92AF9205
:1013A000BF92CF92DF92EF92FF920F931F93CF9352
:1013B000DF9300D01F921F92CDB7DEB77A83698387
:1013C0004B8320915E03211112C021E020935E0324
:1013D0001092700021E22093B0002BE02093B10026
:1013E0002AEF2093B3001092B400539A789410928D
:1013F00009023324339497FF03C09F773AE0332EDA
:1014000028E2329E202D112430E03D832C83821768
:10141000930760F021E09D838C83321207C08131F5
:10142000974220F080E197E29D838C83832C912C5E
:10143000B12CA12C4C805D8056944794712C612C6A
:101440002C813D816901F12CE12CA501940160E41E
:1014500072E48FE090E00E948726640D751D861D62
:10146000971DA70196010E942426890122E0222EC1
:101470000F3F110501F1F8F02394E22DF0E0EE0F9B
:10148000FF1FE85CFD4F2081318150E040E060E0CB
:1014900072E18AE790E00E942426C501B4010E940F
:1014A0008726640D751D861D971DA70196010E9454
:1014B00024268901DDCF3AE0331209C08C819D8159
:1014C00005966AE070E00E94A3267D836C838C8180
:1014D0009D81883E23E0920769F029813A81DC01F1
:1014E0000E94782628EE33E040E050E00E94242657
:1014F0003A832983109270008091B100887F282A56
:101500002092B1000093B3008B81803108F08FE00E
:1015100020E130E0281B310902C0169507952A9575
:10152000E2F70093B40089819A81909360038093DD
:101530005F0387B38FEF87BB81E0809370000F90CC
:101540000F900F900F900F90DF91CF911F910F91FF
:10155000FF90EF90DF90CF90BF90AF909F908F90D3
:101560007F906F905F904F903F902F900895EF92F3
:10157000FF920F931F93CF93DF93EC01EC80FD80DC
:101580006E157F050CF070C057FF04C0240F351F87
:1015900050E040E08E819F81FA01E20FF31F8E1729
:1015A0009F071CF49C01241B350B121613060CF02C
:1015B0005BC0922F842F8695869586958E9DD0014F
:1015C0008F9DB00D11246A0F7B1FAF8DB8A1A60FA0
:1015D000B71F477049F188E0841B482F682F70E0DF
:1015E000FB01EC53F94FE491281708F063C0621B2C
:1015F00071092FEF30E002C0359527956A95E2F723
:10160000E2230130110539F0B0F10230110561F526
:101610008C91E82702C08C91E82BEC93941720F171
:101620002C813D81A20FB31FE92FE41BE83078F035
:101630000230110521F58E2F9C9190959C932C8161
:101640003D81A20FB31F88508830B0F7E770EE23BA
:1016500059F0F0E0E454F94FE49101301105F9F04C
:1016600010F10230110519F1DF91CF911F910F9107
:10167000FF90EF900895E0958C91E823CECF81E024
:101680000115110509F480E081959E2F8C932C8122
:101690003D81A20FB31F98509830C0F7D7CF8C91DF
:1016A000E82BEC93E1CFE0958C91E823FACF8C9175
:1016B000E827F7CF0130110509F4ADCFE0F2023091
:1016C000110509F4A5CFAE0DBF1DAECF0F931F932B
:1016D000CF93DF9377FF04C0260F371F70E060E0E1
:1016E000DC011496CD91DC91FB01E20FF31FCE17C4
:1016F000DF071CF49E01261B370B121613064CF550
:10170000FA0157FD3796A3E0F595E795AA95E1F71D
:10171000EC9FD001ED9FB00DFC9FB00D11246A0F1E
:101720007B1FDC015F96ED91FC91E60FF71F477080
:10173000552781E090E001C0880F4A95EAF7482FCD
:101740000130110559F0A8F02E0F3F1F023011058E
:10175000E1F0DF91CF911F910F9108952E0F3F1F60
:10176000E217F307B1F38191DF011197842B8C937A
:10177000F7CF80952E0F3F1FE217F30751F391919A
:10178000DF01119798239C93F7CFE217F30709F332
:101790008191DF01119784278C93F7CF0F931F93CB
:1017A000FA01DC0156964C9156974230E9F04330ED
:1017B000A1F1413061F514964D915C91DA01AE1BB7
:1017C000BF0BFD01E21BF30B77FD0BC0DC0116968E
:1017D0004D915C916417750724F4AB01BF010E9421
:1017E000660B1F910F91089514964D915C91DA014B
:1017F000A61BB70BBD0161507109DC0116964D9116
:101800005C91DA01AE1BBF0BFD01E21BF30B77FD10
:10181000E8CFAF010E94B70AE4CF16964D915C91D4
:10182000DA01A61BB70BBD0161507109CDCF0F9333
:101830001F93FA01DC0156964C9156974230A9F05D
:10184000433091F1413019F514964D915C91DA01D4
:10185000AE1BBF0BFD013197F7FD04C0AB01BF010B
:101860000E94B70A1F910F91089514964D915C91B3
:10187000DA01A61BB70BBD01DC0116964D915C91F8
:10188000DA01AE1BBF0BFD013197621B730BF7FD35
:10189000E9CFDC0116964D915C91E417F50714F73A
:1018A000AF010E94660BDECF16964D915C91DA0176
:1018B000A61BB70BBD01621B730BCECFFC0177FDDE
:1018C00064C080859185681779070CF05EC057FD6C
:1018D0005CC082859385481759070CF056C08689ED
:1018E0008230B1F0833029F1813041F484819581D7
:1018F000841B950BAB01BC0161507109213031058E
:1019000009F108F443C02230310509F463C0089599
:1019100084819581DC01A61BB70BBD016150710963
:1019200086819781DC01A41BB50BAD0141505109A3
:10193000E5CF86819781861B970BBA01AC01415098
:101940005109DCCFCA0157FD0796A3E0959587950D
:10195000AA95E1F7A481B5818A9F90018B9F300DF4
:101960009A9F300D1124620F731F078CF0A1E02D98
:10197000E60FF71F4770552721E030E001C0220F26
:101980004A95EAF78081822B80830895CA0157FD2A
:10199000079633E0959587953A95E1F7A481B5814F
:1019A0008A9F90018B9F300D9A9F300D1124620FFA
:1019B000731F078CF0A1E02DE60FF71F4770552726
:1019C00081E090E001C0880F4A95EAF78095908108
:1019D0008923DACFCA0157FD079623E095958795AD
:1019E0002A95E1F7A481B5818A9F90018B9F300DE4
:1019F0009A9F300D1124620F731F078CF0A1E02D08
:101A0000E60FF71F4770552721E030E001C0220F95
:101A10004A95EAF780818227B7CF08958EBD0000EE
:101A20000DB407FEFDCF8EB508958CBD9DBD089504
:101A30000895FC016370668B8481958126813781CE
:101A4000613039F0633029F09187808733872287AE
:101A50000895318720879387828708952F923F9238
:101A60004F925F926F927F928F929F92AF92BF92AE
:101A7000CF92DF92EF92FF920F931F93CF93DF935A
:101A8000CDB7DEB76A970FB6F894DEBF0FBECDBFF5
:101A90009A8F898F7A8369834A01D22E18870F83A0
:101AA0003701BC2CDC0159962D913C915A97211598
:101AB000310509F015C118968D919C9119976817F9
:101AC00079070CF0D7C11A968D919C914817590748
:101AD0000CF0D0C14C2C512CB6E0CB9E600D711D8A
:101AE00011247C876B87161617060CF0C3C1EA2DEC
:101AF000F0E0FA87E98793E0EE0FFF1F9A95E1F790
:101B0000F88BEF87CF01840F951F181619060CF07C
:101B1000B1C1A98DBA8D58968C91811104C0BFEACC
:101B2000BD1508F4D394A98DBA8DED91FC91119750
:101B30000284F385E02DCD011995B5E0DB9EC0014F
:101B40001124E981FA81FC83EB83312C212C9C0147
:101B500024543E4F388F2F8B4A2D50E05E8B4D8B97
:101B6000EF89F88DE20DF31D44919E828D82D12C78
:101B7000C12C69817A81620D731D7A8B698B842FE8
:101B800090E09C8B8B8BE98DFA8DA081B18140FF19
:101B900082C0F1E0BF126FC0AF126DC01C96ED9114
:101BA000FC912F813885A4014C0D5D1D69897A89CE
:101BB000898D9A8D1995EB89FC89F595E7954E2FBE
:101BC0005FEFC51AD50A6D817E818D899E89680F68
:101BD000791F7E836D8398E0C916D10481F6AFEF3B
:101BE0002A1A3A0AEB81FC81E40DF51DFC83EB8394
:101BF000F5E02F16310409F0B3CF2F813885261573
:101C00003705B9F0A98DBA8DED91FC91B1E0BB1209
:101C100057C0AB1255C069817A816B5F7F4F0088D6
:101C2000F189E02D830128E030E0A401898D9A8DAF
:101C30001995A98DBA8DED91FC9111970688F789B8
:101C4000E02DCD016A960FB6F894DEBF0FBECDBF72
:101C5000DF91CF911F910F91FF90EF90DF90CF9088
:101C6000BF90AF909F908F907F906F905F904F90BC
:101C70003F902F9019941E96ED91FC91EF80F8847F
:101C800009851A8592014D815E816B817C81898DE8
:101C90009A8D199590CF2F8138852615370509F42F
:101CA0008ACF31E0B31207C0A31205C01C96ED9194
:101CB000FC91930178CF1E96ED91FC917301E0CFDA
:101CC0006B857C85641975090684F785E02D7301A1
:101CD0000F8518899201A401898D9A8D1995A9CF34
:101CE000F90134969491329745915491D91AB7E0FD
:101CF000DB9E400D511D1124F901259134913C8B3F
:101D00002B8BFA0125903490FA013296749031961B
:101D10003491398B329664903196449041E04C1561
:101D200018F04A1508F07FC0662D062C000C770BC2
:101D30007C836B83842D042C000C990B9E838D83F4
:101D4000A98DBA8DED91FC9111970284F385E02D58
:101D5000CD011995512CD12CC12CEA2DF0E0FA8738
:101D6000E9872B2D30E03C872B87A401440D511DC2
:101D700047FC5A95588F4F8B69817A81660D711D8A
:101D800067FC7A957E876D877989C71608F051CFF1
:101D90002C2D30E04D815E81420F531FA985BA85FD
:101DA0004A9FC0014B9F900D5A9F900D1124FC013A
:101DB000E80DF91DF88BEF87852D612C4F89588D23
:101DC000420F531F5E8B4D8B671408F050C04424A4
:101DD0004394480E877041F4C1010196EB89FC8958
:101DE000E20DF31DD4901C01D7FE19C0A98DBA8D48
:101DF000ED91FC91662D70E0B1E0BB1219C0AB1201
:101E000017C02D853E85620F731F0484F585E02D74
:101E10002F8138854D895E89898D9A8D1995DD0CC4
:101E20006394842DD1CF1E821D821C821B8288CF99
:101E30004B815C81640F751FAB85BC856A9FC001B7
:101E40006B9F900D7A9F900D112469817A81680FA4
:101E5000791F0684F785E02DEF80F88409851A85BF
:101E60009D014F855889898D9A8D1995D8CF570C2A
:101E7000C3948ACF6A960FB6F894DEBF0FBECDBF6B
:101E8000DF91CF911F910F91FF90EF90DF90CF9056
:101E9000BF90AF909F908F907F906F905F904F908A
:101EA0003F902F9008958F929F92AF92CF92EF9292
:101EB000FF920F931F93CF93DF93EC01262F898D11
:101EC0009A8D009709F051C06A30D1F41D861C86A6
:101ED0008D8948E0849F900111248E859F85820F13
:101EE000931F9F878E8781E090E0DF91CF911F91B4
:101EF0000F91FF90EF90CF90AF909F908F900895AB
:101F00006D3089F3CC88AD888F898823C1F08C85AA
:101F10009D8536E0C39E800D911D1124488559850D
:101F20004817590764F44E855F851D861C8638E086
:101F3000A39EC0011124840F951F9F878E87EA8876
:101F4000FB88088919894E855F856C857D85CE0162
:101F50000E942E0D2C898C859D8546E0249F800D46
:101F6000911D11249D878C87BECF6A3069F41D8630
:101F70001C86FC013896E4912D898E859F85E29F11
:101F8000800D911D1124ADCF6D3009F4ACCFFC0153
:101F900034963491631708F4A6CF3296E491E6178D
:101FA00008F4A1CFFC01329685909490462F431BF4
:101FB000342F47E0349F800C911C1124F401329699
:101FC00034913196E4913323A9F1EE2399F1CC8831
:101FD000F4013596E491AD884F89442301F10E2E2A
:101FE000000CFF0BE30FF11DCE9EA001CF9E500D04
:101FF00011246C857D85460F571F68857985641788
:1020000075076CF44E855F851D861C86FC0138962D
:10201000E491AE9E400D511D11245F874E87EA88E2
:10202000FB88088919894E855F856C857D85CE0181
:102030000E942E0DF4013496E4912C898C859D85A7
:10204000E29F800D911D11248DCF6F927F928F9210
:102050009F92AF92BF92CF92DF92EF92FF920F9337
:102060001F93CF93DF93EC016B015A0139014801B3
:10207000E881F9810284F385E02D1995E881F981E1
:102080000288F389E02D87019301A501B601CE01F5
:102090001995A501480D591D41505109E881F98153
:1020A0000288F389E02D9301B601CE011995E881EC
:1020B000F9810088F189E02D9401A501B601CE01D6
:1020C0001995C60CD71CB60161507109E881F981D8
:1020D0000088F189E02D9401A501CE011995E881D0
:1020E000F9810688F789E02DCE01DF91CF911F910C
:1020F0000F91FF90EF90DF90CF90BF90AF909F90A7
:102100008F907F906F9019946F927F928F929F9291
:10211000AF92BF92CF92DF92EF92FF920F931F93F5
:10212000CF93DF935C01EB016A014901380187011C
:10213000DC01ED91FC916217730719F564167506C1
:102140002CF0962D872D3A01C92ED82E96012619EE
:1021500037092F5F3F4F048CF58DE02DA301BE01A1
:10216000C5011995DF91CF911F910F91FF90EF90CD
:10217000DF90CF90BF90AF909F908F907F906F90A7
:1021800008954615570591F42617370724F0892D31
:102190004B01C22FD82F9E01281939092F5F3F4FBD
:1021A000068CF78DE02DA601B401DACF0284F38509
:1021B000E02D1995D501ED91FC910488F589E02D6C
:1021C00083019401A601BE01C5011995D501ED91C8
:1021D000FC910688F789E02DC501DF91CF911F9111
:1021E0000F91FF90EF90DF90CF90BF90AF909F90B6
:1021F0008F907F906F901994EF92FF920F931F939F
:10220000DC011A960D911C911B9718962D913C910B
:102210001997ED91FC9100A0F1A1E02D7B0150E018
:1022200040E070E060E019951F910F91FF90EF90F2
:1022300008954F925F926F927F928F929F92AF928A
:10224000BF92CF92DF92EF92FF920F931F93CF93A3
:10225000DF936C012B015A0139014801DC01ED913A
:10226000FC910284F385E02D1995E201640C751C44
:10227000D601ED91FC91C615D7055CF40088F18973
:10228000E02D87019401A501BE01C6011995219693
:10229000EFCF0688F789E02DC601DF91CF911F911E
:1022A0000F91FF90EF90DF90CF90BF90AF909F90F5
:1022B0008F907F906F905F904F9019948F929F9224
:1022C000AF92BF92CF92DF92EF92FF920F931F9344
:1022D000CF93DF93EC015B014A016901E881F98149
:1022E0000284F385E02D199595012C0D3D1D21509B
:1022F0003109E881F9810488F589E02D78018401AC
:10230000A401B501CE011995E881F9810688F78904
:10231000E02DCE01DF91CF911F910F91FF90EF90B3
:10232000DF90CF90BF90AF909F908F9019948F9235
:102330009F92AF92BF92CF92DF92EF92FF920F9354
:102340001F93CF93DF93EC015B014A016901780190
:10235000E881F9810284F385E02D1995C80CD91C18
:10236000860101501109E881F9810488F589E02D81
:102370009501A401B501CE011995E881F98106887E
:10238000F789E02DCE01DF91CF911F910F91FF9042
:10239000EF90DF90CF90BF90AF909F908F90199467
:1023A000EF92FF920F931F93DC01ED91FC9100A03F
:1023B000F1A1E02D19951F910F91FF90EF900895D5
:1023C0000F931F93DC01ED91FC91068CF78DE02DAE
:1023D00019951F910F9108950F931F93DC01ED91B3
:1023E000FC91048CF58DE02D19951F910F910895A6
:1023F000DC01ED91FC910084F185E02D19943F9270
:102400004F925F926F927F928F929F92AF92BF9204
:10241000CF92DF92EF92FF920F931F93CF93DF93B0
:102420005C017B014A016901390187E0680E711C7A
:1024300093E0759467949A95E1F72B01400E511E35
:1024400010E000E0312CD0E0C0E0CE018770992789
:10245000330C892B59F4FE0183E0F595E7958A95B5
:10246000E1F7E00FF11FE80DF91D349037FE0AC0C7
:1024700021E030E0A701B5016C0F7D1F80EE95E0F3
:102480000E94F8112196CC16DD06F9F68FEFE81AB6
:10249000F80A060D171DE414F504A9F6DF91CF9193
:1024A0001F910F91FF90EF90DF90CF90BF90AF9072
:1024B0009F908F907F906F905F904F903F90089586
:1024C0002F923F924F925F926F927F928F929F9244
:1024D000AF92BF92CF92DF92EF92FF920F931F9332
:1024E000CF93DF9300D000D0CDB7DEB73C016A01B7
:1024F0003E832D83FC82EB825801A41AB50AB7FEF5
:1025000003C0B194A194B1088D809E80861A970A69
:1025100097FE03C09194819491088A149B045CF007
:10252000902F812F0D811E819D838E839C2D8D2D5B
:102530006B01692F782F0C151D055CF09D818E8134
:102540007E836D83692F782F902F812F8601C92E6E
:10255000D82E1601201A310A2B012D813E81421AF4
:10256000530A57FE03C0519441945108710137FE3C
:1025700003C03FEFE31AF30AF594E7948D819E813F
:10258000861797075CF5A1E0B0E0BA83A983C0166F
:10259000D1064CF1D301ED91FC910484F585E02D39
:1025A0002B813C81A8016D817E818A149B041CF0E3
:1025B0004D815E81B801C3011995E418F508F7FE55
:1025C0000AC02D813E8189819A81280F391F3E835F
:1025D0002D83E20CF31C0F5F1F4FD9CF2FEF3FEF7E
:1025E0003A832983D4CF26960FB6F894DEBF0FBE68
:1025F000CDBFDF91CF911F910F91FF90EF90DF90B2
:10260000CF90BF90AF909F908F907F906F905F9092
:102610004F903F902F900895089520911203260F18
:102620003327331F21323105ECF420913603FC01AE
:1026300090E080E0243069F082E00895A0911203D8
:102640002191AC014E505D4FA40FB52FB11D2C93BD
:102650000196861798F380911203680F6093120316
:1026600080E0089581E008951092360381E0809320
:1026700038031092370361E084E10E940F0761E0A4
:1026800085E10E940F07E9EBF0E080818E7F808377
:1026900080818D7F808388E48093B80085E4809377
:1026A000BC000895CF93DF9391E09093F1028823CB
:1026B000B9F0C091B800D091BA008091BC008A7B7B
:1026C0008093BC0060E084E10E940F0760E085E138
:1026D0000E940F070E943413D093BA00C093B80031
:1026E000DF91CF910895E091690380916803E81725
:1026F00030F4F0E0E453FD4F808190E008958FEFD7
:102700009FEF089590916903809168032FEF3FEF49
:10271000981748F4E92FF0E0E453FD4F208130E0B2
:102720009F5F90936903C901089580916803909118
:102730006903891B990B0895CF92DF92EF92FF9264
:102740000F931F93CF93DF937C01CB018A012091DC
:102750007603222389F0EB016B01C40ED51ECC1544
:10276000DD0569F06991D701ED91FC910190F0814F
:10277000E02DC7011995F3CF642F0E940D13C801F6
:10278000DF91CF911F910F91FF90EF90DF90CF904D
:102790000895CF93DF931F92CDB7DEB76983209161
:1027A00076032223F9F020917303203258F021E0C0
:1027B00030E0FC013383228390E080E00F90DF91D2
:1027C000CF91089580917403E82FF0E0E455FD4F18
:1027D000998190838F5F809374038093730381E06A
:1027E00090E0ECCF61E0CE0101960E940D13F7CF8F
:1027F000CF92DF92EF92FF920F931F93CF93DF93CD
:10280000D091730381E0D13208F09CC0C091750370
:102810000E94D7076B017C018091360381116CC047
:1028200082E08093360381E0809338038FEF8093BA
:10283000350310925A03D0935903ACEAB2E0E9E3AE
:10284000F3E080E0D8138DC010925B0380915B03AE
:10285000CC0FC82BC0935B0380913703813009F004
:1028600084C0109237030E94D7076B017C018091CE
:102870005B038093BB008091ED029091EE02A091EA
:10288000EF02B091F002892B8A2B8B2BA1F00E94D2
:10289000D7070091ED021091EE022091EF023091E6
:1028A000F0026C197D098E099F0906171707280782
:1028B000390708F442C08091BC0083FDD8CF85EC75
:1028C0008093BC000E94D7076B017C018091360386
:1028D000823009F44CC0809135038F3F09F469C000
:1028E00080913503803209F466C0809135038033CE
:1028F00009F463C084E026C08091ED029091EE025D
:10290000A091EF02B091F002892B8A2B8B2B09F456
:1029100083CF0E94D7070091ED021091EE02209123
:10292000EF023091F0026C197D098E099F0906179C
:1029300017072807390708F06FCF8091EC020E9433
:10294000521385E010927403109273031092760371
:10295000DF91CF911F910F91FF90EF90DF90CF907B
:1029600008959D9191938F5F6DCF85EEA9CF809152
:10297000ED029091EE02A091EF02B091F002892B4E
:102980008A2B8B2B09F4A2CF0E94D7070091ED026E
:102990001091EE022091EF023091F0026C197D0946
:1029A0008E099F09061717072807390708F08ECFE9
:1029B000C4CF80E0C7CF82E0C5CF83E0C3CFEF9222
:1029C000FF920F931F93CF93DF937C01C62F8091CB
:1029D000FD059091FE05009709F459C0209101066C
:1029E00031E03093760320937503109274031092B4
:1029F0007303DC01ED91FC910190F081E02D60E02A
:102A000019958701EE24E394F12CD1E0C150809117
:102A1000FD059091FE05CF3F91F1B0E2EB16F10478
:102A2000D8F00E94F8138091FD059091FE05209149
:102A30000106D093760320937503109274031092CD
:102A40007303DC01ED91FC910190F081E02D60E0D9
:102A50001995EE24E394F12C8091FD059091FE05EB
:102A6000F8016491DC01ED91FC910190F081E02D81
:102A70001995BFEFEB1AFB0A0F5F1F4FC7CFDF910E
:102A8000CF911F910F91FF90EF900C94F813E0916C
:102A90000D06F0910E069081809113068095892392
:102AA00080838701C15008F438C0F80184912091D7
:102AB000FB053091FC05232B29F00E940E0D0F5FC2
:102AC0001F4FF0CF28E030E040E8E0910906F09198
:102AD0000A0690911106582F5423D9F05081952B56
:102AE0009083E0910B06F0910C06908150911206B4
:102AF000952B9083E0910B06F0910C0650819091FC
:102B00001206909595239083469521503109E9F658
:102B1000D6CF508190959523E3CFDF91CF911F9130
:102B20000F91FF90EF9008951F93CF93DF93EC01E7
:102B30008D8D9E8D009721F1162F29A131E03093C4
:102B40007603209375031092740310927303DC01D3
:102B5000ED91FC910190F081E02D60E019958D8D53
:102B60009E8DDC01ED91FC910190F081E02D612FB3
:102B700019958D8D9E8DDF91CF911F910C94F81337
:102B8000ADA5BEA59C918BA9809589238C938B8D37
:102B90009C8D892B31F0862FDF91CF911F910C9462
:102BA0000E0D28E030E080E8A9A5BAA599A9462F26
:102BB0004823C1F04C91942B9C93ABA5BCA59C9150
:102BC0004AA9942B9C93ABA5BCA54C919AA990952E
:102BD00094239C9386952150310931F7DF91CF9151
:102BE0001F9108954C9190959423E6CF1F93CF9316
:102BF000DF93EC01162F8D8D9E8D892BB1F12DA9C0
:102C00003EA94FA958AD60E074E284EF90E00E94C5
:102C10005626205131094109510956954795379556
:102C200027952093B80066EA111167EACE010E9449
:102C300094158D8D9E8D892B41F129AD3AAD4BAD0B
:102C40005CAD60E074E284EF90E00E945626205173
:102C50003109410951095695479537952795209394
:102C6000B800DF91CF911F9108958B8D9C8D892B9A
:102C700021F08EAD9FAD0E94150DEFA5F8A99081B2
:102C80008CA9809589238083CECFEFA5F8A9808178
:102C90009CA9892B8083E5CF90E080E00895813066
:102CA000910581F41092800082E08093810010925F
:102CB000850010928400B19A80916F0082608093A9
:102CC0006F0008958230910569F41092900082E0BF
:102CD00080939100109295001092940088BB80938D
:102CE000710008958330910569F41092A00082E08C
:102CF0008093A1001092A5001092A40089BB80933C
:102D000072000895892B61F41092200182E0809373
:102D1000210110922501109224018ABB8093730037
:102D20000895AF92BF92CF92DF92EF92FF920F93EE
:102D30001F93CF93DF936B017A01EC01C855DD4FF0
:102D400028813CE0389F8001399F100D1124A0900C
:102D50004105B12C27FF1FC0FB0111821082888121
:102D60008F5F888388819801280F311D87FD3A95F0
:102D7000F6012A153B051CF488818C30C4F1808152
:102D80009181049680349C4908F473C0F6018081D7
:102D90009181049670C088819801280F311D87FDAC
:102DA0003A952A153B05DCF68881A801480F511D8C
:102DB00087FD5A95FA01EE0FFF1FE40FF51FEF5440
:102DC000FB4F808186FFCBCF8881F801E80FF11D92
:102DD00087FDFA95CF01EE0FFF1FE80FF91FEF54A3
:102DE000FB4F808160E08F730E940F07B8CF808116
:102DF00091812881A801420F511D27FD5A959A0102
:102E0000FA01EE0FFF1FE20FF31FEF54FB4F21817A
:102E10003281820F931FF70191838083888198010B
:102E2000280F311D87FD3A95F901EE0FFF1FE20FC4
:102E3000F31FEF54FB4F808186FF22C08881080F6B
:102E4000111D87FD1A95F801EE0FFF1FE00FF11F0E
:102E5000EF54FB4F808161E08F73DF91CF911F9121
:102E60000F91FF90EF90DF90CF90BF90AF900C94B8
:102E70000F0780E49CE9F701918380838FEF8883BB
:102E8000DF91CF911F910F91FF90EF90DF90CF9046
:102E9000BF90AF90089561E0FC0180810C949B0786
:102EA00042E050E068E972E084E194E00C94450867
:102EB0002091E6053091E705C901079697FD079631
:102EC00023E0959587952A95E1F72091E4053091C7
:102ED000E505829FA001839F500D929F500D112404
:102EE00070E060E08091FF05909100060C94D3287B
:102EF0000E94C5280F931F93CF93DF93EC01888125
:102F00009981009759F02A813B812617370730F0C5
:102F100081E0DF91CF911F910F9108958B016F5F39
:102F20007F4F0E94E427009759F0998388831B8381
:102F30000A832C813D81232B59F7FC011082E8CFB5
:102F400080E0E7CF85ED8093BC008091ED02909109
:102F5000EE02A091EF02B091F0020796A11DB11D03
:102F600023E0B695A795979587952A95D1F7209157
:102F7000BC0024FD03C01092360308954091ED0279
:102F80005091EE026091EF027091F002452B462BBA
:102F9000472B69F30097A105B10541F02AE22A9574
:102FA000F1F700C00197A109B109E1CF8091EC02CE
:102FB0000C9452131F920F920FB60F9211242F935D
:102FC0003F938F939F93AF93BF9380916B039091A7
:102FD0006C03A0916D03B0916E0330916A0323E0FE
:102FE000230F2D3758F50196A11DB11D20936A03BB
:102FF00080936B0390936C03A0936D03B0936E0367
:1030000080916F0390917003A0917103B09172034E
:103010000196A11DB11D80936F0390937003A0933F
:103020007103B0937203BF91AF919F918F913F91C4
:103030002F910F900FBE0F901F90189526E8230F29
:103040000296A11DB11DD2CF1F920F920FB60F9203
:1030500011240BB60F922F933F934F935F936F936F
:103060007F938F939F93AF93BF93EF93FF93E091E1
:103070001802F09119021995FF91EF91BF91AF914C
:103080009F918F917F916F915F914F913F912F9180
:103090000F900BBE0F900FBE0F901F9018951F92B0
:1030A0000F920FB60F9211240BB60F922F933F93EE
:1030B0004F935F936F937F938F939F93AF93BF9340
:1030C000EF93FF93E0911602F09117021995FF918B
:1030D000EF91BF91AF919F918F917F916F915F9190
:1030E0004F913F912F910F900BBE0F900FBE0F90FD
:1030F0001F9018951F920F920FB60F9211240BB6C6
:103100000F922F933F934F935F936F937F938F9380
:103110009F93AF93BF93EF93FF93E0910C02F091D5
:103120000D021995FF91EF91BF91AF919F918F91F2
:103130007F916F915F914F913F912F910F900BBEB7
:103140000F900FBE0F901F9018951F920F920FB601
:103150000F9211240BB60F922F933F934F935F93CF
:103160006F937F938F939F93AF93BF93EF93FF934F
:10317000E0910A02F0910B021995FF91EF91BF9136
:10318000AF919F918F917F916F915F914F913F91FF
:103190002F910F900BBE0F900FBE0F901F901895A0
:1031A0001F920F920FB60F9211240BB60F922F930E
:1031B0003F934F935F936F937F938F939F93AF93BF
:1031C000BF93EF93FF93E0911402F09115021995CC
:1031D000FF91EF91BF91AF919F918F917F916F91EF
:1031E0005F914F913F912F910F900BBE0F900FBEAB
:1031F0000F901F9018951F920F920FB60F921124E7
:103200000BB60F922F933F934F935F936F937F93E0
:103210008F939F93AF93BF93EF93FF93E09112022D
:10322000F09113021995FF91EF91BF91AF919F918A
:103230008F917F916F915F914F913F912F910F905F
:103240000BBE0F900FBE0F901F9018951F920F92FC
:103250000FB60F9211240BB60F922F933F934F93FB
:103260005F936F937F938F939F93AF93BF93EF93EE
:10327000FF93E0911002F09111021995FF91EF91E7
:10328000BF91AF919F918F917F916F915F914F917E
:103290003F912F910F900BBE0F900FBE0F901F907C
:1032A00018951F920F920FB60F9211240BB60F9222
:1032B0002F933F934F935F936F937F938F939F933E
:1032C000AF93BF93EF93FF93E0910E02F0910F0243
:1032D0001995FF91EF91BF91AF919F918F917F9140
:1032E0006F915F914F913F912F910F900BBE0F9077
:1032F0000FBE0F901F9018951F920F920FB60F924E
:1033000011240BB60F922F933F934F935F936F93BC
:103310007F938F939F93AF93BF93EF93FF9387E731
:1033200093E00E94C308FF91EF91BF91AF919F91ED
:103330008F917F916F915F914F913F912F910F905E
:103340000BBE0F900FBE0F901F9018951F920F92FB
:103350000FB60F9211240BB60F922F938F939F935A
:10336000EF93FF93E0918703F09188038081E091D0
:103370008D03F0918E0382FD1DC09081809190039A
:103380008F5F8F7320919103821741F0E09190033A
:10339000F0E0E958FC4F958F80939003FF91EF91F7
:1033A0009F918F912F910F900BBE0F900FBE0F909A
:1033B0001F9018958081F2CF1F920F920FB60F9237
:1033C00011240BB60F922F933F934F935F936F93FC
:1033D0007F938F939F93AF93BF93EF93FF9384E17A
:1033E00094E00E94C308FF91EF91BF91AF919F912C
:1033F0008F917F916F915F914F913F912F910F909E
:103400000BBE0F900FBE0F901F9018951F920F923A
:103410000FB60F9211240BB60F922F938F939F9399
:10342000EF93FF93E0912404F09125048081E091D3
:103430002A04F0912B0482FD1DC0908180912D04FF
:103440008F5F8F7320912E04821741F0E0912D043D
:10345000F0E0EC5EFB4F958F80932D04FF91EF9190
:103460009F918F912F910F900BBE0F900FBE0F90D9
:103470001F9018958081F2CF1F920F920FB60F9276
:1034800011240BB60F924F925F926F927F928F92A0
:103490009F92AF92BF92CF92DF92EF92FF920F93E3
:1034A0001F932F933F934F935F936F937F938F93CC
:1034B0009F93AF93BF93CF93DF93EF93FF93C0910D
:1034C0005F03D0916003CE010197909360038093D6
:1034D0005F03209749F51092700078948091B100B5
:1034E000887F83608093B1008AEF8093B30010924D
:1034F000B40081E08093090280916103909162039E
:10350000892B91F07090080280915D03882379F1F6
:1035100060915C03662359F170E040E088EE93E02F
:103520000E94C70910925C03FF91EF91DF91CF9148
:10353000BF91AF919F918F917F916F915F914F91CB
:103540003F912F911F910F91FF90EF90DF90CF90BF
:10355000BF90AF909F908F907F906F905F904F90B3
:103560000F900BBE0F900FBE0F901F901895552413
:103570005394F0ECAF2EFDE5BF2EAAE04A2EB4E046
:103580006B2E10EDC12E17E0D12E04E0E02EF12CB1
:1035900004EF11E08FE0882E912C0E947F0920918A
:1035A0006103309162032F5F3F4F3093620320939A
:1035B0006103853609F46FC00CF043C0813609F40D
:1035C000B1C004F58C3309F464C08E3309F45FC0D4
:1035D000813209F03FC060920802D0920502C09289
:1035E0000402F0920702E092060210930302009395
:1035F0000202909201028092000210925D03E4E0C8
:103600007E2ECBCF833609F490C010E00BE08436D9
:1036100014F010E002E05CE0759E000D11240E94A1
:103620007F09982F977F933209F081C080916103C1
:1036300090916203019690936203809361030F5F00
:10364000EECF8D3609F442C054F4873651F134F18F
:103650008C3651F1109262031092610365CF82376C
:1036600009F449C044F48F36A9F70E949F09782EC7
:103670008093080292CF843709F440C0863751F70F
:103680000E949F09909301028093000286CF739459
:1036900084CF7A9482CF10E004E0BDCF10E005E043
:1036A000BACF10E007E0B7CF0E949F09BC0190930A
:1036B00007028093060280910402909105020E9405
:1036C000A326709303026093020267CF0E947F09D2
:1036D0008C3661F410925D038091610390916203D6
:1036E0000196909362038093610357CF50925D03DC
:1036F00010925C03F1CF11E000E08DCF0E949F0992
:10370000BC01C5010E94A326469EC001479E900DA4
:103710001124909305028093040260910602709137
:103720000702CDCF10E009E076CF10E0E5CF8D3273
:1037300069F4809161039091620301969093620312
:103740008093610301500E947F09F1CF8153E09083
:103750000202F0900302883058F4E0900402F090E6
:1037600005020E949F09BC01C7010E94A3267B019C
:103770006701D694C7940E947F098E3261F48091CC
:1037800061039091620301969093620380936103B9
:10379000EC0CFD1CEECF80915D03882339F0C7014E
:1037A0009695879580935C03E81AF1084091000292
:1037B000111104C00F3F11F0411107C040E0B701E3
:1037C00088EE93E00E94C709AFCE013128F010EFD8
:1037D000100F103608F01FE5812F6CE00E9497262D
:1037E000682F54EF560390011124210F311D2C3006
:1037F000310538F4220F331FF901E05EFD4FC0811F
:10380000D1818730B9F0082E02C0CC0FDD1F0A9499
:10381000E2F7823040F0CE0105966AE070E00E9447
:10382000A326CB0102C0CE019058403108F04FE0F2
:10383000B701C8CFCE0126E0880F991F2A95E1F77E
:10384000029665E070E0EBCF1F920F920FB60F92D9
:1038500011240BB60F922F933F934F935F936F9367
:103860007F938F939F93AF93BF93EF93FF93809139
:10387000B900887F803609F44DC008F040C0883216
:1038800009F4A9C028F5803109F49DC0C8F4882343
:1038900009F4FBC0883009F496C0FF91EF91BF9105
:1038A000AF919F918F917F916F915F914F913F91D8
:1038B0002F910F900BBE0F900FBE0F901F90189579
:1038C000883109F488C0803241F78093350314C0F1
:1038D000803409F49DC040F48033B9F38833E9F6AD
:1038E0008093350385ECB0C0803509F485C08835F8
:1038F00009F496C0883489F60E94A217CECF883981
:1039000009F48CC038F5883729F050F4883611F066
:10391000803719F683E0809336031092340357C042
:10392000883809F47BC0803919F0803809F0B5CFA8
:1039300080913403803208F071C0E091340381E05B
:103940008E0F809334038091BB00F0E0EC5EFC4F5F
:1039500080833DC0803B39F0E0F4803A09F479C0BF
:10396000883A09F09ACF84E08093360310921303CB
:1039700010921203E0916603F0916703199580910C
:10398000120381110FC081E0809312031092F202A2
:1039900009C0803C09F4A6CF883C09F4A3CF883B3A
:1039A00009F07BCFE091130381E08E0F8093130326
:1039B000F0E0EE50FD4F80818093BB0090911303A7
:1039C0008091120329C080915B038093BB0085EC3A
:1039D0008093BC0062CF90915A038091590398174D
:1039E00058F5E0915A0381E08E0F80935A03F0E07E
:1039F000E75CFC4F8081E9CFE0915A0381E08E0FB4
:103A000080935A038091BB00F0E0E75CFC4F808319
:103A100090915A03809159039817C8F285E8D8CF3E
:103A2000E0915A0381E08E0F80935A038091BB008E
:103A3000F0E0E75CFC4F80838091380381115CCF1C
:103A400081E08093370384EA8093BC0010923603B0
:103A500024CF85EC8093BC00109236038091340310
:103A6000803230F4E0913403F0E0EC5EFC4F1082E1
:103A70006091340370E0E0916403F091650384E1A8
:103A800093E019951092340308CF1092350334CF88
:103A90001F920F920FB60F9211240BB60F922F9315
:103AA0003F934F935F936F937F938F939F93AF93C6
:103AB000BF93EF93FF9348E251E064E271E090E03E
:103AC00080E00E949116FF91EF91BF91AF919F917D
:103AD0008F917F916F915F914F913F912F910F90B7
:103AE0000BBE0F900FBE0F901F9018951F920F9254
:103AF0000FB60F9211240BB60F922F933F934F9353
:103B00005F936F937F938F939F93AF93BF93EF9345
:103B1000FF9348EA50E064EA70E083E090E00E949E
:103B20009116FF91EF91BF91AF919F918F917F91EE
:103B30006F915F914F913F912F910F900BBE0F901E
:103B40000FBE0F901F9018951F920F920FB60F92F5
:103B500011240BB60F922F933F934F935F936F9364
:103B60007F938F939F93AF93BF93EF93FF9348E916
:103B700050E064E970E082E090E00E949116FF91CD
:103B8000EF91BF91AF919F918F917F916F915F91D5
:103B90004F913F912F910F900BBE0F900FBE0F9042
:103BA0001F9018951F920F920FB60F9211240BB60B
:103BB0000F922F933F934F935F936F937F938F93C6
:103BC0009F93AF93BF93EF93FF9348E850E064E86F
:103BD00070E081E090E00E949116FF91EF91BF911B
:103BE000AF919F918F917F916F915F914F913F9195
:103BF0002F910F900BBE0F900FBE0F901F90189536
:103C000010927A031092790388EE93E0A0E0B0E07E
:103C100080937B0390937C03A0937D03B0937E03FA
:103C20002CE432E0309378032093770345E351E0AE
:103C3000509384034093830344E351E050938603FD
:103C40004093850340E351E05093880340938703FA
:103C500041E351E050938A034093890342E351E0EA
:103C600050938C0340938B0346E351E050938E03B3
:103C700040938D031092900310929103109292033F
:103C80001092930310921704109216048093180454
:103C900090931904A0931A04B0931B043093150455
:103CA0002093140425EC30E0309321042093200469
:103CB00024EC30E0309323042093220420EC30E005
:103CC000309325042093240421EC30E03093270422
:103CD0002093260422EC30E030932904209328041A
:103CE00026EC30E030932B0420932A0410922D040C
:103CF00010922E0410922F04109230041092D705C7
:103D00001092D6058093D8059093D905A093DA0533
:103D1000B093DB058EE592E09093D5058093D405B2
:103D20001092E3051092E20520E830E03093E505BB
:103D30002093E40580E290E09093E7058093E60508
:103D40003093E9052093E8059093EB058093EA050D
:103D50001092F6051092ED051092EC051092EF0509
:103D60001092EE0581E08093F5058093F4052FEF26
:103D70003FEF3093F3052093F2053093F105209344
:103D8000F0058093F7051092F8051092FA0510924D
:103D9000F90580E792E09093E1058093E0051092A9
:103DA000FC051092FB0584ED95E09093FE05809351
:103DB000FD05109200061092FF059FEF90930406F8
:103DC0009093050690930606909307069093080635
:103DD00040E85AE166E070E04093150650931606FD
:103DE000609317067093180640EA56E861E070E0A9
:103DF0004093190650931A0660931B0670931C0695
:103E000080E580931E0610921F0629E030E0309373
:103E1000CC052093CB052AE030E03093CE052093EB
:103E2000CD052BE030E03093D0052093CF05809175
:103E30004105803308F097C191E0980F90934105B8
:103E40008093D10590E0FC01EE0FFF1FE80FF91FF2
:103E5000EF54FB4F88EB9BE0928381831092CA055D
:103E60001092C9058091D105803308F043C061E00C
:103E70008BE00E949B078091D105282F30E0F9014B
:103E8000EE0FFF1FE20FF31FEF54FB4F9081907C6A
:103E90009B6090831092D2051092D3052CE0622F84
:103EA0000E949726829FB001112430E020E0AB01F0
:103EB000420F531FFA01EE0FFF1FE40FF51FEF54DF
:103EC000FB4F908196FD08C02F5F3F4F2C3031058E
:103ED00071F790E00E944F16E091D1058E2F90E08F
:103EE000FC01EE0FFF1FE80FF91FEF54FB4F80811D
:103EF0008064808361E08091CB050E949B0760E035
:103F00008091CD050E949B0781E38093BE0584E6E6
:103F100090E0A0E0B0E08093BF059093C005A0932F
:103F2000C105B093C2051092C3051092C40510924A
:103F3000C5051092C6051092C7051092C8052FE25C
:103F40002093B3051092B4051092B5051092B605F2
:103F50001092B7051092B8051092B9051092BA05E3
:103F60001092BB051092BC051092BD052DE2209366
:103F7000A8051092A9051092AA051092AB051092FF
:103F8000AC051092AD051092AE051092AF051092DF
:103F9000B0051092B1051092B2052BE220939D0559
:103FA00080939E0590939F05A093A005B093A105D3
:103FB0001092A2051092A3051092A4051092A505D7
:103FC0001092A6051092A70529E22093920510925F
:103FD00093051092940510929505109296051092F3
:103FE0009705109298051092990510929A051092D3
:103FF0009B0510929C0527E2209387051092880567
:104000001092890510928A0510928B0510928C05EA
:1040100010928D0510928E0510928F0510929005CA
:104020001092910525E220937C0580937D05909365
:104030007E05A0937F05B0938005109281051092B4
:1040400082051092830510928405109285051092C6
:10405000860523E220937105109272051092730574
:1040600010927405109275051092760510927705DE
:10407000109278051092790510927A0510927B05BE
:1040800021E2209366051092670510926805109250
:10409000690510926A0510926B0510926C051092DA
:1040A0006D0510926E0510926F05109270052FE14C
:1040B00020935B0580935C0590935D05A0935E055E
:1040C000B0935F0510926005109261051092620531
:1040D0001092630510926405109265058DE180933E
:1040E00050051092510510925205109253051092EE
:1040F00054051092550510925605109257051092CE
:1041000058051092590510925A058BE18093450588
:1041100010924605109247051092480510924905E5
:1041200010924A0510924B0510924C0510924D05C5
:1041300010924E0510924F05809141058033B0F4E6
:1041400091E0980F909341058093420590E0FC0127
:10415000EE0FFF1FE80FF91FEF54FB4F88EB9BE0BA
:104160009283818308959093D10578CE8FEF8093C9
:1041700042050895CF93DF9300D000D01F921F9285
:10418000CDB7DEB7789484B5826084BD84B5816094
:1041900084BD85B5826085BD85B5816085BD809112
:1041A0006E00816080936E0010928100809181008A
:1041B0008260809381008091810081608093810082
:1041C000809180008160809380008091B100846044
:1041D0008093B1008091B00081608093B0008091A5
:1041E0009100826080939100809191008160809322
:1041F0009100809190008160809390008091A10057
:1042000082608093A1008091A10081608093A100D1
:104210008091A00081608093A00080912101826044
:1042200080932101809121018160809321018091FF
:10423000200181608093200180917A0084608093C6
:104240007A0080917A00826080937A0080917A006F
:10425000816080937A0080917A00806880937A00F0
:104260001092C1008091FF0590910006892B11F1F9
:104270000E9458172091E6053091E7058091E405EA
:104280009091E505213231050CF0E6C0B90160528C
:10429000710977FF02C06F5F7F4F759567958357F0
:1042A000910997FD019600E210E023E730E04EED22
:1042B00056E0E5C02091E6053091E705C901079673
:1042C00097FD0796B3E095958795BA95E1F720910C
:1042D000E4053091E505AC01429FC001439F900D7C
:1042E000529F900D11240E94BF2690930006809348
:1042F000FF05892B09F0BCCF0E9458178091FD055E
:104300009091FE05892B09F4ACC2209115063091DD
:104310001606409117065091180660E074E284EF8B
:1043200090E00E94562620513109410951095695C5
:104330004795379527952093B80064E08EE79BE07A
:104340000E94DF148091E4059091E5058034910589
:1043500009F09EC260E280EE95E00E9494156091A3
:10436000E405615E80EE95E00E9494152091E605DB
:104370003091E705C901079697FD079623E09595CB
:1043800087952A95E1F72091E4053091E505829F14
:104390007001839FF00C929FF00C11240091FF0597
:1043A000109100068091FD059091FE05E00EF11E32
:1043B000009709F4B0C32091010631E030937603F1
:1043C000209375031092740310927303DC01ED9136
:1043D000FC910190F081E02D60E41995CC24C39408
:1043E000D12CBB24B3948091FD059091FE05E0167D
:1043F000F10609F456C2B0E2CB16D104D8F00E94FF
:10440000F8138091FD059091FE0520910106B09270
:104410007603209375031092740310927303DC01EA
:10442000ED91FC910190F081E02D60E41995CC2490
:10443000C394D12C8091FD059091FE05F801619106
:104440008F01DC01ED91FC910190F081E02D199537
:10445000BFEFCB1ADB0AC7CFB9016054710977FFF0
:1044600002C06F5F7F4F759567958255910997FDE3
:10447000019600E410E022E530E04EEB58E095951F
:1044800087950E94FF1182E0809302068091FD05CE
:104490009091FE05892B09F4DFC08CE3809301061F
:1044A00010926903109268031092740310927303C0
:1044B0000E94341382E498E090936703809366032C
:1044C00083E498E0909365038093640380910806E9
:1044D00087FD1EC061E00E949B0761E08091080695
:1044E0000E940F0761E070E080E090E00E94FC070E
:1044F00060E0809108060E940F076AE070E080E0AB
:1045000090E00E94FC0761E0809108060E940F077E
:104510008091FD059091FE05892B09F45CC12091E5
:10452000150630911606409117065091180660E066
:1045300074E284EF90E00E9456262051310941092F
:10454000510956954795379527952093B80064E013
:104550008AED96E00E94DF146091E605615080EEDE
:1045600095E00E94941564E086ED96E00E94DF14C9
:104570008091020660E1813009F064E180EE95E00F
:104580000E94941564E082ED96E00E94DF148FE8AB
:1045900080931D068091E4059091E5058038910592
:1045A00009F030C18091E6059091E70580349105CE
:1045B00009F038C180910206813009F046C18FE9C7
:1045C00080931D0612E16AED80EE95E00E9494153D
:1045D000612F80EE95E00E94941561E880EE95E0F1
:1045E0000E94941560911D0680EE95E00E9494153E
:1045F00069ED80EE95E00E9494158091020662E2DA
:10460000813009F061EF80EE95E00E94941566E03C
:104610008CEC96E00E94DF148091FD059091FE05E0
:10462000892B09F414C12091190630911A06409182
:104630001B0650911C0660E074E284EF90E00E943B
:10464000562620513109410951095695479537950C
:1046500027952093B80050CE61E0809106060E9415
:104660009B0761E0809107060E949B0780910606E8
:10467000082E000C990BFC01EA54F44FE491F0E091
:10468000EE0FFF1FE456F44F2591349130930E0640
:1046900020930D06FC01E450F44FE491E0931306DF
:1046A00080910706082E000C990BFC01EA54F44F88
:1046B000E491F0E0EE0FFF1FE456F44FA591B491A2
:1046C000B0931006A0930F06FC01E450F44FE49160
:1046D000E09314068C91E82BEC938091FB0590916C
:1046E000FC05892B09F434C01FB7F894809163034B
:1046F000811127C0EBEEFBE08491E1E3FCE09491B3
:10470000E82FF0E0EE0FFF1FEE57F44FA591B491A4
:10471000EC91E92321F461E085E30E940F0761E059
:1047200085E30E949B078CB580618CBD8CB580644D
:104730008CBD61E084E30E949B0761E083E30E94FB
:104740009B07809163038F5F809363031FBFBECE7F
:1047500061E0809104060E949B0761E0809105065C
:104760000E949B0780910406082E000C990BFC0107
:10477000EA54F44FE491F0E0EE0FFF1FE456F44FDB
:104780002591349130930A0620930906FC01E450E8
:10479000F44FE491E093110680910506082E000C79
:1047A000990BFC01EA54F44FE491F0E0EE0FFF1F87
:1047B000E456F44FA591B491B0930C06A0930B0668
:1047C000FC01E450F44FE491E09312068C91E095E3
:1047D000E823EC937BCE8091FB059091FC05892B1F
:1047E00031F080911E0690911F060E94150DE091F8
:1047F0000F06F09110069081809114068095892310
:104800008083A5CE8036910589F48091E60590914C
:10481000E705409739F480910206813029F480E160
:1048200080931D0612E0CFCE8FEAFACF8034910537
:10483000C9F78091E6059091E705809799F78091F7
:104840000206813011F480E1BBCE8FECB9CEE0914D
:104850000F06F0911006808190911406892B8083B9
:104860004BCD8091FB059091FC05892B31F0809117
:104870001E0690911F060E94150DE0910F06F09103
:10488000100690818091140680958923808355CDF0
:1048900060E080EE95E00E9494156091E40561501F
:1048A00061CD0E94F8138091FD059091FE05892B42
:1048B00009F475C12091190630911A0640911B0622
:1048C00050911C0660E074E284EF90E00E9456264E
:1048D000205131094109510956954795379527953A
:1048E0002093B80061E084E00E949B0761E085E0CE
:1048F0000E949B0761E080E20E949B0761E082E2E8
:104900000E949B0761E08EE10E949B0761E084E2C8
:104910000E949B0760E088E00E949B0760E087E0C0
:104920000E949B0760E086E00E949B078DE995E06E
:104930000E944B178EEB95E00E944B178CE795E099
:104940000E944B178BE595E00E944B1783EB95E097
:104950000E944B1788EA95E00E944B1782E995E088
:104960000E944B1783EB95E00E944B1786E695E07B
:104970000E944B1785E495E00E944B1781E795E074
:104980000E944B1780E595E00E944B1762E082E0A1
:104990000E949B0762E082E10E949B078EE298E002
:1049A00090930B0280930A0280916A008C7F826050
:1049B00080936A00EC9A88E398E0909315028093C4
:1049C0001402809169008F73806880936900EB9A6C
:1049D00084E194E00E94790648E050E06BE972E0DF
:1049E00084E194E00E9445080E94501787E793E015
:1049F0000E94790680914205803308F043C061E04F
:104A00008BE00E949B0780914205282F30E0F9013E
:104A1000EE0FFF1FE20FF31FEF54FB4F9081907CCE
:104A20009B60908310924305109244052CE0622F06
:104A30000E94972690E0829FB001112430E020E090
:104A4000AB01420F531FFA01EE0FFF1FE40FF51FDA
:104A5000EF54FB4F408146FD07C02F5F3F4F2C3086
:104A6000310571F70E944F16E09142058E2F90E0BC
:104A7000FC01EE0FFF1FE80FF91FEF54FB4F808181
:104A80008064808387E793E00E94A308892B09F460
:104A9000A8C01A8219821C821B821E821D8270E0AD
:104AA00060E0CE0101960E947A1729813A81811136
:104AB00080C02115310519F0C9010E945B271A82B7
:104AC00019821E821D821C821B8287E793E00E944E
:104AD000A308892B09F475C087E793E00E94810839
:104AE0008F8318860D811E810F5F1F4FB801CE0185
:104AF00001960E947A17882341F329813A818D819A
:104B00009E81BE01695F7F4F820F931F0E94DA284A
:104B10001E830D83DACFE0910D06F0910E068081A1
:104B200090911306892B8083E016F10609F4BBCE21
:104B3000F80181918F012091FB053091FC05232B19
:104B400019F00E940E0DF0CF28E030E040E8E0912F
:104B50000906F0910A0690911106582F5423D9F0B6
:104B60005081952B9083E0910B06F0910C0690817B
:104B700050911206952B9083E0910B06F0910C0654
:104B800050819091120690959523908346952150DF
:104B90003109E9F6C9CF508190959523E3CFE09193
:104BA0000F06F0911006808190911406892B808366
:104BB00099CE1E821D826AE972E0C9010E94DA283C
:104BC00084CF4D815E8169817A8184E194E00E9485
:104BD00045080E94501789819A81009711F00E9420
:104BE0005B2710E000E0C8010E94A10664E170E0CC
:104BF00080E090E00E94FC070B5F1F4F093B11050E
:104C000091F704EB10E0C8010E94A10664E170E096
:104C100080E090E00E94FC07055011090B3FFFEF78
:104C20001F0789F70E9452092DCF80E792E09093E9
:104C3000E1058093E0058091FF05909100060097C3
:104C400011F00C945B270895052E97FB1EF4009439
:104C50000E943B2657FD07D00E94562607FC03D032
:104C60004EF40C943B2650954095309521953F4F3E
:104C70004F4F5F4F089590958095709561957F4F48
:104C80008F4F9F4F08950E947826A59F900DB49F47
:104C9000900DA49F800D911D11240895B7FF0C94D1
:104CA00043260E944326821B930B0895A1E21A2EED
:104CB000AA1BBB1BFD010DC0AA1FBB1FEE1FFF1FC0
:104CC000A217B307E407F50720F0A21BB30BE40B10
:104CD000F50B661F771F881F991F1A9469F7609557
:104CE0007095809590959B01AC01BD01CF01089511
:104CF000A29FB001B39FC001A39F700D811D11241D
:104D0000911DB29F700D811D1124911D0895DB012D
:104D10008F939F930E944326BF91AF91A29F800DD6
:104D2000911DA39F900DB29F900D11240895991B82
:104D300079E004C0991F961708F0961B881F7A9592
:104D4000C9F780950895AA1BBB1B51E107C0AA1F94
:104D5000BB1FA617B70710F0A61BB70B881F991F1C
:104D60005A95A9F780959095BC01CD010895EE0F55
:104D7000FF1F881F8BBF0790F691E02D19940F93AA
:104D80001F93CF93DF938230910510F482E090E07F
:104D9000E0912206F091230630E020E0B0E0A0E0B0
:104DA000309799F42115310509F44AC0281B390BB5
:104DB00024303105D8F58A819B816115710589F10F
:104DC000FB0193838283FE0111C0408151810281E6
:104DD000138148175907E0F04817590799F41097BD
:104DE00061F012960C93129713961C933296CF0192
:104DF000DF91CF911F910F91089500932206109398
:104E00002306F4CF2115310551F04217530738F02E
:104E1000A901DB019A01BD01DF01F801C1CFEF015A
:104E2000F9CF9093230680932206CDCFFE01E20FA7
:104E3000F31F819391932250310939832883D7CF6F
:104E40002091200630912106232B41F420911C0251
:104E500030911D02309321062093200620911A02E2
:104E600030911B022115310541F42DB73EB7409119
:104E70001E0250911F02241B350BE0912006F09179
:104E80002106E217F307A0F42E1B3F0B2817390762
:104E900078F0AC014E5F5F4F2417350748F04E0F96
:104EA0005F1F5093210640932006819391939FCFDB
:104EB000F0E0E0E09CCFCF93DF930097E9F0FC01B6
:104EC000329713821282A0912206B0912306ED013F
:104ED00030E020E01097A1F420813181820F931FF0
:104EE00020912006309121062817390709F061C06A
:104EF000F0932106E0932006DF91CF910895EA0117
:104F0000CE17DF07E8F54A815B819E014115510507
:104F1000B1F7E901FB83EA8349915991C40FD51F89
:104F2000EC17FD0761F4808191810296840F951F33
:104F3000E90199838883828193819B838A83F0E04E
:104F4000E0E012968D919C9113970097B9F52D9101
:104F50003C911197CD010296820F931F209120065C
:104F6000309121062817390739F6309751F51092FC
:104F7000230610922206B0932106A0932006BCCFF0
:104F8000D383C28340815181840F951FC817D907ED
:104F900061F44E5F5F4F88819981480F591F51839B
:104FA00040838A819B81938382832115310509F097
:104FB000B0CFF0932306E09322069ECFFD01DC01E3
:104FC000C0CF13821282D7CF4F925F926F927F929F
:104FD0008F929F92AF92BF92CF92DF92EF92FF9209
:104FE0000F931F93CF93DF938C01009799F4CB011C
:104FF000DF91CF911F910F91FF90EF90DF90CF90B5
:10500000BF90AF909F908F907F906F905F904F90E8
:105010000C94BF26FC01E60FF71F9C0122503109BA
:10502000E217F30708F4AEC0D901CD91DC911197D6
:10503000C617D70720F1C530D10578F0CE01049707
:105040008617970750F0C61BD70B2297C193D193B1
:105050006D937C93CF010E945B27C801DF91CF91B4
:105060001F910F91FF90EF90DF90CF90BF90AF9086
:105070009F908F907F906F905F904F9008955B010D
:10508000AC1ABD0A4C018C0E9D1EA0912206B09157
:105090002306512C412CF12CE12C109731F58091F5
:1050A0002006909121068815990509F05CC04616E6
:1050B000570608F058C080911A0290911B02009781
:1050C00041F48DB79EB740911E0250911F02841B80
:1050D000950BE817F90708F055C0F0932106E09307
:1050E0002006F90171836083B8CF8D919C9111974F
:1050F00012966C90129713967C901397A815B90589
:1051000059F56C0142E0C40ED11CCA14DB0420F135
:10511000AC014A195B09DA011296159780F0628298
:10512000738251834083D9016D937C93E114F10420
:1051300071F0D7011396FC93EE9312978ECF2296BF
:105140008C0F9D1FF90191838083F301EFCFF093C2
:105150002306E093220681CF4816590608F42C0155
:105160007D01D3019ACFCB010E94BF267C0100971D
:1051700049F0AE01B8010E94CA28C8010E945B270D
:1051800087016BCF10E000E068CF81E090E0F894F9
:105190000C94E128FB01DC0102C001900D9241500A
:1051A0005040D8F70895DC0101C06D934150504044
:1051B000E0F70895FB01DC0101900D920020E1F77A
:1051C000089516E0C5E4D6E000E006C0802FFE0199
:1051D0000E94B7262196011DC634D10780E008073A
:1051E000A9F7F894FFCF0F00F401D00704000401E1
:1051F000440844084408440844084408440844084F
:105200000000240680009C01B501CF01EA010702DD
:105210002602470269028E02B502DE020A0300007E
:105220000100080020004000800000010004000090
:105230000000E508450872083209A30881089508AE
:1052400000000000C9139C134C16A006951382138E
:10525000731300000000530F45084C160C135E0C2E
:10526000A006F811D011EC11E0116012A006190D82
:10527000F615CE0B170C1911FC10841025100D0A11
:0A528000005374617274696E6700D8
:020000040003F7
:10E000000D9489F10D94B2F10D94B2F10D94B2F129
:10E010000D94B2F10D94B2F10D94B2F10D94B2F1F0
:10E020000D94B2F10D94B2F10D94B2F10D94B2F1E0
:10E030000D94B2F10D94B2F10D94B2F10D94B2F1D0
:10E040000D94B2F10D94B2F10D94B2F10D94B2F1C0
:10E050000D94B2F10D94B2F10D94B2F10D94B2F1B0
:10E060000D94B2F10D94B2F10D94B2F10D94B2F1A0
:10E070000D94B2F10D94B2F10D94B2F10D94B2F190
:10E080000D94B2F10D94B2F10D94B2F10D94B2F180
:10E090000D94B2F10D94B2F10D94B2F10D94B2F170
:10E0A0000D94B2F10D94B2F10D94B2F10D94B2F160
:10E0B0000D94B2F10D94B2F10D94B2F10D94B2F150
:10E0C0000D94B2F10D94B2F10D94B2F10D94B2F140
:10E0D0000D94B2F10D94B2F10D94B2F10D94B2F130
:10E0E0000D94B2F141546D656761323536300041AF
:10E0F000726475696E6F206578706C6F72657220DE
:10E1000073746B3530305632206279204D4C530099
:10E11000426F6F746C6F616465723E004875683F52
:10E1200000436F6D70696C6564206F6E203D200048
:10E130004350552054797065202020203D20005FF9
:10E140005F4156525F415243485F5F3D2000415658
:10E1500052204C696243205665723D20004743437C
:10E160002056657273696F6E203D20004350552024
:10E1700049442020202020203D20004C6F7720663D
:10E18000757365202020203D20004869676820665F
:10E190007573652020203D200045787420667573D6
:10E1A00065202020203D20004C6F636B2066757336
:10E1B000652020203D20004D617220203720323024
:10E1C000313300312E362E3800342E332E350056A2
:10E1D00023202020414444522020206F7020636F70
:10E1E00064652020202020696E73747275637469E1
:10E1F0006F6E2061646472202020496E74657272B3
:10E20000757074006E6F20766563746F7200726A49
:10E210006D702020006A6D70200057686174207056
:10E220006F72743A00506F7274206E6F7420737541
:10E2300070706F72746564004D7573742062652030
:10E2400061206C6574746572002000577269747483
:10E25000696E672045450052656164696E672045B7
:10E26000450045452065727220636E743D00504F35
:10E27000525400303D5A65726F2061646472003FF1
:10E280003D43505520737461747300403D454550C3
:10E29000524F4D207465737400423D426C696E6B41
:10E2A000204C454400453D44756D70204545505215
:10E2B0004F4D00463D44756D7020464C415348001B
:10E2C000483D48656C70004C3D4C69737420492F83
:10E2D0004F20506F72747300513D51756974005234
:10E2E0003D44756D702052414D00563D73686F7707
:10E2F00020696E7465727275707420566563746FF0
:10E30000727300593D506F727420626C696E6B00BD
:10E310002A0011241FBECFEFD1E2DEBFCDBF01E046
:10E320000CBF12E0A0E0B2E0EEE1FDEF03E00BBFB6
:10E3300002C007900D92A030B107D9F712E0A0E01B
:10E34000B2E001C01D92AE30B107E1F70F9460F367
:10E350000D948DFE01E20EBF0FEF0DBF11241FBE05
:10E360000D9460F30D9400F020E030E040ED57E0B4
:10E3700005C0FA013197F1F72F5F3F4F2817390792
:10E38000C0F308959C01260F311DC901A0E0B0E043
:10E390002F5F3F4FABBFFC018791882361F08093D3
:10E3A000C6008091C00086FFFCCF8091C0008064D1
:10E3B0008093C000EACF08958DE08093C6008091DD
:10E3C000C00086FFFCCF8091C00080648093C000B5
:10E3D0008AE08093C6008091C00086FFFCCF8091C8
:10E3E000C00080648093C00008950F94C2F10F9420
:10E3F000DCF10895FC019081992359F09093C600B7
:10E400008091C00086FFFCCF8091C0008064809323
:10E41000C0003196992379F70895282F982F929567
:10E420009F70892F805D8A3308F0895F8093C600D2
:10E430008091C00086FFFCCF8091C00080648093F3
:10E44000C000822F8F70982F905D9A3308F0995FEB
:10E450009093C6008091C00086FFFCCF8091C000E1
:10E4600080648093C00008959C01FB01853691056E
:10E470001CF46330710594F0C90164E670E00F94F8
:10E480002EFE605D7F4F6093C6008091C00086FFC6
:10E49000FCCF8091C00080648093C0002B30310598
:10E4A00014F43297B4F0C90164E670E00F942EFEC4
:10E4B0006AE070E00F942EFE605D7F4F6093C600AF
:10E4C0008091C00086FFFCCF8091C0008064809363
:10E4D000C000C9016AE070E00F942EFEC0968093E0
:10E4E000C6008091C00086FFFCCF8091C000806490
:10E4F0008093C00008951F93182F8EE692EE60E07F
:10E500000F94C2F11093C6008091C00086FFFCCF2B
:10E510008091C00080648093C0000F94DCF11F9153
:10E5200008952F923F924F925F926F927F928F92B7
:10E530009F92AF92BF92CF92DF92EF92FF920F9392
:10E540001F93DF93CF93CDB7DEB762970FB6F894E2
:10E55000DEBF0FBECDBF382E622ECA01DB015C01CB
:10E560006D01772420E2222E2E010894411C511CBB
:10E570008BC081E0A81680E0B80681E0C80680E084
:10E58000D80628F0C601AA27BB270F940DF2BB2797
:10E59000AD2D9C2D8B2D0F940DF28A2D0F940DF225
:10E5A0002092C6008091C00086FFFCCF8091C00001
:10E5B00080648093C0009DE29093C6008091C0006B
:10E5C00086FFFCCF8091C00080648093C0002092C1
:10E5D000C6008091C00086FFFCCF8091C00080649F
:10E5E0008093C00019828601750188249924A1E0D6
:10E5F0003A1651F03A1620F0B2E03B1661F409C029
:10E600000BBFF701779007C0C7010F9477FE782EF4
:10E6100002C0F7017080872D0F940DF22092C60082
:10E620008091C00086FFFCCF8091C0008064809301
:10E63000C000872D8052F401EF70F0708F3520F408
:10E64000E40DF51D708204C0E40DF51D8EE280839B
:10E650000894E11CF11C011D111D0894811C911CE2
:10E6600090E18916910409F0C2CF80E190E0A0E02A
:10E67000B0E0A80EB91ECA1EDB1E198AC2010F9493
:10E68000FAF10F94DCF16A94662009F072CF629679
:10E690000FB6F894DEBF0FBECDBFCF91DF911F91B3
:10E6A0000F91FF90EF90DF90CF90BF90AF909F9031
:10E6B0008F907F906F905F904F903F902F90089534
:10E6C0002F923F924F925F926F927F928F929F9282
:10E6D000AF92BF92CF92DF92EF92FF920F931F9370
:10E6E000DF93CF93CDB7DEB7CD53D1400FB6F894BB
:10E6F000DEBF0FBECDBF01E20EBF0FEF0DBF94B75F
:10E70000F894A89514BE80916000886180936000A1
:10E7100010926000789493FF05C0E0910002F091A0
:10E7200001021995279A2F9A8091C00082608093E8
:10E73000C00080E18093C40088E18093C1000000A4
:10E74000EE24FF24870144E0A42EB12CCC24DD2448
:10E7500024C0C5010197F1F70894E11CF11C011DCB
:10E76000111D21E2E2162EE4F20620E0020720E06D
:10E77000120718F031E0C32ED12CC801B70127ECE5
:10E780003BE140E050E00F9441FE611571058105C9
:10E79000910519F485B1805885B98091C00087FD35
:10E7A00003C0C114D104A9F2A6014F5F5F4FC25E3E
:10E7B000DE4F59834883CE51D140C25EDE4F8881FF
:10E7C0009981CE51D140019711F00D9410FEC05D9A
:10E7D000DE4F19821882C053D14060E0C15DDE4F28
:10E7E0001882CF52D14088249924C35DDE4F19820C
:10E7F0001882CD52D140C05EDE4F188219821A8233
:10E800001B82C052D140CE5CDE4F188219821A8220
:10E810001B82C253D140EE24FF2487010BBFF701B6
:10E8200007911691C45CDE4F19830883CC53D14005
:10E830000D940BFEC25EDE4F28813981CE51D1404E
:10E840002130310509F52091C600C25EDE4F1982E4
