:020000040000FA
:100000000C94B4070C9487260C945C260C9431262F
:100010000C9406260C94DB250C94B0250C948525B5
:100020000C945A250C94E5070C94E5070C94E5070D
:100030000C94E5070C94B2260C94E5070C948A28DE
:100040000C94E5070C945C280C94E5070C94E507E8
:100050000C94E5070C94E5070C94E5070C94102527
:100060000C94E5070C949C270C9472270C94E507DC
:100070000C94E5070C94E5070C94E5070C94E50750
:100080000C942E280C94E5070C94E5070C94E507D6
:100090000C94E5070C94E5070C94E5070C94722A80
:1000A0000C94E5070C94E5070C9400280C94E507E4
:1000B0000C94E5070C94E5070C94E5070C94D22703
:1000C0000C94E5070C94E5070C94E5070C94E50700
:1000D0000C94E5070C94E5070C943C270C9412272C
:1000E0000C94E50705A84CCDB2D44EB93836A90218
:1000F0000C50B9918688083CA6AAAA2ABE00000026
:10010000803F0C9489200C940B0A0C9445150C9498
:10011000D3090C94D50B0C944C0A0C94B1210C947B
:10012000B81A0C940F100C94DB080C94380A0C9439
:10013000D7080C94D80A0C94F7080C94150A0C9460
:10014000F1090C94E4200C94CA0B0C94B90C0C9497
:10015000AF100C949D200C94010A0C944B100C943D
:1001600072200C94F3080C9400160C9400210C944B
:10017000F2080C94FA1B0C94091C0C94001A0C94B1
:10018000DF080C94C7080C946B190C945F100C9446
:10019000DD090C94F9090C94C0080C94E9080C943E
:1001A000C9200C94C81A0C941F0A0C94231C0C949C
:1001B000931B0C94B2080C94962B0C94D91F0C949E
:1001C0006D1E0C94ED080C943A180C94560A0C947D
:1001D0003C100C94BC230C946D100C94E3190C94FB
:1001E000D41A0C94BC080C94FE140C94C4080C94FF
:1001F0000C190C94CD080C94390B0C94E5080C9454
:10020000FC100C94FE0A0C94A80A0C941C1C0C9470
:10021000D40B0C94CE090C94D60B0C94E71A0C94C6
:10022000E01A0C94420A0C94B71A0C942E0A0C94FF
:10023000E7090C941B210C94501C0C94D1080C94CD
:10024000AE200C94B8080C94C00B0C94B5140C940C
:10025000600A0C94C60900000000003E5B4F5B3E44
:100260003E6B4F6B3E1C3E7C3E1C183C7E3C181C7B
:10027000577D571C1C5E7F5E1C00183C1800FFE772
:10028000C3E7FF0018241800FFE7DBE7FF30483A18
:10029000060E2629792926407F050507407F05257A
:1002A0003F5A3CE73C5A7F3E1C1C08081C1C3E7F02
:1002B00014227F22145F5F005F5F06097F017F00C9
:1002C0006689956A606060606094A2FFA2940804E9
:1002D0007E040810207E201008082A1C08081C2A0A
:1002E00008081E101010100C1E0C1E0C30383E3862
:1002F00030060E3E0E06000000000000005F000009
:100300000007000700147F147F14242A7F2A122379
:100310001308646236495620500008070300001C89
:100320002241000041221C002A1C7F1C2A08083E92
:1003300008080080703000080808080800006060A5
:100340000020100804023E5149453E00427F400013
:1003500072494949462141494D331814127F1027EB
:10036000454545393C4A494931412111090736493A
:10037000494936464949291E00001400000040340E
:100380000000000814224114141414140041221413
:100390000802015909063E415D594E7C1211127C3A
:1003A0007F494949363E414141227F4141413E7F9B
:1003B000494949417F090909013E414151737F087B
:1003C00008087F00417F41002040413F017F081421
:1003D00022417F404040407F021C027F7F04081082
:1003E0007F3E4141413E7F090909063E4151215E60
:1003F0007F09192946264949493203017F01033FF4
:100400004040403F1F2040201F3F4038403F631482
:1004100008146303047804036159494D43007F4184
:1004200041410204081020004141417F04020102C1
:1004300004404040404000030708002054547840E6
:100440007F284444383844444428384444287F387A
:100450005454541800087E090218A4A49C787F08FC
:1004600004047800447D40002040403D007F102877
:10047000440000417F40007C047804787C08040438
:10048000783844444438FC1824241818242418FCD0
:100490007C08040408485454542404043F44243C75
:1004A0004040207C1C2040201C3C4030403C4428E4
:1004B0001028444C9090907C4464544C440008367E
:1004C00041000000770000004136080002010204EC
:1004D000023C2623263C1EA1A161123A4040207A0C
:1004E0003854545559215555794122545478422154
:1004F0005554784020545579400C1E52721239558B
:100500005555593954545459395554545800004587
:100510007C410002457D420001457C407D12111264
:100520007DF0282528F07C545545002054547C54F7
:100530007C0A097F4932494949323A4444443A32B3
:100540004A4848303A4141217A3A42402078009D59
:10055000A0A07D3D4242423D3D4040403D3C24FF05
:100560002424487E4943662B2FFC2F2BFF0929F6B4
:1005700020C0887E090320545479410000447D4105
:100580003048484A32384040227A007A0A0A727D5E
:100590000D19317D2629292F282629292926304879
:1005A0004D4020380808080808080808382F10C8E7
:1005B000ACBA2F102834FA00007B000008142A146B
:1005C0002222142A14085500550055AA55AA55AAE6
:1005D000FF55FF55FF000000FF00101010FF001432
:1005E0001414FF001010FF00FF1010F010F014148E
:1005F00014FC001414F700FF0000FF00FF1414F4B3
:1006000004FC141417101F10101F101F1414141FB3
:1006100000101010F0000000001F101010101F102C
:10062000101010F010000000FF101010101010102B
:100630001010FF10000000FF140000FF00FF00007A
:100640001F10170000FC04F414141710171414F4EE
:1006500004F40000FF00F714141414141414F70029
:10066000F7141414171410101F101F141414F4147A
:100670001010F010F000001F101F0000001F1400E9
:100680000000FC140000F010F01010FF10FF141414
:1006900014FF141010101F00000000F010FFFFFFE7
:1006A000FFFFF0F0F0F0F0FFFFFF0000000000FFA0
:1006B000FF0F0F0F0F0F3844443844FC4A4A4A34A6
:1006C0007E02020606027E027E02635549416338BD
:1006D00044443C04407E201E2006027E020299A56E
:1006E000E7A5991C2A492A1C4C7201724C304A4DCC
:1006F0004D303048784830BC625A463D3E49494901
:10070000007E0101017E2A2A2A2A2A44445F4444A9
:1007100040514A444040444A51400000FF0103E038
:1007200080FF000008086B6B083612362436060F6F
:10073000090F06000018180000001010003040FFDC
:100740000101001F01011E00191D1712003C3C3C55
:100750003C00000000002200FF21000103070F1FE2
:100760003F7F0080C0E0F0F8FCFEDB40A4A62EAF87
:100770002000A1C8D300408DAED580A80000600045
:1007800000000000000000000000000000E0000089
:10079000000000000000000000000001E000000078
:1007A0000000000000000000000001F00000000058
:1007B00000000000000000000003F0000000000046
:1007C000000000000000000007F000000000000032
:1007D0000000000000000007F8000000000000001A
:1007E0000000000000000FF800000003C0007E00C1
:1007F0000001E0007F0FF800000003C000FE0000D1
:1008000001E000FFEFF800000003C000FE0000015F
:10081000E000FFFFF800000003C000F00000000F40
:10082000007FFE7FC0000003C000F00000000F004A
:100830003FFE7FF83FF1FBCFFCFEF3BC3DEFE01F36
:10084000FE7FFF7FFBFFDFFEFEFFBC3DEFE01FC62C
:10085000FFFF7FFBFFDFFEFEFFBC3DEFE00FE3C7C6
:10086000FE787BC3DE1EF0FFBC3DEF0007FF87FC78
:10087000787BC3DE1EF0F83C3DEF0001FFFFF00087
:100880007BC3C01EF0F03C3DEF0001F37FE03FFB77
:10089000C3CFFEF0F03C3DEF0003E33F807FFBC39E
:1008A000DFFEF0F03C3DEF0007E73C00787BC3DE65
:1008B0001EF0F03C3DEF0007FFBE00787BC3DE1E5C
:1008C000F0F03C3DEF0007FFFE00787BC3DE1EF03A
:1008D000F03C3DEF000FFFFE007FFBFFDFFEF0F07E
:1008E0003FFDEFE00FFFFF007FFBFFDFFEF0F03F7B
:1008F000FDEFE00FF9FF003E79F9CF9EF0F01F3DCC
:10090000E7E01FF1FF000000000000000000000011
:10091000001F80FF007FFFFFFFFFFFFFFFFFFFE0E3
:100920001C007F007FFFFFFFFEB46D888D18E00084
:10093000001F007FFFFFFFFE95AD7DB577E0000053
:100940000F007FFFFFFFFEA5AD9D8D19E0000006A3
:10095000007FFFFFFFFEB5ADEDB57EE000000000BB
:100960000001800000000000000000000380000083
:100970000000000000000007C000000000000000B0
:10098000000007C00000000000000000000FC000D1
:1009900000000000000000001FE000000000000058
:1009A0000000001FE00000000000000000003FE029
:1009B0000000000000000000003FF0000000000008
:1009C000000000007FF0000000000000001FF87F22
:1009D000F0000000000000003FFE7FF0000000007B
:1009E0000000003FFF7FF0000000000000001FFF3C
:1009F000FBE0000000000000000FFFF9FFC0000056
:100A0000000000000FFFF9FFF800000000000007E1
:100A1000FFF1FFFF00000000000003FC73FFFF80F8
:100A2000000000000001FE3FFFFF8000000000000A
:100A300000FF1E0FFF000000000000007FFE1FFCF3
:100A4000000000000000003FFFFFF8000000000071
:100A500000000FDFFFE0000000000000001F19FF92
:100A6000C0000000000000003F3CFF00000000004C
:100A70000000007E7CF800000000000000007FFE07
:100A80007C0000000000000000FFFFFC00000000F0
:100A900000000000FFFFFE0000000000000000FF5B
:100AA000FFFE0000000000000001FFEFFE0000005C
:100AB0000000000001FFCFFE000000000000000366
:100AC000FF07FE0000000000000003FC07FE00001E
:100AD000000000000003F003FE0000000000000022
:100AE000018000FE000000000000000000007E0009
:100AF0000000000000000000003E000000000000B8
:100B0000000000000C000000000000078000FC0056
:100B10000003C0000000078001FC000003C00000CB
:100B200000078001FC000003C0000000078001E016
:100B30000000001E000000078001E00000001E0011
:100B40007FE3F79FF9FDE7787BDFC0FFF7FFBFFD8D
:100B5000FDFF787BDFC0FFF7FFBFFDFDFF787BDF88
:100B6000C0F0F787BC3DE1FF787BDE00F0F787BC83
:100B70003DE1F0787BDE0000F787803DE1E0787BA7
:100B8000DE007FF7879FFDE1E0787BDE00FFF787DF
:100B9000BFFDE1E0787BDE00F0F787BC3DE1E07867
:100BA0007BDE00F0F787BC3DE1E0787BDE00F0F70C
:100BB00087BC3DE1E0787BDE00FFF7FFBFFDE1E0B1
:100BC0007FFBDFC0FFF7FFBFFDE1E07FFBDFC07C05
:100BD000F3F39F3DE1E03E7BCFC00000000000004A
:100BE0000000000000FFFFFFFFFFFFFFFFFFFFC04F
:100BF000FFFFFFFFFD68DB111A31C0FFFFFFFFFDA4
:100C00002B5AFB6AEFC0FFFFFFFFFD4B5B3B1A3324
:100C1000C0FFFFFFFFFD6B5BDB6AFDC00000210032
:100C2000240027002A002D003000330001010000BD
:100C3000040107010A01000020002300260029000A
:100C40002C002F0032000001000003010601090101
:100C500000000A0B02090C0D0E0807030401000036
:100C60000000000000000000000000000000000084
:100C70000000000000000000000000001211100041
:100C80000000000000000000000000000000000064
:100C90000000000000000102102020080810204081
:100CA0001020408002010201080402010102040830
:100CB00010204080804020100804020180040201BE
:100CC0008040201008040201080402010102040807
:100CD0001020408001020408102040800000220003
:100CE000250028002B002E003100340002010000F6
:100CF000050108010B010505050507050808080899
:100D0000020202020A0A08080404040401010101A3
:100D1000010101010303030303030303040707079E
:100D20000C0C0C0C0C0C0C0C020202020606060643
:100D3000060606060B0B0B0B0B0B0B0B0200000F32
:100D4000FFFFF0000000003FFFFFFC00000000FF7D
:100D5000FFFFFF00000001FFF00FFF80000007FC15
:100D600000003FE000000FE0000007F000001F80DF
:100D7000000001F800003E000000007C00007C0044
:100D80000000003E0000F0000000000F0001E00045
:100D9000000000078003C00000000003C0078000BF
:100DA00000000001E007000000000000E00E00006D
:100DB00000000000701C0000000000003838000037
:100DC000000000001C380000000000001C70000043
:100DD000000000000E700000000000000EE00000A7
:100DE0000000000007E000000000000007C0000055
:100DF0000000000003C000000000000003C000006D
:100E000000000000038000000000000001800000DE
:100E100000000000018000000000000001800000D0
:100E200000000000018000000000000001800000C0
:100E3000000000000180000000000000015D0104CE
:100E40000088010400B801080088010400B8010806
:100E500000D2010400B8010400880108005D01040B
:100E60000088010800B8010400060108000601041A
:100E7000000601080006010400060101005D0104EE
:100E80000088010400B801080088010400B80108C6
:100E900000D2010400B8010400880108005D0104CB
:100EA0000088010800B801040006010800060104DA
:100EB0000006010800060104000601FEFF0000F81C
:100EC000FFB8011000B801F8FFB8011000B801F830
:100ED000FFB8011000B801F8FFB8011000B801F820
:100EE000FFB8011000D201F8FFD2011000D201F8C2
:100EF000FFD2011000D201F8FFD2011000D201F898
:100F0000FFD2011000B801F8FFB8011000B801F8D5
:100F1000FFB8011000B801F8FFB8011000B801F8DF
:100F2000FFB80110008801F8FF880110008801F85F
:100F3000FF880110008801F8FF880110008801F87F
:100F4000FF88011000B801F8FFB8011000B801F8DF
:100F5000FFB8011000B801F8FFB8011000B801F89F
:100F6000FFB801100000962B11241FBECFEFD1E275
:100F7000DEBFCDBF00E00CBF12E0A0E0B2E0E6EBC8
:100F8000F1E700E00BBF02C007900D92AE3CB10745
:100F9000D9F726E0AEECB2E001C01D92AD37B20742
:100FA000E1F717E0C4EBD7E000E006C021970109A4
:100FB000802FFE010E94AF36C33BD10780E00807B7
:100FC000A9F70E94E92D0C94D9380C940000FC017B
:100FD000A089B18982E08C93A485B5851C92A685F1
:100FE000B7858FEC8C93108EA489B58986E08C939D
:100FF000A289B3898C9180618C93A289B3898C91E9
:1010000088608C93A289B3898C9180688C930288C4
:10101000F389E02D80818F7D808308953F924F92E8
:101020005F926F927F928F929F92AF92BF92CF9278
:10103000DF92EF92FF920F931F93CF93DF9300D035
:101040001F92CDB7DEB79C838B833B016A015901A8
:10105000DC01ED91FC910284F385E02D19952801C6
:10106000B7E04B0E511C93E0559447949A95E1F7E5
:10107000C6018E0D9F1D9A838983912C812C312C62
:10108000F12CE12CC70187709927330C892B59F477
:10109000F70183E0F595E7958A95E1F7E80DF91DED
:1010A000EA0DFB1D349037FE10C0AB81BC81ED9181
:1010B000FC9111970484F585E02D21E030E0A60134
:1010C000B701660D771DCD011995BFEFEB1AFB0A2D
:1010D0000E151F05B9F68FEFC81AD80A840C951C97
:1010E000A981BA81CA16DB0659F6AB81BC81ED91A4
:1010F000FC9111970688F789E02DCD010F900F9094
:101100000F900F90DF91CF911F910F91FF90EF9073
:10111000DF90CF90BF90AF909F908F907F906F9017
:101120005F904F903F9019948150823108F05AC0DF
:10113000E82FF0E08827E056F74F8F4F0C94AF363A
:10114000C008C408B208B808BC08F208C708CD082F
:10115000D108D708DB08DF08E508E908F208ED0840
:10116000F308F708809180008F77809380000895BE
:10117000809180008F7DF9CF80918000877FF5CFAF
:1011800084B58F7784BD089584B58F7DFBCF809122
:10119000B0008F778093B00008958091B0008F7D6C
:1011A000F9CF809190008F7780939000089580917F
:1011B00090008F7DF9CF80919000877FF5CF80914F
:1011C000A0008F778093A00008958091A0008F7D6C
:1011D000F9CF8091A000877FF5CF809120018F7794
:1011E000809320010895809120018F7DF9CF809117
:1011F0002001877FF5CFCF93DF93282F30E0F901CF
:10120000E05BF34F8491F901EA56F34FD491F90171
:10121000EA50F34FC491CC23A1F081110E949408AD
:10122000EC2FF0E0EE0FFF1FEA5CF34FA591B491B5
:10123000EC91ED2381E090E009F480E0DF91CF9123
:10124000089580E090E0FACF1F93CF93DF93282F8B
:1012500030E0F901E05BF34F8491F901EA56F34F76
:10126000D491F901EA50F34FC491CC23A9F0162F81
:1012700081110E949408EC2FF0E0EE0FFF1FE45262
:10128000F34FA591B4918FB7F894EC91111108C068
:10129000D095DE23DC938FBFDF91CF911F9108950E
:1012A000DE2BF8CFCF93DF9390E0FC01EA56F34FAB
:1012B00024918A50934FFC0184918823C9F090E0D7
:1012C000880F991FFC01E45EF34FA591B491FC01D6
:1012D000E452F34FC591D49161110DC09FB7F894BA
:1012E0008C91209582238C938881282328839FBF0B
:1012F000DF91CF910895623051F49FB7F8943C91FB
:10130000822F809583238C93E8812E2BEFCF8FB78C
:10131000F894EC912E2B2C938FBFEACF1F93CF9391
:10132000DF93182FEB0161E00E945209209739F4F6
:1013300060E0812FDF91CF911F910C942409CF3F62
:10134000D10511F461E0F5CFE12FF0E0E05BF34F60
:10135000E491E150E23108F0B3C0F0E08827EC54AA
:10136000F64F8F4F0C94AF36C609CE09D309DD096D
:10137000E709600AF109F909010A0B0A150A1F0AAF
:101380002E0A380A600A420A4C0A560A84B5806856
:1013900084BDC7BDDF91CF911F91089584B5806250
:1013A00084BDC8BDF7CF80918000806880938000A5
:1013B000D0938900C0938800EDCF80918000806237
:1013C00080938000D0938B00C0938A00E3CF8091FC
:1013D0008000886080938000D0938D00C0938C0043
:1013E000D9CF8091B00080688093B000C093B300E3
:1013F000D1CF8091B00080628093B000C093B400E0
:10140000C9CF80919000806880939000D09399001C
:10141000C0939800BFCF809190008062809390002D
:10142000D0939B00C0939A00B5CF809190008860C4
:1014300080939000D0939D00C0939C00ABCF80918F
:10144000A00080688093A0008091A0008F7B809393
:10145000A000D093A900C093A8009CCF8091A000C9
:1014600080628093A000D093AB00C093AA0092CF7B
:101470008091A00088608093A000D093AD00C093BD
:10148000AC0088CF80912001806880932001D093A8
:101490002901C09328017ECF809120018062809332
:1014A0002001D0932B01C0932A0174CF8091200199
:1014B000886080932001D0932D01C0932C016ACFC6
:1014C000C038D1050CF03ECF33CF3FB7F8948091B0
:1014D000A2039091A303A091A403B091A50326B504
:1014E000A89B05C02F3F19F00196A11DB11D3FBF5C
:1014F000BA2FA92F982F8827BC01CD01620F711D2B
:10150000811D911D42E0660F771F881F991F4A9524
:10151000D1F70895CF92DF92EF92FF920F931F932E
:10152000CF93DF93EC018B01E881F981309709F0CB
:10153000199460E08091EC050E9424090E94650ADC
:101540006093EC037093ED038093EE039093EF03AD
:1015500088EA9AE0998388830E94650AC090EC0328
:10156000D090ED03E090EE03F090EF036C197D094D
:101570008E099F09623071058105910550F480E064
:10158000DF91CF911F910F91FF90EF90DF90CF905F
:10159000089561E08091EC050E9424090E94650A8B
:1015A0006093EC037093ED038093EE039093EF034D
:1015B00088ED9AE0998388830E94650AC090EC03C5
:1015C000D090ED03E090EE03F090EF036C197D09ED
:1015D0008E099F096A3071058105910580F260E0EE
:1015E0008091EC050E9424090E94650A6093E8033B
:1015F0007093E9038093EA039093EB038EEF9AE0F4
:10160000998388838091EE050E94FB08019799F4E5
:101610008091EE050E94FB08892B09F580E090E09F
:10162000A0E8BFEBF80180839183A283B383198282
:10163000188282E0A5CF0E94650AC090E803D0908E
:10164000E903E090EA03F090EB036C197D098E0941
:101650009F09693A714681059105D0F690CF0E94A5
:10166000650A6093E8037093E9038093EA0390931B
:10167000EB0389E39BE0998388838091EE050E94C8
:10168000FB08892B59F58091EE050E94FB08019714
:1016900029F20E94650AC090E803D090E903E09027
:1016A000EA03F090EB036C197D098E099F090E94F3
:1016B0003A3326E933E44BE05DE30E949B3320E0BC
:1016C00030E040E05FE30E949B33F8016083718368
:1016D000828393831982188283E052CF0E94650A25
:1016E000C090E803D090E903E090EA03F090EB03A8
:1016F0006C197D098E099F09693A7146810591052A
:1017000010F63DCF8F929F92AF92BF92CF92DF9211
:10171000EF92FF924B015C010E94650A6B017C0114
:101720000E94650A6C197D098E099F09683E734005
:1017300081059105A8F321E0821A9108A108B1085A
:1017400088EEC80E83E0D81EE11CF11C81149104C0
:10175000A104B10429F7FF90EF90DF90CF90BF90E4
:10176000AF909F908F9008952FB7F89460919E034B
:1017700070919F038091A0039091A1032FBF0895C2
:101780008091CE029091CF0201969093CF028093E8
:10179000CE0208958091D0029091D102019690934B
:1017A000D1028093D00208950895089508959091EC
:1017B0001A0289130DC0ECE3FDE0E4919FEF9093D2
:1017C0001A02E230E1F038F4EE2381F0E13089F0E2
:1017D00060E00C942409E43049F110F1E530C1F7E0
:1017E000909173009D7F90937300F2CF10926E00E2
:1017F000EFCF90916F009D7F90936F00E9CF909114
:1018000070009D7F9093700091E09093B000909154
:10181000B100987F94609093B1001092B300D8CF3C
:10182000909171009D7F90937100D2CF9091720042
:101830009D7F90937200CCCF4F925F926F927F9278
:101840008F929F92AF92BF92CF92DF92EF92FF92D0
:101850000F931F93CF93DF9300D01F921F92CDB7AA
:10186000DEB741E02091C6033091C703232B09F076
:1018700080C01092E1051092E0050091E005109102
:10188000E1058091D9059091DA05880F991F081715
:1018900019077CF7E090D705F090D8058091DD0519
:1018A0009091DE050F5F1F4F000F111FF701E00F32
:1018B000F11F659174917093E3056093E20516162C
:1018C00017060CF075C00E949B367093E505609377
:1018D000E405F8013297EE0DFF1D059114910115F5
:1018E0001105F1F06091E4057091E505072E000CFB
:1018F000880B990B0E943C3326E636E646E65FE30A
:101900000E949B330E94A7352B013C018091DF058B
:1019100090911A02891709F45FC09F3F09F4D7C05C
:101920000E94B40BAB01BC018091E4059091E505E8
:10193000092E000CAA0BBB0B840F951FA61FB71F07
:101940008093E6059093E705A093E805B093E90539
:101950000E94B40B40E00091E6051091E70520914C
:10196000E8053091E905601771078207930708F0D1
:10197000F2C229EB3CE03093C7032093C603411128
:10198000E7CF81E00F900F900F900F900F90DF91B5
:10199000CF911F910F91FF90EF90DF90CF90BF906C
:1019A000AF909F908F907F906F905F904F90089531
:1019B0007195619571090E949B36072E000C880B6A
:1019C000990B0E943C3320E030E040EC5FE30E9442
:1019D0009B330E94A03579CFECE3FDE024912D8369
:1019E00027FD9ECF61E00E9452092D81222321F024
:1019F0008D81823009F0D4C14801B12CA12C60E066
:101A000072E18AE790E0A50198010E945934298388
:101A10003A834B835C8369017A0191E0C91AD1084A
:101A2000E108F1082FEFC216D104E104F10409F036
:101A30000CF485C160E472E48FE090E0A5019801A8
:101A40000E94593469017A0181E0C81AD108E1087D
:101A5000F1089D81923009F026C182E02FEFC21675
:101A6000D104E104F10409F00CF4D2C260E970ED94
:101A700083E090E0A50198010E94593469017A0140
:101A800081E0C81AD108E108F10883E09FEFC91688
:101A9000D104E104F10409F00CF4BAC268E478EE70
:101AA00081E090E0A50198010E94593469017A0112
:101AB00081E0C81AD108E108F1089FEFC916D104E6
:101AC000E104F10411F00CF012C184E0A1C2809392
:101AD0001A02ECE3FDE094919D839F3F09F420CF2F
:101AE000923009F474C058F4992399F1913009F4B3
:101AF0004CC097FD15CF61E00E94520979CF2D812E
:101B0000243009F4AEC008F488C0253091F7109253
:101B10002001109221019091210198609093210160
:101B200090912101916090932101282F30E0F901DB
:101B3000EA50F34FE491F0E0EE0FFF1FE452F34F51
:101B400045915491F901EA56F34FE491E093A603CD
:101B500049CF14BC15BC94B5926094BD95B5916005
:101B600095BD282F30E0F901EA50F34FE491F0E001
:101B7000EE0FFF1FE452F34F45915491F901EA56DD
:101B8000F34FE491E093AD032DCF109280001092BB
:101B900081009091810098609093810090918100E4
:101BA000916090938100282F30E0F901EA50F34FC3
:101BB000E491F0E0EE0FFF1FE452F34F4591549192
:101BC000F901EA56F34FE491E093AC030BCF109286
:101BD000B0001092B1009091B00092609093B0006C
:101BE0009091B10091609093B100282F30E0F901FD
:101BF000EA50F34FE491F0E0EE0FFF1FE452F34F91
:101C0000459154915093AB034093AA03F901EA56CE
:101C1000F34FE491E093A903E5CE10929000109267
:101C20009100909191009860909391009091910013
:101C3000916090939100282F30E0F901EA50F34F22
:101C4000E491F0E0EE0FFF1FE452F34F4591549101
:101C5000F901EA56F34FE491E093A80393E09D83E2
:101C6000C1CE1092A0001092A1009091A1009860A6
:101C70009093A1009091A10091609093A100282FD2
:101C800030E0F901EA50F34FE491F0E0EE0FFF1F6E
:101C9000E452F34F45915491F901EA56F34FE49120
:101CA000E093A7039FCE2FEFC216D104E104F10405
:101CB00009F00CF473C068E478EE81E090E0A501CF
:101CC00098010E94593469017A0181E0C81AD1084B
:101CD000E108F1089D81992309F466C18FEFC816C8
:101CE000D104E104F10409F00CF4EFCE66C164E222
:101CF00074EF80E090E0A50194010E9459346901DD
:101D00007A0181E0C81AD108E108F10885E09FEF67
:101D1000C916D104E104F10409F008F479C162E1C3
:101D20007AE780E090E0A50194010E9459346901AE
:101D30007A0191E0C91AD108E108F10850C181E0A7
:101D40002D81211165C195B5987F892B85BD2FEF18
:101D50003FEFA901411451046104710409F049C025
:101D60009D81923009F4E7C00CF0CEC0992309F4AC
:101D7000D3C0913009F0D4CDD0928900C0928800B0
:101D80002093BE033093BF034093C0035093C1031D
:101D900080916F00826080936F00C2CD82E0D0CFCF
:101DA000B12CA12C60E072E18AE790E0A5019801D6
:101DB0000E94593469017A0181E0C81AD108E1080A
:101DC000F108C114D10491E0E906F10404F591E0B1
:101DD0002D81213069F580918100887F892B809346
:101DE00081002FEF3FEFA9014114510461047104F8
:101DF00019F2D801AA0FBB1FA30192010E947834E7
:101E000028EE33E040E050E00E948B34A9CF68E434
:101E100078EE81E090E0A50198010E9459346901B3
:101E20007A0181E0C81AD108E108F10893E0D0CF27
:101E30008D81833001F580919100887F892B80937B
:101E400091002FEF3FEFA901411451046104710487
:101E500081F6D0929900C09298002093B6033093F7
:101E6000B7034093B8035093B90380917100826027
:101E70008093710055CD2D81243009F58091A1000A
:101E8000887F892B8093A1002FEF3FEFA901411498
:101E900051046104710409F0ACCFD092A900C09242
:101EA000A8002093B2033093B3034093B40350933C
:101EB000B5038091720082608093720031CD8D8174
:101EC000853009F044CF80912101887F892B809350
:101ED00021012FEF3FEFA901411451046104710466
:101EE00009F087CFD0922901C09228012093AE0338
:101EF0003093AF034093B0035093B10380917300CC
:101F00008260809373000CCD8D81843031F20CF4AB
:101F1000A0CF853039F304CDC7BC2093C2033093E2
:101F2000C3034093C4035093C50380916E00826045
:101F300080936E00F5CCC092B3002093BA03309327
:101F4000BB034093BC035093BD038091700082603B
:101F500080937000E5CC8091DF050E94D70B8091C3
:101F6000E0059091E10502969093E1058093E005EC
:101F700084CC84E09FEFC916D104E104F10409F098
:101F800008F4E1CEC980DA80EB80FC808AE0F59429
:101F9000E794D794C7948A95D1F781E0C81AD108FD
:101FA000E108F10885E0CFCE83E02FEFC216D1041F
:101FB000E104F10409F00CF4C6CE62E17AE780E0B6
:101FC00090E0A50194010E94593469017A0181E0F1
:101FD000C81AD108E108F1089D81992351F286E0E1
:101FE0002FEFC216D104E104F10491F088F0C9800A
:101FF000DA80EB80FC809AE0F594E794D794C7945C
:102000009A95D1F791E0C91AD108E108F10887E063
:102010009091B100987F892B8093B10098CEAF92B8
:10202000BF92CF92DF92EF92FF920F931F93CF93C5
:10203000DF936C017B018B01040F151FEB015E0127
:10204000AE18BF08C017D10759F06991D601ED91BC
:10205000FC910190F081E02DC6011995892B79F74B
:10206000C501DF91CF911F910F91FF90EF90DF900D
:10207000CF90BF90AF900895FC01538D448D252FD4
:1020800030E0842F90E0821B930B541710F0CF9612
:10209000089501970895FC01918D828D981761F044
:1020A000A28DAE0FBF2FB11D5D968C91928D9F5F5B
:1020B0009F73928F90E008958FEF9FEF0895FC013A
:1020C000918D828D981731F0828DE80FF11D858DED
:1020D00090E008958FEF9FEF0895FC01918D228D80
:1020E000892F90E0805C9F4F821B91098F73992705
:1020F000089580EF93E00E946D1021E0892B09F490
:1021000020E0822F08958DE894E00E946D1021E078
:10211000892B09F420E0822F0895FC01A48DA80FDB
:10212000B92FB11DA35ABF4F2C91848D90E0019619
:102130008F739927848FA689B7892C93A089B18939
:102140008C91837080648C93938D848D981306C0DA
:102150000288F389E02D80818F7D80830895EF923E
:10216000FF920F931F93CF93DF93EC0181E0888F51
:102170009B8D8C8D98131AC0E889F989808185FF21
:1021800015C09FB7F894EE89FF896083E889F989C3
:1021900080818370806480839FBF81E090E0DF91C5
:1021A000CF911F910F91FF90EF900895F62E0B8D18
:1021B00010E00F5F1F4F0F731127E02E8C8D8E11D3
:1021C0000CC00FB607FCFACFE889F989808185FF3A
:1021D000F5CFCE010E948D10F1CFEB8DEC0FFD2FCE
:1021E000F11DE35AFF4FF0829FB7F8940B8FEA89F5
:1021F000FB8980818062CFCFCF93DF93EC01888D04
:102200008823B9F0AA89BB89E889F9898C9185FD71
:1022100003C0808186FD0DC00FB607FCF7CF8C91FF
:1022200085FFF2CF808185FFEDCFCE010E948D101A
:10223000E9CFDF91CF91089580E090E0892B29F0DC
:102240000E94831081110E94000080E090E0892BA1
:1022500049F080E090E0892B29F00E940000811174
:102260000E94000080E090E0892B49F080E090E03F
:10227000892B29F00E94000081110E94000080E05B
:1022800090E0892B29F00E94791081110C940000B4
:1022900008958F929F92AF92BF92FF920F931F93D8
:1022A000CF93DF93FC01F0808FE28F1508F44AC0D2
:1022B000828108E512E0081B110987FD1395000FC4
:1022C000111F000F111F8181C8E8D0E0C81BD10980
:1022D00087FDD395CC0FDD1FCC0FDD1F4E010D2EDA
:1022E000000CAA08BB089801012E000C440B550BEA
:1022F000281939094A095B09DB010E94833424EB60
:1023000030E040E050E00E945934820E931EA41E3B
:10231000B51E8C169D062CF0E801801691060CF473
:10232000E4012297CC0FDD1F2FB7F8948F2D90E09A
:10233000FC01EE0FFF1FE80FF91FEA5CFA4FD28392
:10234000C1832FBFDF91CF911F910F91FF90BF905D
:10235000AF909F908F900895AF92BF92CF92DF92EF
:10236000EF92FF920F931F93CF93DF936B017A014C
:10237000EC01C557DC4F28813CE0389F8001399F34
:10238000100D1124A090C605B12C27FF1FC0FB0122
:102390001182108288818F5F888388819801280F3D
:1023A000311D87FD3A95F6012A153B051CF48881FD
:1023B0008C30C4F180819181049680349C4908F46A
:1023C00073C0F60180819181049670C08881980164
:1023D000280F311D87FD3A952A153B05DCF68881CB
:1023E000A801480F511D87FD5A95FA01EE0FFF1FF6
:1023F000E40FF51FEA5CFA4F808186FFCBCF88811E
:10240000F801E80FF11D87FDFA95CF01EE0FFF1FD0
:10241000E80FF91FEA5CFA4F808160E08F730E9439
:102420002409B8CF808191812881A801420F511DD4
:1024300027FD5A959A01FA01EE0FFF1FE20FF31FD5
:10244000EA5CFA4F21813281820F931FF701918359
:10245000808388819801280F311D87FD3A95F90105
:10246000EE0FFF1FE20FF31FEA5CFA4F808186FF39
:1024700022C08881080F111D87FD1A95F801EE0F03
:10248000FF1FE00FF11FEA5CFA4F808161E08F735C
:10249000DF91CF911F910F91FF90EF90DF90CF9040
:1024A000BF90AF900C94240980E49CE9F7019183DC
:1024B00080838FEF8883DF91CF911F910F91FF90E1
:1024C000EF90DF90CF90BF90AF9008952091890357
:1024D00030918A03F90181919FEB980F9A3140F472
:1024E00030938A0320938903805E08959F01F2CF81
:1024F000803239F4232BD1F7F0938A03E0938903D8
:10250000089530938A032093890308951F93CF93EE
:10251000DF930E946612D0E0C0E01AE090ED980FC1
:102520009A30B8F41C9F90011D9F300D1124E901D1
:10253000C80FD11D87FDDA95E097809189039091AE
:102540008A03019690938A03809389030E946612FE
:10255000E5CFCE01DF91CF911F9108952F923F9249
:102560004F925F926F927F928F929F92AF92BF92A3
:10257000CF92DF92EF92FF920F931F93CF93DF934F
:1025800000D01F921F92CDB7DEB77A8369834B8349
:1025900020918603211112C021E02093860310921E
:1025A000700021E22093B0002BE02093B1002AEFCD
:1025B0002093B3001092B400539A789410920902B9
:1025C0003324339497FF03C09F773AE0332E28E2F9
:1025D000329E202D112430E03D832C8382179307F7
:1025E00060F021E09D838C83321207C081319742D5
:1025F00020F080E197E29D838C83832C912CB12C79
:10260000A12C4C805D8056944794712C612C2C81B8
:102610003D816901F12CE12CA501940160E472E493
:102620008FE090E00E946B36640D751D861D971D2E
:10263000A70196010E945934890122E0222E0F3F02
:10264000110501F1F8F02394E22DF0E0EE0FFF1FE9
:10265000EF5BFD4F2081318150E040E060E072E1AE
:102660008AE790E00E945934C501B4010E946B369C
:10267000640D751D861D971DA70196010E94593492
:102680008901DDCF3AE0331209C08C819D81059626
:102690006AE070E00E9487367D836C838C819D8127
:1026A000883E23E0920769F029813A81DC010E948B
:1026B000AD3428EE33E040E050E00E9459343A83D4
:1026C0002983109270008091B100887F282A20927F
:1026D000B1000093B3008B81803108F08FE020E1DE
:1026E00030E0281B310902C0169507952A95E2F7BC
:1026F0000093B40089819A81909388038093870323
:1027000087B38FEF87BB81E0809370000F900F90AD
:102710000F900F900F90DF91CF911F910F91FF902D
:10272000EF90DF90CF90BF90AF909F908F907F9071
:102730006F905F904F903F902F900895EF92FF928F
:102740000F931F93CF93DF93EC01EC80FD806E1508
:102750007F050CF070C057FF04C0240F351F50E0F8
:1027600040E08E819F81FA01E20FF31F8E179F07D1
:102770001CF49C01241B350B121613060CF05BC0D5
:10278000922F842F8695869586958E9DD0018F9D5C
:10279000B00D11246A0F7B1FAF8DB8A1A60FB71F14
:1027A000477049F188E0841B482F682F70E0FB01D7
:1027B000EE59F84FE491281708F063C0621B7109C5
:1027C0002FEF30E002C0359527956A95E2F7E223B6
:1027D0000130110539F0B0F10230110561F58C912D
:1027E000E82702C08C91E82BEC93941720F12C8100
:1027F0003D81A20FB31FE92FE41BE83078F00230CF
:10280000110521F58E2F9C9190959C932C813D81F3
:10281000A20FB31F88508830B0F7E770EE2359F04D
:10282000F0E0E65AF84FE49101301105F9F010F1AB
:102830000230110519F1DF91CF911F910F91FF9097
:10284000EF900895E0958C91E823CECF81E00115BB
:10285000110509F480E081959E2F8C932C813D8198
:10286000A20FB31F98509830C0F7D7CF8C91E82BA8
:10287000EC93E1CFE0958C91E823FACF8C91E82797
:10288000F7CF0130110509F4ADCFE0F202301105A8
:1028900009F4A5CFAE0DBF1DAECF0F931F93CF93FD
:1028A000DF9377FF04C0260F371F70E060E0DC0184
:1028B0001496CD91DC91FB01E20FF31FCE17DF07D9
:1028C0001CF49E01261B370B121613064CF5FA0159
:1028D00057FD3796A3E0F595E795AA95E1F7EC9FAC
:1028E000D001ED9FB00DFC9FB00D11246A0F7B1F2E
:1028F000DC015F96ED91FC91E60FF71F47705527BD
:1029000081E090E001C0880F4A95EAF7482F013036
:10291000110559F0A8F02E0F3F1F02301105E1F00C
:10292000DF91CF911F910F9108952E0F3F1FE21756
:10293000F307B1F38191DF011197842B8C93F7CFCB
:1029400080952E0F3F1FE217F30751F39191DF019E
:10295000119798239C93F7CFE217F30709F381911E
:10296000DF01119784278C93F7CF0F931F93FA0100
:10297000DC0156964C9156974230E9F04330A1F174
:10298000413061F514964D915C91DA01AE1BBF0B9D
:10299000FD01E21BF30B77FD0BC0DC0116964D9198
:1029A0005C916417750724F4AB01BF010E944D14BC
:1029B0001F910F91089514964D915C91DA01A61B19
:1029C000B70BBD0161507109DC0116964D915C9108
:1029D000DA01AE1BBF0BFD01E21BF30B77FDE8CF65
:1029E000AF010E949E13E4CF16964D915C91DA01DF
:1029F000A61BB70BBD0161507109CDCF0F931F937B
:102A0000FA01DC0156964C9156974230A9F04330BA
:102A100091F1413019F514964D915C91DA01AE1B9C
:102A2000BF0BFD013197F7FD04C0AB01BF010E9450
:102A30009E131F910F91089514964D915C91DA01A8
:102A4000A61BB70BBD01DC0116964D915C91DA0116
:102A5000AE1BBF0BFD013197621B730BF7FDE9CF76
:102A6000DC0116964D915C91E417F50714F7AF0160
:102A70000E944D14DECF16964D915C91DA01A61B93
:102A8000B70BBD01621B730BCECFFC0177FD64C099
:102A900080859185681779070CF05EC057FD5CC092
:102AA00082859385481759070CF056C08689823075
:102AB000B1F0833029F1813041F484819581841B08
:102AC000950BAB01BC01615071092130310509F151
:102AD00008F443C02230310509F463C008958481AD
:102AE0009581DC01A61BB70BBD0161507109868180
:102AF0009781DC01A41BB50BAD0141505109E5CF15
:102B000086819781861B970BBA01AC014150510910
:102B1000DCCFCA0157FD0796A3E095958795AA9546
:102B2000E1F7A481B5818A9F90018B9F300D9A9F18
:102B3000300D1124620F731F078CF0A1E02DE60FFA
:102B4000F71F4770552721E030E001C0220F4A955A
:102B5000EAF78081822B80830895CA0157FD07968A
:102B600033E0959587953A95E1F7A481B5818A9FE1
:102B700090018B9F300D9A9F300D1124620F731FAF
:102B8000078CF0A1E02DE60FF71F4770552781E075
:102B900090E001C0880F4A95EAF7809590818923DB
:102BA000DACFCA0157FD079623E0959587952A95B8
:102BB000E1F7A481B5818A9F90018B9F300D9A9F88
:102BC000300D1124620F731F078CF0A1E02DE60F6A
:102BD000F71F4770552721E030E001C0220F4A95CA
:102BE000EAF780818227B7CF08958EBD00000DB42B
:102BF00007FEFDCF8EB508958CBD9DBD0895089547
:102C0000FC016370668B84819581268137816130F8
:102C100039F0633029F091878087338722870895C0
:102C2000318720879387828708952F923F924F9212
:102C30005F926F927F928F929F92AF92BF92CF924C
:102C4000DF92EF92FF920F931F93CF93DF93CDB755
:102C5000DEB76A970FB6F894DEBF0FBECDBF9A8F6E
:102C6000898F7A8369834A01D22E18870F833701AF
:102C7000BC2CDC0159962D913C915A9721153105B8
:102C800009F015C118968D919C91199768177907CD
:102C90000CF0D7C11A968D919C91481759070CF0EA
:102CA000D0C14C2C512CB6E0CB9E600D711D11246F
:102CB0007C876B87161617060CF0C3C1EA2DF0E06F
:102CC000FA87E98793E0EE0FFF1F9A95E1F7F88BFB
:102CD000EF87CF01840F951F181619060CF0B1C1AC
:102CE000A98DBA8D58968C91811104C0BFEABD158B
:102CF00008F4D394A98DBA8DED91FC9111970284BB
:102D0000F385E02DCD011995B5E0DB9EC0011124BE
:102D1000E981FA81FC83EB83312C212C9C012A5A16
:102D20003D4F388F2F8B4A2D50E05E8B4D8BEF89B6
:102D3000F88DE20DF31D44919E828D82D12CC12C21
:102D400069817A81620D731D7A8B698B842F90E083
:102D50009C8B8B8BE98DFA8DA081B18140FF82C065
:102D6000F1E0BF126FC0AF126DC01C96ED91FC91E7
:102D70002F813885A4014C0D5D1D69897A89898D63
:102D80009A8D1995EB89FC89F595E7954E2F5FEFA4
:102D9000C51AD50A6D817E818D899E89680F791F3C
:102DA0007E836D8398E0C916D10481F6AFEF2A1AAD
:102DB0003A0AEB81FC81E40DF51DFC83EB83F5E021
:102DC0002F16310409F0B3CF2F813885261537052A
:102DD000B9F0A98DBA8DED91FC91B1E0BB1257C04D
:102DE000AB1255C069817A816B5F7F4F0088F18992
:102DF000E02D830128E030E0A401898D9A8D19959A
:102E0000A98DBA8DED91FC9111970688F789E02D77
:102E1000CD016A960FB6F894DEBF0FBECDBFDF912D
:102E2000CF911F910F91FF90EF90DF90CF90BF90C7
:102E3000AF909F908F907F906F905F904F903F905A
:102E40002F9019941E96ED91FC91EF80F8840985DE
:102E50001A8592014D815E816B817C81898D9A8D6D
:102E6000199590CF2F8138852615370509F48ACF1B
:102E700031E0B31207C0A31205C01C96ED91FC917E
:102E8000930178CF1E96ED91FC917301E0CF6B8595
:102E90007C85641975090684F785E02D73010F851B
:102EA00018899201A401898D9A8D1995A9CFF901EC
:102EB00034969491329745915491D91AB7E0DB9E9C
:102EC000400D511D1124F901259134913C8B2B8B20
:102ED000FA0125903490FA0132967490319634912B
:102EE000398B329664903196449041E04C1518F03D
:102EF0004A1508F07FC0662D062C000C770B7C83EA
:102F00006B83842D042C000C990B9E838D83A98DDB
:102F1000BA8DED91FC9111970284F385E02DCD01DE
:102F20001995512CD12CC12CEA2DF0E0FA87E987B4
:102F30002B2D30E03C872B87A401440D511D47FC0D
:102F40005A95588F4F8B69817A81660D711D67FC88
:102F50007A957E876D877989C71608F051CF2C2D19
:102F600030E04D815E81420F531FA985BA854A9F8B
:102F7000C0014B9F900D5A9F900D1124FC01E80D4C
:102F8000F91DF88BEF87852D612C4F89588D420FE5
:102F9000531F5E8B4D8B671408F050C0442443943C
:102FA000480E877041F4C1010196EB89FC89E20D5E
:102FB000F31DD4901C01D7FE19C0A98DBA8DED91D7
:102FC000FC91662D70E0B1E0BB1219C0AB1217C0C6
:102FD0002D853E85620F731F0484F585E02D2F81BA
:102FE00038854D895E89898D9A8D1995DD0C63949C
:102FF000842DD1CF1E821D821C821B8288CF4B81E3
:103000005C81640F751FAB85BC856A9FC0016B9F97
:10301000900D7A9F900D112469817A81680F791F34
:103020000684F785E02DEF80F88409851A859D01D7
:103030004F855889898D9A8D1995D8CF570CC3948F
:103040008ACF6A960FB6F894DEBF0FBECDBFDF9170
:10305000CF911F910F91FF90EF90DF90CF90BF9095
:10306000AF909F908F907F906F905F904F903F9028
:103070002F9008958F929F92AF92CF92EF92FF92EE
:103080000F931F93CF93DF93EC01262F898D9A8D99
:10309000009709F051C06A30D1F41D861C868D89D5
:1030A00048E0849F900111248E859F85820F931F95
:1030B0009F878E8781E090E0DF91CF911F910F91E4
:1030C000FF90EF90CF90AF909F908F9008956D30CC
:1030D00089F3CC88AD888F898823C1F08C859D8544
:1030E00036E0C39E800D911D1124488559854817EF
:1030F000590764F44E855F851D861C8638E0A39EC3
:10310000C0011124840F951F9F878E87EA88FB8852
:10311000088919894E855F856C857D85CE010E9461
:1031200015162C898C859D8546E0249F800D911D68
:1031300011249D878C87BECF6A3069F41D861C865A
:10314000FC013896E4912D898E859F85E29F800D44
:10315000911D1124ADCF6D3009F4ACCFFC01349634
:103160003491631708F4A6CF3296E491E61708F479
:10317000A1CFFC01329685909490462F431B342FAB
:1031800047E0349F800C911C1124F4013296349155
:103190003196E4913323A9F1EE2399F1CC88F4011F
:1031A0003596E491AD884F89442301F10E2E000C31
:1031B000FF0BE30FF11DCE9EA001CF9E500D1124F9
:1031C0006C857D85460F571F68857985641775075F
:1031D0006CF44E855F851D861C86FC013896E49153
:1031E000AE9E400D511D11245F874E87EA88FB88F3
:1031F000088919894E855F856C857D85CE010E9481
:103200001516F4013496E4912C898C859D85E29FF6
:10321000800D911D11248DCF6F927F928F929F927E
:10322000AF92BF92CF92DF92EF92FF920F931F93D4
:10323000CF93DF93EC016B015A0139014801E8811A
:10324000F9810284F385E02D1995E881F9810288DE
:10325000F389E02D87019301A501B601CE011995EF
:10326000A501480D591D41505109E881F981028895
:10327000F389E02D9301B601CE011995E881F9811A
:103280000088F189E02D9401A501B601CE011995C0
:10329000C60CD71CB60161507109E881F98100881C
:1032A000F189E02D9401A501CE011995E881F981FC
:1032B0000688F789E02DCE01DF91CF911F910F9104
:1032C000FF90EF90DF90CF90BF90AF909F908F9046
:1032D0007F906F9019946F927F928F929F92AF928E
:1032E000BF92CF92DF92EF92FF920F931F93CF93F3
:1032F000DF935C01EB016A01490138018701DC01C0
:10330000ED91FC916217730719F5641675062CF0A0
:10331000962D872D3A01C92ED82E960126193709E8
:103320002F5F3F4F048CF58DE02DA301BE01C50139
:103330001995DF91CF911F910F91FF90EF90DF9042
:10334000CF90BF90AF909F908F907F906F90089597
:103350004615570591F42617370724F0892D4B01A0
:10336000C22FD82F9E01281939092F5F3F4F068C95
:10337000F78DE02DA601B401DACF0284F385E02DAC
:103380001995D501ED91FC910488F589E02D830113
:103390009401A601BE01C5011995D501ED91FC91DD
:1033A0000688F789E02DC501DF91CF911F910F911C
:1033B000FF90EF90DF90CF90BF90AF909F908F9055
:1033C0007F906F901994EF92FF920F931F93DC01FF
:1033D0001A960D911C911B9718962D913C91199757
:1033E000ED91FC9100A0F1A1E02D7B0150E040E0C7
:1033F00070E060E019951F910F91FF90EF90089594
:103400004F925F926F927F928F929F92AF92BF92F4
:10341000CF92DF92EF92FF920F931F93CF93DF93A0
:103420006C012B015A0139014801DC01ED91FC913D
:103430000284F385E02D1995E201640C751CD60118
:10344000ED91FC91C615D7055CF40088F189E02D5B
:1034500087019401A501BE01C60119952196EFCF00
:103460000688F789E02DC601DF91CF911F910F915A
:10347000FF90EF90DF90CF90BF90AF909F908F9094
:103480007F906F905F904F9019948F929F92AF9220
:10349000BF92CF92DF92EF92FF920F931F93CF9341
:1034A000DF93EC015B014A016901E881F981028443
:1034B000F385E02D199595012C0D3D1D2150310905
:1034C000E881F9810488F589E02D78018401A4015F
:1034D000B501CE011995E881F9810688F789E02DBB
:1034E000CE01DF91CF911F910F91FF90EF90DF9070
:1034F000CF90BF90AF909F908F9019948F929F9292
:10350000AF92BF92CF92DF92EF92FF920F931F93F1
:10351000CF93DF93EC015B014A0169017801E881F7
:10352000F9810284F385E02D1995C80CD91C860118
:1035300001501109E881F9810488F589E02D950190
:10354000A401B501CE011995E881F9810688F789B2
:10355000E02DCE01DF91CF911F910F91FF90EF9061
:10356000DF90CF90BF90AF909F908F901994089567
:10357000EF92FF920F931F93DC01ED91FC9100A05D
:10358000F1A1E02D19951F910F91FF90EF900895F3
:103590000F931F93DC01ED91FC91068CF78DE02DCC
:1035A00019951F910F9108950F931F93DC01ED91D1
:1035B000FC91048CF58DE02D19951F910F910895C4
:1035C000DC01ED91FC910084F185E02D19942F929E
:1035D0003F924F925F926F927F928F929F92AF92A3
:1035E000BF92CF92DF92EF92FF920F931F93CF93F0
:1035F000DF9300D000D0CDB7DEB73C016A013E8337
:103600002D83FC82EB825801A41AB50AB7FE03C0D1
:10361000B194A194B1088D809E80861A970A97FE76
:1036200003C09194819491088A149B045CF0902FBC
:10363000812F0D811E819D838E839C2D8D2D6B018D
:10364000692F782F0C151D055CF09D818E817E837E
:103650006D83692F782F902F812F8601C92ED82E48
:103660001601201A310A2B012D813E81421A530A7C
:1036700057FE03C0519441945108710137FE03C0B5
:103680003FEFE31AF30AF594E7948D819E81861744
:1036900097075CF5A1E0B0E0BA83A983C016D10614
:1036A0004CF1D301ED91FC910484F585E02D2B8143
:1036B0003C81A8016D817E818A149B041CF04D81A0
:1036C0005E81B801C3011995E418F508F7FE0AC038
:1036D0002D813E8189819A81280F391F3E832D8358
:1036E000E20CF31C0F5F1F4FD9CF2FEF3FEF3A8350
:1036F0002983D4CF26960FB6F894DEBF0FBECDBF78
:10370000DF91CF911F910F91FF90EF90DF90CF90BD
:10371000BF90AF909F908F907F906F905F904F90F1
:103720003F902F900895089520913803260F332756
:10373000331F21323105ECF420915C03FC0190E051
:1037400080E0243069F082E00895A091380321914F
:10375000AC01485E5C4FA40FB52FB11D2C930196B0
:10376000861798F380913803680F6093380380E0E0
:10377000089581E0089510925C0381E080935E03D8
:1037800010925D0361E084E10E94240961E085E11B
:103790000E942409E9EBF0E080818E7F80838081A4
:1037A0008D7F808388E48093B80085E48093BC009B
:1037B0000895CF93DF9391E0909317038823B9F096
:1037C000C091B800D091BA008091BC008A7B8093F0
:1037D000BC0060E084E10E94240960E085E10E9471
:1037E00024090E94BB1BD093BA00C093B800DF919C
:1037F000CF910895E091970380919603E81730F4F4
:10380000F0E0EE50FD4F808190E008958FEF9FEF44
:10381000089590919703809196032FEF3FEF9817AB
:1038200048F4E92FF0E0EE50FD4F208130E09F5F3B
:1038300090939703C90108958091960390919703FF
:10384000891B990B0895CF92DF92EF92FF920F930D
:103850001F93CF93DF937C01CB018A0120918303D7
:10386000222389F0EB016B01C40ED51ECC15DD05BA
:1038700069F06991D701ED91FC910190F081E02D03
:10388000C7011995F3CF642F0E94941BC801DF91E3
:10389000CF911F910F91FF90EF90DF90CF900895FF
:1038A000CF93DF931F92CDB7DEB769832091830357
:1038B0002223F9F020919403203258F021E030E0E7
:1038C000FC013383228390E080E00F90DF91CF9161
:1038D000089580919503E82FF0E0EE52FD4F998115
:1038E00090838F5F809395038093940381E090E0B1
:1038F000ECCF61E0CE0101960E94941BF7CFCF92EE
:10390000DF92EF92FF920F931F93CF93DF93D091AB
:10391000940381E0D13208F09CC0C09182030E94E0
:10392000650A6B017C0180915C0381116CC082E0AF
:1039300080935C0381E080935E038FEF80935B0351
:1039400010928003D0937F03A2EDB2E0EFE5F3E0A5
:1039500080E0D8138DC01092810380918103CC0F39
:10396000C82BC093810380915D03813009F084C02E
:1039700010925D030E94650A6B017C0180918103B6
:103980008093BB008091130390911403A0911503C1
:10399000B0911603892B8A2B8B2BA1F00E94650A0C
:1039A0000091130310911403209115033091160315
:1039B0006C197D098E099F09061717072807390713
:1039C00008F442C08091BC0083FDD8CF85EC809381
:1039D000BC000E94650A6B017C0180915C0382300F
:1039E00009F44CC080915B038F3F09F469C080915A
:1039F0005B03803209F466C080915B03803309F475
:103A000063C084E026C08091130390911403A091B9
:103A10001503B0911603892B8A2B8B2B09F483CFC6
:103A20000E94650A0091130310911403209115035D
:103A3000309116036C197D098E099F090617170727
:103A40002807390708F06FCF809112030E94D91B15
:103A500085E0109295031092940310928303DF91F6
:103A6000CF911F910F91FF90EF90DF90CF9008952D
:103A70009D9191938F5F6DCF85EEA9CF80911303B8
:103A800090911403A0911503B0911603892B8A2BF2
:103A90008B2B09F4A2CF0E94650A009113031091A9
:103AA000140320911503309116036C197D098E09BA
:103AB0009F09061717072807390708F08ECFC4CFCC
:103AC00080E0C7CF82E0C5CF83E0C3CFCF92DF9243
:103AD000EF92FF920F931F93CF93DF93EC016B0153
:103AE000142F8D8D9E8D009709F454C029A131E0CB
:103AF00030938303209382031092950310929403D2
:103B0000DC01ED91FC910190F081E02D60E01995D0
:103B10007601CC24C394D12C01E011508D8D9E8D63
:103B20001F3F71F1B0E2CB16D104C0F00E947F1CA0
:103B30008D8D9E8D29A10093830320938203109283
:103B4000950310929403DC01ED91FC910190F081BA
:103B5000E02D60E01995CC24C394D12C8D8D9E8DE1
:103B6000F7016491DC01ED91FC910190F081E02D71
:103B70001995BFEFCB1ADB0AEFEFEE1AFE0ACDCF95
:103B8000DF91CF911F910F91FF90EF90DF90CF9039
:103B90000C947F1CEDA5FEA590818BA980958923AF
:103BA00080837B01115070F1F70184912B8D3C8D46
:103BB000232B31F00E94F515FFEFEF1AFF0AF2CF29
:103BC00028E030E040E8E9A5FAA599A9582F542348
:103BD000A9F05081952B9083EBA5FCA590815AA963
:103BE000952B9083EBA5FCA550819AA990959523E0
:103BF000908346952150310931F7DECF5081909561
:103C00009523E9CFDF91CF911F910F91FF90EF9016
:103C1000DF90CF9008951F93CF93DF93EC018D8DAC
:103C20009E8D009721F1162F29A131E03093830357
:103C3000209382031092950310929403DC01ED917E
:103C4000FC910190F081E02D60E019958D8D9E8DA5
:103C5000DC01ED91FC910190F081E02D612F19952F
:103C60008D8D9E8DDF91CF911F910C947F1CADA502
:103C7000BEA59C918BA9809589238C938B8D9C8D5F
:103C8000892B31F0862FDF91CF911F910C94F51580
:103C900028E030E080E8A9A5BAA599A9462F4823D5
:103CA000C1F04C91942B9C93ABA5BCA59C914AA9C7
:103CB000942B9C93ABA5BCA54C919AA99095942369
:103CC0009C9386952150310931F7DF91CF911F9157
:103CD00008954C9190959423E6CF1F93CF93DF9353
:103CE000EC01162F8D8D9E8D892BB1F12DA93EA94A
:103CF0004FA958AD60E074E284EF90E00E948B34ED
:103D00002051310941095109569547953795279515
:103D10002093B80066EA111167EACE010E940B1EDB
:103D20008D8D9E8D892B41F129AD3AAD4BAD5CADAA
:103D300060E074E284EF90E00E948B3420513109FE
:103D40004109510956954795379527952093B80015
:103D5000DF91CF911F9108958B8D9C8D892B21F040
:103D60008EAD9FAD0E94FC15EFA5F8A990818CA99E
:103D7000809589238083CECFEFA5F8A980819CA967
:103D8000892B8083E5CFBF92CF92DF92EF92FF9293
:103D90000F931F93CF93DF93EC018D8D9E8D892B15
:103DA00009F48FC02DA93EA94FA958AD60E074E277
:103DB00084EF90E00E948B34205131094109510970
:103DC00056954795379527952093B80044E066E5CA
:103DD00077E0CE010E94661D8C819D818034910523
:103DE00009F07FC060E2CE010E940B1E6C81615E13
:103DF000CE010E940B1E2E813F81C901079697FDBF
:103E0000079633E0959587953A95E1F72C813D81AA
:103E1000829F7001839FF00C929FF00C11240F8DF4
:103E200018A18D8D9E8DE00EF11E009709F485C0BE
:103E300029A131E0309383032093820310929503EC
:103E400010929403DC01ED91FC910190F081E02D42
:103E500060E41995CC24C394D12CBB24B3948D8DEC
:103E60009E8DE016F10609F443C0B0E2CB16D104F2
:103E7000C0F00E947F1C8D8D9E8D29A1B09283037E
:103E8000209382031092950310929403DC01ED912C
:103E9000FC910190F081E02D60E41995CC24C3944D
:103EA000D12C8D8D9E8DF80161918F01DC01ED91FA
:103EB000FC910190F081E02D1995BFEFCB1ADB0A40
:103EC000CECF8B8D9C8D892B21F08EAD9FAD0E9426
:103ED000FC15EFA5F8A990818CA980958923808392
:103EE00075CF60E0CE010E940B1E6C81615080CFC7
:103EF0000E947F1C8D8D9E8D892B09F453C029ADA6
:103F00003AAD4BAD5CAD60E074E284EF90E00E94AE
:103F10008B34205131094109510956954795379500
:103F200027952093B800DF91CF911F910F91FF90BB
:103F3000EF90DF90CF90BF900895EDA5FEA5808112
:103F40009BA9892B8083E016F106A1F2F8018191EB
:103F50008F012B8D3C8D232B19F00E94F515F3CF8B
:103F600028E030E040E8E9A5FAA599A9582F5423A4
:103F7000A9F05081952B9083EBA5FCA590815AA9BF
:103F8000952B9083EBA5FCA550819AA9909595233C
:103F9000908346952150310931F7D5CF50819095C6
:103FA0009523E9CFEFA5F8A980819CA9892B80836F
:103FB000BACF90E080E00895CF92DF92EF92FF9227
:103FC000CF93DF93EC018A858823A1F189819A81BF
:103FD000AB81BC81892B8A2B8B2B51F461E08881CA
:103FE000DF91CF91FF90EF90DF90CF900C94240958
:103FF0000E94B40B6B017C018D819E81AF81B885DD
:10400000B701A601481B590B6A0B7B0B89819A816A
:10401000AB81BC81481759076A077B0758F069854F
:1040200081E06827698788810E942409CD82DE8229
:10403000EF82F886DF91CF91FF90EF90DF90CF90E5
:10404000089561E0FC0180810C945209FB0101900C
:104050000020E9F73197AF01461B570BDC01ED91CA
:10406000FC910280F381E02D1994CF93DF93BC0182
:104070008DE894E00E942620EC0161EA72E08DE870
:1040800094E00E9426208C0F9D1FDF91CF91089510
:104090008F929F92AF92BF92CF92DF92EF92FF9258
:1040A00081E02091D2033091D303232B09F045C046
:1040B0001092E7031092E60380E0E091E603F091AE
:1040C000E703E730F10508F038C08827E559FF4DD0
:1040D0008F4F0C94AF3672208920AE20C920E42087
:1040E00000211B2166E470E082EF95E00E944911F7
:1040F0000E94B40B6093E2037093E3038093E403A4
:104100009093E50381E090E09093E7038093E603CA
:1041100013C00E94B40BC090E203D090E303E09080
:10412000E403F090E5036C197D098E099F09683C52
:1041300071058105910558F480E02DE930E2309356
:10414000D3032093D2038111B7CF81E0ACC010928A
:10415000E1031092E00382E090E0D6CF6CED73E0D3
:1041600080EE93E00E948A0A823034F368E770E0C0
:1041700082EF95E00E9449110E94B40B6093E20324
:104180007093E3038093E4039093E50383E090E06E
:10419000BBCF0E94B40BC090E203D090E303E09049
:1041A000E403F090E5036C197D098E099F09683CD2
:1041B00071058105910508F4BFCF1092E1031092BB
:1041C000E00384E090E0A0CF68ED73E080EE93E040
:1041D0000E948A0A82300CF4AFCF6EE170E082EF69
:1041E00095E00E9449110E94B40B6093E203709322
:1041F000E3038093E4039093E50385E090E084CFAC
:104200000E94B40BC090E203D090E303E090E4037B
:10421000F090E5036C197D098E099F09683C7105D2
:104220008105910508F488CF1092E1031092E00314
:1042300086E090E069CF64ED73E080EE93E00E9449
:104240008A0A82300CF478CF8090D8039090D903FA
:10425000A090DA03B090DB03C090D403D090D503D4
:10426000E090D603F090D703A7019601C501B401F1
:104270000E941536181604F52091DC033091DD03F9
:104280004091DE035091DF03C501B4010E94153651
:10429000181694F484EA92E00E9435201092D30319
:1042A0001092D20382E0FF90EF90DF90CF90BF900A
:1042B000AF909F908F900895A7019601C501B4011A
:1042C0000E94353387FFEACF2091DC033091DD0374
:1042D0004091DE035091DF03C701B6010E941536FD
:1042E0001816E4F68AEA92E0D7CF81E02091D00355
:1042F0003091D103232BA9F58FEA92E00E9435205B
:104300008DE496E00E94DC1F8EE696E00E94DC1FA2
:104310008CE296E00E94DC1F8BE096E00E94DC1F9E
:1043200083E696E00E94DC1F88E596E00E94DC1F91
:1043300082E496E00E94DC1F83E696E00E94DC1F88
:1043400086E196E00E94DC1F85EF95E00E94DC1F6D
:1043500081E296E00E94DC1F80E096E00E94DC1F74
:1043600080E021EB31E23093D1032093D00381111F
:10437000C3CF81E008950E94BD380F931F93CF9360
:10438000DF93EC0188819981009759F02A813B8164
:104390002617370730F081E0DF91CF911F910F9101
:1043A00008958B016F5F7F4F0E94DC37009759F0B3
:1043B000998388831B830A832C813D81232B59F7A2
:1043C000FC011082E8CF80E0E7CFFC018681978175
:1043D0009C01295F3F4F37FF02C0295F3F4F83E0B9
:1043E000359527958A95E1F784819581289FA001CD
:1043F000299F500D389F500D112470E060E0878D8B
:1044000090A10C94CB384F925F926F927F928F92D3
:104410009F92AF92BF92CF92DF92EF92FF920F9353
:104420001F93CF93DF93CDB7DEB760970FB6F894A5
:10443000DEBF0FBECDBF81E02091C8033091C9031C
:10444000232B09F099C188E00E94FB088C0190930E
:10445000CF038093CE0387E00E94FB087C019093FA
:10446000CD038093CC0386E00E94FB08000F111F50
:10447000000F111FEE0CFF1C0E291F29802B912B02
:104480008230910509F42BC20CF096C1009709F413
:1044900043C28130910509F4B0C140901B02509095
:1044A0001C0260901D0270901E0280901F0290906E
:1044B0002002A0902102B090220281E08093620647
:1044C0008093410620E030E040E85FEBC501B40195
:1044D0000E94353387FD50C220E030E040E85FE3C2
:1044E000C501B4010E94153618160CF44CC220E028
:1044F00030E040E85FEBC301B2010E94353387FD35
:1045000049C220E030E040E85FE3C301B2010E940D
:10451000153618160CF445C2C501B4019F7720E08A
:1045200030E04CE852E40E949B330E94A03569873A
:104530007A878B879C8720E030E04CE852E4C30107
:10454000B2019F770E949B330E94A03569837A83D2
:104550008B839C8329813A8189859A85289FB00124
:10456000299F700D389F700D1124072E000C880BA9
:10457000990B0E943C3320E030E04FE753E40E9467
:104580002E3520E030E044E353E40E949B339B014E
:10459000AC0160E070E084E393E40E94BC342BED56
:1045A0003FE049E450E40E949B3320E030E044E3E4
:1045B00053E40E942E356B017C010E9429356D83E6
:1045C0007E838F8398876091CB0570E090E080E0D8
:1045D0000E943C336D877E878F87988B20E030E088
:1045E00040EE51E46D817E818F8198850E949B33DE
:1045F0009B01AC016D857E858F8598890E94BD34B5
:104600000E94A7356093CD05C701B6010E941A36F6
:104610006D837E838F8398876091CC0570E090E0F6
:1046200080E00E943C336B017C0120E030E040EEF2
:1046300051E46D817E818F8198850E949B339B011F
:10464000AC01C701B6010E94BC340E94A73560933B
:10465000CE058091D5059091D6050E94E521E09187
:10466000D505F091D60581E0848B858B81E090E0C3
:10467000938B828B918B808B1586148600E310E0E0
:10468000178706876FEB72E0CF010E94262080918A
:10469000D5059091D60520E630E0DC011D963C93CF
:1046A0002E931C971F961C930E931E9761EC72E03D
:1046B0000E94262080E2E82EF12C00E410E02DE399
:1046C0003DE040E250E060E270E08091D5059091DD
:1046D000D6050E940E088091D5059091D6050091CF
:1046E000CE0510E02091CD0530E04091CC0550E0A2
:1046F0006091CB0570E0DC01ED91FC9104A0F5A187
:10470000E02DEE24E394F12C19958091D50590913C
:10471000D6050E94C31E69857A8584E00E948E09B1
:1047200069817A8185E00E948E0911E020E030E005
:10473000A901C501B4010E94153687FD10E0612F63
:1047400080E20E94240961E0612782E20E9424093C
:1047500011E020E030E0A901C301B2010E9415364A
:1047600087FD10E0612F8EE10E94240961E061273E
:1047700084E20E94240980E02CEB33E23093C903E9
:104780002093C80381115FCE81E060960FB6F89444
:10479000DEBF0FBECDBFDF91CF911F910F91FF9074
:1047A000EF90DF90CF90BF90AF909F908F907F90D1
:1047B0006F905F904F9008958430910509F46BC01D
:1047C0000CF445C0069709F068CE81E08093780626
:1047D00080931506109256061092570610923506D1
:1047E000109236068FEF9FEF9093CB038093CA030E
:1047F0008DEC9CECACE4BFEB65C021E02093570648
:1048000020933606109277061092780610921406BE
:10481000109215069093CB038093CA0380E090E03A
:10482000A0E8BFE380931F0290932002A09321028F
:10483000B093220286E696E6A6E6BFEB80931B02C3
:1048400090931C02A0931D02B0931E0226CE81E01D
:10485000809357068093360610927706109278065A
:10486000109214061092150681E090E09093CB030D
:104870008093CA0380E090E0A0E8BFE380931F022A
:1048800090932002A0932102B09322028DEC9CEC25
:10489000ACE4BFEBD3CF81E080937806809315061C
:1048A0001092560610925706109235061092360650
:1048B0008FEF9FEF9093CB038093CA0386E696E633
:1048C000A6E6BFEB80931F0290932002A0932102E3
:1048D000B093220280E090E0A0E8BFE3AFCF109257
:1048E0007706109278061092140610921506109210
:1048F000560610925706109235061092360680E042
:1049000090E0A0E8BFE380931F0290932002A09361
:104910002102B093220292CF10927706109278066D
:104920001092140610921506109256061092570611
:1049300010923506109236068091CA039091CB03EF
:10494000181619068CF480E090E0A0E8BFE380938D
:104950001F0290932002A0932102B09322028AE9C1
:1049600099E9A9E1BFEB6ACF892B09F496CD8AE9D1
:1049700099E9A9E1BFEBA6CF812C912C80E8A82E64
:104980008FEBB82EB4CD812C912C00E8A02E0FE334
:10499000B02EADCD412C512C10E8612E1FEB712EA5
:1049A000BBCD412C512CB0E86B2EBFE37B2EB4CD98
:1049B00085ED8093BC008091130390911403A09126
:1049C0001503B09116030796A11DB11D23E0B695FE
:1049D000A795979587952A95D1F72091BC0024FD3E
:1049E00003C010925C030895409113035091140387
:1049F0006091150370911603452B462B472B69F3E5
:104A00000097A105B10541F02AE22A95F1F700C00F
:104A10000197A109B109E1CF809112030C94D91B30
:104A20001F920F920FB60F9211242F933F938F93E3
:104A30009F93AF93BF9380919E0390919F03A0910A
:104A4000A003B091A10330919D0323E0230F2D37E4
:104A500058F50196A11DB11D20939D0380939E03DF
:104A600090939F03A093A003B093A1038091A2030E
:104A70009091A303A091A403B091A5030196A11D59
:104A8000B11D8093A2039093A303A093A403B093BA
:104A9000A503BF91AF919F918F913F912F910F905F
:104AA0000FBE0F901F90189526E8230F0296A11DA8
:104AB000B11DD2CF1F920F920FB60F9211240BB6D9
:104AC0000F922F933F934F935F936F937F938F93A7
:104AD0009F93AF93BF93EF93FF93E0911802F091F0
:104AE00019021995FF91EF91BF91AF919F918F910D
:104AF0007F916F915F914F913F912F910F900BBEDE
:104B00000F900FBE0F901F9018951F920F920FB627
:104B10000F9211240BB60F922F933F934F935F93F5
:104B20006F937F938F939F93AF93BF93EF93FF9375
:104B3000E0911602F09117021995FF91EF91BF9144
:104B4000AF919F918F917F916F915F914F913F9125
:104B50002F910F900BBE0F900FBE0F901F901895C6
:104B60001F920F920FB60F9211240BB60F922F9334
:104B70003F934F935F936F937F938F939F93AF93E5
:104B8000BF93EF93FF93E0910C02F0910D02199502
:104B9000FF91EF91BF91AF919F918F917F916F9115
:104BA0005F914F913F912F910F900BBE0F900FBED1
:104BB0000F901F9018951F920F920FB60F9211240D
:104BC0000BB60F922F933F934F935F936F937F9307
:104BD0008F939F93AF93BF93EF93FF93E0910A025C
:104BE000F0910B021995FF91EF91BF91AF919F91B9
:104BF0008F917F916F915F914F913F912F910F9086
:104C00000BBE0F900FBE0F901F9018951F920F9222
:104C10000FB60F9211240BB60F922F933F934F9321
:104C20005F936F937F938F939F93AF93BF93EF9314
:104C3000FF93E0911402F09115021995FF91EF9105
:104C4000BF91AF919F918F917F916F915F914F91A4
:104C50003F912F910F900BBE0F900FBE0F901F90A2
:104C600018951F920F920FB60F9211240BB60F9248
:104C70002F933F934F935F936F937F938F939F9364
:104C8000AF93BF93EF93FF93E0911202F091130261
:104C90001995FF91EF91BF91AF919F918F917F9166
:104CA0006F915F914F913F912F910F900BBE0F909D
:104CB0000FBE0F901F9018951F920F920FB60F9274
:104CC00011240BB60F922F933F934F935F936F93E3
:104CD0007F938F939F93AF93BF93EF93FF93E09155
:104CE0001002F09111021995FF91EF91BF91AF91D0
:104CF0009F918F917F916F915F914F913F912F91F4
:104D00000F900BBE0F900FBE0F901F9018951F9223
:104D10000F920FB60F9211240BB60F922F933F9361
:104D20004F935F936F937F938F939F93AF93BF93B3
:104D3000EF93FF93E0910E02F0910F021995FF910E
:104D4000EF91BF91AF919F918F917F916F915F9103
:104D50004F913F912F910F900BBE0F900FBE0F9070
:104D60001F9018951F920F920FB60F9211240BB639
:104D70000F922F933F934F935F936F937F938F93F4
:104D80009F93AF93BF93EF93FF938091BA0390915A
:104D9000BB03A091BC03B091BD03892B8A2B8B2B45
:104DA000E1F19091A903E091AA03F091AB03808116
:104DB000892780838091BA039091BB03A091BC03A3
:104DC000B091BD03181619061A061B069CF48091B3
:104DD000BA039091BB03A091BC03B091BD030197AE
:104DE000A109B1098093BA039093BB03A093BC03BC
:104DF000B093BD03FF91EF91BF91AF919F918F91C0
:104E00007F916F915F914F913F912F910F900BBECA
:104E10000F900FBE0F901F90189580911A020E945C
:104E2000D70BE8CF1F920F920FB60F9211240BB63B
:104E30000F922F933F934F935F936F937F938F9333
:104E40009F93AF93BF93EF93FF9380EF93E00E9404
:104E50008D10FF91EF91BF91AF919F918F917F91B5
:104E60006F915F914F913F912F910F900BBE0F90DB
:104E70000FBE0F901F9018951F920F920FB60F92B2
:104E800011240BB60F922F938F939F93EF93FF9361
:104E9000E0910004F09101048081E0910604F0911A
:104EA000070482FD1DC09081809109048F5F8F737C
:104EB00020910A04821741F0E0910904F0E0E051EA
:104EC000FC4F958F80930904FF91EF919F918F91F3
:104ED0002F910F900BBE0F900FBE0F901F90189543
:104EE0008081F2CF1F920F920FB60F9211240BB652
:104EF0000F922F933F934F935F936F937F938F9373
:104F00009F93AF93BF93EF93FF938DE894E00E943C
:104F10008D10FF91EF91BF91AF919F918F917F91F4
:104F20006F915F914F913F912F910F900BBE0F901A
:104F30000FBE0F901F9018951F920F920FB60F92F1
:104F400011240BB60F922F938F939F93EF93FF93A0
:104F5000E0919D04F0919E048081E091A304F09182
:104F6000A40482FD1DC090818091A6048F5F8F7381
:104F70002091A704821741F0E091A604F0E0E357E6
:104F8000FB4F958F8093A604FF91EF919F918F9196
:104F90002F910F900BBE0F900FBE0F901F90189582
:104FA0008081F2CF1F920F920FB60F9211240BB691
:104FB0000F922F933F934F935F936F937F938F93B2
:104FC0009F93AF93BF93EF93FF9348E251E064E266
:104FD00071E090E080E00E94AC11FF91EF91BF91F1
:104FE000AF919F918F917F916F915F914F913F9181
:104FF0002F910F900BBE0F900FBE0F901F90189522
:105000001F920F920FB60F9211240BB60F922F938F
:105010003F934F935F936F937F938F939F93AF9340
:10502000BF93EF93FF9348EA50E064EA70E083E0B7
:1050300090E00E94AC11FF91EF91BF91AF919F91D1
:105040008F917F916F915F914F913F912F910F9031
:105050000BBE0F900FBE0F901F9018951F920F92CE
:105060000FB60F9211240BB60F922F933F934F93CD
:105070005F936F937F938F939F93AF93BF93EF93C0
:10508000FF9348E950E064E970E082E090E00E941C
:10509000AC11FF91EF91BF91AF919F918F917F9153
:1050A0006F915F914F913F912F910F900BBE0F9099
:1050B0000FBE0F901F9018951F920F920FB60F9270
:1050C00011240BB60F922F933F934F935F936F93DF
:1050D0007F938F939F93AF93BF93EF93FF9348E892
:1050E00050E064E870E081E090E00E94AC11FF9134
:1050F000EF91BF91AF919F918F917F916F915F9150
:105100004F913F912F910F900BBE0F900FBE0F90BC
:105110001F9018951F920F920FB60F9211240BB685
:105120000F924F925F926F927F928F929F92AF9267
:10513000BF92CF92DF92EF92FF920F931F932F9324
:105140003F934F935F936F937F938F939F93AF930F
:10515000BF93CF93DF93EF93FF93C0918703D091D9
:105160008803CE010197909388038093870320974B
:1051700049F51092700078948091B100887F836027
:105180008093B1008AEF8093B3001092B40081E065
:10519000809309028091890390918A03892B91F071
:1051A0007090080280918503882379F160918403CF
:1051B000662359F170E040E088EE93E00E94AE1261
:1051C00010928403FF91EF91DF91CF91BF91AF9146
:1051D0009F918F917F916F915F914F913F912F910F
:1051E0001F910F91FF90EF90DF90CF90BF90AF9005
:1051F0009F908F907F906F905F904F900F900BBE1D
:105200000F900FBE0F901F90189555245394F0ECFB
:10521000AF2EFDE5BF2EAAE04A2EB4E06B2E10EDB6
:10522000C12E17E0D12E04E0E02EF12C04EF11E0A6
:105230008FE0882E912C0E94661220918903309174
:105240008A032F5F3F4F30938A032093890385366B
:1052500009F46FC00CF043C0813609F4B1C004F505
:105260008C3309F464C08E3309F45FC0813209F0D5
:105270003FC060920802D0920502C0920402F092F0
:105280000702E0920602109303020093020290923A
:1052900001028092000210928503E4E07E2ECBCFC3
:1052A000833609F490C010E00BE0843614F010E06F
:1052B00002E05CE0759E000D11240E946612982F9A
:1052C000977F933209F081C08091890390918A037E
:1052D000019690938A03809389030F5FEECF8D36FA
:1052E00009F442C054F4873651F134F18C3651F14F
:1052F00010928A031092890365CF823709F449C05E
:1053000044F48F36A9F70E948612782E8093080203
:1053100092CF843709F440C0863751F70E94861235
:10532000909301028093000286CF739484CF7A9485
:1053300082CF10E004E0BDCF10E005E0BACF10E06E
:1053400007E0B7CF0E948612BC01909307028093BA
:10535000060280910402909105020E9487367093A4
:1053600003026093020267CF0E9466128C3661F4DA
:10537000109285038091890390918A0301969093FE
:105380008A038093890357CF509285031092840338
:10539000F1CF11E000E08DCF0E948612BC01C50163
:1053A0000E948736469EC001479E900D112490931F
:1053B0000502809304026091060270910702CDCF2E
:1053C00010E009E076CF10E0E5CF8D3269F48091EE
:1053D000890390918A03019690938A0380938903AD
:1053E00001500E946612F1CF8153E0900202F090CA
:1053F0000302883058F4E0900402F09005020E9405
:105400008612BC01C7010E9487367B016701D694D2
:10541000C7940E9466128E3261F480918903909144
:105420008A03019690938A0380938903EC0CFD1CF8
:10543000EECF80918503882339F0C7019695879533
:1054400080938403E81AF10840910002111104C00E
:105450000F3F11F0411107C040E0B70188EE93E023
:105460000E94AE12AFCE013128F010EF100F1036AF
:1054700008F01FE5812F6CE00E947B36682F54EF07
:10548000560390011124210F311D2C30310538F4C1
:10549000220F331FF901E75DFD4FC081D1818730B5
:1054A000B9F0082E02C0CC0FDD1F0A94E2F782305B
:1054B00040F0CE0105966AE070E00E948736CB018D
:1054C00002C0CE019058403108F04FE0B701C8CF7C
:1054D000CE0126E0880F991F2A95E1F7029665E034
:1054E00070E0EBCF1F920F920FB60F9211240BB604
:1054F0000F922F933F934F935F936F937F938F936D
:105500009F93AF93BF93EF93FF938091B900887FF0
:10551000803609F44DC008F040C0883209F4A9C0B3
:1055200028F5803109F49DC0C8F4882309F4FBC034
:10553000883009F496C0FF91EF91BF91AF919F9190
:105540008F917F916F915F914F913F912F910F902C
:105550000BBE0F900FBE0F901F901895883109F465
:1055600088C0803241F780935B0314C0803409F413
:105570009DC040F48033B9F38833E9F680935B0330
:1055800085ECB0C0803509F485C0883509F496C033
:10559000883489F60E94D824CECF883909F48CC08B
:1055A00038F5883729F050F4883611F0803719F62D
:1055B00083E080935C0310925A0357C0883809F443
:1055C0007BC0803919F0803809F0B5CF80915A033B
:1055D000803208F071C0E0915A0381E08E0F809311
:1055E0005A038091BB00F0E0E65CFC4F80833DC035
:1055F000803B39F0E0F4803A09F479C0883A09F048
:105600009ACF84E080935C031092390310923803A0
:10561000E0919203F09193031995809138038111E1
:105620000FC081E0809338031092180309C0803CBA
:1056300009F4A6CF883C09F4A3CF883B09F07BCFBF
:10564000E091390381E08E0F80933903F0E0E85E4A
:10565000FC4F80818093BB00909139038091380387
:1056600029C0809181038093BB0085EC8093BC00AE
:1056700062CF9091800380917F03981758F5E09155
:10568000800381E08E0F80938003F0E0E15AFC4FAD
:105690008081E9CFE091800381E08E0F80938003C9
:1056A0008091BB00F0E0E15AFC4F80839091800331
:1056B00080917F039817C8F285E8D8CFE0918003E6
:1056C00081E08E0F809380038091BB00F0E0E15A6F
:1056D000FC4F808380915E0381115CCF81E08093D9
:1056E0005D0384EA8093BC0010925C0324CF85ECB8
:1056F0008093BC0010925C0380915A03803230F496
:10570000E0915A03F0E0E65CFC4F108260915A038E
:1057100070E0E0919003F09191038AE393E0199592
:1057200010925A0308CF10925B0334CF1092F30308
:105730001092F20388EE93E0A0E0B0E08093F403CF
:105740009093F503A093F603B093F70321E832E0BA
:105750003093F1032093F00345E351E05093FD03B0
:105760004093FC0344E351E05093FF034093FE0356
:1057700040E351E0509301044093000441E351E0C1
:10578000509303044093020442E351E05093050414
:105790004093040446E351E0509307044093060409
:1057A0001092090410920A0410920B0410920C0437
:1057B0001092900410928F0480939104909392041D
:1057C000A0939304B093940430938E0420938D049B
:1057D00025EC30E030939A042093990424EC30E0D7
:1057E00030939C0420939B0420EC30E030939E0483
:1057F00020939D0421EC30E03093A00420939F047B
:1058000022EC30E03093A2042093A10426EC30E097
:105810003093A4042093A3041092A6041092A7042A
:105820001092A8041092A90410922D0510922C0534
:1058300080932E0590932F05A0933005B0933105EA
:1058400083E992E090932B0580932A0581E380936E
:105850006E0684E690E0A0E0B0E080936F0690933F
:105860007006A0937106B0937206109273061092A0
:1058700074061092750610927606109277061092B2
:1058800078062FE220936306109264061092650654
:1058900010926606109267061092680610926906CA
:1058A00010926A0610926B0610926C0610926D06AA
:1058B0002DE2209358061092590610925A06109223
:1058C0005B0610925C0610925D0610925E061092C6
:1058D0005F061092600610926106109262062BE23B
:1058E00020934D0680934E0690934F06A09350064A
:1058F000B09351061092520610925306109254061D
:1059000010925506109256061092570629E22093DF
:1059100042061092430610924406109245061092D9
:1059200046061092470610924806109249061092B9
:105930004A0610924B0610924C0627E22093370637
:10594000109238061092390610923A0610923B06D1
:1059500010923C0610923D0610923E0610923F06B1
:10596000109240061092410625E220932C06809367
:105970002D0690932E06A0932F06B093300610921A
:1059800031061092320610923306109234061092AD
:1059900035061092360623E2209321061092220645
:1059A00010922306109224061092250610922606C5
:1059B00010922706109228061092290610922A06A5
:1059C00010922B0621E220931606109217061092D1
:1059D00018061092190610921A0610921B061092C1
:1059E0001C0610921D0610921E0610921F061092A1
:1059F00020062FE120930B0680930C0690930D0652
:105A0000A0930E06B0930F06109210061092110686
:105A10001092120610921306109214061092150698
:105A20008DE18093000610920106109202061092FA
:105A300003061092040610920506109206061092B4
:105A40000706109208061092090610920A068BE1CA
:105A50008093F5051092F6051092F7051092F8055F
:105A60001092F9051092FA051092FB051092FC05B0
:105A70001092FD051092FE051092FF058BE090E05C
:105A80009093ED058093EC0589E090E09093EF050D
:105A90008093EE058AE090E09093F1058093F00505
:105AA0008091C605803308F08CC091E0980F9093E8
:105AB000C6058093F20590E0FC01EE0FFF1FE80F92
:105AC000F91FEA5CFA4F88EB9BE092838183109286
:105AD000EB051092EA0560E089E00E94520961E05E
