:020000040000FA
:100000000C9494070C94C5070C94C5070C94C50771
:100010000C94C5070C94C5070C94C5070C94C50730
:100020000C94C5070C94C5070C94C5070C94C50720
:100030000C94C5070C9496200C94C5070C94B6211B
:100040000C94C5070C944C250C94C5070C94C5075B
:100050000C94C5070C94C5070C94C5070C944C2050
:100060000C94C5070C9480210C9456210C94C50760
:100070000C94C5070C94C5070C94C5070C94C507D0
:100080000C941E250C94C5070C94C5070C94C50749
:100090000C94C5070C94C5070C94C5070C949E23BB
:1000A0000C94C5070C94C5070C94F0240C94C50758
:1000B0000C94C5070C94C5070C94C5070C94C22476
:1000C0000C94C5070C94C5070C94C5070C94C50780
:1000D0000C94C5070C94C5070C9420210C94F620B1
:1000E0000C94C50705A84CCDB2D44EB93836A90238
:1000F0000C50B9918688083CA6AAAA2ABE00000026
:10010000803F0C9433090C94350A0C9445090C94E7
:10011000A40F0C94F40F0C94900A0C94810F0C947F
:100120000B0B0C9437090C944F0A0C947A250C9401
:10013000B20F0C94140A0C94AF1F0C9492140C94EC
:100140007A1B0C9401170C943F0A0C94540F0C94D6
:100150006E180C946D130C94251D0C94001E0C94B9
:100160004D1D0C9441100C9483140C94A81A0C94FB
:100170000A0B0C94AC140C9426130C9406090C94E2
:10018000210A0C9441090C94590A0C9429090C94E5
:10019000A40A0C9400090C942D090C940E090C94DB
:1001A000FE0B0C94D9140C941C0A0C947C0A0C942D
:1001B000411D0C9415090C94D91B0C94DD120C9460
:1001C000511C0C942B0A0C94630A0C941F090C9478
:1001D000011E0C943B090C946E1C0C94A5140C94F9
:1001E0006D0A0C94541D0C941B090C94860A0C94F3
:1001F000351D0C9425090C94AE0A0C949A0A0C94A3
:100200000A090C94900F0C94470A0C9412090C9450
:1002100040090C94821400000000003E5B4F5B3EDE
:100220003E6B4F6B3E1C3E7C3E1C183C7E3C181CBB
:10023000577D571C1C5E7F5E1C00183C1800FFE7B2
:10024000C3E7FF0018241800FFE7DBE7FF30483A58
:10025000060E2629792926407F050507407F0525BA
:100260003F5A3CE73C5A7F3E1C1C08081C1C3E7F42
:1002700014227F22145F5F005F5F06097F017F0009
:100280006689956A606060606094A2FFA294080429
:100290007E040810207E201008082A1C08081C2A4A
:1002A00008081E101010100C1E0C1E0C30383E38A2
:1002B00030060E3E0E06000000000000005F000049
:1002C0000007000700147F147F14242A7F2A1223BA
:1002D0001308646236495620500008070300001CCA
:1002E0002241000041221C002A1C7F1C2A08083ED3
:1002F00008080080703000080808080800006060E6
:100300000020100804023E5149453E00427F400053
:1003100072494949462141494D331814127F10272B
:10032000454545393C4A494931412111090736497A
:10033000494936464949291E00001400000040344E
:100340000000000814224114141414140041221453
:100350000802015909063E415D594E7C1211127C7A
:100360007F494949363E414141227F4141413E7FDB
:10037000494949417F090909013E414151737F08BB
:1003800008087F00417F41002040413F017F081461
:1003900022417F404040407F021C027F7F040810C2
:1003A0007F3E4141413E7F090909063E4151215EA0
:1003B0007F09192946264949493203017F01033F34
:1003C0004040403F1F2040201F3F4038403F6314C3
:1003D00008146303047804036159494D43007F41C5
:1003E00041410204081020004141417F0402010202
:1003F0000440404040400003070800205454784027
:100400007F284444383844444428384444287F38BA
:100410005454541800087E090218A4A49C787F083C
:1004200004047800447D40002040403D007F1028B7
:10043000440000417F40007C047804787C08040478
:10044000783844444438FC1824241818242418FC10
:100450007C08040408485454542404043F44243CB5
:100460004040207C1C2040201C3C4030403C442824
:100470001028444C9090907C4464544C44000836BE
:10048000410000007700000041360800020102042C
:10049000023C2623263C1EA1A161123A4040207A4C
:1004A0003854545559215555794122545478422194
:1004B0005554784020545579400C1E5272123955CB
:1004C00055555939545454593955545458000045C8
:1004D0007C410002457D420001457C407D121112A5
:1004E0007DF0282528F07C545545002054547C5438
:1004F0007C0A097F4932494949323A4444443A32F4
:100500004A4848303A4141217A3A42402078009D99
:10051000A0A07D3D4242423D3D4040403D3C24FF45
:100520002424487E4943662B2FFC2F2BFF0929F6F4
:1005300020C0887E090320545479410000447D4145
:100540003048484A32384040227A007A0A0A727D9E
:100550000D19317D2629292F2826292929263048B9
:100560004D4020380808080808080808382F10C827
:10057000ACBA2F102834FA00007B000008142A14AB
:100580002222142A14085500550055AA55AA55AA26
:10059000FF55FF55FF000000FF00101010FF001472
:1005A0001414FF001010FF00FF1010F010F01414CE
:1005B00014FC001414F700FF0000FF00FF1414F4F3
:1005C00004FC141417101F10101F101F1414141FF4
:1005D00000101010F0000000001F101010101F106D
:1005E000101010F010000000FF101010101010106C
:1005F0001010FF10000000FF140000FF00FF0000BB
:100600001F10170000FC04F414141710171414F42E
:1006100004F40000FF00F714141414141414F70069
:10062000F7141414171410101F101F141414F414BA
:100630001010F010F000001F101F0000001F140029
:100640000000FC140000F010F01010FF10FF141454
:1006500014FF141010101F00000000F010FFFFFF27
:10066000FFFFF0F0F0F0F0FFFFFF0000000000FFE0
:10067000FF0F0F0F0F0F3844443844FC4A4A4A34E6
:100680007E02020606027E027E02635549416338FD
:1006900044443C04407E201E2006027E020299A5AE
:1006A000E7A5991C2A492A1C4C7201724C304A4D0C
:1006B0004D303048784830BC625A463D3E49494941
:1006C000007E0101017E2A2A2A2A2A44445F4444EA
:1006D00040514A444040444A51400000FF0103E079
:1006E00080FF000008086B6B083612362436060FB0
:1006F000090F06000018180000001010003040FF1D
:100700000101001F01011E00191D1712003C3C3C95
:100710003C00000000002200FF21000103070F1F22
:100720003F7F0080C0E0F0F8FCFEDB40A4A62EAFC7
:100730002000A1C8D300408DAED580A80000600085
:1007400000000000000000000000000000E00000C9
:10075000000000000000000000000001E0000000B8
:100760000000000000000000000001F00000000098
:1007700000000000000000000003F0000000000086
:10078000000000000000000007F000000000000072
:100790000000000000000007F8000000000000005A
:1007A0000000000000000FF800000003C0007E0001
:1007B0000001E0007F0FF800000003C000FE000011
:1007C00001E000FFEFF800000003C000FE000001A0
:1007D000E000FFFFF800000003C000F00000000F81
:1007E000007FFE7FC0000003C000F00000000F008B
:1007F0003FFE7FF83FF1FBCFFCFEF3BC3DEFE01F77
:10080000FE7FFF7FFBFFDFFEFEFFBC3DEFE01FC66C
:10081000FFFF7FFBFFDFFEFEFFBC3DEFE00FE3C706
:10082000FE787BC3DE1EF0FFBC3DEF0007FF87FCB8
:10083000787BC3DE1EF0F83C3DEF0001FFFFF000C7
:100840007BC3C01EF0F03C3DEF0001F37FE03FFBB7
:10085000C3CFFEF0F03C3DEF0003E33F807FFBC3DE
:10086000DFFEF0F03C3DEF0007E73C00787BC3DEA5
:100870001EF0F03C3DEF0007FFBE00787BC3DE1E9C
:10088000F0F03C3DEF0007FFFE00787BC3DE1EF07A
:10089000F03C3DEF000FFFFE007FFBFFDFFEF0F0BE
:1008A0003FFDEFE00FFFFF007FFBFFDFFEF0F03FBB
:1008B000FDEFE00FF9FF003E79F9CF9EF0F01F3D0C
:1008C000E7E01FF1FF000000000000000000000052
:1008D000001F80FF007FFFFFFFFFFFFFFFFFFFE024
:1008E0001C007F007FFFFFFFFEB46D888D18E000C5
:1008F000001F007FFFFFFFFE95AD7DB577E0000094
:100900000F007FFFFFFFFEA5AD9D8D19E0000006E3
:10091000007FFFFFFFFEB5ADEDB57EE000000000FB
:1009200000018000000000000000000003800000C3
:100930000000000000000007C000000000000000F0
:10094000000007C00000000000000000000FC00011
:1009500000000000000000001FE000000000000098
:100960000000001FE00000000000000000003FE069
:100970000000000000000000003FF0000000000048
:10098000000000007FF0000000000000001FF87F62
:10099000F0000000000000003FFE7FF000000000BB
:1009A0000000003FFF7FF0000000000000001FFF7C
:1009B000FBE0000000000000000FFFF9FFC0000096
:1009C000000000000FFFF9FFF80000000000000722
:1009D000FFF1FFFF00000000000003FC73FFFF8039
:1009E000000000000001FE3FFFFF8000000000004B
:1009F00000FF1E0FFF000000000000007FFE1FFC34
:100A0000000000000000003FFFFFF80000000000B1
:100A100000000FDFFFE0000000000000001F19FFD2
:100A2000C0000000000000003F3CFF00000000008C
:100A30000000007E7CF800000000000000007FFE47
:100A40007C0000000000000000FFFFFC0000000030
:100A500000000000FFFFFE0000000000000000FF9B
:100A6000FFFE0000000000000001FFEFFE0000009C
:100A70000000000001FFCFFE0000000000000003A6
:100A8000FF07FE0000000000000003FC07FE00005E
:100A9000000000000003F003FE0000000000000062
:100AA000018000FE000000000000000000007E0049
:100AB0000000000000000000003E000000000000F8
:100AC000000000000C000000000000078000FC0097
:100AD0000003C0000000078001FC000003C000000C
:100AE00000078001FC000003C0000000078001E057
:100AF0000000001E000000078001E00000001E0052
:100B00007FE3F79FF9FDE7787BDFC0FFF7FFBFFDCD
:100B1000FDFF787BDFC0FFF7FFBFFDFDFF787BDFC8
:100B2000C0F0F787BC3DE1FF787BDE00F0F787BCC3
:100B30003DE1F0787BDE0000F787803DE1E0787BE7
:100B4000DE007FF7879FFDE1E0787BDE00FFF7871F
:100B5000BFFDE1E0787BDE00F0F787BC3DE1E078A7
:100B60007BDE00F0F787BC3DE1E0787BDE00F0F74C
:100B700087BC3DE1E0787BDE00FFF7FFBFFDE1E0F1
:100B80007FFBDFC0FFF7FFBFFDE1E07FFBDFC07C45
:100B9000F3F39F3DE1E03E7BCFC00000000000008A
:100BA0000000000000FFFFFFFFFFFFFFFFFFFFC08F
:100BB000FFFFFFFFFD68DB111A31C0FFFFFFFFFDE4
:100BC0002B5AFB6AEFC0FFFFFFFFFD4B5B3B1A3365
:100BD000C0FFFFFFFFFD6B5BDB6AFDC000000FFF86
:100BE000FFF0000000003FFFFFFC00000000FFFFDF
:100BF000FFFF00000001FFF00FFF80000007FC0076
:100C0000003FE000000FE0000007F000001F800040
:100C10000001F800003E000000007C00007C0000A5
:100C200000003E0000F0000000000F0001E00000A6
:100C30000000078003C00000000003C00780000020
:100C4000000001E007000000000000E00E000000CE
:100C5000000000701C000000000000383800000098
:100C60000000001C380000000000001C70000000A4
:100C70000000000E700000000000000EE000000008
:100C800000000007E000000000000007C0000000B6
:100C900000000003C000000000000003C0000000CE
:100CA0000000000380000000000000018000000040
:100CB0000000000180000000000000018000000032
:100CC0000000000180000000000000018000000022
:100CD0000000000180000000000000010000210071
:100CE000240027002A002D003000330001010000FD
:100CF000040107010A01000020002300260029004A
:100D00002C002F0032000001000003010601090140
:100D100000000A0B02090C0D0E0807030401000075
:100D200000000000000000000000000000000000C3
:100D30000000000000000000000000001211100080
:100D400000000000000000000000000000000000A3
:100D500000000000000001021020200808102040C0
:100D6000102040800201020108040201010204086F
:100D700010204080804020100804020180040201FD
:100D80008040201008040201080402010102040846
:100D90001020408001020408102040800000220042
:100DA000250028002B002E00310034000201000035
:100DB000050108010B0105050505070508080808D8
:100DC000020202020A0A08080404040401010101E3
:100DD00001010101030303030303030304070707DE
:100DE0000C0C0C0C0C0C0C0C020202020606060683
:100DF000060606060B0B0B0B0B0B0B0B025D01041F
:100E00000088010400B801080088010400B8010846
:100E100000D2010400B8010400880108005D01044B
:100E20000088010800B8010400060108000601045A
:100E3000000601080006010400060101005D01042E
:100E40000088010400B801080088010400B8010806
:100E500000D2010400B8010400880108005D01040B
:100E60000088010800B8010400060108000601041A
:100E70000006010800060104000601FEFF0000F85C
:100E8000FFB8011000B801F8FFB8011000B801F870
:100E9000FFB8011000B801F8FFB8011000B801F860
:100EA000FFB8011000D201F8FFD2011000D201F802
:100EB000FFD2011000D201F8FFD2011000D201F8D8
:100EC000FFD2011000B801F8FFB8011000B801F816
:100ED000FFB8011000B801F8FFB8011000B801F820
:100EE000FFB80110008801F8FF880110008801F8A0
:100EF000FF880110008801F8FF880110008801F8C0
:100F0000FF88011000B801F8FFB8011000B801F81F
:100F1000FFB8011000B801F8FFB8011000B801F8DF
:100F2000FFB8011000007A2511241FBECFEFD1E2D7
:100F3000DEBFCDBF00E00CBF12E0A0E0B2E0E2E80F
:100F4000F6E600E00BBF02C007900D92AC3AB10785
:100F5000D9F726E0ACEAB2E001C01D92A033B20797
:100F6000E1F717E0C4E9D7E000E006C021970109E6
:100F7000802FFE010E941531C339D10780E0080798
:100F8000A9F70E9450280C943F330C940000FC01F8
:100F9000A089B18982E08C93A485B5851C92A68531
:100FA000B7858FEC8C93108EA489B58986E08C93DD
:100FB000A289B3898C9180618C93A289B3898C9129
:100FC00088608C93A289B3898C9180688C93028805
:100FD000F389E02D80818F7D808308953F924F9229
:100FE0005F926F927F928F929F92AF92BF92CF92B9
:100FF000DF92EF92FF920F931F93CF93DF9300D076
:101000001F92CDB7DEB79C838B833B016A015901E8
:10101000DC01ED91FC910284F385E02D1995280106
:10102000B7E04B0E511C93E0559447949A95E1F725
:10103000C6018E0D9F1D9A838983912C812C312CA2
:10104000F12CE12CC70187709927330C892B59F4B7
:10105000F70183E0F595E7958A95E1F7E80DF91D2D
:10106000EA0DFB1D349037FE10C0AB81BC81ED91C1
:10107000FC9111970484F585E02D21E030E0A60174
:10108000B701660D771DCD011995BFEFEB1AFB0A6D
:101090000E151F05B9F68FEFC81AD80A840C951CD7
:1010A000A981BA81CA16DB0659F6AB81BC81ED91E4
:1010B000FC9111970688F789E02DCD010F900F90D4
:1010C0000F900F90DF91CF911F910F91FF90EF90B4
:1010D000DF90CF90BF90AF909F908F907F906F9058
:1010E0005F904F903F9019948F929F92AF92BF92D2
:1010F000FF920F931F93CF93DF93F0907A052FE227
:101100002F1508F455C020917C0508E512E0021B5C
:10111000110927FD1395000F111F000F111F2091BA
:101120007B05C8E8D0E0C21BD10927FDD395CC0FC1
:10113000DD1FCC0FDD1F4E010D2E000CAA08BB08D1
:10114000DC01853B910514F0A4EBB0E0B7FF02C0D1
:10115000B0E0A0E09801012E000C440B550B2819BB
:1011600039094A095B090E94EE2E24EB30E040E089
:1011700050E00E94C42E820E931EA41EB51E8C1633
:101180009D062CF0E801801691060CF4E4012297EC
:10119000CC0FDD1F2FB7F8948F2D90E0FC01EE0FE0
:1011A000FF1FE80FF91FE751FB4FD283C1832FBF09
:1011B000DF91CF911F910F91FF90BF90AF909F90C3
:1011C0008F9008958150823108F05AC0E82FF0E0E6
:1011D0008827E251F74F8F4F0C9415310E091209F1
:1011E000000906090A09400915091B091F092509F3
:1011F00029092D093309370940093B0941094509E6
:10120000809180008F778093800008958091800086
:101210008F7DF9CF80918000877FF5CF84B58F7760
:1012200084BD089584B58F7DFBCF8091B0008F770A
:101230008093B00008958091B0008F7DF9CF8091A8
:1012400090008F77809390000895809190008F7D1B
:10125000F9CF80919000877FF5CF8091A0008F77A4
:101260008093A00008958091A0008F7DF9CF809198
:10127000A000877FF5CF809120018F778093200198
:101280000895809120018F7DF9CF80912001877F83
:10129000F5CFCF93DF93282F30E0F901E05FF24FD5
:1012A0008491F901EA5AF24FD491F901EA54F24FCC
:1012B000C491CC23A1F081110E94E208EC2FF0E050
:1012C000EE0FFF1FEA50F34FA591B491EC91ED237F
:1012D00081E090E009F480E0DF91CF91089580E013
:1012E00090E0FACF1F93CF93DF93282F30E0F901DE
:1012F000E05FF24F8491F901EA5AF24FD491F9017B
:10130000EA54F24FC491CC23A9F0162F81110E9408
:10131000E208EC2FF0E0EE0FFF1FE456F24FA5912C
:10132000B4918FB7F894EC91111108C0D095DE23D9
:10133000DC938FBFDF91CF911F910895DE2BF8CF03
:10134000CF93DF9390E0FC01EA5AF24F24918A5444
:10135000924FFC0184918823C9F090E0880F991F77
:10136000FC01E452F34FA591B491FC01E456F24F15
:10137000C591D49161110DC09FB7F8948C912095BF
:1013800082238C938881282328839FBFDF91CF916C
:101390000895623051F49FB7F8943C91822F809564
:1013A00083238C93E8812E2BEFCF8FB7F894EC91A9
:1013B0002E2B2C938FBFEACF1F93CF93DF93182F41
:1013C000EB0161E00E94A009209739F460E0812FD1
:1013D000DF91CF911F910C947209CF3FD10511F489
:1013E00061E0F5CFE12FF0E0E05FF24FE491E150F2
:1013F000E23108F0B3C0F0E08827EE5FF54F8F4F81
:101400000C941531140A1C0A210A2B0A350AAE0A5B
:101410003F0A470A4F0A590A630A6D0A7C0A860A7C
:10142000AE0A900A9A0AA40A84B5806884BDC7BD32
:10143000DF91CF911F91089584B5806284BDC8BDAE
:10144000F7CF80918000806880938000D0938900DE
:10145000C0938800EDCF80918000806280938000EF
:10146000D0938B00C0938A00E3CF80918000886086
:1014700080938000D0938D00C0938C00D9CF809151
:10148000B00080688093B000C093B300D1CF80914A
:10149000B00080628093B000C093B400C9CF809147
:1014A0009000806880939000D0939900C09398003A
:1014B000BFCF80919000806280939000D0939B007A
:1014C000C0939A00B5CF809190008860809390007F
:1014D000D0939D00C0939C00ABCF8091A00080680A
:1014E0008093A0008091A0008F7B8093A000D09378
:1014F000A900C093A8009CCF8091A0008062809337
:10150000A000D093AB00C093AA0092CF8091A0001E
:1015100088608093A000D093AD00C093AC0088CFCA
:1015200080912001806880932001D0932901C0938D
:1015300028017ECF80912001806280932001D0938A
:101540002B01C0932A0174CF809120018860809381
:101550002001D0932D01C0932C016ACFC038D10552
:101560000CF03ECF33CF3FB7F89480917703909142
:101570007803A0917903B0917A0326B5A89B05C0A2
:101580002F3F19F00196A11DB11D3FBFBA2FA92F02
:10159000982F8827BC01CD01620F711D811D911DFF
:1015A00042E0660F771F881F991F4A95D1F708956B
:1015B0008F929F92AF92BF92CF92DF92EF92FF9263
:1015C0004B015C010E94B30A6B017C010E94B30ACB
:1015D0006C197D098E099F09683E7340810591054C
:1015E000A8F321E0821A9108A108B10888EEC80E7C
:1015F00083E0D81EE11CF11C81149104A104B10404
:1016000029F7FF90EF90DF90CF90BF90AF909F9021
:101610008F9008950895089590910A0289130DC03E
:10162000ECEFFDE0E4919FEF90930A02E230E1F0ED
:1016300038F4EE2381F0E13089F060E00C94720917
:10164000E43049F110F1E530C1F7909173009D7FCE
:1016500090937300F2CF10926E00EFCF90916F00D5
:101660009D7F90936F00E9CF909170009D7F909344
:10167000700091E09093B0009091B100987F9460D9
:101680009093B1001092B300D8CF909171009D7FDC
:1016900090937100D2CF909172009D7F90937200D1
:1016A000CCCF4F925F926F927F928F929F92AF9228
:1016B000BF92CF92DF92EF92FF920F931F93CF933F
:1016C000DF9300D01F921F92CDB7DEB781E020914B
:1016D0009F033091A003232B09F090C010921806AD
:1016E00010921706009117061091180680911006A7
:1016F00090911106880F991F081719077CF7E09041
:101700000E06F0900F0680911406909115060F5F5B
:101710001F4F000F111FF701E00FF11F659174912A
:1017200070931A0660931906161617060CF085C0FA
:101730000E94013170931C0660931B06F8013297DA
:10174000EE0DFF1D0591149101151105F1F0609149
:101750001B0670911C06072E000C880B990B0E942B
:10176000CB2D26E636E646E65FE30E94062E0E9473
:1017700012302B013C018091160690910A028917C4
:1017800009F46FC09F3F09F4E7C08FB7F894409108
:101790007B0350917C0360917D0370917E038FBF2A
:1017A00080911B0690911C06092E000CAA0BBB0B06
:1017B000840F951FA61FB71F80931D0690931E06CA
:1017C000A0931F06B09320068FB7F89440917B0337
:1017D00050917C0360917D0370917E038FBF80E008
:1017E00000911D0610911E0620911F0630912006C3
:1017F000401751076207730708F0F2C22EEF3BE073
:101800003093A00320939F038111DECF81E00F90DE
:101810000F900F900F900F90DF91CF911F910F912C
:10182000FF90EF90DF90CF90BF90AF909F908F9000
:101830007F906F905F904F900895719561957109B9
:101840000E940131072E000C880B990B0E94CB2DB2
:1018500020E030E040EC5FE30E94062E0E940B3057
:1018600069CFECEFFDE024912D8327FD8ECF61E061
:101870000E94A0092D81222321F08D81823009F060
:10188000D4C14801B12CA12C60E072E18AE790E05C
:10189000A50198010E94C42E29833A834B835C835F
:1018A00069017A0191E0C91AD108E108F1082FEF26
:1018B000C216D104E104F10409F00CF485C160E41E
:1018C00072E48FE090E0A50198010E94C42E6901A6
:1018D0007A0181E0C81AD108E108F1089D819230AF
:1018E00009F026C182E02FEFC216D104E104F10411
:1018F00009F00CF4D2C260E970ED83E090E0A5013C
:1019000098010E94C42E69017A0181E0C81AD108A9
:10191000E108F10883E09FEFC916D104E104F10466
:1019200009F00CF4BAC268E478EE81E090E0A50119
:1019300098010E94C42E69017A0181E0C81AD10879
:10194000E108F1089FEFC916D104E104F10411F098
:101950000CF012C184E0A1C280930A02ECEFFDE01A
:1019600094919D839F3F09F410CF923009F474C085
:1019700058F4992399F1913009F44CC097FD05CFA3
:1019800061E00E94A00979CF2D81243009F4AEC016
:1019900008F488C0253091F710922001109221019F
:1019A0009091210198609093210190912101916083
:1019B00090932101282F30E0F901EA54F24FE4918D
:1019C000F0E0EE0FFF1FE456F24F45915491F901FC
:1019D000EA5AF24FE491E0937F0349CF14BC15BC5F
:1019E00094B5926094BD95B5916095BD282F30E077
:1019F000F901EA54F24FE491F0E0EE0FFF1FE456D4
:101A0000F24F45915491F901EA5AF24FE491E09373
:101A100086032DCF1092800010928100909181005A
:101A200098609093810090918100916090938100E3
:101A3000282F30E0F901EA54F24FE491F0E0EE0F84
:101A4000FF1FE456F24F45915491F901EA5AF24FC3
:101A5000E491E09385030BCF1092B0001092B10097
:101A60009091B00092609093B0009091B10091601D
:101A70009093B100282F30E0F901EA54F24FE4913D
:101A8000F0E0EE0FFF1FE456F24F45915491509352
:101A9000840340938303F901EA5AF24FE491E093FF
:101AA0008203E5CE109290001092910090919100E7
:101AB0009860909391009091910091609093910023
:101AC000282F30E0F901EA54F24FE491F0E0EE0FF4
:101AD000FF1FE456F24F45915491F901EA5AF24F33
:101AE000E491E093810393E09D83C1CE1092A00026
:101AF0001092A1009091A10098609093A100909104
:101B0000A10091609093A100282F30E0F901EA54E0
:101B1000F24FE491F0E0EE0FFF1FE456F24F4591D3
:101B20005491F901EA5AF24FE491E09380039FCE79
:101B30002FEFC216D104E104F10409F00CF473C0D4
:101B400068E478EE81E090E0A50198010E94C42E3F
:101B500069017A0181E0C81AD108E108F1089D8184
:101B6000992309F466C18FEFC816D104E104F1048A
:101B700009F00CF4EFCE66C164E274EF80E090E00F
:101B8000A50194010E94C42E69017A0181E0C81A5E
:101B9000D108E108F10885E09FEFC916D104E104FE
:101BA000F10409F008F479C162E17AE780E090E09D
:101BB000A50194010E94C42E69017A0191E0C91A1D
:101BC000D108E108F10850C181E02D81211165C1E2
:101BD00095B5987F892B85BD2FEF3FEFA901411463
:101BE00051046104710409F049C09D81923009F4E7
:101BF000E7C00CF0CEC0992309F4D3C0913009F0AE
:101C0000C4CDD0928900C09288002093970330936E
:101C100098034093990350939A0380916F008260D8
:101C200080936F00B2CD82E0D0CFB12CA12C60E0C8
:101C300072E18AE790E0A50198010E94C42E690133
:101C40007A0181E0C81AD108E108F108C114D10471
:101C500091E0E906F10404F591E02D81213069F568
:101C600080918100887F892B809381002FEF3FEF47
:101C7000A901411451046104710419F2D801AA0F99
:101C8000BB1FA30192010E94E32E28EE33E040E047
:101C900050E00E94F62EA9CF68E478EE81E090E053
:101CA000A50198010E94C42E69017A0181E0C81A39
:101CB000D108E108F10893E0D0CF8D81833001F5A0
:101CC00080919100887F892B809391002FEF3FEFC7
:101CD000A901411451046104710481F6D092990064
:101CE000C092980020938F03309390034093910308
:101CF000509392038091710082608093710045CD72
:101D00002D81243009F58091A100887F892B809353
:101D1000A1002FEF3FEFA9014114510461047104A8
:101D200009F0ACCFD092A900C092A80020938B03F9
:101D300030938C0340938D0350938E0380917200F7
:101D400082608093720021CD8D81853009F044CF6F
:101D500080912101887F892B809321012FEF3FEF14
:101D6000A901411451046104710409F087CFD09294
:101D70002901C09228012093870330938803409360
:101D8000890350938A03809173008260809373006B
:101D9000FCCC8D81843031F20CF4A0CF853039F346
:101DA000F4CCC7BC20939B0330939C0340939D03CA
:101DB00050939E0380916E00826080936E00E5CC0C
:101DC000C092B30020939303309394034093950300
:101DD0005093960380917000826080937000D5CC00
:101DE000809116060E940C0B8091170690911806A0
:101DF0000296909318068093170674CC84E09FEFA8
:101E0000C916D104E104F10409F008F4E1CEC98057
:101E1000DA80EB80FC808AE0F594E794D794C7944D
:101E20008A95D1F781E0C81AD108E108F10885E068
:101E3000CFCE83E02FEFC216D104E104F10409F004
:101E40000CF4C6CE62E17AE780E090E0A50194014F
:101E50000E94C42E69017A0181E0C81AD108E10804
:101E6000F1089D81992351F286E02FEFC216D1042B
:101E7000E104F10491F088F0C980DA80EB80FC8005
:101E80009AE0F594E794D794C7949A95D1F791E0A6
:101E9000C91AD108E108F10887E09091B100987F54
:101EA000892B8093B10098CEAF92BF92CF92DF92F0
:101EB000EF92FF920F931F93CF93DF936C017B01FF
:101EC0008B01040F151FEB015E01AE18BF08C01790
:101ED000D10759F06991D601ED91FC910190F08103
:101EE000E02DC6011995892B79F7C501DF91CF91B6
:101EF0001F910F91FF90EF90DF90CF90BF90AF9028
:101F00000895FC01538D448D252F30E0842F90E0FF
:101F1000821B930B541710F0CF96089501970895E4
:101F2000FC01918D828D981761F0A28DAE0FBF2FAD
:101F3000B11D5D968C91928D9F5F9F73928F90E003
:101F400008958FEF9FEF0895FC01918D828D981772
:101F500031F0828DE80FF11D858D90E008958FEFAF
:101F60009FEF0895FC01918D228D892F90E0805C78
:101F70009F4F821B91098F739927089583EA93E0FD
:101F80000E94B20F21E0892B09F420E0822F0895EE
:101F900080E494E00E94B20F21E0892B09F420E054
:101FA000822F0895FC01A48DA80FB92FB11DA35A4B
:101FB000BF4F2C91848D90E001968F739927848F69
:101FC000A689B7892C93A089B1898C91837080648C
:101FD0008C93938D848D981306C00288F389E02D2D
:101FE00080818F7D80830895EF92FF920F931F93DE
:101FF000CF93DF93EC0181E0888F9B8D8C8D9813BC
:102000001AC0E889F989808185FF15C09FB7F894C7
:10201000EE89FF896083E889F98980818370806413
:1020200080839FBF81E090E0DF91CF911F910F915E
:10203000FF90EF900895F62E0B8D10E00F5F1F4F6D
:102040000F731127E02E8C8D8E110CC00FB607FC7C
:10205000FACFE889F989808185FFF5CFCE010E940A
:10206000D20FF1CFEB8DEC0FFD2FF11DE35AFF4F97
:10207000F0829FB7F8940B8FEA89FB898081806298
:10208000CFCFCF93DF93EC01888D8823B9F0AA8955
:10209000BB89E889F9898C9185FD03C0808186FD23
:1020A0000DC00FB607FCF7CF8C9185FFF2CF808172
:1020B00085FFEDCFCE010E94D20FE9CFDF91CF9106
:1020C000089580E090E0892B29F00E94C80F8111CB
:1020D0000E94000080E090E0892B49F080E090E0D1
:1020E000892B29F00E94000081110E94000080E0ED
:1020F00090E0892B49F080E090E0892B29F00E9444
:10210000000081110E94000080E090E0892B29F0FE
:102110000E94BE0F81110C940000089520916B0362
:1021200030916C03F90181919FEB980F9A3140F443
:1021300030936C0320936B03805E08959F01F2CF70
:10214000803239F4232BD1F7F0936C03E0936B03C7
:10215000089530936C0320936B0308951F93CF93DE
:10216000DF930E948E10D0E0C0E01AE090ED980F4F
:102170009A30B8F41C9F90011D9F300D1124E90185
:10218000C80FD11D87FDDA95E09780916B03909180
:102190006C03019690936C0380936B030E948E10E6
:1021A000E5CFCE01DF91CF911F9108952F923F92FD
:1021B0004F925F926F927F928F929F92AF92BF9257
:1021C000CF92DF92EF92FF920F931F93CF93DF9303
:1021D00000D01F921F92CDB7DEB77A8369834B83FD
:1021E00020916803211112C021E02093680310920E
:1021F000700021E22093B0002BE02093B1002AEF81
:102200002093B3001092B400539A7894109209026C
:102210003324339497FF03C09F773AE0332E28E2AC
:10222000329E202D112430E03D832C8382179307AA
:1022300060F021E09D838C83321207C08131974288
:1022400020F080E197E29D838C83832C912CB12C2C
:10225000A12C4C805D8056944794712C612C2C816C
:102260003D816901F12CE12CA501940160E472E447
:102270008FE090E00E94D130640D751D861D971D82
:10228000A70196010E94C42E890122E0222E0F3F51
:10229000110501F1F8F02394E22DF0E0EE0FFF1F9D
:1022A000E55DFD4F2081318150E040E060E072E16A
:1022B0008AE790E00E94C42EC501B4010E94D1308B
:1022C000640D751D861D971DA70196010E94C42EE1
:1022D0008901DDCF3AE0331209C08C819D810596DA
:1022E0006AE070E00E94ED307D836C838C819D817B
:1022F000883E23E0920769F029813A81DC010E943F
:10230000182F28EE33E040E050E00E94C42E3A83BC
:102310002983109270008091B100887F282A209232
:10232000B1000093B3008B81803108F08FE020E191
:1023300030E0281B310902C0169507952A95E2F76F
:102340000093B40089819A8190936A038093690312
:1023500087B38FEF87BB81E0809370000F900F9061
:102360000F900F900F90DF91CF911F910F91FF90E1
:10237000EF90DF90CF90BF90AF909F908F907F9025
:102380006F905F904F903F902F900895EF92FF9243
:102390000F931F93CF93DF93EC01EC80FD806E15BC
:1023A0007F050CF070C057FF04C0240F351F50E0AC
:1023B00040E08E819F81FA01E20FF31F8E179F0785
:1023C0001CF49C01241B350B121613060CF05BC089
:1023D000922F842F8695869586958E9DD0018F9D10
:1023E000B00D11246A0F7B1FAF8DB8A1A60FB71FC8
:1023F000477049F188E0841B482F682F70E0FB018B
:10240000EE5DF84FE491281708F063C0621B710974
:102410002FEF30E002C0359527956A95E2F7E22369
:102420000130110539F0B0F10230110561F58C91E0
:10243000E82702C08C91E82BEC93941720F12C81B3
:102440003D81A20FB31FE92FE41BE83078F0023082
:10245000110521F58E2F9C9190959C932C813D81A7
:10246000A20FB31F88508830B0F7E770EE2359F001
:10247000F0E0E65EF84FE49101301105F9F010F15B
:102480000230110519F1DF91CF911F910F91FF904B
:10249000EF900895E0958C91E823CECF81E001156F
:1024A000110509F480E081959E2F8C932C813D814C
:1024B000A20FB31F98509830C0F7D7CF8C91E82B5C
:1024C000EC93E1CFE0958C91E823FACF8C91E8274B
:1024D000F7CF0130110509F4ADCFE0F2023011055C
:1024E00009F4A5CFAE0DBF1DAECF0F931F93CF93B1
:1024F000DF9377FF04C0260F371F70E060E0DC0138
:102500001496CD91DC91FB01E20FF31FCE17DF078C
:102510001CF49E01261B370B121613064CF5FA010C
:1025200057FD3796A3E0F595E795AA95E1F7EC9F5F
:10253000D001ED9FB00DFC9FB00D11246A0F7B1FE1
:10254000DC015F96ED91FC91E60FF71F4770552770
:1025500081E090E001C0880F4A95EAF7482F0130EA
:10256000110559F0A8F02E0F3F1F02301105E1F0C0
:10257000DF91CF911F910F9108952E0F3F1FE2170A
:10258000F307B1F38191DF011197842B8C93F7CF7F
:1025900080952E0F3F1FE217F30751F39191DF0152
:1025A000119798239C93F7CFE217F30709F38191D2
:1025B000DF01119784278C93F7CF0F931F93FA01B4
:1025C000DC0156964C9156974230E9F04330A1F128
:1025D000413061F514964D915C91DA01AE1BBF0B51
:1025E000FD01E21BF30B77FD0BC0DC0116964D914C
:1025F0005C916417750724F4AB01BF010E9475124A
:102600001F910F91089514964D915C91DA01A61BCC
:10261000B70BBD0161507109DC0116964D915C91BB
:10262000DA01AE1BBF0BFD01E21BF30B77FDE8CF18
:10263000AF010E94C611E4CF16964D915C91DA016C
:10264000A61BB70BBD0161507109CDCF0F931F932E
:10265000FA01DC0156964C9156974230A9F043306E
:1026600091F1413019F514964D915C91DA01AE1B50
:10267000BF0BFD013197F7FD04C0AB01BF010E9404
:10268000C6111F910F91089514964D915C91DA0136
:10269000A61BB70BBD01DC0116964D915C91DA01CA
:1026A000AE1BBF0BFD013197621B730BF7FDE9CF2A
:1026B000DC0116964D915C91E417F50714F7AF0114
:1026C0000E947512DECF16964D915C91DA01A61B21
:1026D000B70BBD01621B730BCECFFC0177FD64C04D
:1026E00080859185681779070CF05EC057FD5CC046
:1026F00082859385481759070CF056C08689823029
:10270000B1F0833029F1813041F484819581841BBB
:10271000950BAB01BC01615071092130310509F104
:1027200008F443C02230310509F463C00895848160
:102730009581DC01A61BB70BBD0161507109868133
:102740009781DC01A41BB50BAD0141505109E5CFC8
:1027500086819781861B970BBA01AC0141505109C4
:10276000DCCFCA0157FD0796A3E095958795AA95FA
:10277000E1F7A481B5818A9F90018B9F300D9A9FCC
:10278000300D1124620F731F078CF0A1E02DE60FAE
:10279000F71F4770552721E030E001C0220F4A950E
:1027A000EAF78081822B80830895CA0157FD07963E
:1027B00033E0959587953A95E1F7A481B5818A9F95
:1027C00090018B9F300D9A9F300D1124620F731F63
:1027D000078CF0A1E02DE60FF71F4770552781E029
:1027E00090E001C0880F4A95EAF78095908189238F
:1027F000DACFCA0157FD079623E0959587952A956C
:10280000E1F7A481B5818A9F90018B9F300D9A9F3B
:10281000300D1124620F731F078CF0A1E02DE60F1D
:10282000F71F4770552721E030E001C0220F4A957D
:10283000EAF780818227B7CF20911A03260F33272A
:10284000331F21323105ECF420913E03FC0190E06E
:1028500080E0243069F082E00895A0911A0321916C
:10286000AC0146505D4FA40FB52FB11D2C930196BE
:10287000861798F380911A03680F60931A0380E01B
:10288000089581E0089510923E0381E08093400313
:1028900010923F0361E084E10E94720961E085E1EA
:1028A0000E947209E9EBF0E080818E7F8083808155
:1028B0008D7F808388E48093B80085E48093BC009A
:1028C0000895CF93DF9391E09093F9028823B9F0B4
:1028D000C091B800D091BA008091BC008A7B8093EF
:1028E000BC0060E084E10E94720960E085E10E9422
:1028F00072090E944314D093BA00C093B800DF91CC
:10290000CF9108950895E091750380917403E817BD
:1029100030F4F0E0EC52FD4F808190E008958FEFAD
:102920009FEF089590917503809174032FEF3FEF0F
:10293000981748F4E92FF0E0EC52FD4F208130E089
:102940009F5F90937503C9010895809174039091DE
:102950007503891B990B0895CF92DF92EF92FF9236
:102960000F931F93CF93DF937C01CB018A012091BA
:102970006503222389F0EB016B01C40ED51ECC1533
:10298000DD0569F06991D701ED91FC910190F0812D
:10299000E02DC7011995F3CF642F0E941C14C801C4
:1029A000DF91CF911F910F91FF90EF90DF90CF902B
:1029B0000895CF93DF931F92CDB7DEB7698320913F
:1029C00065032223F9F020917203203258F021E0B0
:1029D00030E0FC013383228390E080E00F90DF91B0
:1029E000CF91089580917303E82FF0E0EC54FD4FF0
:1029F000998190838F5F809373038093720381E04A
:102A000090E0ECCF61E0CE0101960E941C14F7CF5C
:102A1000CF92DF92EF92FF920F931F93CF93DF93AA
:102A2000D091720381E0D13208F09CC0C091640360
:102A30000E94B30A6B017C0180913E0381116CC03E
:102A400082E080933E0381E0809340038FEF809388
:102A50003D0310926203D0936103A4EBB2E0E1E482
:102A6000F3E080E0D8138DC010926303809163037C
:102A7000CC0FC82BC093630380913F03813009F0D2
:102A800084C010923F030E94B30A6B017C018091C5
:102A900063038093BB008091F5029091F602A091B0
:102AA000F702B091F802892B8A2B8B2BA1F00E94A0
:102AB000B30A0091F5021091F6022091F7023091CD
:102AC000F8026C197D098E099F0906171707280758
:102AD000390708F442C08091BC0083FDD8CF85EC53
:102AE0008093BC000E94B30A6B017C0180913E037D
:102AF000823009F44CC080913D038F3F09F469C0D6
:102B000080913D03803209F466C080913D0380339B
:102B100009F463C084E026C08091F5029091F6022A
:102B2000A091F702B091F802892B8A2B8B2B09F424
:102B300083CF0E94B30A0091F5021091F602209112
:102B4000F7023091F8026C197D098E099F0906176A
:102B500017072807390708F06FCF8091F4020E9409
:102B6000611485E010927303109272031092650352
:102B7000DF91CF911F910F91FF90EF90DF90CF9059
:102B800008959D9191938F5F6DCF85EEA9CF809130
:102B9000F5029091F602A091F702B091F802892B0C
:102BA0008A2B8B2B09F4A2CF0E94B30A0091F50265
:102BB0001091F6022091F7023091F8026C197D090C
:102BC0008E099F09061717072807390708F08ECFC7
:102BD000C4CF80E0C7CF82E0C5CF83E0C3CF0895E4
:102BE0008EBD00000DB407FEFDCF8EB50895CF92C7
:102BF000DF92EF92FF920F931F93CF93DF93EC013D
:102C00006B01142F8D8D9E8D009709F454C029A15E
:102C100031E03093650320936403109273031092A4
:102C20007203DC01ED91FC910190F081E02D60E0F8
:102C300019957601CC24C394D12C01E011508D8DCF
:102C40009E8D1F3F71F1B0E2CB16D104C0F00E94FF
:102C500008158D8D9E8D29A1009365032093640333
:102C60001092730310927203DC01ED91FC910190BC
:102C7000F081E02D60E01995CC24C394D12C8D8D8A
:102C80009E8DF7016491DC01ED91FC910190F08142
:102C9000E02D1995BFEFCB1ADB0AEFEFEE1AFE0A13
:102CA000CDCFDF91CF911F910F91FF90EF90DF90EB
:102CB000CF900C940815EDA5FEA590818BA9809569
:102CC000892380837B01115070F1F70184912B8D52
:102CD0003C8D232B31F00E94F015FFEFEF1AFF0A15
:102CE000F2CF28E030E040E8E9A5FAA599A9582FED
:102CF0005423A9F05081952B9083EBA5FCA59081DE
:102D00005AA9952B9083EBA5FCA550819AA9909583
:102D10009523908346952150310931F7DECF5081BC
:102D200090959523E9CFDF91CF911F910F91FF905F
:102D3000EF90DF90CF9008951F93CF93DF93EC0136
:102D40008D8D9E8D009721F1162F29A131E03093B2
:102D50006503209364031092730310927203DC01E5
:102D6000ED91FC910190F081E02D60E019958D8D41
:102D70009E8DDC01ED91FC910190F081E02D612FA1
:102D800019958D8D9E8DDF91CF911F910C94081513
:102D9000ADA5BEA59C918BA9809589238C938B8D25
:102DA0009C8D892B31F0862FDF91CF911F910C9450
:102DB000F01528E030E080E8A9A5BAA599A9462F2A
:102DC0004823C1F04C91942B9C93ABA5BCA59C913E
:102DD0004AA9942B9C93ABA5BCA54C919AA990951C
:102DE00094239C9386952150310931F7DF91CF913F
:102DF0001F9108954C9190959423E6CF8CBD9DBD75
:102E000008951F93CF93DF93EC01162F8D8D9E8D28
:102E1000892BB1F12DA93EA94FA958AD60E074E20C
:102E200084EF90E00E94F62E2051310941095109AA
:102E300056954795379527952093B80066EA111166
:102E400067EACE010E949C168D8D9E8D892B41F1E3
:102E500029AD3AAD4BAD5CAD60E074E284EF90E03B
:102E60000E94F62E20513109410951095695479586
:102E7000379527952093B800DF91CF911F91089542
:102E80008B8D9C8D892B21F08EAD9FAD0E94FE16FF
:102E9000EFA5F8A990818CA9809589238083CECF56
:102EA000EFA5F8A980819CA9892B8083E5CFBF92EB
:102EB000CF92DF92EF92FF920F931F93CF93DF9306
:102EC000EC018D8D9E8D892B09F48FC02DA93EA913
:102ED0004FA958AD60E074E284EF90E00E94F62EB6
:102EE0002051310941095109569547953795279544
:102EF0002093B80044E066E177E0CE010E94F71528
:102F00008C819D818034910509F07FC060E2CE0103
:102F10000E949C166C81615ECE010E949C162E81DF
:102F20003F81C901079697FD079633E095958795F0
:102F30003A95E1F72C813D81829F7001839FF00CCF
:102F4000929FF00C11240F8D18A18D8D9E8DE00E97
:102F5000F11E009709F485C029A131E03093650383
:102F6000209364031092730310927203DC01ED91BD
:102F7000FC910190F081E02D60E41995CC24C3947C
:102F8000D12CBB24B3948D8D9E8DE016F10609F4EF
:102F900043C0B0E2CB16D104C0F00E9408158D8D5D
:102FA0009E8D29A1B0926503209364031092730350
:102FB00010927203DC01ED91FC910190F081E02D03
:102FC00060E41995CC24C394D12C8D8D9E8DF8018D
:102FD00061918F01DC01ED91FC910190F081E02D78
:102FE0001995BFEFCB1ADB0ACECF8B8D9C8D892B29
:102FF00021F08EAD9FAD0E94FE16EFA5F8A990813D
:103000008CA980958923808375CF60E0CE010E94D2
:103010009C166C81615080CF0E9408158D8D9E8D0D
:10302000892B09F453C029AD3AAD4BAD5CAD60E0DE
:1030300074E284EF90E00E94F62E2051310941099C
:10304000510956954795379527952093B800DF91FC
:10305000CF911F910F91FF90EF90DF90CF90BF9095
:103060000895EDA5FEA580819BA9892B8083E0169C
:10307000F106A1F2F80181918F012B8D3C8D232B5C
:1030800019F00E94F015F3CF28E030E040E8E9A500
:10309000FAA599A9582F5423A9F05081952B908314
:1030A000EBA5FCA590815AA9952B9083EBA5FCA5D7
:1030B00050819AA990959523908346952150310986
:1030C00031F7D5CF508190959523E9CFEFA5F8A999
:1030D00080819CA9892B8083BACF0895FC016370FD
:1030E000668B8481958126813781613039F0633028
:1030F00029F0918780873387228708953187208739
:103100009387828708952F923F924F925F926F929A
:103110007F928F929F92AF92BF92CF92DF92EF9267
:10312000FF920F931F93CF93DF93CDB7DEB76A97CC
:103130000FB6F894DEBF0FBECDBF9A8F898F7A830A
:1031400069834A01D22E18870F833701BC2CDC011A
:1031500059962D913C915A972115310509F015C1C9
:1031600018968D919C911997681779070CF0D7C123
:103170001A968D919C91481759070CF0D0C14C2C90
:10318000512CB6E0CB9E600D711D11247C876B879E
:10319000161617060CF0C3C1EA2DF0E0FA87E9878E
:1031A00093E0EE0FFF1F9A95E1F7F88BEF87CF01C1
:1031B000840F951F181619060CF0B1C1A98DBA8D90
:1031C00058968C91811104C0BFEABD1508F4D394C0
:1031D000A98DBA8DED91FC9111970284F385E02DB4
:1031E000CD011995B5E0DB9EC0011124E981FA817A
:1031F000FC83EB83312C212C9C012A5E3D4F388FC0
:103200002F8B4A2D50E05E8B4D8BEF89F88DE20DB0
:10321000F31D44919E828D82D12CC12C69817A81CB
:10322000620D731D7A8B698B842F90E09C8B8B8B46
:10323000E98DFA8DA081B18140FF82C0F1E0BF121B
:103240006FC0AF126DC01C96ED91FC912F81388537
:10325000A4014C0D5D1D69897A89898D9A8D199516
:10326000EB89FC89F595E7954E2F5FEFC51AD50AD6
:103270006D817E818D899E89680F791F7E836D8324
:1032800098E0C916D10481F6AFEF2A1A3A0AEB8109
:10329000FC81E40DF51DFC83EB83F5E02F16310472
:1032A00009F0B3CF2F81388526153705B9F0A98DE0
:1032B000BA8DED91FC91B1E0BB1257C0AB1255C075
:1032C00069817A816B5F7F4F0088F189E02D8301EE
:1032D00028E030E0A401898D9A8D1995A98DBA8DC9
:1032E000ED91FC9111970688F789E02DCD016A9642
:1032F0000FB6F894DEBF0FBECDBFDF91CF911F9107
:103300000F91FF90EF90DF90CF90BF90AF909F9084
:103310008F907F906F905F904F903F902F90199477
:103320001E96ED91FC91EF80F88409851A85920133
:103330004D815E816B817C81898D9A8D199590CFAD
:103340002F8138852615370509F48ACF31E0B3126D
:1033500007C0A31205C01C96ED91FC91930178CF94
:103360001E96ED91FC917301E0CF6B857C8564190D
:1033700075090684F785E02D73010F851889920180
:10338000A401898D9A8D1995A9CFF901349694914C
:10339000329745915491D91AB7E0DB9E400D511DEB
:1033A0001124F901259134913C8B2B8BFA01259046
:1033B0003490FA013296749031963491398B32966A
:1033C00064903196449041E04C1518F04A1508F08D
:1033D0007FC0662D062C000C770B7C836B83842DBD
:1033E000042C000C990B9E838D83A98DBA8DED91D1
:1033F000FC9111970284F385E02DCD011995512C94
:10340000D12CC12CEA2DF0E0FA87E9872B2D30E092
:103410003C872B87A401440D511D47FC5A95588FBA
:103420004F8B69817A81660D711D67FC7A957E8765
:103430006D877989C71608F051CF2C2D30E04D816A
:103440005E81420F531FA985BA854A9FC0014B9FD9
:10345000900D5A9F900D1124FC01E80DF91DF88B79
:10346000EF87852D612C4F89588D420F531F5E8B3E
:103470004D8B671408F050C044244394480E877065
:1034800041F4C1010196EB89FC89E20DF31DD49052
:103490001C01D7FE19C0A98DBA8DED91FC91662D46
:1034A00070E0B1E0BB1219C0AB1217C02D853E858C
:1034B000620F731F0484F585E02D2F8138854D89B7
:1034C0005E89898D9A8D1995DD0C6394842DD1CFF9
:1034D0001E821D821C821B8288CF4B815C81640FFF
:1034E000751FAB85BC856A9FC0016B9F900D7A9F4D
:1034F000900D112469817A81680F791F0684F78500
:10350000E02DEF80F88409851A859D014F85588943
:10351000898D9A8D1995D8CF570CC3948ACF6A9606
:103520000FB6F894DEBF0FBECDBFDF91CF911F91D4
:103530000F91FF90EF90DF90CF90BF90AF909F9052
:103540008F907F906F905F904F903F902F90089555
:103550008F929F92AF92CF92EF92FF920F931F9311
:10356000CF93DF93EC01262F898D9A8D009709F078
:1035700051C06A30D1F41D861C868D8948E0849F35
:10358000900111248E859F85820F931F9F878E87C0
:1035900081E090E0DF91CF911F910F91FF90EF902C
:1035A000CF90AF909F908F9008956D3089F3CC8825
:1035B000AD888F898823C1F08C859D8536E0C39EB8
:1035C000800D911D1124488559854817590764F4C9
:1035D0004E855F851D861C8638E0A39EC0011124A0
:1035E000840F951F9F878E87EA88FB880889198931
:1035F0004E855F856C857D85CE010E9483182C8960
:103600008C859D8546E0249F800D911D11249D870A
:103610008C87BECF6A3069F41D861C86FC01389603
:10362000E4912D898E859F85E29F800D911D112447
:10363000ADCF6D3009F4ACCFFC01349634916317F3
:1036400008F4A6CF3296E491E61708F4A1CFFC0166
:10365000329685909490462F431B342F47E0349F39
:10366000800C911C1124F401329634913196E4912E
:103670003323A9F1EE2399F1CC88F4013596E49136
:10368000AD884F89442301F10E2E000CFF0BE30F90
:10369000F11DCE9EA001CF9E500D11246C857D851D
:1036A000460F571F68857985641775076CF44E853A
:1036B0005F851D861C86FC013896E491AE9E400D08
:1036C000511D11245F874E87EA88FB880889198974
:1036D0004E855F856C857D85CE010E948318F4013F
:1036E0003496E4912C898C859D85E29F800D911DF7
:1036F00011248DCF6F927F928F929F92AF92BF9243
:10370000CF92DF92EF92FF920F931F93CF93DF93AD
:10371000EC016B015A0139014801E881F981028409
:10372000F385E02D1995E881F9810288F389E02D70
:1037300087019301A501B601CE011995A501480D98
:10374000591D41505109E881F9810288F389E02D22
:103750009301B601CE011995E881F9810088F189BC
:10376000E02D9401A501B601CE011995C60CD71C18
:10377000B60161507109E881F9810088F189E02D75
:103780009401A501CE011995E881F9810688F78990
:10379000E02DCE01DF91CF911F910F91FF90EF901F
:1037A000DF90CF90BF90AF909F908F907F906F9061
:1037B00019946F927F928F929F92AF92BF92CF9205
:1037C000DF92EF92FF920F931F93CF93DF935C01F1
:1037D000EB016A01490138018701DC01ED91FC919F
:1037E0006217730719F5641675062CF0962D872D50
:1037F0003A01C92ED82E9601261937092F5F3F4F5F
:10380000048CF58DE02DA301BE01C5011995DF9152
:10381000CF911F910F91FF90EF90DF90CF90BF90CD
:10382000AF909F908F907F906F90089546155705A9
:1038300091F42617370724F0892D4B01C22FD82F7A
:103840009E01281939092F5F3F4F068CF78DE02D17
:10385000A601B401DACF0284F385E02D1995D501D4
:10386000ED91FC910488F589E02D83019401A60176
:10387000BE01C5011995D501ED91FC910688F78926
:10388000E02DC501DF91CF911F910F91FF90EF9037
:10389000DF90CF90BF90AF909F908F907F906F9070
:1038A0001994EF92FF920F931F93DC011A960D91DA
:1038B0001C911B9718962D913C911997ED91FC91B5
:1038C00000A0F1A1E02D7B0150E040E070E060E05D
:1038D00019951F910F91FF90EF9008954F925F926D
:1038E0006F927F928F929F92AF92BF92CF92DF9210
:1038F000EF92FF920F931F93CF93DF936C012B01F5
:103900005A0139014801DC01ED91FC910284F385F3
:10391000E02D1995E201640C751CD601ED91FC9126
:10392000C615D7055CF40088F189E02D8701940164
:10393000A501BE01C60119952196EFCF0688F7892A
:10394000E02DC601DF91CF911F910F91FF90EF9075
:10395000DF90CF90BF90AF909F908F907F906F90AF
:103960005F904F9019948F929F92AF92BF92CF9297
:10397000DF92EF92FF920F931F93CF93DF93EC01AF
:103980005B014A016901E881F9810284F385E02D38
:10399000199595012C0D3D1D21503109E881F981C2
:1039A0000488F589E02D78018401A401B501CE01D8
:1039B0001995E881F9810688F789E02DCE01DF911C
:1039C000CF911F910F91FF90EF90DF90CF90BF901C
:1039D000AF909F908F9019948F929F92AF92BF92C9
:1039E000CF92DF92EF92FF920F931F93CF93DF93CB
:1039F000EC015B014A0169017801E881F9810284E7
:103A0000F385E02D1995C80CD91C860101501109C8
:103A1000E881F9810488F589E02D9501A401B501BB
:103A2000CE011995E881F9810688F789E02DCE014C
:103A3000DF91CF911F910F91FF90EF90DF90CF908A
:103A4000BF90AF909F908F901994EF92FF920F9339
:103A50001F93DC01ED91FC9100A0F1A1E02D1995DF
:103A60001F910F91FF90EF9008950F931F93DC012A
:103A7000ED91FC91068CF78DE02D19951F910F911A
:103A800008950F931F93DC01ED91FC91048CF58D4B
:103A9000E02D19951F910F910895DC01ED91FC9196
:103AA0000084F185E02D19942F923F924F925F92FE
:103AB0006F927F928F929F92AF92BF92CF92DF923E
:103AC000EF92FF920F931F93CF93DF9300D000D01C
:103AD000CDB7DEB73C016A013E832D83FC82EB82C9
:103AE0005801A41AB50AB7FE03C0B194A194B10855
:103AF0008D809E80861A970A97FE03C091948194C8
:103B000091088A149B045CF0902F812F0D811E81F7
:103B10009D838E839C2D8D2D6B01692F782F0C1525
:103B20001D055CF09D818E817E836D83692F782FCA
:103B3000902F812F8601C92ED82E1601201A310A06
:103B40002B012D813E81421A530A57FE03C0519426
:103B500041945108710137FE03C03FEFE31AF30AA5
:103B6000F594E7948D819E81861797075CF5A1E017
:103B7000B0E0BA83A983C016D1064CF1D301ED9110
:103B8000FC910484F585E02D2B813C81A8016D8199
:103B90007E818A149B041CF04D815E81B801C301B3
:103BA0001995E418F508F7FE0AC02D813E81898138
:103BB0009A81280F391F3E832D83E20CF31C0F5F7F
:103BC0001F4FD9CF2FEF3FEF3A832983D4CF2696CB
:103BD0000FB6F894DEBF0FBECDBFDF91CF911F911E
:103BE0000F91FF90EF90DF90CF90BF90AF909F909C
:103BF0008F907F906F905F904F903F902F9008959F
:103C0000089590E080E00895AF92BF92CF92DF9246
:103C1000EF92FF920F931F93CF93DF936B017A0183
:103C2000EC01C055DD4F28813CE0389F8001399F71
:103C3000100D1124A0907905B12C27FF1FC0FB01A6
:103C40001182108288818F5F888388819801280F74
:103C5000311D87FD3A95F6012A153B051CF4888134
:103C60008C30C4F180819181049680349C4908F4A1
:103C700073C0F60180819181049670C0888198019B
:103C8000280F311D87FD3A952A153B05DCF6888102
:103C9000A801480F511D87FD5A95FA01EE0FFF1F2D
:103CA000E40FF51FE751FB4F808186FFCBCF888162
:103CB000F801E80FF11D87FDFA95CF01EE0FFF1F08
:103CC000E80FF91FE751FB4F808160E08F730E947E
:103CD0007209B8CF808191812881A801420F511DBE
:103CE00027FD5A959A01FA01EE0FFF1FE20FF31F0D
:103CF000E751FB4F21813281820F931FF70191839E
:103D0000808388819801280F311D87FD3A95F9013C
:103D1000EE0FFF1FE20FF31FE751FB4F808186FF7D
:103D200022C08881080F111D87FD1A95F801EE0F3A
:103D3000FF1FE00FF11FE751FB4F808161E08F73A0
:103D4000DF91CF911F910F91FF90EF90DF90CF9077
:103D5000BF90AF900C94720980E49CE9F7019183C5
:103D600080838FEF8883DF91CF911F910F91FF9018
:103D7000EF90DF90CF90BF90AF90089561E0FC018D
:103D800080810C94A009FB0101900020E9F7319794
:103D9000AF01461B570BDC01ED91FC910280F381D2
:103DA000E02D19948F929F92AF92BF920F931F9321
:103DB000CF93DF93CDB7DEB7A1970FB6F894DEBFF0
:103DC0000FBECDBF19A2423008F44AE08E010F5D4C
:103DD0001F4F842E912CB12CA12CA50194010E947F
:103DE000F62EE62FB901CA01EA3004F5E05DD801EC
:103DF000EE938D01232B242B252B79F790E080E087
:103E0000109729F0BD0180E494E00E94C31EA196A2
:103E10000FB6F894DEBF0FBECDBFDF91CF911F91DB
:103E20000F91BF90AF909F908F900895E95CDFCF86
:103E3000CF92DF92EF92FF92CF93DF936B017C01E1
:103E40006DE280E494E00E94F40FEC01662777278E
:103E5000CB016C197D098E099F094AE00E94D21E90
:103E60008C0F9D1FDF91CF91FF90EF90DF90CF904F
:103E70000895BC01990F880B990B97FD0C94181F9E
:103E80004AE00C94D21ECF92DF92EF92FF920F93F2
:103E90001F93CF93DF9381E02091A1033091A20380
:103EA000232B09F05CC065E070E080E090E00E94A8
:103EB000D80A88E00E9449096C0187E00E944909FC
:103EC0007C0186E00E9449098C01E601CC0FDD1FD0
:103ED000CC0FDD1FC701880F991FC82BD92BC02B12
:103EE000D12B6BE872E080E494E00E94C31EC6010F
:103EF0000E94391FC7010E94391FB801110F880B9A
:103F0000990B97FF14C00E94181F69E972E080E4C2
:103F100094E00E94C31EC330D105B9F164F4C130EE
:103F2000D105B9F0229769F110920C020FC04AE056
:103F30000E94D21EEACFC630D10549F1C730D10563
:103F400001F1249789F781E480930C0210920B020F
:103F500005C010920C0286E480930B0280E02FEAE9
:103F60003FE13093A2032093A10381119CCF81E014
:103F7000DF91CF911F910F91FF90EF90DF90CF9045
:103F8000089581E480930C02E6CF80E2FBCF81E4C8
:103F900080930C0283E2E0CF0E9423330F931F93A0
:103FA000CF93DF93EC0188819981009759F02A81A2
:103FB0003B812617370730F081E0DF91CF911F91C9
:103FC0000F9108958B016F5F7F4F0E9442320097DF
:103FD00059F0998388831B830A832C813D81232B8D
:103FE00059F7FC011082E8CF80E0E7CFFC01868121
:103FF00097819C01295F3F4F37FF02C0295F3F4FE8
:1040000083E0359527958A95E1F784819581289FEE
:10401000A001299F500D389F500D112470E060E0E1
:10402000878D90A10C94313385ED8093BC008091F5
:10403000F5029091F602A091F702B091F80207966E
:10404000A11DB11D23E0B695A795979587952A9553
:10405000D1F72091BC0024FD03C010923E030895C7
:104060004091F5025091F6026091F7027091F802CA
:10407000452B462B472B69F30097A105B10541F06D
:104080002AE22A95F1F700C00197A109B109E1CF11
:104090008091F4020C9461141F920F920FB60F924C
:1040A00011242F933F938F939F93AF93BF9380914E
:1040B0007B0390917C03A0917D03B0917E033091AE
:1040C000760323E0230F2D3758F50196A11DB11D6E
:1040D0002093760380937B0390937C03A0937D03CE
:1040E000B0937E038091770390917803A091790338
:1040F000B0917A030196A11DB11D8093770390932F
:104100007803A0937903B0937A03BF91AF919F9105
:104110008F913F912F910F900FBE0F901F90189588
:1041200026E8230F0296A11DB11DD2CF1F920F9238
:104130000FB60F9211240BB60F922F933F934F930C
:104140005F936F937F938F939F93AF93BF93EF93FF
:10415000FF938091930390919403A0919503B09164
:104160009603892B8A2B8B2BE1F190918203E091AE
:104170008303F09184038081892780838091930356
:1041800090919403A0919503B09196031816190687
:104190001A061B069CF48091930390919403A091BE
:1041A0009503B09196030197A109B10980939303F8
:1041B00090939403A0939503B0939603FF91EF918E
:1041C000BF91AF919F918F917F916F915F914F912F
:1041D0003F912F910F900BBE0F900FBE0F901F902D
:1041E000189580910A020E940C0BE8CF1F920F9243
:1041F0000FB60F9211240BB60F922F933F934F934C
:104200005F936F937F938F939F93AF93BF93EF933E
:10421000FF9383EA93E00E94D20FFF91EF91BF9149
:10422000AF919F918F917F916F915F914F913F914E
:104230002F910F900BBE0F900FBE0F901F901895EF
:104240001F920F920FB60F9211240BB60F922F935D
:104250008F939F93EF93FF93E091B303F091B40397
:104260008081E091B903F091BA0382FD1DC0908175
:104270008091BC038F5F8F732091BD03821741F043
:10428000E091BC03F0E0ED55FC4F958F8093BC03AB
:10429000FF91EF919F918F912F910F900BBE0F90F7
:1042A0000FBE0F901F9018958081F2CF1F920F9232
:1042B0000FB60F9211240BB60F922F933F934F938B
:1042C0005F936F937F938F939F93AF93BF93EF937E
:1042D000FF9380E494E00E94D20FFF91EF91BF9191
:1042E000AF919F918F917F916F915F914F913F918E
:1042F0002F910F900BBE0F900FBE0F901F9018952F
:104300001F920F920FB60F9211240BB60F922F939C
:104310008F939F93EF93FF93E0915004F09151049A
:104320008081E0915604F091570482FD1DC0908178
:10433000809159048F5F8F7320915A04821741F046
:10434000E0915904F0E0E05CFB4F958F80935904B5
:10435000FF91EF919F918F912F910F900BBE0F9036
:104360000FBE0F901F9018958081F2CF1F920F9271
:104370000FB60F9211240BB60F924F925F926F926D
:104380007F928F929F92AF92BF92CF92DF92EF92E5
:10439000FF920F931F932F933F934F935F936F93CE
:1043A0007F938F939F93AF93BF93CF93DF93EF93BD
:1043B000FF93C0916903D0916A03CE010197909356
:1043C0006A0380936903209749F5109270007894EE
:1043D0008091B100887F83608093B1008AEF8093E1
:1043E000B3001092B40081E08093090280916B03C6
:1043F00090916C03892B91F0709008028091670373
:10440000882379F160916603662359F170E040E0FA
:1044100088EE93E00E94D61010926603FF91EF9110
:10442000DF91CF91BF91AF919F918F917F916F91CC
:104430005F914F913F912F911F910F91FF90EF90BE
:10444000DF90CF90BF90AF909F908F907F906F90B4
:104450005F904F900F900BBE0F900FBE0F901F906C
:10446000189555245394F0ECAF2EFDE5BF2EAAE02D
:104470004A2EB4E06B2E10EDC12E17E0D12E04E0D1
:10448000E02EF12C04EF11E08FE0882E912C0E9499
:104490008E1020916B0330916C032F5F3F4F309350
:1044A0006C0320936B03853609F46FC00CF043C096
:1044B000813609F4B1C004F58C3309F464C08E333D
:1044C00009F45FC0813209F03FC060920802D092C7
:1044D0000502C0920402F0920702E09206021093D5
:1044E0000302009302029092010280920002109255
:1044F0006703E4E07E2ECBCF833609F490C010E052
:104500000BE0843614F010E002E05CE0759E000DD4
:1045100011240E948E10982F977F933209F081C04A
:1045200080916B0390916C03019690936C03809340
:104530006B030F5FEECF8D3609F442C054F487361B
:1045400051F134F18C3651F110926C0310926B03DF
:1045500065CF823709F449C044F48F36A9F70E9429
:10456000AE10782E8093080292CF843709F440C0B1
:10457000863751F70E94AE1090930102809300029B
:1045800086CF739484CF7A9482CF10E004E0BDCFBD
:1045900010E005E0BACF10E007E0B7CF0E94AE1000
:1045A000BC019093070280930602809104029091CF
:1045B00005020E94ED30709303026093020267CF00
:1045C0000E948E108C3661F41092670380916B0309
:1045D00090916C03019690936C0380936B0357CF7B
:1045E0005092670310926603F1CF11E000E08DCF87
:1045F0000E94AE10BC01C5010E94ED30469EC00174
:10460000479E900D112490930502809304026091BF
:10461000060270910702CDCF10E009E076CF10E0DE
:10462000E5CF8D3269F480916B0390916C03019614
:1046300090936C0380936B0301500E948E10F1CF16
:104640008153E0900202F0900302883058F4E09029
:104650000402F09005020E94AE10BC01C7010E9446
:10466000ED307B016701D694C7940E948E108E3284
:1046700061F480916B0390916C03019690936C03AD
:1046800080936B03EC0CFD1CEECF809167038823B5
:1046900039F0C7019695879580936603E81AF1086B
:1046A00040910002111104C00F3F11F0411107C0E9
:1046B00040E0B70188EE93E00E94D610AFCE013102
:1046C00028F010EF100F103608F01FE5812F6CE076
:1046D0000E94E130682F54EF560390011124210FFE
:1046E000311D2C30310538F4220F331FF901ED5EF6
:1046F000FD4FC081D1818730B9F0082E02C0CC0FA8
:10470000DD1F0A94E2F7823040F0CE0105966AE0A0
:1047100070E00E94ED30CB0102C0CE0190584031D4
:1047200008F04FE0B701C8CFCE0126E0880F991FEF
:104730002A95E1F7029665E070E0EBCF1F920F92A9
:104740000FB60F9211240BB60F922F933F934F93F6
:104750005F936F937F938F939F93AF93BF93EF93E9
:10476000FF938091B900887F803609F44DC008F02E
:1047700040C0883209F4A9C028F5803109F49DC0F1
:10478000C8F4882309F4FBC0883009F496C0FF916F
:10479000EF91BF91AF919F918F917F916F915F91B9
:1047A0004F913F912F910F900BBE0F900FBE0F9026
:1047B0001F901895883109F488C0803241F78093A2
:1047C0003D0314C0803409F49DC040F48033B9F334
:1047D0008833E9F680933D0385ECB0C0803509F459
:1047E00085C0883509F496C0883489F60E94142063
:1047F000CECF883909F48CC038F5883729F050F4C9
:10480000883611F0803719F683E080933E031092CA
:104810003C0357C0883809F47BC0803919F08038D0
:1048200009F0B5CF80913C03803208F071C0E0916F
:104830003C0381E08E0F80933C038091BB00F0E04D
:10484000E45EFC4F80833DC0803B39F0E0F4803A69
:1048500009F479C0883A09F09ACF84E080933E0346
:1048600010921B0310921A03E0917003F0917103F0
:10487000199580911A0381110FC081E080931A036A
:104880001092FA0209C0803C09F4A6CF883C09F4D2
:10489000A3CF883B09F07BCFE0911B0381E08E0F13
:1048A00080931B03F0E0E650FD4F80818093BB00B6
:1048B00090911B0380911A0329C080916303809318
:1048C000BB0085EC8093BC0062CF90916203809125
:1048D0006103981758F5E091620381E08E0F809391
:1048E0006203F0E0EF5BFC4F8081E9CFE09162036F
:1048F00081E08E0F809362038091BB00F0E0EF5B5C
:10490000FC4F808390916203809161039817C8F2F5
:1049100085E8D8CFE091620381E08E0F8093620337
:104920008091BB00F0E0EF5BFC4F808380914003FF
:1049300081115CCF81E080933F0384EA8093BC00C7
:1049400010923E0324CF85EC8093BC0010923E036E
:1049500080913C03803230F4E0913C03F0E0E45E6F
:10496000FC4F108260913C0370E0E0916E03F09187
:104970006F038CE193E0199510923C0308CF1092DD
:104980003D0334CF1F920F920FB60F9211240BB636
:104990000F922F933F934F935F936F937F938F93D8
:1049A0009F93AF93BF93EF93FF9348E251E064E28C
:1049B00071E090E080E00E94041EFF91EF91BF91B2
:1049C000AF919F918F917F916F915F914F913F91A7
:1049D0002F910F900BBE0F900FBE0F901F90189548
:1049E0001F920F920FB60F9211240BB60F922F93B6
:1049F0003F934F935F936F937F938F939F93AF9367
:104A0000BF93EF93FF9348EA50E064EA70E083E0DD
:104A100090E00E94041EFF91EF91BF91AF919F9192
:104A20008F917F916F915F914F913F912F910F9057
:104A30000BBE0F900FBE0F901F9018951F920F92F4
:104A40000FB60F9211240BB60F922F933F934F93F3
:104A50005F936F937F938F939F93AF93BF93EF93E6
:104A6000FF9348E950E064E970E082E090E00E9442
:104A7000041EFF91EF91BF91AF919F918F917F9114
:104A80006F915F914F913F912F910F900BBE0F90BF
:104A90000FBE0F901F9018951F920F920FB60F9296
:104AA00011240BB60F922F933F934F935F936F9305
:104AB0007F938F939F93AF93BF93EF93FF9348E8B8
:104AC00050E064E870E081E090E00E94041EFF91F5
:104AD000EF91BF91AF919F918F917F916F915F9176
:104AE0004F913F912F910F900BBE0F900FBE0F90E3
:104AF0001F9018951092A6031092A50388EE93E0DC
:104B0000A0E0B0E08093A7039093A803A093A9032B
:104B1000B093AA032BE632E03093A4032093A303BF
:104B200045E351E05093B0034093AF0344E351E0B9
:104B30005093B2034093B10340E351E05093B40368
:104B40004093B30341E351E05093B6034093B50360
:104B500042E351E05093B8034093B70346E351E07A
:104B60005093BA034093B9031092BC031092BD0353
:104B70001092BE031092BF0310924304109242049D
:104B80008093440490934504A0934604B093470453
:104B9000309341042093400425EC30E030934D04E1
:104BA00020934C0424EC30E030934F0420934E04C7
:104BB00020EC30E0309351042093500421EC30E09D
:104BC000309353042093520422EC30E03093550488
:104BD0002093540426EC30E030935704209356047D
:104BE0001092590410925A0410925B0410925C04C3
:104BF0001092E0041092DF048093E1049093E204A9
:104C0000A093E304B093E4048DE792E09093DE0474
:104C10008093DD0489E090E090932406809323063E
:104C20008AE090E090932606809325068BE090E042
:104C3000909328068093270680917905803308F0A9
:104C4000FBC191E0980F909379058093290690E03D
:104C5000FC01EE0FFF1FE80FF91FE751FB4F88EB38
:104C60009BE092838183109222061092210661E0DC
:104C70008BE00E94A00980912906803308F051C082
:104C800061E08BE00E94A009E09129068E2F90E060
:104C9000DC01AA0FBB1FA80FB91FA751BB4F8C91F6
:104CA000807C8B608C9310922A0610922B062CE04D
:104CB0008E2F622F0E94E130829FB001112430E0DC
:104CC00020E0AB01420F531FDA01AA0FBB1FA40F54
:104CD000B51FA751BB4F9C9196FD17C02F5F3F4F4B
:104CE0002C30310571F7813009F0AAC11092800093
:104CF00082E0809381001092850010928400B19A26
:104D000080916F00826080936F008E2F90E0FC0195
:104D1000EE0FFF1FE80FF91FE751FB4F8081806402
:104D2000808361E0809123060E94A00960E0809169
:104D300025060E94A0098CE08093160610921806A2
:104D40001092170610921A061092190610921C065D
:104D500010921B0610921D0610921E0610921F063E
:104D6000109220068DEF9DE090930F0680930E0623
:104D70008AE490E090931106809310068AE790E011
:104D800090931306809312068FEA97E0909315068E
:104D9000809314068CE38093010680E480930206DE
:104DA00080930306109204061092050680E890E0B6
:104DB000909307068093060680E490E0909309069E
:104DC000809308068FEF9FEF90930B0680930A065F
:104DD00010920D0610920C0681E38093F60584E68E
:104DE00090E0A0E0B0E08093F7059093F805A093E1
:104DF000F905B093FA051092FB051092FC0510928C
:104E0000FD051092FE051092FF05109200062FE29C
:104E10002093EB051092EC051092ED051092EE0533
:104E20001092EF051092F0051092F1051092F20524
:104E30001092F3051092F4051092F5052DE22093DF
:104E4000E0051092E1051092E2051092E305109240
:104E5000E4051092E5051092E6051092E705109220
:104E6000E8051092E9051092EA052BE22093D5059A
:104E70008093D6059093D705A093D805B093D90514
:104E80001092DA051092DB051092DC051092DD0518
:104E90001092DE051092DF0529E22093CA051092D8
:104EA000CB051092CC051092CD051092CE05109234
:104EB000CF051092D0051092D1051092D205109214
:104EC000D3051092D40527E22093BF051092C005A8
:104ED0001092C1051092C2051092C3051092C4052C
:104EE0001092C5051092C6051092C7051092C8050C
:104EF0001092C90525E22093B4058093B5059093DF
:104F0000B605A093B705B093B8051092B9051092F5
:104F1000BA051092BB051092BC051092BD05109207
:104F2000BE0523E22093A9051092AA051092AB05B5
:104F30001092AC051092AD051092AE051092AF051F
:104F40001092B0051092B1051092B2051092B305FF
:104F500021E220939E0510929F051092A0051092C9
:104F6000A1051092A2051092A3051092A40510921B
:104F7000A5051092A6051092A7051092A8052FE18D
:104F8000209393058093940590939505A09396059F
:104F9000B0939705109298051092990510929A0572
:104FA00010929B0510929C0510929D058DE18093B7
:104FB00088051092890510928A0510928B0510922F
:104FC0008C0510928D0510928E0510928F0510920F
:104FD000900510929105109292058BE180937D05CA
:104FE00010927E0510927F05109280051092810527
:104FF0001092820510928305109284051092850507
:10500000109286051092870580917905803308F00B
:1050100043C091E0980F9093790580937A0590E0D2
:10502000FC01EE0FFF1FE80FF91FE751FB4F88EB64
:105030009BE09283818308958FEF8093290613CE9E
:10504000823061F41092900080939100109295004C
:105050001092940088BB8093710057CE833069F41E
:105060001092A00082E08093A1001092A5001092FF
:10507000A40089BB8093720048CE811146CE109265
:10508000200182E0809321011092250110922401D9
:105090008ABB8093730039CE8FEF80937A05089591
:1050A000CF93DF93CDB7DEB72C970FB6F894DEBF62
:1050B0000FBECDBF789484B5826084BD84B5816015
:1050C00084BD85B5826085BD85B5816085BD8091D3
:1050D0006E00816080936E0010928100809181004B
:1050E0008260809381008091810081608093810043
:1050F000809180008160809380008091B100846005
:105100008093B1008091B00081608093B000809165
:1051100091008260809391008091910081608093E2
:105120009100809190008160809390008091A10017
:1051300082608093A1008091A10081608093A10092
:105140008091A00081608093A00080912101826005
:1051500080932101809121018160809321018091C0
:10516000200181608093200180917A008460809387
:105170007A0080917A00826080937A0080917A0030
:10518000816080937A0080917A00806880937A00B1
:105190001092C10080E490E00E941D315C015091AA
:1051A0000A062091080630910906332780910606E9
:1051B000909107069927D50113961C921E9212977B
:1051C00015969C938E93149717963C932E9316974F
:1051D00019969C938E9318971B963C932E931A972F
:1051E00056961C9256971D961C921E921C971F96BF
:1051F0001C921E921E9741E055964C9355975496DB
:105200004C9354976FEF7FEF53967C936E93529726
:1052100051967C936E93509757964C935797589608
:105220001C9258975A961C921E9259976FE372E0FF
:1052300011967C936E935C961C921E925B976DED1B
:1052400074E05E967C936E935D974FEF94964C93CB
:10525000949795964C93959796964C939697979688
:105260004C93979798965C93989740E85AE166E03C
:1052700070E0F50145AB56AB67AB70AF40EA56E85E
:1052800061E070E0D9964D935D936D937C93DC97CC
:1052900040E5DE964C93DE97DF961C92B0920D06A9
:1052A000A0920C06D0900106295F3F4F43E0359550
:1052B00027954A95E1F7FC012E9FC0012F9F900D85
:1052C0003E9F900D11240E941D31D50190969C9314
:1052D0008E935F97892B09F404C2C5010E94F61FC3
:1052E000F5018681978164817581AC0181970CF409
:1052F000C1C04054510957FF02C04F5F5F4F5595E1
:1053000047956255710977FF02C06F5F7F4F7595B2
:10531000679510E4E12EF12C02E510E02CE139E074
:10532000C5010E94EE0782E0D50192968C93929778
:105330005D968D919C915E97892B09F4B5C08D2D5A
:10534000D11007C016968D919C91809709F4AAC040
:105350008DE3F50181A310927503109274031092EE
:105360007303109272030E9443148AE09BE09093AF
:105370007103809370038BE09BE090936F038093A5
:105380006E03D50198968C9187FD1FC061E00E9445
:10539000A00961E0F50180A50E94720961E070E05A
:1053A00080E090E00E94D80A60E0D50198968C9148
:1053B0000E9472096AE070E080E090E00E94D80AE2
:1053C00061E0F50180A50E947209D5015D968D917D
:1053D0009C915E97892B09F42BC1D5962D913D9117
:1053E0004D915C91D89760E074E284EF90E00E9468
:1053F000F62E2051310941095109569547953795A7
:1054000027952093B80044E068E377E0C5010E9447
:10541000F715F50166816150C5010E949C1644E0B4
:1054200064E377E0C5010E94F715D50192968C914F
:1054300064E1813009F460E1C5010E949C1644E0FA
:1054400060E377E0C5010E94F7158FE8F50185AFAD
:10545000848195818038910509F038C286819781D1
:105460008034910509F040C282A1813009F4F5C071
:105470008FECF4C04052510957FF02C04F5F5F4F9D
:10548000559547956357710977FF02C06F5F7F4F4E
:1054900075956795F0E2EF2EF12C03E710E02CE311
:1054A00037E03ECF8CE355CF61E096968C910E9419
:1054B000A00961E0F50187A10E94A009D501969697
:1054C0008C919697082E000C990BFC01EA54F24F30
:1054D000E491F0E0EE0FFF1FE456F24F2591349176
:1054E000F50136A725A7FC01EA5AF24FE491D396BD
:1054F000EC93D39797968C91082E000C990BFC0196
:10550000EA54F24FE491F0E0EE0FFF1FE456F24F41
:10551000A591B491F501B0ABA7A7FC01EA5AF24FEF
:105520009491F50194AB8C91E92FE82BEC93D50184
:105530005B968D919C91892B09F434C01FB7F89428
:1055400080916D03811127C0EBEEFDE08491EBE8C3
:10555000FDE09491E82FF0E0EE0FFF1FE452F34FCF
:10556000A591B491EC91E92321F461E085E30E94D7
:10557000720961E085E30E94A0098CB580618CBD51
:105580008CB580648CBD61E084E30E94A00961E079
:1055900083E30E94A00980916D038F5F80936D0368
:1055A0001FBFEFCE61E0F50184A10E94A00961E078
:1055B000D50195968C910E94A009F50184A1082E31
:1055C000000C990BFC01EA54F24FE491F0E0EE0F6D
:1055D000FF1FE456F24F25913491D5019A963C93E2
:1055E0002E939997FC01EA5AF24FE491D196EC93ED
:1055F000D19795968C91082E000C990BFC01EA54DA
:10560000F24FE491F0E0EE0FFF1FE456F24FA59148
:10561000B491F501B4A7A3A7FC01EA5AF24F949103
:10562000F50192AB8C91E92FE095E823EC93A9CE9C
:10563000F501838D948D892B21F086AD97AD0E9465
:10564000FE16D5019F96ED91FC91D0979081D4964E
:105650008C91809589238083D6CE8FE9D501DD9604
:105660008C9312E16AEDC5010E949C16612FC50161
:105670000E949C1661E8C5010E949C16F50165AD6B
:10568000C5010E949C1669EDC5010E949C16D501BA
:1056900092968C9161EF813009F462E2C5010E941B
:1056A0009C1646E06AE277E0C5010E94F715F50115
:1056B000858D968D892B09F428C121AD32AD43AD7E
:1056C00054AD60E074E284EF90E00E94F62E205129
:1056D00031094109510956954795379527952093EA
:1056E000B80080910C0690910D060E94F61F8091E3
:1056F0000C0690910D060E9457171092A00310926D
:105700009F0361E0809116060E94A0092091120675
:1057100030911306032E000C440B550B60E879EA18
:1057200083E090E00E94C42E309315062093140667
:1057300010921806109217061092A2031092A1035D
:1057400061E084E00E94A00961E085E00E94A00978
:1057500061E080E20E94A00961E082E20E94A0096B
:1057600061E08EE10E94A00961E084E20E94A0094C
:1057700060E088E00E94A00960E087E00E94A00944
:1057800060E086E00E94A00985ED95E00E94BE1EC3
:1057900086EF95E00E94BE1E84EB95E00E94BE1E3F
:1057A00083E995E00E94BE1E8BEE95E00E94BE1E2E
:1057B00080EE95E00E94BE1E8AEC95E00E94BE1E1F
:1057C0008BEE95E00E94BE1E8EE995E00E94BE1E03
:1057D0008DE795E00E94BE1E89EA95E00E94BE1EFC
:1057E00088E895E00E94BE1E62E082E00E94A00967
:1057F00062E082E10E94A00980E494E00E94C70771
:105800006CE972E080E494E00E94C31E69E972E0F2
:1058100080E494E00E94C31E83EA93E00E94C707DD
:10582000AA24A394B12C10E3812E912C00E6202E03
:10583000312C0E94510B0E94431F83EA93E00E9487
:10584000B20F892B09F487C01A8219821C821B822D
:105850001E821D8270E060E0CE0101960E94CE1F84
:1058600029813A8181115BC02115310519F0C901E7
:105870000E94B9311A8219821E821D821C821B82EB
:1058800083EA93E00E94B20F892B09F450C083EAA7
:1058900093E00E94900F8F8318860D811E810F5F09
:1058A0001F4FB801CE0101960E94CE1F882341F3FD
:1058B00029813A818D819E81BE01695F7F4F820F70
:1058C000931F0E9438331E830D83DACF80369105F3
:1058D00079F486819781409739F482A1813031F043
:1058E0008FEAD501DD968C9312E0BCCE80E1F9CF32
:1058F00080349105C9F7868197818097A9F782A1A5
:10590000813009F0B5CD80E1A9CED50107A4F0A979
:10591000E02D8081D4969C91892B8083E2CE1E82DB
:105920001D826BE972E0C9010E943833A9CF4D8115
:105930005E8169817A8180E494E00E94540F69E974
:1059400072E080E494E00E94C31E89819A810097EE
:1059500011F00E94B93110E000E0C8010E94740803
:1059600064E170E080E090E00E94D80A0B5F1F4F76
:10597000093B110591F704EB10E0C8010E9474087F
:1059800064E170E080E090E00E94D80A05501109BF
:105990000B3FBFEF1B0789F760910C0280910B0250
:1059A000680F7727771F072E000C880B990B0E9432
:1059B000CB2D20E030E040E05FE30E94062E20E0A7
:1059C00030E04FE753E40E94992F20E030E044E3B9
:1059D00053E40E94062E9B01AC0160E070E084E37A
:1059E00093E40E94272F2BED3FE049E450E40E940E
:1059F000062E20E030E044E353E40E94992F2B016F
:105A00003C010E94942F69877A878B879C876091DD
:105A1000020670E090E080E00E94CB2D6B017C01DB
:105A200020E030E040EE51E469857A858B859C85E5
:105A30000E94062E9B01AC01C701B6010E94282FCF
:105A40000E94123060930406C301B2010E948030AC
:105A50002B013C016091030670E090E080E00E9421
:105A6000CB2D6B017C0120E030E040EE51E4C3011E
:105A7000B2010E94062E9B01AC01C701B6010E9433
:105A8000272F0E9412306093050680910C0690919A
:105A90000D060E94F61FE0910C06F0910D0641E004
:105AA000448B458BB38AA28AB18AA08A1586148654
:105AB0009786868665EA72E0CF010E94C31E8091B8
:105AC0000C0690910D06DC011D963C922E921C97BF
:105AD0001F969C928E921E9767EA72E00E94C31EE8
