:020000040000FA
:100000000C94FF060C9476200C944B200C9420202A
:100010000C94F51F0C94CA1F0C949F1F0C94741F12
:100020000C94491F0C9430070C9430070C94300743
:100030000C9430070C94A1200C9430070C94792276
:100040000C9430070C944B220C9430070C9430071E
:100050000C9430070C9430070C9430070C94FF1E5E
:100060000C9430070C948B210C9461210C94300774
:100070000C9430070C9430070C9430070C94300724
:100080000C941D220C9430070C9430070C9430070C
:100090000C9430070C9430070C9430070C946124B6
:1000A0000C9430070C9430070C94EF210C9430071B
:1000B0000C9430070C9430070C9430070C94C12139
:1000C0000C9430070C9430070C9430070C943007D4
:1000D0000C9430070C9430070C942B210C940121C4
:1000E0000C9430070C94480A0C9479100C94A715C2
:1000F0000C948A100C9430080C94230F0C943D0837
:100100000C942D0B0C9438080C9407080C94AD0932
:100110000C94B01B0C94E10E0C94871A0C943A1BAF
:100120000C941C080C94340A0C94BF0E0C94C01050
:100130000C944C090C94FD070C9418080C94700F47
:100140000C94490A0C948E1A0C94A5100C948A19DC
:100150000C94D30E0C9465100C94141E0C940F0880
:100160000C94DC100C940B080C9426080C94B31817
:100170000C9442080C9403080C9412190C945E1A07
:100180000C94A7190C9434080C946A1E0C944A0A17
:100190000C944E100C9472090C94F71B0C943E0AAC
:1001A0000C9412080C945F1A0C945C140C942208A2
:1001B0000C94CA1B0C941C090C947B1A0C946F1A97
:1001C0000C943E080C94EC140C942A080C9485258D
:1001D0000C94830E0C94B00E0C94F7100C94A51490
:1001E0000C94E1170C94A11B0C94C31B000000009D
:1001F000003E5B4F5B3E3E6B4F6B3E1C3E7C3E1CAD
:10020000183C7E3C181C577D571C1C5E7F5E1C00F2
:10021000183C1800FFE7C3E7FF0018241800FFE7A9
:10022000DBE7FF30483A060E2629792926407F056C
:100230000507407F05253F5A3CE73C5A7F3E1C1C82
:1002400008081C1C3E7F14227F22145F5F005F5F42
:1002500006097F017F006689956A6060606060942E
:10026000A2FFA29408047E040810207E2010080833
:100270002A1C08081C2A08081E101010100C1E0C3E
:100280001E0C30383E3830060E3E0E0600000000D0
:100290000000005F00000007000700147F147F14B7
:1002A000242A7F2A122313086462364956205000FC
:1002B00008070300001C2241000041221C002A1CE8
:1002C0007F1C2A08083E08080080703000080808D3
:1002D0000808000060600020100804023E514945F3
:1002E0003E00427F400072494949462141494D3311
:1002F0001814127F1027454545393C4A4949314178
:10030000211109073649494936464949291E000045
:10031000140000004034000000081422411414149A
:100320001414004122140802015909063E415D5986
:100330004E7C1211127C7F494949363E414141228F
:100340007F4141413E7F494949417F090909013EB9
:10035000414151737F0808087F00417F41002040E0
:10036000413F017F081422417F404040407F021CF2
:10037000027F7F0408107F3E4141413E7F09090909
:10038000063E4151215E7F091929462649494932D5
:1003900003017F01033F4040403F1F2040201F3F9B
:1003A0004038403F63140814630304780403615920
:1003B000494D43007F414141020408102000414162
:1003C000417F04020102044040404040000307080E
:1003D0000020545478407F2844443838444444280A
:1003E000384444287F385454541800087E090218B1
:1003F000A4A49C787F0804047800447D4000204039
:10040000403D007F1028440000417F40007C04787C
:1004100004787C080404783844444438FC182424C4
:100420001818242418FC7C08040408485454542444
:1004300004043F44243C4040207C1C2040201C3CC1
:100440004030403C44281028444C9090907C4464B8
:10045000544C44000836410000007700000041364B
:10046000080002010204023C2623263C1EA1A161D1
:10047000123A4040207A3854545559215555794103
:100480002254547842215554784020545579400CD8
:100490001E527212395555555939545454593955BB
:1004A0005454580000457C410002457D42000145FE
:1004B0007C407D1211127DF0282528F07C54554592
:1004C000002054547C547C0A097F493249494932FE
:1004D0003A4444443A324A4848303A4141217A3A0F
:1004E00042402078009DA0A07D3D4242423D3D40DB
:1004F00040403D3C24FF2424487E4943662B2FFC8A
:100500002F2BFF0929F620C0887E09032054547937
:10051000410000447D413048484A32384040227A08
:10052000007A0A0A727D0D19317D2629292F282685
:100530002929292630484D4020380808080808088D
:100540000808382F10C8ACBA2F102834FA00007BE6
:10055000000008142A142222142A140855005500F9
:1005600055AA55AA55AAFF55FF55FF000000FF00E8
:10057000101010FF00141414FF001010FF00FF10E3
:1005800010F010F0141414FC001414F700FF000015
:10059000FF00FF1414F404FC141417101F10101F94
:1005A000101F1414141F00101010F0000000001F82
:1005B000101010101F10101010F010000000FF108D
:1005C0001010101010101010FF10000000FF140089
:1005D00000FF00FF00001F10170000FC04F41414BB
:1005E0001710171414F404F40000FF00F714141487
:1005F00014141414F700F7141414171410101F1007
:100600001F141414F4141010F010F000001F101F29
:100610000000001F14000000FC140000F010F01097
:1006200010FF10FF141414FF141010101F0000000E
:1006300000F010FFFFFFFFFFF0F0F0F0F0FFFFFF12
:100640000000000000FFFF0F0F0F0F0F3844443869
:1006500044FC4A4A4A347E02020606027E027E02B8
:1006600063554941633844443C04407E201E2006C3
:10067000027E020299A5E7A5991C2A492A1C4C7200
:1006800001724C304A4D4D303048784830BC625A87
:10069000463D3E494949007E0101017E2A2A2A2A17
:1006A0002A44445F444440514A444040444A5140F3
:1006B0000000FF0103E080FF000008086B6B0836B4
:1006C00012362436060F090F060000181800000025
:1006D0001010003040FF0101001F01011E00191D14
:1006E0001712003C3C3C3C000000000000010307E6
:1006F0000F1F3F7F0080C0E0F0F8FCFE2200FF21CA
:10070000DB40A4A62EAF2000A1C8D300408DAED5FB
:1007100080A8000060000000000000000000000051
:10072000000000E0000000000000000000000000E9
:100730000001E000000000000000000000000000D8
:1007400001F00000000000000000000000000003B5
:10075000F00000000000000000000000000007F0B2
:100760000000000000000000000000000007F8008A
:100770000000000000000000000000000FF8000072
:100780000003C0007E000001E0007F0FF8000000C1
:1007900003C000FE000001E000FFEFF800000003CE
:1007A000C000FE000001E000FFFFF800000003C0F1
:1007B00000F00000000F007FFE7FC0000003C000BB
:1007C000F00000000F003FFE7FF83FF1FBCFFCFE82
:1007D000F3BC3DEFE01FFE7FFF7FFBFFDFFEFEFF70
:1007E000BC3DEFE01FC6FFFF7FFBFFDFFEFEFFBC4F
:1007F0003DEFE00FE3C7FE787BC3DE1EF0FFBC3D9C
:10080000EF0007FF87FC787BC3DE1EF0F83C3DEF6E
:100810000001FFFFF0007BC3C01EF0F03C3DEF0085
:1008200001F37FE03FFBC3CFFEF0F03C3DEF000360
:10083000E33F807FFBC3DFFEF0F03C3DEF0007E7C6
:100840003C00787BC3DE1EF0F03C3DEF0007FFBEAE
:1008500000787BC3DE1EF0F03C3DEF0007FFFE009A
:10086000787BC3DE1EF0F03C3DEF000FFFFE007F03
:10087000FBFFDFFEF0F03FFDEFE00FFFFF007FFB2F
:10088000FFDFFEF0F03FFDEFE00FF9FF003E79F9EA
:10089000CF9EF0F01F3DE7E01FF1FF0000000000D9
:1008A000000000000000001F80FF007FFFFFFFFF2F
:1008B000FFFFFFFFFFE01C007F007FFFFFFFFEB494
:1008C0006D888D18E000001F007FFFFFFFFE95ADD3
:1008D0007DB577E000000F007FFFFFFFFEA5AD9D17
:1008E0008D19E0000006007FFFFFFFFEB5ADEDB5FE
:1008F0007EE0000000000001800000000000000019
:100900000000038000000000000000000007C0009D
:10091000000000000000000007C000000000000010
:100920000000000FC00000000000000000001FE0F9
:100930000000000000000000001FE00000000000B8
:10094000000000003FE00000000000000000003F49
:10095000F00000000000000000007FF00000000038
:100960000000001FF87FF0000000000000003FFEC4
:100970007FF0000000000000003FFF7FF00000005B
:10098000000000001FFFFBE0000000000000000F5F
:10099000FFF9FFC00000000000000FFFF9FFF800A2
:1009A000000000000007FFF1FFFF00000000000052
:1009B00003FC73FFFF80000000000001FE3FFFFF0B
:1009C00080000000000000FF1E0FFF00000000007C
:1009D00000007FFE1FFC000000000000003FFFFF42
:1009E000F8000000000000000FDFFFE00000000042
:1009F0000000001F19FFC0000000000000003F3C85
:100A0000FF00000000000000007E7CF800000000F5
:100A1000000000007FFE7C0000000000000000FFDE
:100A2000FFFC0000000000000000FFFFFE000000CF
:100A30000000000000FFFFFE0000000000000001B9
:100A4000FFEFFE0000000000000001FFCFFE0000ED
:100A5000000000000003FF07FE000000000000008F
:100A600003FC07FE0000000000000003F003FE008E
:100A7000000000000000018000FE000000000000F7
:100A8000000000007E000000000000000000003EAA
:100A9000000000000000000000000C00000000004A
:100AA00000078000FC000003C0000000078001FC7C
:100AB000000003C0000000078001FC000003C0002C
:100AC0000000078001E00000001E00000007800118
:100AD000E00000001E007FE3F79FF9FDE7787BDF71
:100AE000C0FFF7FFBFFDFDFF787BDFC0FFF7FFBF53
:100AF000FDFDFF787BDFC0F0F787BC3DE1FF787B31
:100B0000DE00F0F787BC3DE1F0787BDE0000F78780
:100B1000803DE1E0787BDE007FF7879FFDE1E078B4
:100B20007BDE00FFF787BFFDE1E0787BDE00F0F7BA
:100B300087BC3DE1E0787BDE00F0F787BC3DE1E07B
:100B4000787BDE00F0F787BC3DE1E0787BDE00FFDC
:100B5000F7FFBFFDE1E07FFBDFC0FFF7FFBFFDE177
:100B6000E07FFBDFC07CF3F39F3DE1E03E7BCFC045
:100B70000000000000000000000000FFFFFFFFFF7A
:100B8000FFFFFFFFFFC0FFFFFFFFFD68DB111A3112
:100B9000C0FFFFFFFFFD2B5AFB6AEFC0FFFFFFFF07
:100BA000FD4B5B3B1A33C0FFFFFFFFFD6B5BDB6A56
:100BB000FDC000002100240027002A002D00300085
:100BC000330001010000040107010A0100002000B8
:100BD0002300260029002C002F0032000001000015
:100BE00003010601090100000A0B02090C0D0E08A1
:100BF00007030401000000000000000000000000E6
:100C000000000000000000000000000000000000E4
:100C100000001211100000000000000000000000A1
:100C20000000000000000000000000000102102091
:100C30002008081020401020408002010201080412
:100C400002010102040810204080804020100804A6
:100C500002018004020180402010080402010804FF
:100C60000201010204081020408001020408102043
:100C7000408000002200250028002B002E003100BB
:100C8000340002010000050108010B0105050505FE
:100C9000070508080808020202020A0A08080404F4
:100CA0000404010101010101010103030303030322
:100CB0000303040707070C0C0C0C0C0C0C0C0202B1
:100CC000020206060606060606060B0B0B0B0B0BAE
:100CD0000B0B025D01040088010400B801080088C4
:100CE000010400B8010800D2010400B80104008822
:100CF0000108005D01040088010800B80104000635
:100D000001080006010400060108000601040006AF
:100D10000101005D01040088010400B80108008899
:100D2000010400B8010800D2010400B801040088E1
:100D30000108005D01040088010800B801040006F4
:100D4000010800060104000601080006010400066F
:100D500001FEFF0000F8FFB8011000B801F8FFB86D
:100D6000011000B801F8FFB8011000B801F8FFB891
:100D7000011000B801F8FFB8011000D201F8FFD24D
:100D8000011000D201F8FFD2011000D201F8FFD209
:100D9000011000D201F8FFD2011000B801F8FFB82D
:100DA000011000B801F8FFB8011000B801F8FFB851
:100DB000011000B801F8FFB80110008801F8FF88A1
:100DC0000110008801F8FF880110008801F8FF88F1
:100DD0000110008801F8FF88011000B801F8FFB881
:100DE000011000B801F8FFB8011000B801F8FFB811
:100DF000011000B801F8FFB801100000852511248A
:100E00001FBECFEFD1E2DEBFCDBF00E00CBF12E0CE
:100E1000A0E0B2E0EEE1F5E600E00BBF02C0079013
:100E20000D92A63AB107D9F726E0A6EAB2E001C0D2
:100E30001D92AB34B207E1F716E0CFEFD6E000E049
:100E400006C021970109802FFE010E946330CE3F2A
:100E5000D10780E00807A9F70E94D8270C948D32AB
:100E60000C940000FC01A089B18982E08C93A485D8
:100E7000B5851C92A685B7858FEC8C93108EA489BE
:100E8000B58986E08C93A289B3898C9180618C931B
:100E9000A289B3898C9188608C93A289B3898C9143
:100EA00080688C930288F389E02D80818F7D808318
:100EB00008953F924F925F926F927F928F929F928E
:100EC000AF92BF92CF92DF92EF92FF920F931F9358
:100ED000CF93DF9300D01F92CDB7DEB79C838B8377
:100EE0003B016A015901DC01ED91FC910284F3851B
:100EF000E02D19952801B7E04B0E511C93E0559455
:100F000047949A95E1F7C6018E0D9F1D9A838983B8
:100F1000912C812C312CF12CE12CC7018770992761
:100F2000330C892B59F4F70183E0F595E7958A9501
:100F3000E1F7E80DF91DEA0DFB1D349037FE10C0F6
:100F4000AB81BC81ED91FC9111970484F585E02D76
:100F500021E030E0A601B701660D771DCD0119959E
:100F6000BFEFEB1AFB0A0E151F05B9F68FEFC81A73
:100F7000D80A840C951CA981BA81CA16DB0659F6D9
:100F8000AB81BC81ED91FC9111970688F789E02D2A
:100F9000CD010F900F900F900F90DF91CF911F9187
:100FA0000F91FF90EF90DF90CF90BF90AF909F9008
:100FB0008F907F906F905F904F903F9019948150E9
:100FC000823108F05AC0E82FF0E08827E551F84F49
:100FD0008F4F0C9463300B080F08FD0703080708B8
:100FE0003D08120818081C08220826082A0830089C
:100FF00034083D0838083E084208809180008F7709
:10100000809380000895809180008F7DF9CF80913A
:101010008000877FF5CF84B58F7784BD089584B530
:101020008F7DFBCF8091B0008F778093B0000895C3
:101030008091B0008F7DF9CF809190008F77809361
:1010400090000895809190008F7DF9CF809190005D
:10105000877FF5CF8091A0008F778093A0000895BF
:101060008091A0008F7DF9CF8091A000877FF5CF80
:10107000809120018F778093200108958091200135
:101080008F7DF9CF80912001877FF5CFCF93DF93BC
:10109000282F30E0F901EA51F44F8491F901E45D21
:1010A000F34FD491F901E457F34FC491CC23A1F04D
:1010B00081110E94DF07EC2FF0E0EE0FFF1FE453D9
:1010C000F44FA591B491EC91ED2381E090E009F407
:1010D00080E0DF91CF91089580E090E0FACF1F93F8
:1010E000CF93DF93282F30E0F901EA51F44F849138
:1010F000F901E45DF34FD491F901E457F34FC49142
:10110000CC23A9F0162F81110E94DF07EC2FF0E00D
:10111000EE0FFF1FEE58F34FA591B4918FB7F894DF
:10112000EC91111108C0D095DE23DC938FBFDF91C5
:10113000CF911F910895DE2BF8CFCF93DF9390E0EE
:10114000FC01E45DF34F24918457934FFC0184919B
:101150008823C9F090E0880F991FFC01EE54F44FEA
:10116000A591B491FC01EE58F34FC591D491611152
:101170000DC09FB7F8948C91209582238C93888121
:10118000282328839FBFDF91CF910895623051F4C7
:101190009FB7F8943C91822F809583238C93E881AC
:1011A0002E2BEFCF8FB7F894EC912E2B2C938FBF73
:1011B000EACF3FB7F89480917A0390917B03A09196
:1011C0007C03B0917D0326B5A89B05C02F3F19F085
:1011D0000196A11DB11D3FBFBA2FA92F982F8827B7
:1011E000BC01CD01620F711D811D911D42E0660F92
:1011F000771F881F991F4A95D1F70895CF92DF92E4
:10120000EF92FF920F931F93CF93DF93EC018B012B
:10121000E881F981309709F0199460E08091BA056E
:101220000E946F080E94D9086093BA037093BB03B1
:101230008093BC039093BD038CE199E099838883EC
:101240000E94D908C090BA03D090BB03E090BC03C1
:10125000F090BD036C197D098E099F0962307105FC
:101260008105910550F480E0DF91CF911F910F919E
:10127000FF90EF90DF90CF90089561E08091BA05E4
:101280000E946F080E94D9086093BA037093BB0351
:101290008093BC039093BD038CE499E09983888389
:1012A0000E94D908C090BA03D090BB03E090BC0361
:1012B000F090BD036C197D098E099F096A30710594
:1012C0008105910580F260E08091BA050E946F0867
:1012D0000E94D9086093B6037093B7038093B80354
:1012E0009093B90382E799E0998388838091BC0544
:1012F0000E944608019799F48091BC050E94460817
:10130000892B09F580E090E0A0E8BFEBF80180832D
:101310009183A283B3831982188282E0A5CF0E94B1
:10132000D908C090B603D090B703E090B803F0900E
:10133000B9036C197D098E099F09693A71468105C7
:101340009105D0F690CF0E94D9086093B6037093B0
:10135000B7038093B8039093B9038DEA99E099831A
:1013600088838091BC050E944608892B59F580919D
:10137000BC050E944608019729F20E94D908C09036
:10138000B603D090B703E090B803F090B9036C199E
:101390007D098E099F090E94622E26E933E44BE005
:1013A0005DE30E94C32E20E030E040E05FE30E9456
:1013B000C32EF8016083718382839383198218821C
:1013C00083E052CF0E94D908C090B603D090B703F3
:1013D000E090B803F090B9036C197D098E099F095C
:1013E000693A71468105910510F63DCF8F929F9223
:1013F000AF92BF92CF92DF92EF92FF924B015C01CE
:101400000E94D9086B017C010E94D9086C197D09E2
:101410008E099F09683E734081059105A8F321E07C
:10142000821A9108A108B10888EEC80E83E0D81E80
:10143000E11CF11C81149104A104B10429F7FF906F
:10144000EF90DF90CF90BF90AF909F908F900895D6
:101450002FB7F894609176037091770380917803A9
:10146000909179032FBF08958091A6029091A702D1
:1014700001969093A7028093A60208958091A802F6
:101480009091A90201969093A9028093A8020895D1
:1014900008950895089590911A0289130DC0E2ED00
:1014A000FCE0E4919FEF90931A02E230E1F038F40F
:1014B000EE2381F0E13089F060E00C946F08E430B5
:1014C00049F110F1E530C1F7909173009D7F909341
:1014D0007300F2CF10926E00EFCF90916F009D7F5E
:1014E00090936F00E9CF909170009D7F9093700072
:1014F00091E09093B0009091B100987F94609093A8
:10150000B1001092B300D8CF909171009D7F90935D
:101510007100D2CF909172009D7F90937200CCCFDA
:101520004F925F926F927F928F929F92AF92BF92F3
:10153000CF92DF92EF92FF920F931F93CF93DF939F
:1015400000D01F921F92CDB7DEB741E020919E03DD
:1015500030919F03232B09F080C01092AF051092A9
:10156000AE050091AE051091AF058091A705909151
:10157000A805880F991F081719077CF7E090A505A3
:10158000F090A6058091AB059091AC050F5F1F4FC1
:10159000000F111FF701E00FF11F65917491709317
:1015A000B1056093B005161617060CF075C00E94C1
:1015B0004F307093B3056093B205F8013297EE0D8A
:1015C000FF1D0591149101151105F1F06091B2050F
:1015D0007091B305072E000C880B990B0E94642EA6
:1015E00026E636E646E65FE30E94C32E0E94EB2F16
:1015F0002B013C018091AD0590911A02891709F4E5
:101600005FC09F3F09F4D7C00E94280AAB01BC010C
:101610008091B2059091B305092E000CAA0BBB0B6B
:10162000840F951FA61FB71F8093B4059093B5052F
:10163000A093B605B093B7050E94280A40E0009138
:10164000B4051091B5052091B6053091B705601726
:1016500071078207930708F0F2C22DE23BE0309356
:101660009F0320939E034111E7CF81E00F900F90DD
:101670000F900F900F90DF91CF911F910F91FF90DE
:10168000EF90DF90CF90BF90AF909F908F907F9022
:101690006F905F904F9008957195619571090E94C8
:1016A0004F30072E000C880B990B0E94642E20E00F
:1016B00030E040EC5FE30E94C32E0E94E42F79CF1C
:1016C000E2EDFCE024912D8327FD9ECF61E00E9496
:1016D0009D082D81222321F08D81823009F0D4C113
:1016E0004801B12CA12C60E072E18AE790E0A501ED
:1016F00098010E94812F29833A834B835C8369017F
:101700007A0191E0C91AD108E108F1082FEFC21659
:10171000D104E104F10409F00CF485C160E472E441
:101720008FE090E0A50198010E94812F69017A0164
:1017300081E0C81AD108E108F1089D81923009F0D2
:1017400026C182E02FEFC216D104E104F10409F0B2
:101750000CF4D2C260E970ED83E090E0A50198013D
:101760000E94812F69017A0181E0C81AD108E1083D
:10177000F10883E09FEFC916D104E104F10409F0F8
:101780000CF4BAC268E478EE81E090E0A50198011B
:101790000E94812F69017A0181E0C81AD108E1080D
:1017A000F1089FEFC916D104E104F10411F00CF027
:1017B00012C184E0A1C280931A02E2EDFCE0949190
:1017C0009D839F3F09F420CF923009F474C058F4F0
:1017D000992399F1913009F44CC097FD15CF61E040
:1017E0000E949D0879CF2D81243009F4AEC008F401
:1017F00088C0253091F7109220011092210190911C
:101800002101986090932101909121019160909322
:101810002101282F30E0F901E457F34FE491F0E083
:10182000EE0FFF1FEE58F34F45915491F901E45D1F
:10183000F34FE491E0937E0349CF14BC15BC94B5FB
:10184000926094BD95B5916095BD282F30E0F90167
:10185000E457F34FE491F0E0EE0FFF1FEE58F34F23
:1018600045915491F901E45DF34FE491E0938503D0
:101870002DCF10928000109281009091810098608D
:101880009093810090918100916090938100282F26
:1018900030E0F901E457F34FE491F0E0EE0FFF1F61
:1018A000EE58F34F45915491F901E45DF34FE49103
:1018B000E09384030BCF1092B0001092B10090918E
:1018C000B00092609093B0009091B10091609093BD
:1018D000B100282F30E0F901E457F34FE491F0E034
:1018E000EE0FFF1FEE58F34F459154915093830331
:1018F00040938203F901E45DF34FE491E0938103A7
:10190000E5CE109290001092910090919100986015
:101910009093910090919100916090939100282F65
:1019200030E0F901E457F34FE491F0E0EE0FFF1FD0
:10193000EE58F34F45915491F901E45DF34FE49172
:10194000E093800393E09D83C1CE1092A00010929B
:10195000A1009091A10098609093A1009091A100A6
:1019600091609093A100282F30E0F901E457F34FE4
:10197000E491F0E0EE0FFF1FEE58F34F45915491C4
:10198000F901E45DF34FE491E0937F039FCE2FEFE5
:10199000C216D104E104F10409F00CF473C068E448
:1019A00078EE81E090E0A50198010E94812F690105
:1019B0007A0181E0C81AD108E108F1089D819923D4
:1019C00009F466C18FEFC816D104E104F10409F0EF
:1019D0000CF4EFCE66C164E274EF80E090E0A50104
:1019E00094010E94812F69017A0181E0C81AD1080F
:1019F000E108F10885E09FEFC916D104E104F10484
:101A000009F008F479C162E17AE780E090E0A5018D
:101A100094010E94812F69017A0191E0C91AD108CD
:101A2000E108F10850C181E02D81211165C195B512
:101A3000987F892B85BD2FEF3FEFA90141145104F9
:101A40006104710409F049C09D81923009F4E7C036
:101A50000CF0CEC0992309F4D3C0913009F0D4CD55
:101A6000D0928900C0928800209396033093970308
:101A7000409398035093990380916F008260809304
:101A80006F00C2CD82E0D0CFB12CA12C60E072E11A
:101A90008AE790E0A50198010E94812F69017A01EF
:101AA00081E0C81AD108E108F108C114D10491E01D
:101AB000E906F10404F591E02D81213069F580916A
:101AC0008100887F892B809381002FEF3FEFA90150
:101AD000411451046104710419F2D801AA0FBB1F0B
:101AE000A30192010E94A02F28EE33E040E050E0D5
:101AF0000E94B32FA9CF68E478EE81E090E0A501C1
:101B000098010E94812F69017A0181E0C81AD108E9
:101B1000E108F10893E0D0CF8D81833001F5809109
:101B20009100887F892B809391002FEF3FEFA901CF
:101B3000411451046104710481F6D0929900C0925D
:101B4000980020938E0330938F034093900350931B
:101B500091038091710082608093710055CD2D8139
:101B6000243009F58091A100887F892B8093A10002
:101B70002FEF3FEFA901411451046104710409F0F2
:101B8000ACCFD092A900C092A80020938A033093D2
:101B90008B0340938C0350938D038091720082607D
:101BA0008093720031CD8D81853009F044CF8091D2
:101BB0002101887F892B809321012FEF3FEFA9011D
:101BC000411451046104710409F087CFD0922901B6
:101BD000C0922801209386033093870340938803A3
:101BE00050938903809173008260809373000CCDC1
:101BF0008D81843031F20CF4A0CF853039F304CDDF
:101C0000C7BC20939A0330939B0340939C0350934B
:101C10009D0380916E00826080936E00F5CCC0922F
:101C2000B300209392033093930340939403509313
:101C3000950380917000826080937000E5CC809164
:101C4000AD050E944B0A8091AE059091AF050296BA
:101C50009093AF058093AE0584CC84E09FEFC916C6
:101C6000D104E104F10409F008F4E1CEC980DA807E
:101C7000EB80FC808AE0F594E794D794C7948A952A
:101C8000D1F781E0C81AD108E108F10885E0CFCE8C
:101C900083E02FEFC216D104E104F10409F00CF443
:101CA000C6CE62E17AE780E090E0A50194010E944F
:101CB000812F69017A0181E0C81AD108E108F10891
:101CC0009D81992351F286E02FEFC216D104E104E1
:101CD000F10491F088F0C980DA80EB80FC809AE012
:101CE000F594E794D794C7949A95D1F791E0C91ADF
:101CF000D108E108F10887E09091B100987F892B25
:101D00008093B10098CEAF92BF92CF92DF92EF92C4
:101D1000FF920F931F93CF93DF936C017B018B0195
:101D2000040F151FEB015E01AE18BF08C017D107E5
:101D300059F06991D601ED91FC910190F081E02D6F
:101D4000C6011995892B79F7C501DF91CF911F91B4
:101D50000F91FF90EF90DF90CF90BF90AF900895DC
:101D6000FC01538D448D252F30E0842F90E0821BA1
:101D7000930B541710F0CF96089501970895FC0126
:101D8000918D828D981761F0A28DAE0FBF2FB11D7E
:101D90005D968C91928D9F5F9F73928F90E00895D6
:101DA0008FEF9FEF0895FC01918D828D981731F090
:101DB000828DE80FF11D858D90E008958FEF9FEFE4
:101DC0000895FC01918D228D892F90E0805C9F4FBA
:101DD000821B91098F73992708958EEB93E00E94DF
:101DE000E10E21E0892B09F420E0822F08958BE594
:101DF00094E00E94E10E21E0892B09F420E0822F7B
:101E00000895FC01A48DA80FB92FB11DA35ABF4F8F
:101E10002C91848D90E001968F739927848FA689E9
:101E2000B7892C93A089B1898C91837080648C933D
:101E3000938D848D981306C00288F389E02D8081EC
:101E40008F7D80830895EF92FF920F931F93CF931E
:101E5000DF93EC0181E0888F9B8D8C8D98131AC0E5
:101E6000E889F989808185FF15C09FB7F894EE89CC
:101E7000FF896083E889F989808183708064808329
:101E80009FBF81E090E0DF91CF911F910F91FF9074
:101E9000EF900895F62E0B8D10E00F5F1F4F0F731C
:101EA0001127E02E8C8D8E110CC00FB607FCFACFD7
:101EB000E889F989808185FFF5CFCE010E94010F65
:101EC000F1CFEB8DEC0FFD2FF11DE35AFF4FF082A8
:101ED0009FB7F8940B8FEA89FB8980818062CFCF0E
:101EE000CF93DF93EC01888D8823B9F0AA89BB8951
:101EF000E889F9898C9185FD03C0808186FD0DC03C
:101F00000FB607FCF7CF8C9185FFF2CF808185FF5C
:101F1000EDCFCE010E94010FE9CFDF91CF9108955F
:101F200080E090E0892B29F00E94F70E81110E9439
:101F3000000080E090E0892B49F080E090E0892B60
:101F400029F00E94000081110E94000080E090E0D2
:101F5000892B49F080E090E0892B29F00E94000055
:101F600081110E94000080E090E0892B29F00E94FE
:101F7000ED0E81110C94000008958F929F92AF9204
:101F8000BF92FF920F931F93CF93DF93FC01F080DA
:101F90008FE28F1508F44AC0828108E512E0081B21
:101FA000110987FD1395000F111F000F111F81816B
:101FB000C8E8D0E0C81BD10987FDD395CC0FDD1F41
:101FC000CC0FDD1F4E010D2E000CAA08BB08980196
:101FD000012E000C440B550B281939094A095B09DD
:101FE000DB010E94AB2F24EB30E040E050E00E9488
:101FF000812F820E931EA41EB51E8C169D062CF0FA
:10200000E801801691060CF4E4012297CC0FDD1F45
:102010002FB7F8948F2D90E0FC01EE0FFF1FE80F13
:10202000F91FEC5FFA4FD283C1832FBFDF91CF91AD
:102030001F910F91FF90BF90AF909F908F90089548
:102040008F929F92AF92BF92CF92DF92EF92FF92C8
:10205000CF93DF937C0181E02091A0033091A10315
:10206000232B09F046C01092B5031092B40380E010
:10207000E091B403F091B503E730F10508F039C001
:10208000E7018827E95BFF4E8F4F0C9463304E10B9
:1020900065108A10A510C010DC10F71066E470E01F
:1020A00080EC95E00E94BD0F0E94280A6093B00367
:1020B0007093B1038093B2039093B30381E090E0F7
:1020C0009093B5038093B40313C00E94280A8090B4
:1020D000B0039090B103A090B203B090B30368191D
:1020E00079098A099B09683C71058105910558F4B5
:1020F00080E029E730E13093A1032093A003811110
:10210000B6CF81E0AAC01092AF031092AE0382E076
:1021100090E0D6CF6AEA73E08EEA93E00E94FE0870
:10212000823034F368E770E080EC95E00E94BD0FE8
:102130000E94280A6093B0037093B1038093B203A6
:102140009093B30383E090E0BBCF0E94280A809075
:10215000B0039090B103A090B203B090B30368199C
:1021600079098A099B09683C71058105910508F484
:10217000BFCF1092AF031092AE0384E090E0A0CFE7
:1021800066EA73E08EEA93E00E94FE0882300CF467
:10219000AFCF6EE170E080EC95E00E94BD0F0E9431
:1021A000280A6093B0037093B1038093B2039093B5
:1021B000B30385E090E084CF0E94280A8090B003AA
:1021C0009090B103A090B203B090B303681979095D
:1021D0008A099B09683C71058105910508F488CF3F
:1021E0001092AF031092AE0386E090E069CF62EAEE
:1021F00073E08EEA93E00E94FE0882300CF478CF00
:102200008090A6039090A703A090A803B090A90384
:10221000C090A203D090A303E090A403F090A50384
:10222000A7019601C501B4010E941A30181604F5E1
:102230002091AA033091AB034091AC035091AD03C0
:10224000C501B4010E941A30181694F4198218823C
:102250001092A1031092A00382E0DF91CF91FF9032
:10226000EF90DF90CF90BF90AF909F908F900895A8
:10227000A7019601C501B4010E945D2E87FFE8CF3A
:102280002091AA033091AB034091AC035091AD0370
:10229000C701B6010E941A301816D4F681E090E00A
:1022A00099838883D5CFAF92BF92CF92DF92EF927E
:1022B000FF920F931F93CF93DF936B017A01EC0191
:1022C000CF59DC4F28813CE0389F8001399F100DA9
:1022D0001124A0909405B12C27FF1FC0FB0111828F
:1022E000108288818F5F888388819801280F311D33
:1022F00087FD3A95F6012A153B051CF488818C3040
:10230000C4F180819181049680349C4908F473C0A3
:10231000F60180819181049670C088819801280F10
:10232000311D87FD3A952A153B05DCF68881A80109
:10233000480F511D87FD5A95FA01EE0FFF1FE40F5C
:10234000F51FEC5FFA4F808186FFCBCF8881F801C3
:10235000E80FF11D87FDFA95CF01EE0FFF1FE80F83
:10236000F91FEC5FFA4F808160E08F730E946F0865
:10237000B8CF808191812881A801420F511D27FD8E
:102380005A959A01FA01EE0FFF1FE20FF31FEC5F5F
:10239000FA4F21813281820F931FF701918380834D
:1023A00088819801280F311D87FD3A95F901EE0FBC
:1023B000FF1FE20FF31FEC5FFA4F808186FF22C000
:1023C0008881080F111D87FD1A95F801EE0FFF1F78
:1023D000E00FF11FEC5FFA4F808161E08F73DF91B6
:1023E000CF911F910F91FF90EF90DF90CF90BF9012
:1023F000AF900C946F0880E49CE9F701918380838F
:102400008FEF8883DF91CF911F910F91FF90EF9015
:10241000DF90CF90BF90AF90089520915F033091EF
:102420006003F90181919FEB980F9A3140F430934A
:10243000600320935F03805E08959F01F2CF803296
:1024400039F4232BD1F7F0936003E0935F030895F1
:102450003093600320935F0308951F93CF93DF931E
:102460000E940D12D0E0C0E01AE090ED980F9A3073
:10247000B8F41C9F90011D9F300D1124E901C80F75
:10248000D11D87FDDA95E09780915F0390916003FD
:1024900001969093600380935F030E940D12E5CF35
:1024A000CE01DF91CF911F9108952F923F924F92CD
:1024B0005F926F927F928F929F92AF92BF92CF92D4
:1024C000DF92EF92FF920F931F93CF93DF9300D091
:1024D0001F921F92CDB7DEB77A8369834B83209119
:1024E0005C03211112C021E020935C031092700064
:1024F00021E22093B0002BE02093B1002AEF20933B
:10250000B3001092B400539A7894109209023324C5
:10251000339497FF03C09F773AE0332E28E2329E30
:10252000202D112430E03D832C838217930760F027
:1025300021E09D838C83321207C08131974220F0C5
:1025400080E197E29D838C83832C912CB12CA12C6C
:102550004C805D8056944794712C612C2C813D8178
:102560006901F12CE12CA501940160E472E48FE093
:1025700090E00E941F30640D751D861D971DA701F8
:1025800096010E94812F890122E0222E0F3F110522
:1025900001F1F8F02394E22DF0E0EE0FFF1FE75C6D
:1025A000FD4F2081318150E040E060E072E18AE738
:1025B00090E00E94812FC501B4010E941F30640D7C
:1025C000751D861D971DA70196010E94812F890107
:1025D000DDCF3AE0331209C08C819D8105966AE017
:1025E00070E00E943B307D836C838C819D81883EAE
:1025F00023E0920769F029813A81DC010E94D52FFE
:1026000028EE33E040E050E00E94812F3A83298396
:10261000109270008091B100887F282A2092B1002A
:102620000093B3008B81803108F08FE020E130E02F
:10263000281B310902C0169507952A95E2F70093E9
:10264000B40089819A8190935E0380935D0387B380
:102650008FEF87BB81E0809370000F900F900F90F9
:102660000F900F90DF91CF911F910F91FF90EF90FE
:10267000DF90CF90BF90AF909F908F907F906F90A2
:102680005F904F903F902F900895EF92FF920F939D
:102690001F93CF93DF93EC01EC80FD806E157F05D7
:1026A0000CF070C057FF04C0240F351F50E040E00D
:1026B0008E819F81FA01E20FF31F8E179F071CF492
:1026C0009C01241B350B121613060CF05BC0922FD5
:1026D000842F8695869586958E9DD0018F9DB00D11
:1026E00011246A0F7B1FAF8DB8A1A60FB71F4770CB
:1026F00049F188E0841B482F682F70E0FB01EC5003
:10270000F94FE491281708F063C0621B71092FEF9D
:1027100030E002C0359527956A95E2F7E223013053
:10272000110539F0B0F10230110561F58C91E827FF
:1027300002C08C91E82BEC93941720F12C813D8101
:10274000A20FB31FE92FE41BE83078F00230110527
:1027500021F58E2F9C9190959C932C813D81A20F09
:10276000B31F88508830B0F7E770EE2359F0F0E0DF
:10277000E451F94FE49101301105F9F010F1023004
:10278000110519F1DF91CF911F910F91FF90EF90FB
:102790000895E0958C91E823CECF81E001151105D5
:1027A00009F480E081959E2F8C932C813D81A20FAE
:1027B000B31F98509830C0F7D7CF8C91E82BEC938B
:1027C000E1CFE0958C91E823FACF8C91E827F7CF01
:1027D0000130110509F4ADCFE0F20230110509F422
:1027E000A5CFAE0DBF1DAECF0F931F93CF93DF9339
:1027F00077FF04C0260F371F70E060E0DC011496FD
:10280000CD91DC91FB01E20FF31FCE17DF071CF423
:102810009E01261B370B121613064CF5FA0157FDC5
:102820003796A3E0F595E795AA95E1F7EC9FD001DF
:10283000ED9FB00DFC9FB00D11246A0F7B1FDC01D2
:102840005F96ED91FC91E60FF71F4770552781E0E9
:1028500090E001C0880F4A95EAF7482F0130110532
:1028600059F0A8F02E0F3F1F02301105E1F0DF9163
:10287000CF911F910F9108952E0F3F1FE217F3077D
:10288000B1F38191DF011197842B8C93F7CF809561
:102890002E0F3F1FE217F30751F39191DF011197BC
:1028A00098239C93F7CFE217F30709F38191DF0197
:1028B000119784278C93F7CF0F931F93FA01DC01B4
:1028C00056964C9156974230E9F04330A1F1413091
:1028D00061F514964D915C91DA01AE1BBF0BFD01C1
:1028E000E21BF30B77FD0BC0DC0116964D915C915A
:1028F0006417750724F4AB01BF010E94F4131F9104
:102900000F91089514964D915C91DA01A61BB70BB7
:10291000BD0161507109DC0116964D915C91DA019F
:10292000AE1BBF0BFD01E21BF30B77FDE8CFAF0140
:102930000E944513E4CF16964D915C91DA01A61BD7
:10294000B70BBD0161507109CDCF0F931F93FA01F1
:10295000DC0156964C9156974230A9F0433091F1E4
:10296000413019F514964D915C91DA01AE1BBF0B05
:10297000FD013197F7FD04C0AB01BF010E94451373
:102980001F910F91089514964D915C91DA01A61B49
:10299000B70BBD01DC0116964D915C91DA01AE1BBF
:1029A000BF0BFD013197621B730BF7FDE9CFDC0113
:1029B00016964D915C91E417F50714F7AF010E944C
:1029C000F413DECF16964D915C91DA01A61BB70B7E
:1029D000BD01621B730BCECFFC0177FD64C0808507
:1029E0009185681779070CF05EC057FD5CC0828541
:1029F0009385481759070CF056C086898230B1F08C
:102A0000833029F1813041F484819581841B950BB9
:102A1000AB01BC01615071092130310509F108F4A5
:102A200043C02230310509F463C008958481958143
:102A3000DC01A61BB70BBD0161507109868197812E
:102A4000DC01A41BB50BAD0141505109E5CF8681D6
:102A50009781861B970BBA01AC0141505109DCCF1D
:102A6000CA0157FD0796A3E095958795AA95E1F7CA
:102A7000A481B5818A9F90018B9F300D9A9F300D64
:102A80001124620F731F078CF0A1E02DE60FF71FD2
:102A90004770552721E030E001C0220F4A95EAF740
:102AA0008081822B80830895CA0157FD079633E009
:102AB000959587953A95E1F7A481B5818A9F900114
:102AC0008B9F300D9A9F300D1124620F731F078C5E
:102AD000F0A1E02DE60FF71F4770552781E090E049
:102AE00001C0880F4A95EAF7809590818923DACF53
:102AF000CA0157FD079623E0959587952A95E1F73A
:102B0000A481B5818A9F90018B9F300D9A9F300DD3
:102B10001124620F731F078CF0A1E02DE60FF71F41
:102B20004770552721E030E001C0220F4A95EAF7AF
:102B300080818227B7CF08958EBD00000DB407FEB7
:102B4000FDCF8EB508958CBD9DBD08950895FC01FF
:102B50006370668B8481958126813781613039F07D
:102B6000633029F0918780873387228708953187E2
:102B700020879387828708952F923F924F925F928A
:102B80006F927F928F929F92AF92BF92CF92DF927D
:102B9000EF92FF920F931F93CF93DF93CDB7DEB7E2
:102BA0006A970FB6F894DEBF0FBECDBF9A8F898F9C
:102BB0007A8369834A01D22E18870F833701BC2C90
:102BC000DC0159962D913C915A972115310509F058
:102BD00015C118968D919C911997681779070CF07B
:102BE000D7C11A968D919C91481759070CF0D0C106
:102BF0004C2C512CB6E0CB9E600D711D11247C87AE
:102C00006B87161617060CF0C3C1EA2DF0E0FA87A1
:102C1000E98793E0EE0FFF1F9A95E1F7F88BEF87B6
:102C2000CF01840F951F181619060CF0B1C1A98D9C
:102C3000BA8D58968C91811104C0BFEABD1508F475
:102C4000D394A98DBA8DED91FC9111970284F385EF
:102C5000E02DCD011995B5E0DB9EC0011124E9817D
:102C6000FA81FC83EB83312C212C9C0124513E4FB3
:102C7000388F2F8B4A2D50E05E8B4D8BEF89F88D6E
:102C8000E20DF31D44919E828D82D12CC12C69816D
:102C90007A81620D731D7A8B698B842F90E09C8BF7
:102CA0008B8BE98DFA8DA081B18140FF82C0F1E06C
:102CB000BF126FC0AF126DC01C96ED91FC912F81B9
:102CC0003885A4014C0D5D1D69897A89898D9A8D9D
:102CD0001995EB89FC89F595E7954E2F5FEFC51A9D
:102CE000D50A6D817E818D899E89680F791F7E83CB
:102CF0006D8398E0C916D10481F6AFEF2A1A3A0A1B
:102D0000EB81FC81E40DF51DFC83EB83F5E02F16D0
:102D1000310409F0B3CF2F81388526153705B9F076
:102D2000A98DBA8DED91FC91B1E0BB1257C0AB12E9
:102D300055C069817A816B5F7F4F0088F189E02DF2
:102D4000830128E030E0A401898D9A8D1995A98D21
:102D5000BA8DED91FC9111970688F789E02DCD0190
:102D60006A960FB6F894DEBF0FBECDBFDF91CF914C
:102D70001F910F91FF90EF90DF90CF90BF90AF9099
:102D80009F908F907F906F905F904F903F902F908B
:102D900019941E96ED91FC91EF80F88409851A85AF
:102DA00092014D815E816B817C81898D9A8D19950F
:102DB00090CF2F8138852615370509F48ACF31E069
:102DC000B31207C0A31205C01C96ED91FC919301AC
:102DD00078CF1E96ED91FC917301E0CF6B857C85D9
:102DE000641975090684F785E02D73010F8518892C
:102DF0009201A401898D9A8D1995A9CFF901349674
:102E00009491329745915491D91AB7E0DB9E400DC9
:102E1000511D1124F901259134913C8B2B8BFA0122
:102E200025903490FA013296749031963491398B12
:102E3000329664903196449041E04C1518F04A1552
:102E400008F07FC0662D062C000C770B7C836B830B
:102E5000842D042C000C990B9E838D83A98DBA8D33
:102E6000ED91FC9111970284F385E02DCD01199528
:102E7000512CD12CC12CEA2DF0E0FA87E9872B2DBB
:102E800030E03C872B87A401440D511D47FC5A9527
:102E9000588F4F8B69817A81660D711D67FC7A9519
:102EA0007E876D877989C71608F051CF2C2D30E0C9
:102EB0004D815E81420F531FA985BA854A9FC0018B
:102EC0004B9F900D5A9F900D1124FC01E80DF91DA8
:102ED000F88BEF87852D612C4F89588D420F531F3A
:102EE0005E8B4D8B671408F050C044244394480E09
:102EF000877041F4C1010196EB89FC89E20DF31D55
:102F0000D4901C01D7FE19C0A98DBA8DED91FC910A
:102F1000662D70E0B1E0BB1219C0AB1217C02D8551
:102F20003E85620F731F0484F585E02D2F8138855F
:102F30004D895E89898D9A8D1995DD0C6394842D58
:102F4000D1CF1E821D821C821B8288CF4B815C8167
:102F5000640F751FAB85BC856A9FC0016B9F900D88
:102F60007A9F900D112469817A81680F791F0684F8
:102F7000F785E02DEF80F88409851A859D014F853E
:102F80005889898D9A8D1995D8CF570CC3948ACFBB
:102F90006A960FB6F894DEBF0FBECDBFDF91CF911A
:102FA0001F910F91FF90EF90DF90CF90BF90AF9067
:102FB0009F908F907F906F905F904F903F902F9059
:102FC00008958F929F92AF92CF92EF92FF920F93BC
:102FD0001F93CF93DF93EC01262F898D9A8D009755
:102FE00009F051C06A30D1F41D861C868D8948E0F5
:102FF000849F900111248E859F85820F931F9F8748
:103000008E8781E090E0DF91CF911F910F91FF902B
:10301000EF90CF90AF909F908F9008956D3089F38F
:10302000CC88AD888F898823C1F08C859D8536E05A
:10303000C39E800D911D1124488559854817590755
:1030400064F44E855F851D861C8638E0A39EC00112
:103050001124840F951F9F878E87EA88FB88088933
:1030600019894E855F856C857D85CE010E94BC15D2
:103070002C898C859D8546E0249F800D911D11240F
:103080009D878C87BECF6A3069F41D861C86FC0143
:103090003896E4912D898E859F85E29F800D911D44
:1030A0001124ADCF6D3009F4ACCFFC0134963491CE
:1030B000631708F4A6CF3296E491E61708F4A1CF7F
:1030C000FC01329685909490462F431B342F47E0A5
:1030D000349F800C911C1124F40132963491319666
:1030E000E4913323A9F1EE2399F1CC88F4013596CC
:1030F000E491AD884F89442301F10E2E000CFF0BA3
:10310000E30FF11DCE9EA001CF9E500D11246C85C2
:103110007D85460F571F68857985641775076CF4A0
:103120004E855F851D861C86FC013896E491AE9E17
:10313000400D511D11245F874E87EA88FB8808895E
:1031400019894E855F856C857D85CE010E94BC15F1
:10315000F4013496E4912C898C859D85E29F800D45
:10316000911D11248DCF6F927F928F929F92AF927B
:10317000BF92CF92DF92EF92FF920F931F93CF9364
:10318000DF93EC016B015A0139014801E881F981B3
:103190000284F385E02D1995E881F9810288F3898D
:1031A000E02D87019301A501B601CE011995A50176
:1031B000480D591D41505109E881F9810288F38970
:1031C000E02D9301B601CE011995E881F9810088BF
:1031D000F189E02D9401A501B601CE011995C60C27
:1031E000D71CB60161507109E881F9810088F18925
:1031F000E02D9401A501CE011995E881F981068899
:10320000F789E02DCE01DF91CF911F910F91FF90B3
:10321000EF90DF90CF90BF90AF909F908F907F9076
:103220006F9019946F927F928F929F92AF92BF92FC
:10323000CF92DF92EF92FF920F931F93CF93DF9382
:103240005C01EB016A01490138018701DC01ED9164
:10325000FC916217730719F5641675062CF0962D0C
:10326000872D3A01C92ED82E9601261937092F5FCE
:103270003F4F048CF58DE02DA301BE01C5011995CA
:10328000DF91CF911F910F91FF90EF90DF90CF9042
:10329000BF90AF909F908F907F906F90089546154C
:1032A000570591F42617370724F0892D4B01C22FBB
:1032B000D82F9E01281939092F5F3F4F068CF78DB3
:1032C000E02DA601B401DACF0284F385E02D199533
:1032D000D501ED91FC910488F589E02D83019401DD
:1032E000A601BE01C5011995D501ED91FC91068895
:1032F000F789E02DC501DF91CF911F910F91FF90CC
:10330000EF90DF90CF90BF90AF909F908F907F9085
:103310006F901994EF92FF920F931F93DC011A960E
:103320000D911C911B9718962D913C911997ED9139
:10333000FC9100A0F1A1E02D7B0150E040E070E0A5
:1033400060E019951F910F91FF90EF9008954F92B3
:103350005F926F927F928F929F92AF92BF92CF9225
:10336000DF92EF92FF920F931F93CF93DF936C0145
:103370002B015A0139014801DC01ED91FC910284D5
:10338000F385E02D1995E201640C751CD601ED91D1
:10339000FC91C615D7055CF40088F189E02D870102
:1033A0009401A501BE01C60119952196EFCF0688AB
:1033B000F789E02DC601DF91CF911F910F91FF900A
:1033C000EF90DF90CF90BF90AF909F908F907F90C5
:1033D0006F905F904F9019948F929F92AF92BF928F
:1033E000CF92DF92EF92FF920F931F93CF93DF93D1
:1033F000EC015B014A016901E881F9810284F385EE
:10340000E02D199595012C0D3D1D21503109E881C4
:10341000F9810488F589E02D78018401A401B501C2
:10342000CE011995E881F9810688F789E02DCE0152
:10343000DF91CF911F910F91FF90EF90DF90CF9090
:10344000BF90AF909F908F9019948F929F92AF9260
:10345000BF92CF92DF92EF92FF920F931F93CF9381
:10346000DF93EC015B014A0169017801E881F98190
:103470000284F385E02D1995C80CD91C86010150F2
:103480001109E881F9810488F589E02D9501A401ED
:10349000B501CE011995E881F9810688F789E02DFB
:1034A000CE01DF91CF911F910F91FF90EF90DF90B0
:1034B000CF90BF90AF909F908F9019940895EF9206
:1034C000FF920F931F93DC01ED91FC9100A0F1A1FD
:1034D000E02D19951F910F91FF90EF9008950F9394
:1034E0001F93DC01ED91FC91068CF78DE02D199571
:1034F0001F910F9108950F931F93DC01ED91FC91A3
:10350000048CF58DE02D19951F910F910895DC0124
:10351000ED91FC910084F185E02D19942F923F925A
:103520004F925F926F927F928F929F92AF92BF92D3
:10353000CF92DF92EF92FF920F931F93CF93DF937F
:1035400000D000D0CDB7DEB73C016A013E832D83A9
:10355000FC82EB825801A41AB50AB7FE03C0B194ED
:10356000A194B1088D809E80861A970A97FE03C0A9
:103570009194819491088A149B045CF0902F812F80
:103580000D811E819D838E839C2D8D2D6B01692F56
:10359000782F0C151D055CF09D818E817E836D83D7
:1035A000692F782F902F812F8601C92ED82E1601D2
:1035B000201A310A2B012D813E81421A530A57FEEF
:1035C00003C0519441945108710137FE03C03FEF8D
:1035D000E31AF30AF594E7948D819E818617970785
:1035E0005CF5A1E0B0E0BA83A983C016D1064CF126
:1035F000D301ED91FC910484F585E02D2B813C8174
:10360000A8016D817E818A149B041CF04D815E812E
:10361000B801C3011995E418F508F7FE0AC02D8119
:103620003E8189819A81280F391F3E832D83E20CC8
:10363000F31C0F5F1F4FD9CF2FEF3FEF3A83298342
:10364000D4CF26960FB6F894DEBF0FBECDBFDF9164
:10365000CF911F910F91FF90EF90DF90CF90BF908F
:10366000AF909F908F907F906F905F904F903F9022
:103670002F900895089520911003260F3327331FAC
:1036800021323105ECF420913403FC0190E080E01C
:10369000243069F082E00895A09110032191AC01DB
:1036A00040515D4FA40FB52FB11D2C930196861785
:1036B00098F380911003680F6093100380E00895E1
:1036C00081E008951092340381E0809336031092D4
:1036D000350361E084E10E946F0861E085E10E94AA
:1036E0006F08E9EBF0E080818E7F808380818D7FA1
:1036F000808388E48093B80085E48093BC000895BB
:10370000CF93DF9391E09093EF028823B9F0C091BB
:10371000B800D091BA008091BC008A7B8093BC0035
:1037200060E084E10E946F0860E085E10E946F081C
:103730000E94621BD093BA00C093B800DF91CF9172
:103740000895E0916F0380916E03E81730F4F0E084
:10375000E653FD4F808190E008958FEF9FEF08952D
:1037600090916F0380916E032FEF3FEF981748F40D
:10377000E92FF0E0E653FD4F208130E09F5F90930A
:103780006F03C901089580916E0390916F03891BA7
:10379000990B0895CF92DF92EF92FF920F931F93B0
:1037A000CF93DF937C01CB018A0120916603222312
:1037B00089F0EB016B01C40ED51ECC15DD0569F057
:1037C0006991D701ED91FC910190F081E02DC70145
:1037D0001995F3CF642F0E943B1BC801DF91CF9155
:1037E0001F910F91FF90EF90DF90CF900895CF93AE
:1037F000DF931F92CDB7DEB7698320916603222342
:10380000F9F020916C03203258F021E030E0FC0107
:103810003383228390E080E00F90DF91CF91089571
:1038200080916D03E82FF0E0E655FD4F998190837C
:103830008F5F80936D0380936C0381E090E0ECCF09
:1038400061E0CE0101960E943B1BF7CFCF92DF9241
:10385000EF92FF920F931F93CF93DF93D0916C035E
:1038600081E0D13208F09CC0C09165030E94D90864
:103870006B017C018091340381116CC082E08093E4
:10388000340381E0809336038FEF809333031092EB
:103890005803D0935703AAEAB2E0E7E3F3E080E0ED
:1038A000D8138DC01092590380915903CC0FC82BA7
:1038B000C093590380913503813009F084C0109280
:1038C00035030E94D9086B017C01809159038093D4
:1038D000BB008091EB029091EC02A091ED02B091BF
:1038E000EE02892B8A2B8B2BA1F00E94D908009124
:1038F000EB021091EC022091ED023091EE026C1976
:103900007D098E099F09061717072807390708F44C
:1039100042C08091BC0083FDD8CF85EC8093BC0071
:103920000E94D9086B017C0180913403823009F434
:103930004CC0809133038F3F09F469C080913303F9
:10394000803209F466C080913303803309F463C088
:1039500084E026C08091EB029091EC02A091ED02F0
:10396000B091EE02892B8A2B8B2B09F483CF0E9416
:10397000D9080091EB021091EC022091ED023091F8
:10398000EE026C197D098E099F0906171707280793
:10399000390708F06FCF8091EA020E94801B85E012
:1039A00010926D0310926C0310926603DF91CF9119
:1039B0001F910F91FF90EF90DF90CF9008959D9110
:1039C00091938F5F6DCF85EEA9CF8091EB0290919F
:1039D000EC02A091ED02B091EE02892B8A2B8B2B89
:1039E00009F4A2CF0E94D9080091EB021091EC02D9
:1039F0002091ED023091EE026C197D098E099F092C
:103A0000061717072807390708F08ECFC4CF80E0C4
:103A1000C7CF82E0C5CF83E0C3CFCF92DF92EF92D2
:103A2000FF920F931F93CF93DF93EC016B01142F41
:103A30008D8D9E8D009709F454C029A131E03093FB
:103A400066032093650310926D0310926C03DC01F2
:103A5000ED91FC910190F081E02D60E019957601E7
:103A6000CC24C394D12C01E011508D8D9E8D1F3F2D
:103A700071F1B0E2CB16D104C0F00E94261C8D8DEE
:103A80009E8D29A1009366032093650310926D0318
:103A900010926C03DC01ED91FC910190F081E02D1E
:103AA00060E01995CC24C394D12C8D8D9E8DF701A7
:103AB0006491DC01ED91FC910190F081E02D19956C
:103AC000BFEFCB1ADB0AEFEFEE1AFE0ACDCFDF9184
:103AD000CF911F910F91FF90EF90DF90CF900C94BA
:103AE000261CEDA5FEA590818BA980958923808356
:103AF0007B01115070F1F70184912B8D3C8D232BAC
:103B000031F00E949C15FFEFEF1AFF0AF2CF28E078
:103B100030E040E8E9A5FAA599A9582F5423A9F067
:103B20005081952B9083EBA5FCA590815AA9952BEC
:103B30009083EBA5FCA550819AA99095952390833D
:103B400046952150310931F7DECF5081909595236C
:103B5000E9CFDF91CF911F910F91FF90EF90DF9010
:103B6000CF9008951F93CF93DF93EC018D8D9E8DA1
:103B7000009721F1162F29A131E03093660320939D
:103B8000650310926D0310926C03DC01ED91FC91C2
:103B90000190F081E02D60E019958D8D9E8DDC0106
:103BA000ED91FC910190F081E02D612F19958D8DA3
:103BB0009E8DDF91CF911F910C94261CADA5BEA5C3
:103BC0009C918BA9809589238C938B8D9C8D892BBF
:103BD00031F0862FDF91CF911F910C949C1528E036
:103BE00030E080E8A9A5BAA599A9462F4823C1F0DD
:103BF0004C91942B9C93ABA5BCA59C914AA9942B6A
:103C00009C93ABA5BCA54C919AA9909594239C93A9
:103C100086952150310931F7DF91CF911F91089599
:103C20004C9190959423E6CF1F93CF93DF93EC01B3
:103C3000162F8D8D9E8D892BB1F12DA93EA94FA9EF
:103C400058AD60E074E284EF90E00E94B32F205101
:103C50003109410951095695479537952795209384
:103C6000B80066EA111167EACE010E94B21D8D8D7F
:103C70009E8D892B41F129AD3AAD4BAD5CAD60E035
:103C800074E284EF90E00E94B32F20513109410982
:103C9000510956954795379527952093B800DF91A0
:103CA000CF911F9108958B8D9C8D892B21F08EAD26
:103CB0009FAD0E94A315EFA5F8A990818CA98095CE
:103CC00089238083CECFEFA5F8A980819CA9892B79
:103CD0008083E5CF90E080E0089561E0FC01808181
:103CE0000C949D08FC0101900020E9F73197AF0189
:103CF000481B590BBC018BE594E00C94830E0E9489
:103D000071320F931F93CF93DF93EC0188819981D8
:103D1000009759F02A813B812617370730F081E060
:103D2000DF91CF911F910F9108958B016F5F7F4FAE
:103D30000E949031009759F0998388831B830A83EE
:103D40002C813D81232B59F7FC011082E8CF80E0C4
:103D5000E7CFFC01868197819C01295F3F4F37FFA8
:103D600002C0295F3F4F83E0359527958A95E1F79B
:103D700084819581289FA001299F500D389F500D67
:103D8000112470E060E0878D90A10C947F3285ED66
:103D90008093BC008091EB029091EC02A091ED0227
:103DA000B091EE020796A11DB11D23E0B695A7952F
:103DB000979587952A95D1F72091BC0024FD03C0E3
:103DC0001092340308954091EB025091EC026091FF
:103DD000ED027091EE02452B462B472B69F30097BD
:103DE000A105B10541F02AE22A95F1F700C001973B
:103DF000A109B109E1CF8091EA020C94801B1F92C6
:103E00000F920FB60F9211242F933F938F939F938E
:103E1000AF93BF938091760390917703A09178033D
:103E2000B09179033091750323E0230F2D3758F5B6
:103E30000196A11DB11D2093750380937603909385
:103E40007703A0937803B093790380917A039091DC
:103E50007B03A0917C03B0917D030196A11DB11D50
:103E600080937A0390937B03A0937C03B0937D03AC
:103E7000BF91AF919F918F913F912F910F900FBE66
:103E80000F901F90189526E8230F0296A11DB11DD3
:103E9000D2CF1F920F920FB60F9211240BB60F9232
:103EA0002F933F934F935F936F937F938F939F9342
:103EB000AF93BF93EF93FF93E0911802F091190233
:103EC0001995FF91EF91BF91AF919F918F917F9144
:103ED0006F915F914F913F912F910F900BBE0F907B
:103EE0000FBE0F901F9018951F920F920FB60F9252
:103EF00011240BB60F922F933F934F935F936F93C1
:103F00007F938F939F93AF93BF93EF93FF93E09132
:103F10001602F09117021995FF91EF91BF91AF91A1
:103F20009F918F917F916F915F914F913F912F91D1
:103F30000F900BBE0F900FBE0F901F9018951F9201
:103F40000F920FB60F9211240BB60F922F933F933F
:103F50004F935F936F937F938F939F93AF93BF9391
:103F6000EF93FF93E0910C02F0910D021995FF91F0
:103F7000EF91BF91AF919F918F917F916F915F91E1
:103F80004F913F912F910F900BBE0F900FBE0F904E
:103F90001F9018951F920F920FB60F9211240BB617
:103FA0000F922F933F934F935F936F937F938F93D2
:103FB0009F93AF93BF93EF93FF93E0910A02F09129
:103FC0000B021995FF91EF91BF91AF919F918F9146
:103FD0007F916F915F914F913F912F910F900BBE09
:103FE0000F900FBE0F901F9018951F920F920FB653
:103FF0000F9211240BB60F922F933F934F935F9321
:104000006F937F938F939F93AF93BF93EF93FF93A0
:10401000E0911402F09115021995FF91EF91BF9173
:10402000AF919F918F917F916F915F914F913F9150
:104030002F910F900BBE0F900FBE0F901F901895F1
:104040001F920F920FB60F9211240BB60F922F935F
:104050003F934F935F936F937F938F939F93AF9310
:10406000BF93EF93FF93E0911202F0911302199521
:10407000FF91EF91BF91AF919F918F917F916F9140
:104080005F914F913F912F910F900BBE0F900FBEFC
:104090000F901F9018951F920F920FB60F92112438
:1040A0000BB60F922F933F934F935F936F937F9332
:1040B0008F939F93AF93BF93EF93FF93E091100281
:1040C000F09111021995FF91EF91BF91AF919F91DE
:1040D0008F917F916F915F914F913F912F910F90B1
:1040E0000BBE0F900FBE0F901F9018951F920F924E
:1040F0000FB60F9211240BB60F922F933F934F934D
:104100005F936F937F938F939F93AF93BF93EF933F
:10411000FF93E0910E02F0910F021995FF91EF913C
:10412000BF91AF919F918F917F916F915F914F91CF
:104130003F912F910F900BBE0F900FBE0F901F90CD
:1041400018951F920F920FB60F9211240BB60F9273
:104150002F933F934F935F936F937F938F939F938F
:10416000AF93BF93EF93FF9380919203909193034A
:10417000A0919403B0919503892B8A2B8B2BE1F1AD
:1041800090918103E0918203F091830380818927DC
:1041900080838091920390919303A0919403B091B6
:1041A0009503181619061A061B069CF480919203B3
:1041B00090919303A0919403B09195030197A10965
:1041C000B1098093920390939303A0939403B093C7
:1041D0009503FF91EF91BF91AF919F918F917F9147
:1041E0006F915F914F913F912F910F900BBE0F9068
:1041F0000FBE0F901F90189580911A020E944B0AD3
:10420000E8CF1F920F920FB60F9211240BB60F92A8
:104210002F933F934F935F936F937F938F939F93CE
:10422000AF93BF93EF93FF938EEB93E00E94010F48
:10423000FF91EF91BF91AF919F918F917F916F917E
:104240005F914F913F912F910F900BBE0F900FBE3A
:104250000F901F9018951F920F920FB60F92112476
:104260000BB60F922F938F939F93EF93FF93E09151
:10427000CE03F091CF038081E091D403F091D50378
:1042800082FD1DC090818091D7038F5F8F73209135
:10429000D803821741F0E091D703F0E0E254FC4FDD
:1042A000958F8093D703FF91EF919F918F912F91DD
:1042B0000F900BBE0F900FBE0F901F90189580812E
:1042C000F2CF1F920F920FB60F9211240BB60F92DE
:1042D0002F933F934F935F936F937F938F939F930E
:1042E000AF93BF93EF93FF938BE594E00E94010F90
:1042F000FF91EF91BF91AF919F918F917F916F91BE
:104300005F914F913F912F910F900BBE0F900FBE79
:104310000F901F9018951F920F920FB60F921124B5
:104320000BB60F922F938F939F93EF93FF93E09190
:104330006B04F0916C048081E0917104F09172043F
:1043400082FD1DC09081809174048F5F8F732091D6
:104350007504821741F0E0917404F0E0E55AFB4FD8
:10436000958F80937404FF91EF919F918F912F917E
:104370000F900BBE0F900FBE0F901F90189580816D
:10438000F2CF1F920F920FB60F9211240BB60F921D
:104390002F933F934F935F936F937F938F939F934D
:1043A000AF93BF93EF93FF9348E251E064E271E073
:1043B00090E080E00E945311FF91EF91BF91AF9187
:1043C0009F918F917F916F915F914F913F912F912D
:1043D0000F900BBE0F900FBE0F901F9018951F925D
:1043E0000F920FB60F9211240BB60F922F933F939B
:1043F0004F935F936F937F938F939F93AF93BF93ED
:10440000EF93FF9348EA50E064EA70E083E090E0C5
:104410000E945311FF91EF91BF91AF919F918F91A6
:104420007F916F915F914F913F912F910F900BBEB4
:104430000F900FBE0F901F9018951F920F920FB6FE
:104440000F9211240BB60F922F933F934F935F93CC
:104450006F937F938F939F93AF93BF93EF93FF934C
:1044600048E950E064E970E082E090E00E94531176
:10447000FF91EF91BF91AF919F918F917F916F913C
:104480005F914F913F912F910F900BBE0F900FBEF8
:104490000F901F9018951F920F920FB60F92112434
:1044A0000BB60F922F933F934F935F936F937F932E
:1044B0008F939F93AF93BF93EF93FF9348E850E0A0
:1044C00064E870E081E090E00E945311FF91EF9169
:1044D000BF91AF919F918F917F916F915F914F911C
:1044E0003F912F910F900BBE0F900FBE0F901F901A
:1044F00018951F920F920FB60F9211240BB60F92C0
:104500004F925F926F927F928F929F92AF92BF92E3
:10451000CF92DF92EF92FF920F931F932F933F93CF
:104520004F935F936F937F938F939F93AF93BF93BB
:10453000CF93DF93EF93FF93C0915D03D0915E0320
:10454000CE01019790935E0380935D03209749F518
:104550001092700078948091B100887F836080937E
:10456000B1008AEF8093B3001092B40081E0809391
:10457000090280915F0390916003892B91F0709004
:10458000080280915B03882379F160915A036623C6
:1045900059F170E040E088EE93E00E9455121092CD
:1045A0005A03FF91EF91DF91CF91BF91AF919F910E
:1045B0008F917F916F915F914F913F912F911F91BB
:1045C0000F91FF90EF90DF90CF90BF90AF909F90B2
:1045D0008F907F906F905F904F900F900BBE0F90D9
:1045E0000FBE0F901F90189555245394F0ECAF2EEA
:1045F000FDE5BF2EAAE04A2EB4E06B2E10EDC12ED1
:1046000017E0D12E04E0E02EF12C04EF11E08FE052
:10461000882E912C0E940D1220915F03309160032F
:104620002F5F3F4F3093600320935F03853609F47B
:104630006FC00CF043C0813609F4B1C004F58C336F
:1046400009F464C08E3309F45FC0813209F03FC0C1
:1046500060920802D0920502C0920402F092070212
:10466000E09206021093030200930202909201026C
:104670008092000210925B03E4E07E2ECBCF833663
:1046800009F490C010E00BE0843614F010E002E072
:104690005CE0759E000D11240E940D12982F977FEB
:1046A000933209F081C080915F039091600301967D
:1046B0009093600380935F030F5FEECF8D3609F414
:1046C00042C054F4873651F134F18C3651F11092D6
:1046D000600310925F0365CF823709F449C044F448
:1046E0008F36A9F70E942D12782E8093080292CF60
:1046F000843709F440C0863751F70E942D129093F9
:1047000001028093000286CF739484CF7A9482CF83
:1047100010E004E0BDCF10E005E0BACF10E007E004
:10472000B7CF0E942D12BC0190930702809306021E
:1047300080910402909105020E943B307093030225
:104740006093020267CF0E940D128C3661F41092C2
:104750005B0380915F0390916003019690936003E7
:1047600080935F0357CF50925B0310925A03F1CFAF
:1047700011E000E08DCF0E942D12BC01C5010E9406
:104780003B30469EC001479E900D11249093050238
:10479000809304026091060270910702CDCF10E071
:1047A00009E076CF10E0E5CF8D3269F480915F03A8
:1047B0009091600301969093600380935F03015092
:1047C0000E940D12F1CF8153E0900202F09003029B
:1047D000883058F4E0900402F09005020E942D12F7
:1047E000BC01C7010E943B307B016701D694C7948E
:1047F0000E940D128E3261F480915F0390916003EC
:1048000001969093600380935F03EC0CFD1CEECF48
:1048100080915B03882339F0C70196958795809333
:104820005A03E81AF10840910002111104C00F3F29
:1048300011F0411107C040E0B70188EE93E00E94FB
:104840005512AFCE013128F010EF100F103608F0DE
:104850001FE5812F6CE00E942F30682F54EF560324
:1048600090011124210F311D2C30310538F4220F15
:10487000331FF901EF5DFD4FC081D1818730B9F061
:10488000082E02C0CC0FDD1F0A94E2F7823040F000
:10489000CE0105966AE070E00E943B30CB0102C079
:1048A000CE019058403108F04FE0B701C8CFCE019B
:1048B00026E0880F991F2A95E1F7029665E070E0DF
:1048C000EBCF1F920F920FB60F9211240BB60F92DF
:1048D0002F933F934F935F936F937F938F939F9308
:1048E000AF93BF93EF93FF938091B900887F803699
:1048F00009F44DC008F040C0883209F4A9C028F579
:10490000803109F49DC0C8F4882309F4FBC08830C5
:1049100009F496C0FF91EF91BF91AF919F918F9154
:104920007F916F915F914F913F912F910F900BBEAF
:104930000F900FBE0F901F901895883109F488C012
:10494000803241F78093330314C0803409F49DC052
:1049500040F48033B9F38833E9F68093330385EC70
:10496000B0C0803509F485C0883509F496C0883414
:1049700089F60E94C71ECECF883909F48CC038F55D
:10498000883729F050F4883611F0803719F683E023
:10499000809334031092320357C0883809F47BC0E7
:1049A000803919F0803809F0B5CF80913203803218
:1049B00008F071C0E091320381E08E0F80933203E2
:1049C0008091BB00F0E0EE5EFC4F80833DC0803BF9
:1049D00039F0E0F4803A09F479C0883A09F09ACFC6
:1049E00084E0809334031092110310921003E0913D
:1049F0006A03F0916B0319958091100381110FC028
:104A000081E0809310031092F00209C0803C09F409
:104A1000A6CF883C09F4A3CF883B09F07BCFE09177
:104A2000110381E08E0F80931103F0E0E051FD4F00
:104A300080818093BB00909111038091100329C065
:104A4000809159038093BB0085EC8093BC0062CFBA
:104A50009091580380915703981758F5E0915803A7
:104A600081E08E0F80935803F0E0E95CFC4F808179
:104A7000E9CFE091580381E08E0F80935803809135
:104A8000BB00F0E0E95CFC4F80839091580380917B
:104A900057039817C8F285E8D8CFE091580381E012
:104AA0008E0F809358038091BB00F0E0E95CFC4FCF
:104AB00080838091360381115CCF81E08093350340
:104AC00084EA8093BC001092340324CF85EC809359
:104AD000BC001092340380913203803230F4E091B4
:104AE0003203F0E0EE5EFC4F10826091320370E022
:104AF000E0916803F091690382E193E019951092C7
:104B0000320308CF1092330334CF1092C1031092B6
:104B1000C00388EE93E0A0E0B0E08093C2039093DE
:104B2000C303A093C403B093C50329E732E03093D5
:104B3000BF032093BE0345E351E05093CB03409362
:104B4000CA0344E351E05093CD034093CC0340E3C8
:104B500051E05093CF034093CE0341E351E0509393
:104B6000D1034093D00342E351E05093D3034093E9
:104B7000D20346E351E05093D5034093D4031092FF
:104B8000D7031092D8031092D9031092DA0310922F
:104B90005E0410925D0480935F0490936004A09380
:104BA0006104B093620430935C0420935B0425ECB1
:104BB00030E0309368042093670424EC30E03093B5
:104BC0006A042093690420EC30E030936C04209355
:104BD0006B0421EC30E030936E0420936D0422ECE2
:104BE00030E03093700420936F0426EC30E0309373
:104BF0007204209371041092740410927504109240
:104C00007604109277041092FB041092FA048093B9
:104C1000FC049093FD04A093FE04B093FF048BE882
:104C200092E09093F9048093F80481E380933C062A
:104C300084E690E0A0E0B0E080933D0690933E06CD
:104C4000A0933F06B0934006109241061092420690
:104C500010924306109244061092450610924606A2
:104C60002FE22093310610923206109233061092F2
:104C700034061092350610923606109237061092BE
:104C800038061092390610923A0610923B062DE231
:104C900020932606109227061092280610922906C5
:104CA00010922A0610922B0610922C0610922D06B6
:104CB00010922E0610922F06109230062BE22093AF
:104CC0001B0680931C0690931D06A0931E06B093AE
:104CD0001F061092200610922106109222061092B2
:104CE0002306109224061092250629E2209310062E
:104CF00010921106109212061092130610921406CA
:104D000010921506109216061092170610921806A9
:104D10001092190610921A0627E2209305061092A7
:104D200006061092070610920806109209061092C5
:104D30000A0610920B0610920C0610920D061092A5
:104D40000E0610920F0625E22093FA058093FB05CC
:104D50009093FC05A093FD05B093FE051092FF050E
:104D6000109200061092010610920206109203069D
:104D70001092040623E22093EF051092F0051092A2
:104D8000F1051092F2051092F3051092F4051092BD
:104D9000F5051092F6051092F7051092F80510929D
:104DA000F90521E22093E4051092E5051092E6054D
:104DB0001092E7051092E8051092E9051092EA05B5
:104DC0001092EB051092EC051092ED051092EE0595
:104DD0002FE12093D9058093DA059093DB05A0930A
:104DE000DC05B093DD051092DE051092DF05109210
:104DF000E0051092E1051092E2051092E3058DE1C5
:104E00008093CE051092CF051092D0051092D10557
:104E10001092D2051092D3051092D4051092D505A8
:104E20001092D6051092D7051092D8058BE1809389
:104E3000C3051092C4051092C5051092C6051092C4
:104E4000C7051092C8051092C9051092CA051092A4
:104E5000CB051092CC051092CD058BE090E090939D
:104E6000BB058093BA0589E090E09093BD058093DF
:104E7000BC058AE090E09093BF058093BE058091C9
:104E80009405803308F08CC091E0980F90939405BE
:104E90008093C00590E0FC01EE0FFF1FE80FF91FA3
:104EA000EC5FFA4F88EB9BE0928381831092B90507
:104EB0001092B80560E089E00E949D0861E0809151
:104EC000BA050E949D0860E08091BA050E946F08B3
:104ED0008CE08093AD051092AF051092AE05109254
:104EE000B1051092B0051092B3051092B205109260
:104EF000B4051092B5051092B6051092B70583ED72
:104F00009CE09093A6058093A5058AE490E0909399
:104F1000A8058093A7058AE790E09093AA0580935F
:104F2000A9058FEA97E09093AC058093AB058CE3DD
:104F30008093980580E48093990580939A05109258
:104F40009B0510929C0580E890E090939E058093CD
:104F50009D0580E490E09093A00580939F058FEFDE
:104F60009FEF9093A2058093A1051092A405109243
:104F7000A305809194058033B8F491E0980F909345
:104F800094058093950590E0FC01EE0FFF1FE80F5C
:104F9000F91FEC5FFA4F88EB9BE0928381830895C1
:104FA0008FEF8093C00582CF8FEF80939505089592
:104FB000CF93DF93CDB7DEB7A3970FB6F894DEBFDC
:104FC0000FBECDBF789484B5826084BD84B5816006
:104FD00084BD85B5826085BD85B5816085BD8091C4
:104FE0006E00816080936E0010928100809181003C
:104FF0008260809381008091810081608093810034
:10500000809180008160809380008091B1008460F5
:105010008093B1008091B00081608093B000809156
:1050200091008260809391008091910081608093D3
:105030009100809190008160809390008091A10008
:1050400082608093A1008091A10081608093A10083
:105050008091A00081608093A000809121018260F6
:1050600080932101809121018160809321018091B1
:10507000200181608093200180917A008460809378
:105080007A0080917A00826080937A0080917A0021
:10509000816080937A0080917A00806880937A00A2
:1050A0001092C10080E490E00E946B306C0150913E
:1050B000A10520919F053091A005332780919D0582
:1050C00090919E059927D60113961C921E921297D5
:1050D00015969C938E93149717963C932E93169740
:1050E00019969C938E9318971B963C932E931A9720
:1050F00056961C9256971D961C921E921C971F96B0
:105100001C921E921E9741E055964C9355975496CB
:105110004C9354976FEF7FEF53967C936E93529717
:1051200051967C936E93509757964C9357975896F9
:105130001C9258975A961C921E9259976DE472E0F1
:1051400011967C936E935C961C921E925B9768EF0F
:1051500074E05E967C936E935D974FEF94964C93BC
:10516000949795964C93959796964C939697979679
:105170004C93979798965C93989740E85AE166E02D
:1051800070E0F60145AB56AB67AB70AF40EA56E84E
:1051900061E070E0D9964D935D936D937C93DC97BD
:1051A00040E5DE964C93DE97DF961C92D092A405E4
:1051B000C092A305B0909805295F3F4F43E0359515
:1051C00027954A95E1F7FC012E9FC0012F9F900D76
:1051D0003E9F900D11240E946B30D60190969C93B7
:1051E0008E935F97892B09F40FC1C6010E94A91EF7
:1051F000F6018681978164817581AC0181970CF4F9
:10520000AEC14054510957FF02C04F5F5F4F5595E3
:1052100047956255710977FF02C06F5F7F4F7595A3
:10522000679510E4E12EF12C02E510E022EF38E062
:10523000C6010E94590782E0D60192968C939297FC
:105240005D968D919C915E97892B09F4A2C18B2D5F
:10525000B11007C016968D919C91809709F097C167
:105260008CE3F60181A310926F0310926E031092EB
:105270006D0310926C030E94621B88E49AE0909385
:105280006B0380936A0389E49AE0909369038093A7
:105290006803D60198968C9187FD1FC061E00E943B
:1052A0009D0861E0F60180A50E946F0861E070E052
:1052B00080E090E00E94F60960E0D60198968C911B
:1052C0000E946F086AE070E080E090E00E94F609BA
:1052D00061E0F60180A50E946F08D6015D968D9170
:1052E0009C915E97892B09F418C2D5962D913D911A
:1052F0004D915C91D89760E074E284EF90E00E9459
:10530000B32F2051310941095109569547953795D9
:1053100027952093B80044E06EE077E0C6010E9434
:105320000D1DF60166816150C6010E94B21D44E068
:105330006AE077E0C6010E940D1DD60192968C911D
:1053400060E1813009F064E1C6010E94B21D44E0D1
:1053500066E077E0C6010E940D1D8FE8F60185AF7B
:10536000848195818038910509F0ECC1868197810F
:105370008034910509F0F4C182A1813009F000C2A6
:105380008FE9D601DD968C9312E16AEDC6010E9489
:10539000B21D612FC6010E94B21D61E8C6010E94C4
:1053A000B21DF60165ADC6010E94B21D69EDC601D0
:1053B0000E94B21DD60192968C9162E2813009F072
:1053C00061EFC6010E94B21D46E060E077E0C601D1
:1053D0000E940D1DF601858D968D892B09F4D2C191
:1053E00021AD32AD43AD54AD60E074E284EF90E0A6
:1053F0000E94B32F20513109410951095695479513
:10540000379527952093B8008091A3059091A40526
:105410000E94A91EC090A305D090A405F601858D19
:10542000968D892B09F4B8C125A936A947A950AD95
:1054300060E074E284EF90E00E94B32F20513109C4
:105440004109510956954795379527952093B800FE
:1054500044E06CEF76E0C6010E940D1DF6018481E8
:1054600095818034910509F0ABC160E2C6010E94CC
:10547000B21DD60114966C91615EC6010E94B21DE8
:10548000D60116962D913C91C901079697FD079676
:1054900023E0959587952A95E1F7F60124813581DA
:1054A000829F8001839F100D929F100D1124A78C65
:1054B000B0A0858D968D0A0D1B1D009709F40DC3B4
:1054C00021A131E0309366032093650310926D03B0
:1054D00010926C03DC01ED91FC910190F081E02DC4
:1054E00060E41995EE24E394F12C77247394F6018B
:1054F000858D968D0A151B0509F46AC1F0E2EF1639
:10550000F104E0F00E94261CD6015D968D919C91DD
:105510005E9791962C91709266032093650310928A
:105520006D0310926C03DC01ED91FC910190F08110
:10553000E02D60E41995EE24E394F12CF601858DBD
:10554000968DD5016D915D01DC01ED91FC9101908D
:10555000F081E02D1995BFEFEB1AFB0AC8CF40523E
:10556000510957FF02C04F5F5F4F559547956357ED
:10557000710977FF02C06F5F7F4F75956795F0E205
:10558000EF2EF12C03E710E022E137E051CE8DE35E
:1055900068CE61E096968C910E949D0861E0F601CC
:1055A00087A10E949D08D60196968C919697082E09
:1055B000000C990BFC01E457F34FE491F0E0EE0F7F
:1055C000FF1FEE58F34F25913491F60136A725A71A
:1055D000FC01E45DF34FE491D396EC93D397979657
:1055E0008C91082E000C990BFC01E457F34FE491C9
:1055F000F0E0EE0FFF1FEE58F34FA591B491F601C6
:10560000B0ABA7A7FC01E45DF34F9491F60194AB16
:105610008C91E92FE82BEC93D6015B968D919C91B0
:10562000892B09F434C01FB7F89480916703811166
:1056300027C0E1ECFCE08491E1E6FCE09491E82FE6
:10564000F0E0EE0FFF1FEE54F44FA591B491EC91F2
:10565000E92321F461E085E30E946F0861E085E3BE
:105660000E949D088CB580618CBD8CB580648CBD1A
:1056700061E084E30E949D0861E083E30E949D084D
:10568000809167038F5F809367031FBF02CE61E045
:10569000F60184A10E949D0861E0D60195968C9147
:1056A0000E949D08F60184A1082E000C990BFC01B4
:1056B000E457F34FE491F0E0EE0FFF1FEE58F34F85
:1056C00025913491D6019A963C932E939997FC019B
:1056D000E45DF34FE491D196EC93D19795968C913C
:1056E000082E000C990BFC01E457F34FE491F0E015
:1056F000EE0FFF1FEE58F34FA591B491F601B4A73A
:10570000A3A7FC01E45DF34F9491F60192AB8C9159
:10571000E92FE095E823EC93BCCDF601838D948DC1
:10572000892B21F086AD97AD0E94A315D6019F96D7
:10573000ED91FC91D0979081D4968C91809589239E
:105740008083E9CD8036910579F4868197814097F1
:1057500039F482A1813031F480E1D601DD968C9359
:1057600012E013CE8FEAF9CF80349105C9F7868114
:1057700097818097A9F782A1813011F480E101CE51
:105780008FECFFCDD60107A4F0A9E02D8081D4963F
:105790009C91892B808338CE838D948D892B21F029
:1057A00086AD97AD0E94A315D6019F96ED91FC9111
:1057B000D0979081D4968C9180958923808348CE10
:1057C00060E0C6010E94B21DF6016481615055CEB1
:1057D0000E94261CF601858D968D892B09F4C4C183
:1057E00021AD32AD43AD54AD60E074E284EF90E0A2
:1057F0000E94B32F2051310941095109569547950F
:10580000379527952093B80010929F0310929E031E
:105810001092A1031092A0031092AF031092AE0356
:1058200061E08091AD050E949D082091A90530910D
:10583000AA05032E000C440B550B60E879EA83E0BF
:1058400090E00E94812F3093AC052093AB0510921D
:10585000AF051092AE0561E084E00E949D0861E012
:1058600085E00E949D0861E080E20E949D0861E061
:1058700082E20E949D0861E08EE10E949D0861E045
:1058800084E20E949D0862E088E00E949D0862E038
:1058900087E00E949D0862E086E00E949D088BE1FF
:1058A00096E00E946D1E8CE396E00E946D1E8AEFCA
:1058B00095E00E946D1E89ED95E00E946D1E81E3CA
:1058C00096E00E946D1E86E296E00E946D1E80E1C9
:1058D00096E00E946D1E85E096E00E946D1E84EEAB
:1058E00095E00E946D1E83EC95E00E946D1E8FEE88
:1058F00095E00E946D1E8EEC95E00E946D1E62E0A8
:1059000082E00E949D0862E082E10E949D0884E39B
:105910009AE090930B0280930A0280916A008C7F38
:10592000826080936A00EC9A8EE39AE0909315026D
:1059300080931402809169008F738068809369005E
:10594000EB9A8BE594E00E9432078EEB93E00E9485
:10595000320789E992E00E94721E82EA92E00E9478
:10596000721E80919505803308F052C061E084E09A
:105970000E949D0880919505282F30E0F901EE0FD7
:10598000FF1FE20FF31FEC5FFA4F9081907C946051
:10599000908310929605109297052CE0622F0E943A
:1059A0002F30829FB001112430E020E0AB01420F84
:1059B000531FFA01EE0FFF1FE40FF51FEC5FFA4FC4
:1059C000908196FD17C02F5F3F4F2C30310571F746
:1059D000813009F0D3C01092800082E08093810072
:1059E0001092850010928400B19A80916F008260BD
:1059F00080936F00E09195058E2F90E0FC01EE0FF3
:105A0000FF1FE80FF91FEC5FFA4F808180648083ED
:105A100066E470E085E995E00E94BD0F80919505F0
:105A200090919605A09197058093C0059093C1052C
:105A3000A093C20581E3B82EC12CD12C90E8E92EA9
:105A40009FEBF92EAA24A3948EEB93E00E94E10E23
:105A5000892B09F4CDC01A8219821C821B821E82F6
:105A60001D8270E060E0CE0101960E94811E2981B6
:105A70003A818111AFC02115310519F0C9010E9489
:105A800007311A8219821E821D821C821B828EEBB4
:105A900093E00E94E10E892B09F4A4C08EEB93E001
:105AA0000E94BF0E8AA31BA20D811E810F5F1F4F94
:105AB000B801CE0101960E94811E882341F32981FD
:105AC0003A818D819E81BE016E5D7F4F820F931F53
:105AD0000E9486321E830D83DACFD60105A4F6A577
